:100000000C94FB030C9418040C9418040C9418041E
:100010000C9418040C9418040C9418040C941804F0
:100020000C9418040C9418040C946A2B0C94422C15
:100030000C94490E0C9418040C9418040C94180495
:100040000C9418040C9418040C9418040C941804C0
:100050000C9418040C94462B0C9418040C9418045B
:100060000C9418040C9418040C9418040C941804A0
:100070000C9418040C9418040C9418040C94180490
:100080000C9418040C9418040C9418040C94180480
:100090000C9418040C9418040C9418040C94180470
:1000A0000C9418040C9418040C941804050109020B
:1000B000A10185020901A100050919012905150001
:1000C00025019505750181029501750381010501E1
:1000D000093009311581257F950275088106093897
:1000E0001581257F950175088106050C0A380215D2
:1000F00081257F950175088106C0C005010980A191
:1001000001850319012AB700150126B7009501756D
:10011000108100C0050C0901A101850419012AA064
:1001200002150126A002950175108100C005010984
:1001300006A1018506050719E029E71500250195A7
:1001400008750181020507190029EF1500250195A1
:10015000F0750181020508190129059505750191C0
:1001600002950175039101C00660FF0961A10109B3
:1001700062150026FF0095207508810209631500AD
:1001800026FF00952075089102C005010906A1010E
:10019000050719E029E71500250195087501810279
:1001A0009501750881010507190029FF150026FF33
:1001B0000095067508810005081901290595057542
:1001C000019102950175039101C00000000000003B
:1001D000000000000000000000000000000000001F
:1001E00000000000000000000000000000007E0F82
:1001F00000D4FFFFFFC700000078000000000000EF
:1002000000002A2B28000000000000000000000071
:10021000000000000029000000002C1E34202122D4
:1002200024342627252E362D3738271E1F2021223D
:10023000232425263333362E37381F0405060708B6
:10024000090A0B0C0D0E0F101112131415161718A6
:10025000191A1B1C1D2F3130232D350405060708E4
:10026000090A0B0C0D0E0F10111213141516171886
:10027000191A1B1C1D2F3130354C09025B0003017C
:1002800000A0FA0904000001030101000921110185
:100290000001224000070581030800010904010054
:1002A00002030000000921110100012222000705BC
:1002B0008203200001070503032000010904020056
:1002C000010300000009211101000122BC00070503
:1002D0008403200001120100020000000809122816
:1002E000230100010203011C037600690061006C18
:1002F000003A0066003600340063003200620033CA
:10030000006300000012034500720067006F006484
:10031000006F006E006500000012034B002E0054B9
:10032000002E0045002E0043002E000000040309AB
:10033000042E001E001F00200021002200E300E721
:1003400000230024002500260027002D002B001488
:10035000001A00080015001700005002501C001879
:10036000000C0012001300310029000400160007E1
:100370000009000A00000000000B000D000E000F35
:100380000033003400E1001D001B000600190005C9
:10039000000150490011001000360037003800E518
:1003A00000AC5D3500390050004F00000000000037
:1003B000000000520051002F003000650000004D89
:1003C000004C002A004A00E000E200E600E4004B96
:1003D000002C0028004E0000003A003B003C003D8D
:1003E000003E003F00010001004000410042004388
:1003F0000044004500010054005F006000610057A8
:1004000000010001000100010001000100010001E4
:1004100000010055005C005D005E008500000000EA
:10042000005000510052004F000100010001005631
:100430000059005A005B0067000100010068006974
:10044000006A006B006C00010001000100620063A3
:100450000058000000000000000000010001000141
:100460000001000100000001000100010001000185
:100470000001000100010001000100010001000075
:100480000001000100010001000100010001000164
:10049000000100010001000100010001000100F75E
:1004A00000F600F500F400F8000100010001000171
:1004B00000010001000100010001000100FB00F942
:1004C00000FA00FC0000000000F200F100F000F370
:1004D0000001000100010001000100010001000114
:1004E0000001000100B15DB25D01000100010001E9
:1004F00000010001000100010001000000000000F7
:1005000000000001000100010001000100000001E5
:1005100000010001000100010001000100010001D3
:1005200000010001000100000001000100D702C726
:100530000DDD0D000002000200D302C70DDD0D002D
:100540000003000100D802C70DDD0D000004000209
:1005500000BD02C70DDD0D850805000100D902C7E9
:100560000DDD0D000006000200BF02C70DDD0D000D
:100570000007000200D502C70DDD0D0000080001D4
:1005800000DA02C70DDD0D000009000200C102C73C
:100590000DDD0D8E080A000200C302C70DDD0D8EB1
:1005A000080B000200C502C70DDD0D8E080C00020D
:1005B00000C702C70DDD0D8E080D000200C902C77D
:1005C0000DDD0D8E080E000200CB02C70DDD0D8E75
:1005D000080F000200CD02C70DDD0D8E08100002CD
:1005E00000CF02C70DDD0D8E0811000200D102C739
:1005F0000DDD0D8E0812000200DB02C70DDD0D00BF
:100600000013000200DD02C70DDD0D000014000123
:1006100000DF02C70DDD0D0000150000000000B373
:100620000829120000FD377A585A000004E6D6B4B3
:10063000460200210116000000742FE5A3E00633F6
:10064000018D5D003D8889C65436C3174FE4DDF740
:10065000CB002F37A698544F5FD60C27C0C0ECF1C3
:100660001F33039267A8E82D812438F73361315195
:1006700069F456643751784F7D3E740DDA4F9344D8
:100680008384E9968240A04F6F0289581905D833B8
:100690009D2791263D15B9E5074207DA7690D7E404
:1006A000A3757E036F4BF0AE7A87A3F6F13B1ECDA8
:1006B000FC60E82A9CCEB83CD8B3B27FE78FE060FC
:1006C000A8B8947D7573167E3FEA2FA43A297E85DB
:1006D00067E6A3B301281FDEA77B418018D821A8B5
:1006E000AEC34B26DA993D92F5B3EBF9B8CA19952A
:1006F0002B38D7D4B1FF7A6CD3EC5CA550D1950BD5
:10070000F577FEFDAE8161254C39CD6171AB931457
:100710000BCB45410A9E2FBAD94259A93262AAC7CA
:10072000FAC75CDEEDE58B0E552AA033AE312C9A6C
:100730009DF1186E9721957E19F0DAC78F1A8435CE
:100740000CDC64DE323E7AC69227304441A84393E3
:100750009D58D18AA9FB996230462DE3053CB288A9
:100760004F39380E89A7303A3A61CA368B1ABF958D
:100770000CD4C4D32CB0AC5BC255B0EF9E7C958D2D
:10078000A5336039D9B888303012EC7D2A1359244A
:100790004D84CFD79753EF01EA16ED0A162FCEA35B
:1007A000483E406A1BF5D5549076B7815AF004BA9A
:1007B000E892DC2909A9D9414219C4AC9F524D36AF
:1007C0009AF47C333C01E0CE3B944063CABC50F5C4
:1007D000000000000010DE89930E639E180001A93E
:1007E00003B40C000082CEEC21B1C467FB02000010
:1007F000000004595A0011241FBECFEFDAE0DEBF1B
:10080000CDBF11E0A0E0B1E0E8E7FEE502C0059051
:100810000D92A236B107D9F722E0A2E6B1E001C0FD
:100820001D92A63EB207E1F70E9484240C94CC2EC0
:100830000C940000259A2D980895269A2E980895D4
:10084000239A2B980895559A5D9A08959C01FB016F
:100850009A9581159F4120F5D901AA27B270832F5F
:100860008170B90166277470A9014427587034FF5C
:100870000DC08295807FAB2B09F08062672B09F059
:100880008064452B09F0806809950895AB2B09F029
:100890008260672B09F08460452BB1F38860F4CF48
:1008A00080E0F2CF829594E0899F900111242C7C06
:1008B000869586958373282B30E0C901880F991F90
:1008C0008A7A359527952575822B089580FF08C073
:1008D0002D9A81FF07C02E9A82FF06C02B9A089599
:1008E0002D98F7CF2E98F8CF2B980895282F929512
:1008F0009F70963091F060F4925F9F70923030F468
:1009000081E0203F79F030F4283E30F080E0089517
:100910009A5FF3CF243FD1F7089581E0283EE0F3BA
:10092000213FF9CF0895292F963098F58E3088F51C
:1009300090E03EE0239F800D911D1124282F277009
:1009400041E001C0440F2A95EAF723E09695879588
:100950002A95E1F7FC01EE0FFF1FE80FF91FEF5B8F
:10096000FD4F20E030E070E05191DF011197CB01A5
:10097000022E02C0969587950A94E2F781708195C0
:100980008527842385278C932F5F3F4F23303105A4
:1009900059F70895292F963078F58E3068F590E054
:1009A0003EE0239F800D911D1124682F677023E086
:1009B000969587952A95E1F7FC01EE0FFF1FE80F4A
:1009C000F91FEF5BFD4F40E050E080E0219130E007
:1009D000062E02C0369527950A94E2F72170332738
:1009E000042E01C0220F0A94EAF7822B4F5F5F4F5B
:1009F0004330510559F7089580E0089580918602AB
:100A000090918502981301C008958F5F8770FACF87
:100A1000909116019923E1F09091E10297FF18C09F
:100A2000E82FE695E695E695803FF0F4F0E0EC5986
:100A3000FE4F877021E030E0A90102C0440F551F2E
:100A40008A95E2F7CA01809592818923828308956D
:100A5000E6E6F1E09191891303C0DF0111971C9242
:100A600051E0EC36F507B1F70895982F90958091F5
:100A70007D02892380937D02089580917C028823E2
:100A800031F010927C021092400210923F020895C1
:100A90009091E10292FF06C0282F28712830F9F4C6
:100AA000877F846093FF06C0282F28712831F1F4D6
:100AB000877E84612091E20220FF06C0382F3871C2
:100AC0003830D9F4877F816021FF06C0282F287134
:100AD0002831D1F4877E816194FD877E0895282F87
:100AE00024712430F9F68B7F8860DCCF282F2471A5
:100AF000243101F78B7E8861DDCF382F31713130A1
:100B000019F78E7F8860E0CF282F2171213121F7DE
:100B10008E7E8861E1CFCF93DF93EC01803E91051B
:100B200009F472C090F58133910509F4B8C088F4D6
:100B30008932910509F4A8C08A32910509F4B6C03A
:100B4000019709F472C0CE010497813A9105D0F45F
:100B50006CC08933910509F44BC08238910509F4C2
:100B600047C08533910509F48AC0883A910530F46D
:100B7000853A910540F3A497D06457C08F3B910507
:100B800008F403C1C0E0D0E050C0843E910509F4F0
:100B90005BC070F4823E910509F443C0833E910529
:100BA00009F447C0C03FD10508F487C0D0653DC0F7
:100BB000863E910509F453C0873E910509F454C05F
:100BC000811523E5920708F090C0811542E594074E
:100BD00008F0FBC08F3F910529F320F3811551E503
:100BE000950708F46FC0D82FCC27C16FD06A1DC0FD
:100BF0008091E1028370811118C18091E20283FF2C
:100C000014C0C9E2D0E011C08091E10280FD44C06F
:100C10009091E20290FF09C0C3EED0E084FDB2CF14
:100C200004C08091E10282FDF7CFCE01DF91CF9128
:100C300008958091E10282FDF5C09091E20290FD5D
:100C4000F4C084FFF2CF9ECF8091E20281FFEDCF0E
:100C50008091E102C7EED0E084FD94CFE6CF809191
:100C6000E10283FDF7CFE1CF8091E10283FDE0C097
:100C70009091E20291FFE5CFC4EED0E0D6CF809113
:100C8000E10285FFD2CFBDCF8091E10285FDD3C0C7
:100C90008091E20283FFC9CFC9E3D0E0C6CF809143
:100CA000E10286FFC2CFCAE2D0E0BFCF8091E1026D
:100CB00086FFBBCFC1E3D0E0B8CFCE01805E910903
:100CC000079745CF811560E5960708F069C0C11503
:100CD00080E2D80708F4A9CFCE0190548115904145
:100CE00008F050CFDF70D06AA0CF811549E5940796
:100CF000A8F5811558E5950708F081C0811565E5CF
:100D00009607D8F4C11584E5D80708F073C08C2F76
:100D10008695869520E2829FC0011124C370DD274D
:100D200021E030E0A90102C0440F551FCA95E2F747
:100D3000EA01C82BD92BDA6878CF95558F3F9105FA
:100D400011F008F01FCF8C2F0E944805C82FD0E06B
:100D5000DC2FCC27CC27DF71D06267CFC1158AE5A5
:100D6000D80708F451C0CE0190568115904208F082
:100D700009CF8D2F8F710E94480590E0982F88270A
:100D800088279F718C2BEC01E7CFC85AD0E0CC0F9D
:100D9000DD1FCC5CDE4F0990D881C02DD46445CFD7
:100DA00086958695837040E2849FC0011124C370AC
:100DB00021E030E0A90102C0440F551FCA95E2F7B7
:100DC000EA01C82BD92BDD6830CF8695869550E295
:100DD000859FC0011124C370DD2721E030E0A90107
:100DE00002C0440F551FCA95E2F7EA01C82BD92B60
:100DF000DC681BCFDC2FCC27C46FD06A16CFD82F6E
:100E0000CC27C06FD06A11CF8C2F8F700E944805FD
:100E100034E0D695C7953A95E1F7CF709C2FEC0159
:100E2000D06903CFC2EED0E000CFC0EED0E0FDCE5F
:100E3000C6EED0E0FACEC5E3D0E0F7CE80E008956C
:100E4000809162026091C5027091C60280FF16C057
:100E500020910301269FC001279F900D1124BC0102
:100E600076956795769567956038710508F044C06A
:100E70006115710509F442C0862F089581FF0BC0EA
:100E800020910301269FC001279F900D1124BC01D2
:100E900076956795E9CF82FF09C0809103019B0198
:100EA000829FB001839F700D1124DECF8091640278
:100EB0008823D1F2909102012091030130E089173B
:100EC00048F0CB01829FB001839F700D929F700DFF
:100ED0001124CACF829FA001839F500D1124469FE9
:100EE0009001479F300D569F300D1124692F70E0FF
:100EF000C9010E94F82DB8CF8FE7089581E00895C9
:100F00008091620280FF0CC06091010170E07595D4
:100F10006795759567956115710561F1862F08953F
:100F200081FF06C06091010170E075956795F3CF70
:100F30006091010170E082FD15C0209163022223BF
:100F4000B1F0909100016091010170E0291750F417
:100F5000269FA001279F500D1124692F70E0CA0120
:100F60000E94432E60387105B0F28FE7089561E06A
:100F700070E0D4CF81E00895E0E1E80F803F08F40D
:100F800044C0F0E0E253F14D0C94572E0E9420072C
:100F900081958093680208950E942007FACF0E94ED
:100FA000200781958093670208950E942007FACF59
:100FB0000E9480078093690208950E9480078195AE
:100FC000F9CF0E948007819580936A0208950E945C
:100FD0008007FACF8091660281608093660208954F
:100FE000809166028260F9CF809166028460F5CFBD
:100FF000809166028860F1CF809166028061EDCFBA
:101000008091620281608093620208958091620201
:101010008260F9CF809162028460F5CF20916902ED
:1010200090916A024091680230916702803FB1F46A
:1010300047FD109268028091670290916802892BA7
:10104000811102C0109264028091690290916A023B
:10105000892B811102C0109263020895813F19F417
:1010600014163CF3E8CF823F29F437FFE4CF109207
:101070006702E1CF833F19F41316CCF3DCCF893F2D
:1010800029F41216C4F610926902D5CF8A3F19F4DA
:1010900027FFD1CFF8CF8B3F29F497FFCCCF109209
:1010A0006A02C9CF8C3F19F41916CCF3C4CFECE017
:1010B000E80F843F08F4BFCFF0E0E252F14D0C940A
:1010C000572E809166028E7F80936602B4CF809106
:1010D00066028D7FF9CF809166028B7FF5CF80917C
:1010E0006602877FF1CF809166028F7EEDCF80917F
:1010F00062028E7F809362029ECF809162028D7F1A
:10110000F9CF809162028B7FF5CF8091BD029091E3
:10111000BE0290931101809310010895EDEBF2E06F
:10112000848195812AE030E0B9010E94F82D609316
:101130001401868180931501828580930301848543
:101140008093020186859785B9010E94F82D6093EE
:10115000120180898093130182898093010184891F
:10116000809300010895A0E0B0E0E9EBF8E00C9472
:10117000122EFB018FEF9FEF4430510508F465C03C
:101180004091E10241FB882780F990E0880F991F88
:1011900042FBAA24A0F8B12CAA0CBB1CAA0CBB1CB5
:1011A0008A299B2940FB882480F8912C8829992939
:1011B00043FBCC24C0F8D12C53E0CC0CDD1C5A9559
:1011C000E1F78C299D2944FBEE24E0F8F12C64E042
:1011D000EE0CFF1C6A95E1F78E299F2945FB00273D
:1011E00000F910E075E0000F111F7A95E1F7802BF0
:1011F000912B46FB222720F9C22F20E0D22FA6E018
:10120000CC0FDD1FAA95E1F78C2B9D2B47FB4427C4
:1012100040F920E8429FA0011124842B952B2091B6
:10122000E202322F3170932B26952170B22FBB0F23
:10123000A0E08A2B9B2B092E000CAA0BBB0B8083F2
:101240009183A283B38380E090E0CDB7DEB7ECE07A
:101250000C942E2EAC0123E0969587952A95E1F704
:101260008E719927FC01ED53FE4F0190F081E02D26
:101270004F70552721E030E002C0220F331F4A95FE
:10128000E2F7662341F0E22BF32B8D539E4FDC01F6
:10129000ED93FC93089520953095E223F323F5CF49
:1012A000E0911D02F0911E02309729F00190F0812B
:1012B000E02D0995089580E008952091C1013091B5
:1012C000C2012817390771F09093C2018093C101C0
:1012D000E0911D02F0911E02309721F00680F78107
:1012E000E02D099508952091BF013091C001281784
:1012F000390771F09093C0018093BF01E0911D0206
:10130000F0911E02309721F00084F185E02D0995BF
:1013100008959C01809116018823C1F08091E1021B
:1013200087FF14C0862F869586958695603FF8F4D2
:10133000F901E80FF11D677021E030E001C0220FD4
:101340006A95EAF78281822B82830895F9013296A9
:101350008FEF90E04191641751F08F3F19F44111E4
:1013600001C0892F9F5F9630A9F78F3F09F4089538
:10137000280F311D87FD3A95F90162830895A4E095
:10138000B0E0E5ECF9E00C941C2E8FB7F8942091B6
:10139000BB013091BC014091BD015091BE01298338
:1013A0003A834B835C838FBF69817A818B819C8177
:1013B0002496E2E00C94382E87E797E79093010893
:1013C0008093000888E19AE00FB6F894A89580937E
:1013D00060000FBE90936000FFCF8091BA01089526
:1013E0000895FC019B0180919501909196018617CB
:1013F000970740F0672B29F48091E8008E7780935F
:10140000E800C90140E0009741F4411106C0809115
:10141000E80082FF2FC080E0089520911C02222363
:10142000A9F12530A9F12091E80023FD2DC02091DC
:10143000E80022FDECCF2091E80020FFE4CF3091BE
:10144000F3002091F200009719F02830310558F090
:1014500041E02830310509F040E02091E8002E7786
:101460002093E800D0CF41914093F10001972F5F86
:101470003F4FE9CF80911C02882341F0853041F035
:101480008091E80083FFC3CF81E0089582E0089552
:1014900083E0089580918F0187FF13C08091E80059
:1014A00082FF06C08091E8008B778093E80004C03B
:1014B00080911C028111F2CF089580911C02882333
:1014C000D9F38091E80080FFF8CF8091E8008E7713
:1014D000ECCF2091E4003091E50095E6A9018091E0
:1014E000EC008170882331F08091E80080FF06C015
:1014F00080E008952091E80022FD1BC080911C022D
:10150000882391F0853091F08091EB0085FD10C02B
:101510002091E4003091E5004217530701F3915008
:101520009111DCCF84E0089582E0089583E008956E
:1015300081E00895E8EDF0E080818E7F8083109255
:10154000E2001092DA001092E100A0EEB0E08C917F
:1015500081608C9380818F77808319BCA7EDB0E088
:101560008C918E7F8C9380818F7E808310928E01F0
:101570000895EF92FF920F931F93CF938C017B01FD
:101580000E94690AC82F81110EC08091E80085FD74
:1015900011C08091E8008E778093E8000E94690A6C
:1015A000882399F3C82F8C2FCF911F910F91FF9013
:1015B000EF900895F80180818093F100F1E0EF1A37
:1015C000F108E114F10479F30F5F1F4FDECFCF93E1
:1015D00020911C022430F1F42091E900C091EC002C
:1015E000C795CC27C7952F70C22B22E02093E90026
:1015F0002091E80020FF0BC040E050E060E270E086
:101600000E94B90A8091E8008E778093E800CF703D
:10161000C093E900CF910895982FE42FE270909342
:10162000E900891308C0762F242F50E0E11111C082
:1016300091E0980FF4CF7091EC002091ED00509163
:10164000F00021FD06C09F5F973049F78093E900C5
:1016500008953091EB003E7F3093EB003091ED0028
:101660003D7F3093ED003091EB0031603093EB0023
:101670007093EC002093ED005093F0002091EE0069
:1016800027FDE1CF0895A0E0B0E0E9E4FBE00C9491
:10169000162EC8EDD0E088818F7E8883E7EDF0E0DC
:1016A00080818160808384E082BF81E080938E01AD
:1016B00088818E7F888302EE10E0F80110821092FC
:1016C000DA0081EEC82ED12CF601108288818F7746
:1016D000888388818068888388818F7D888319BC0E
:1016E00010921C0210928D011092F30110928C0145
:1016F00090EEE92EF12CF70180818B7F8083888129
:101700008160888342E060E080E00E940C0BF6017B
:1017100080818E7F8083F8018081816080838081D9
:1017200088608083F70180818E7F808388818061DB
:101730008883CDB7DEB7E8E00C94322E9C012115EA
:10174000310509F408958FE99FE00197F1F700C092
:10175000000021503109F3CFCF93DF93D82FC92F49
:10176000809116018823D9F08091E10287FF17C08C
:1017700060E284E08093E9008FEF9091E80095FDAE
:1017800007C095ED9A95F1F7000081508111F5CFD2
:101790008091E80085FD06C0DF91CF91089568E053
:1017A00081E0E8CF8091160170E040E050E08111C7
:1017B00004C040E050E068E070E08D2F9C2F0E9454
:1017C000B90A8091E8008E778093E80080E2ED2FDF
:1017D000FC2FAAE9B1E001900D928A95E1F7DCCFE8
:1017E00024E02093E9002FEF3091E80035FD07C099
:1017F00035ED3A95F1F7000021502111F5CF2091F8
:10180000E80025FF0BC040E050E066E070E00E9479
:10181000B90A8091E8008E778093E800089580935C
:101820009701709399016093980180911C02843014
:10183000F9F48093E9008FEF9091E80095FD07C0DF
:1018400095ED9A95F1F7000081508111F5CF8091C7
:10185000E80085FF0DC040E050E063E070E087E9FC
:1018600091E00E94B90A8091E8008E778093E800A9
:101870000895BC0183E00E940F0C0895BC0184E030
:101880000E940F0C0895CF93682FC92F84E090E039
:101890000E94982E6C2F82E290E00E94982ECF91A9
:1018A0000895882381F06EE583E290E00E94982EEF
:1018B0006AE184E290E00E94982E6CED85E290E06F
:1018C0000E94982E08956FEF83E290E00E94982E78
:1018D0006FEF84E290E00E94982E6FEFEFCF1F939E
:1018E000CF93DF93962F122F632F8430D8F4963046
:1018F000C8F44E30B8F4C42FD0E0CC0FDD1F2CE17B
:10190000929FC00DD11D112498EA899FC00DD11D51
:101910001124CE0187960E94982E612FCE018896C1
:101920000E94982EDF91CF911F910895CF93DF935E
:10193000CBEED2E060E0CE010E94982E2196C11538
:1019400084E0D807B9F7DF91CF910895CF9384E071
:1019500090E00E948A2EC82F82E290E00E948A2E98
:10196000982F8C2FCF91089583E290E00E948A2EC9
:101970008E3589F484E290E00E948A2E8A3159F4EF
:1019800085E290E00E948A2E91E08C3D09F090E083
:10199000892F8170089580E0FCCF0F931F93CF9320
:1019A000DF93843030F5663020F54E3010F5C42FCB
:1019B000D0E0CC0FDD1F2CE1629FC00DD11D1124A2
:1019C00038EA839FC00DD11D1124CE0187960E9455
:1019D0008A2E082F10E0102F0027CE0188960E9433
:1019E0008A2E9801282BC901DF91CF911F910F9169
:1019F000089580E090E0F8CF462F672F20911A02DB
:101A000030911B02232B91F4703F39F4403F71F465
:101A10008091E3019091E4010895843038F47630A8
:101A200028F44E3018F40E94CD0C089580E090E028
:101A30000895A0E0B0E0EFE1FDE00C94172E7C01EA
:101A40000091800280917F02082BC7E0D0E010E077
:101A5000C8010C2E02C0959587950A94E2F780FD87
:101A600009C02197A8F7D12C8D2DCDB7DEB7E7E0BF
:101A70000C94332EDC2EB7018C2F0E94FC0C0E949C
:101A80008B05019771F3F0CFCF93DF93D82FC92F38
:101A90000E94190D6D2F7C2F0E94FC0C0E948B055B
:101AA000DF91CF910895FC0183819481892B61F0AE
:101AB0008181908189238F3F39F0808191810E94BB
:101AC000440D0E947604089580E008951F93CF93FB
:101AD000DF93182FD92F662399F0442389F00E94B1
:101AE000190DC82F682F812F9D2F0E949304612FFD
:101AF0007D2F8C2F0E94FC0CDF91CF911F910895B8
:101B00000E94CA04C82FF3CF0F931F93CF93DF9384
:101B10000DEB12E0C7ECD2E0CE010E948A2EF80154
:101B200061918F01861719F0CE010E94982E21969F
:101B3000CB3EF2E0DF0781F7DF91CF911F910F914C
:101B400008950F931F93CF93DF930DEB12E0C7EC33
:101B5000D2E0CE010E948A2EF80181938F01219656
:101B6000CB3EF2E0DF07A9F7C3E3D5E0FE018591A4
:101B70009491009711F0FC0109952C96F6E0CF3274
:101B8000DF07A1F7DF91CF911F910F9108959C017D
:101B9000CB01BA01F901329645915491641775074A
:101BA00048F0F9013496659174910E947A2E80E094
:101BB00090E008958FEF9FEF08959C01DA0102965F
:101BC000FC0145915491FC0185919491A817B907A6
:101BD00058F0F9013496859194910E947A2E0E94D2
:101BE000840D80E090E008958FEF9FEF0895A1E0CD
:101BF000B0E0EDEFFDE00C94192EF82E698304E6B9
:101C000010E021E030E0AE014F5F5F4F682F80E4CD
:101C10000E947A2D892B71F46CE06F0D21E030E089
:101C2000AE014F5F5F4F80E40E947A2D9C0181E0FE
:101C3000232B09F080E02196E5E00C94352ECF931C
:101C40006FEF80E00E94F70DC1E0982F9C278091F4
:101C5000E502890F8093E5026FEF81E00E94F70DA6
:101C6000982F9C278091E502890F8093E502CF9100
:101C700008958091E50281110BC06FEF81E00E9411
:101C8000F70D91E098278091E502890F8093E50296
:101C900008951F921FB61F9211248F939F93AF93A5
:101CA000BF938091F201811113C08091BB0190918B
:101CB000BC01A091BD01B091BE014196A11DB11D15
:101CC0008093BB019093BC01A093BD01B093BE0172
:101CD000BF91AF919F918F911F901FBE1F9018953C
:101CE0002FB7F8948091BB019091BC01A091BD01E8
:101CF000B091BE012FBF08958091BF029091C002A4
:101D0000892B91F00E94700E20913F023091400289
:101D1000AC01421B530B9A0181E04091BF025091EC
:101D2000C0022417350708F480E08170089580917F
:101D30007D0290918102892B8093640180917C02C5
:101D4000882351F18091BF029091C002892B29F024
:101D50000E947C0E81110E943D058091640190914A
:101D60007C02892B8093640180911601882309F4F9
:101D700042C08091E10287FF3EC08DE190E026E6FF
:101D800031E0F90140812F5F3F4F41119F5F81504A
:101D9000C0F791110E943D0540E250E06FE172E012
:101DA00084E691E00E946D2E892B21F180E2E4E629
:101DB000F1E0AFE1B2E001900D928A95E1F7E09198
:101DC0001D02F0911E023097A9F080911601882320
:101DD00059F08091E10287FF07C0809164018093F0
:101DE000650186E0809364010280F381E02D84E642
:101DF00091E00995089585E0C1CF882339F090914D
:101E00007D02892B80937D020E94970E089588237E
:101E100039F090918102892B809381020E94970E64
:101E20000895882321F00E9435050E94970E089599
:101E3000882341F0809590918102892380938102CB
:101E40000E94970E089580916D02882329F082E206
:101E50000E94180F10926D02089580911701877FDC
:101E60008093170180916D02811105C080918102DC
:101E70008D7F809381028091170184FF08C08F7E3F
:101E80008093170180917D02826080937D02809112
:101E9000170185FF08C08F7D8093170180917D0217
:101EA000806280937D020E94970E0895CF93C82F81
:101EB0008091E20282FF0CC080917C028C1741F07D
:101EC0000E94700E9093400280933F02C0937C0268
:101ED000CF9108950E94700E2091670230916802A0
:101EE000232B222321F08093050290930602209158
:101EF000690230916A02232B222321F0809303028E
:101F000090930402E0911D02F0911E02309749F077
:101F100082E0809365020480F581E02D85E692E001
:101F200009950895CF93C82F8823C1F18CEF8C0FAA
:101F3000813AB0F580911601882301F18091E10288
:101F400087FF1CC0EC2FE695E695E695F0E0EC598E
:101F5000FE4F828190E04C2F477021E030E002C0BC
:101F6000220F331F4A95E2F782239323892B79F0BE
:101F70008C2F0E9408050E94970E09C0E6E6F1E04A
:101F80008191C817A9F321E0EC36F207C9F76C2F4D
:101F900084E691E00E9489090E94970ECF910895EE
:101FA00080E28C0F883068F4C77081E090E001C057
:101FB000880FCA95EAF7C0917D02C82BC0937D02B5
:101FC000EBCF8BE58C0F833038F42C2F2452330B5E
:101FD000C9010E945D09E2CFE8E5EC0FE73150F45A
:101FE000F0E0EE0FFF1FEC5CFE4F808191810E94BC
:101FF0007309D4CFC03F90F28C2F0E94BC070E947F
:102000006A0FCCCFCF93DF93EC01805E91090897E4
:1020100020F067E07FE0209711F46DEF7EE0CE01C5
:102020000E9426048C2F0E94920FDF91CF91089579
:10203000662329F0209181022260209381029C0175
:102040003056211540E2340720F0305E2115304132
:1020500008F499270E9402100895882379F19CEFD3
:10206000980F913A28F40E9408050E94970E08954F
:1020700090E2980F983050F4877091E001C0990F6A
:102080008A95EAF7892F0E943505EFCF9BE5980FD7
:10209000933028F480E090E00E945D09089598E56F
:1020A000980F973128F480E090E00E94730908951A
:1020B000803F20F00E940E080E946A0F0895CF937F
:1020C000DF93EC010E942D10CE01805E91090897EC
:1020D00020F068E17FE0209711F461E17FE0CE011C
:1020E0000E942604DF91CF910895CF92DF92FF9254
:1020F0000F931F93CF93DF93EC018B01F42E80910C
:10210000170182FF6BC0C0907202D0907302CC1690
:10211000DD0619F0209709F061C0809117018B7FCF
:1021200080931701C1E081FD10C0809170029091F1
:1021300071029801281B390BC1E080911001909128
:1021400011012817390708F4C0E0C1708091170108
:10215000C0FB81F9809317016C2FC6010E942A09E8
:1021600080917D0281FF08C080911701806180937A
:10217000170182E00E94350580917D0285FF08C02D
:102180008091170180628093170180E20E943505DB
:102190006C2FC6010E941810FF2031F08091D802E8
:1021A00085FF02C086FF33C08091DB029091DC0284
:1021B0000E949E0B80917202909173029C01305696
:1021C000211540E2340720F0305E2115304108F43B
:1021D00099270E945F100E942D0F15C0CE019056C6
:1021E000811520E2920720F0905E81159041B8F4AD
:1021F000CE0199270E945F10809172029091730224
:10220000C817D90741F31093710200937002DF9150
:10221000CF911F910F91FF90DF90CF900895CE0145
:10222000E9CF0F931F93CF93C82F0091DD02109138
:10223000DE02893321F00091DB021091DC028C2F49
:102240000E94920F0115110539F48C2F0E942D1058
:10225000CF911F910F9108958FE99FE00197F1F7BA
:1022600000C0000001501109EDCFA0E0B0E0EBE3A9
:10227000F1E10C94172EEC019881992309F49CC08C
:102280009130E1F599818A81913021F422960E9462
:10229000111105C0923029F422960E94920F2196C6
:1022A000EBCF933021F422960E942D10F8CF94307A
:1022B00011F02196F4CF229620E030E06AE0AE01E2
:1022C0004F5F5F4F8053990B8A30910560F0211565
:1022D000310529F38FE99FE00197F1F700C0000075
:1022E00021503109F4CF629FF001639FF00D11245A
:1022F0009C012E0F3F1F8981EA01E1CFE92FF0E019
:10230000E650FE4FD490292F26952695269530E04D
:10231000F901E651FE4F84919770F901E652FE4FA4
:10232000E490F12C092E02C0F594E7940A94E2F7A8
:1023300041E0E422FF24F901E653FE4F049110E04E
:10234000092E02C0159507950A94E2F7017011272E
:10235000E82FF0E002C0F595E7959A95E2F7E0FDE9
:102360000CC0E114F104A1F48D2D0E94111101158E
:10237000110509F494CF8CE28ACF81EE0E94920F6E
:10238000E114F10479F48D2D0E94111181EE07C042
:1023900086EE0E94920F8D2D0E94111186EE0E94F2
:1023A0002D10E5CF86EE0E94920F8D2D0E94111107
:1023B00086EE0E942D10EACFCDB7DEB7E7E00C9491
:1023C000332E80E090E00E945D0980E090E00E9462
:1023D0007309109281020E94970E86E0E5E6F2E012
:1023E000DF011D928A95E9F7109264021092630250
:1023F000109262020E946A0F089510927D028091ED
:102400001601E6E6F1E0882361F08091E10287FFA2
:1024100008C08EE1DF011D928A95E9F70E94E11163
:10242000089586E0F7CF0E94FD112FEF84E39CE032
:10243000215080409040E1F700C0000088E19AE020
:102440000FB6F894A895809360000FBE909360003B
:10245000FFCFCF92DF92EF92FF92FB018FEF9FEFC2
:102460004430510508F47FC0C080D180E280F38001
:102470000E94FD11D701C601B695A795979587953E
:102480008170282F220FD701C60181709927AA27B2
:10249000BB27822BB701A60132E076956795579549
:1024A00047953A95D1F74170440F440F842BB701FB
:1024B000A601E3E07695679557954795EA95D1F79C
:1024C0004170440F440F440F842BB701A601F4E080
:1024D0007695679557954795FA95D1F7417042954E
:1024E000407F842BB701A601A5E0769567955795A7
:1024F0004795AA95D1F741704295440F407E842BB1
:10250000B701A601B6E07695679557954795BA95B8
:10251000D1F741704295440F440F407C842BB701A2
:10252000A60197E076956795579547959A95D1F7C7
:10253000479544274795842B8093E102D1FA882759
:1025400080F9880F9D2D9170892B9091E2029C7FDC
:10255000892B8093E2028091E1029091E2020E9435
:10256000430C80E090E0FF90EF90DF90CF900895D3
:10257000EDEBF2E0128E138E8FEA90E09183808370
:1025800025E0248F88E893E1938382838AE090E0BA
:102590009583848344E150E05783468348E050E0CC
:1025A00051874087938782876EE170E075876487E3
:1025B0009787868780E590E0918B808B538B428B49
:1025C00048E250E0558B448B42E350E0578B468BFA
:1025D00048EC50E0518F408F158E178E168E91A3C8
:1025E00080A322A30E94840D0E94FD111092E2029A
:1025F0001092E10280E084608093E20280E094E047
:102600000E94430C0E94A10D0895A0E0B0E0EBE011
:10261000F3E10C94122E809018029090190281E040
:1026200090E09093190280931802A12CB12C00E045
:1026300010E06501C0E017C003301105E9F0F701B3
:10264000259134914D2F6C2F802F0E946F0C22E02A
:10265000E20EF11CDF5FDE3079F73EE0C30ED11CE5
:10266000CF5FC63079F0C601880F991F9C012F5C9F
:102670003C4F7901D0E0E0CF21E030E04D2F6C2FCE
:1026800083E0E3CF0F5F1F4F34E5A30EB11C04308E
:10269000110579F60E94B8129092190280921802E0
:1026A000CDB7DEB7ECE00C942E2E80E00E94510CEA
:1026B00060E086E290E00E94982E0E9405130E943E
:1026C000960C81E00E94510C089568EE7EEF80E048
:1026D00090E00E94B62E60E082E090E00E94982E8A
:1026E00060E083E090E00E94982E10927F0260E00C
:1026F00084E090E00E94982E64E082E290E00E94E4
:10270000982E60E085E090E00E94982E60E086E0E0
:1027100090E00E94982E6FEF87E090E00E94982E44
:1027200040E050E0BA0188E090E00E94AA2E60E00C
:102730008DE090E00E94982E40E050E0BA0188E1E0
:1027400090E00E94AA2E60E087E190E00E94982E1F
:1027500040E050E0BA018CE190E00E94AA2E60E0D7
:1027600070E080E290E00E94B62E40E050E0BA01B6
:1027700088E190E00E94AA2E80E00E94510C0E9405
:10278000551340E050E0BA018FE090E00E94AA2E7D
:1027900040E050E0BA0183E190E00E94AA2E089543
:1027A000AAE2B0E0E6EDF3E10C941B2E8FE891E095
:1027B000FC0101962091F100208321E087399207E6
:1027C000B9F780919001893009F456C0C8F482307D
:1027D00009F4B3C0833009F482C0813071F1809173
:1027E000E80083FFE7C080918F01909190019A30BB
:1027F00008F0E0C0E92FF0E0E651F14D0C94572EBF
:102800008A3009F489C08B3051F780918F01813271
:1028100031F78091930190919401892B01F7809178
:10282000E800877F8093E8000E944A0A8091910126
:10283000809316010E94FD11D2CF80918F01813AC1
:1028400071F68091E800877F8093E8008091930182
:1028500090919401892B61F060E080E090E070E05D
:102860000E94F1098091E8008B778093E800B7CF50
:1028700060E28AE991E0F3CF80918F01813209F023
:10288000AECF80919301909194018D7F892B09F0B7
:10289000A6CF8091E800877F8093E8008091E800D0
:1028A00082FF18C09091F3008091F200029731F4FA
:1028B0008091F100813011F0863021F48091F10097
:1028C0008093BA018091E8008B778093E8000E94A2
:1028D0004A0A85CF80911C028111E0CF80CF809180
:1028E0008F01813A09F07BCF8091930190919401FF
:1028F000892B09F074CF8091E800877F8093E800EE
:102900008091E80080FFFCCF809116018093F10058
:102910008091E8008E77D9CF80918F01813209F0C4
:102920005ECF8091E800877F8093E8000E944A0A8A
:102930008091920180938B0152CF80918F01813AD7
:1029400009F04DCF8091E800877F8093E800809167
:10295000E80080FFFCCF80918B01D8CF803889F0D0
:10296000823841F5809193018F70873018F58093FC
:10297000E9008091EB0085FB882780F91092E9003F
:1029800006C080918C019091F30191118260909129
:10299000E800977F9093E8008093F1001092F10097
:1029A0008091E8008E7723C0811116C0809191013B
:1029B000813011F18091E80083FF0AC08091E80026
:1029C000877F8093E8008091EB0080628093EB002A
:1029D000AA96E3E00C94372E823061F78091910142
:1029E000882389F01092E9008091E800877F809326
:1029F000E8000E944A0ADECF81E0933009F080E0CF
:102A00008093F301EFCF809193018F702FEF280F08
:102A1000263080F68093E9002091EB0020FFE2CF82
:102A2000933031F48091EB0080628093EB00DACF39
:102A30009091EB0090619093EB0021E030E0A901D0
:102A400002C0440F551F8A95E2F74093EA001092A6
:102A5000EA008091EB008860E8CF8111ABCF109144
:102A600091011F778091E3008078812B8093E300B0
:102A70008091E800877F8093E8000E944A0A809155
:102A8000E80080FFFCCF8091E30080688093E30042
:102A900083E0111101C082E080931C028BCF80582B
:102AA000823008F087CF40919101509192014C3DC6
:102AB00083E0580799F583E08A838AE289834FB7D8
:102AC000F894DE01139620E03EE051E2E32FF0E0BF
:102AD00050935700849120FF03C082958F703F5F11
:102AE0008F708A30C8F0895C90E08D939D932F5F42
:102AF000243161F74FBF8091E800877F8093E80021
:102B00006AE270E0CE0101960E94F1098091E8002E
:102B10008B778093E8004ECF805DE6CF8091930164
:102B200090919401252F33272330310509F44AC0B1
:102B300078F52130310509F483C08BE590E0EAE7B0
:102B4000F2E02230310509F035CF2091E800277FEF
:102B50002093E80020919501309196018217930708
:102B600008F49C0140E02115310509F06EC04111C7
:102B70006CC08091E80082FDC9CF80911C0288233F
:102B800029F2853019F28091E80083FFF2CFBECFA1
:102B90002132310509F445C02232310509F00ACF4E
:102BA0008330910508F006CFFC01EE0FFF1FE85DB2
:102BB000FE4F0190F081E02D8B5D9E4FDC018C91EA
:102BC00090E010C0CA019927423019F18330910575
:102BD00068F4892BB1F4EDE2F3E0E4918E2F90E0FC
:102BE000EDE2F3E0009709F4E5CEAFCF039709F0EB
:102BF000E1CEE7EEF2E0E4918E2F90E0E7EEF2E036
:102C0000F1CFE9E1F3E0E4918E2F90E0E9E1F3E028
:102C1000E9CFE5E0F3E0E4918E2F90E0E5E0F3E02A
:102C2000E1CF8330910508F0C5CEFC01EE0FFF1F08
:102C3000E25DFE4F0190F081E02D89E090E085CFCC
:102C400082E190E0E5EDF2E080CF80911C028823E4
:102C500009F45CCF853009F459CF8091E80083FDF9
:102C600055CF8091E80082FD84CF8091E80080FFFD
:102C70007ACF9091F3008091F2002115310519F07F
:102C80008830910550F041E0089709F040E08091CC
:102C9000E8008E778093E80066CF44914093F1007E
:102CA0003196215031090196E8CF803809F082CE63
:102CB0008091E800877F8093E80080918D01809368
:102CC000F1006ECE811176CE10919101123008F094
:102CD00071CE8091E800877F8093E80010938D018A
:102CE0000E944A0A1123D1F084E080931C0242E042
:102CF00061EC81E00E940C0B42E261EC84E00E94F6
:102D00000C0B42E261EC82E00E940C0B42E260ECB0
:102D100083E00E940C0B80911C024CCE8091E3005A
:102D200087FDE2CF81E0E1CF80937F020E94E11135
:102D30000895809380020E94E111089521E030E01F
:102D400001C0220F8A95EAF780918002822B0E94AF
:102D5000991608959091E20292FF10C098E0899F21
:102D600090011124622B609382020E949E160E94A1
:102D7000700E909384028093830208950E949E16A1
:102D8000089521E030E0A90102C0440F551F8A9543
:102D9000E2F7CA0180959091800289230E949916DA
:102DA0000895209182028095822380938202982F39
:102DB0009770911117C030E0482F082E000C550B6A
:102DC0002417350779F09091E20292FF0BC08595A8
:102DD000859585950E94C1161092820210928402F8
:102DE0001092830208959091E20292FB222720F92B
:102DF000281769F080FB92F99093E2028091E1023A
:102E00009091E2020E94430C82E00E94D116089544
:102E100080918002982F9670963021F488600E94ED
:102E200099160895877FFBCF9C014FB7F894809146
:102E3000BB019091BC01A091BD01B091BE014FBFFB
:102E4000821B930B08950F931F93CF93DF93C62F8D
:102E5000D42F122F8823A9F060937A020E94700E5B
:102E600090938A0180938901C77081E001C0880F27
:102E7000CA95EAF70E94FD0EDF91CF911F910F9145
:102E8000089580917A02681332C0809189019091EF
:102E90008A010E941417883C910548F5CD130CC097
:102EA000812F0E941111D77081E001C0880FDA953F
:102EB000EAF70E94110FE0CFC77001E0802F01C038
:102EC000880FCA95EAF70E94110F80E28D0F8830B3
:102ED00050F48D2F877001C0000F8A95EAF7802F7C
:102EE0000E94FD0EDDCF812F0E941111C5CFC7704A
:102EF00081E001C0880FCA95EAF7DBCFA4E0B0E01B
:102F0000E4E8F7E10C94122E7C01FC0190818181B0
:102F100023813481232B09F4E4C089238F3F09F4F2
:102F2000E0C041E06281808191810E94660D8C0148
:102F3000F7018281882309F4BDC7C80182519F45EA
:102F4000409708F0C9C78FEF93E00E948A2E811145
:102F5000B8C04EEED42ED00E0BEE12E0D1103CC015
:102F60008091180190911901A0911A01B0911B0153
:102F700089839A83AB83BC8368012FEFC21AD20A7C
:102F8000C8010E948A2E89831A82882309F499C075
:102F9000813009F08BC0580142E0A40EB11CC6017B
:102FA0000E948A2ED82E8A83882309F48AC0C501FC
:102FB0000E948A2EC82E8FEF8D0D8330D8F4CB82DD
:102FC000CC2021F0CE0101960E943511580153E02A
:102FD000A50EB11C8501D0CF0115F4E01F0709F43F
:102FE00070C0C8010E948A2E0F5F1F4F8111F4CF5D
:102FF000DA94B4CF8BEF8D0D833088F5580183E0E0
:10300000A80EB11CCB82CC2029F3C5010E948A2EC8
:103010008C838823D9F0AB80BC8091E0A9169FEF08
:10302000B90610F0BA2CAA24E6E0DE16A1F0F7E00B
:10303000C501DF1649F00E947F228091DB0290914A
:10304000DC020E949E0BC5010E94A322580124E0CD
:10305000A20EB11CBFCFC5010E947F22F7CF44E072
:10306000D412B8CF580154E0A50EB11CC801039684
:103070000E948A2ECC2029F1882319F18150990BC6
:103080004FEF489F9001499F300D1124EC2DE150E6
:10309000FF0B2E0F3F1F2150310908F49BCF8FE902
:1030A0009FE00197F1F700C00000F5CFCE01019637
:1030B0000E94351156018ECF81E00E949E160E941B
:1030C0000817809182028770882359F0F701828166
:1030D000882339F08091E20282FF03C082E00E94DF
:1030E000D1162496ECE00C942E2E81E00E94C1169D
:1030F000E6CF82E0E2CF82E0F9CF81E080936B02FD
:10310000FCC60C3A2DE51207E1F2F7C610927D02DB
:103110000E943D050E94700E88579C4E90936F024E
:1031200080936E0281E080936D02CBCFC8019055F1
:103130008115924008F014C78091D80280FF6EC1BB
:103140000E94700E6C01F701828181110EC1809185
:1031500017018F7E013E110539F0053E110509F07A
:1031600079C0809117018F7D80931701F7018281CB
:10317000C080D180882309F413C4C6010E94190DB0
:10318000182F682FC6010E949304B601812F0E9458
:10319000FC0C0E948B05182F092FF701D280C580E7
:1031A000C2942FE0C2228091820287708823C1F0EE
:1031B000AD2CDD20B1F0892F807F803421F080E2BA
:1031C000810F883068F08091E20282FF09C082E0BE
:1031D0000E94D116809182028770AA24A394811143
:1031E000A12CE02FE295EF70003C08F051C4F0E014
:1031F000EC50F14D0C94572E17FDB2C60115F0E6B8
:103200001F0750F4043125E5120709F495CFC801D2
:1032100098558F3F91058ECFF7018581803108F059
:1032200065C0812F8F71843109F486CF68F58230B3
:1032300009F479C0823109F479C00E94230F80918A
:10324000D80280FFA2C20E94700E6C01F701828139
:1032500081118BC0C8019056811550E2950728F066
:10326000905E8115904108F03FC18091170182FF67
:10327000D5C08091DA0281FD66C040E0B60180E0F1
:1032800090E00E9475105FC08631B9F686EE92E13B
:103290002FC0F7018581803148F58091D80280FDEB
:1032A000D2CF10927A0202362DE5120708F072C2D0
:1032B00006314CE5140708F051C202305CE51507F1
:1032C00008F488C00E94A60C9093E2028093E10269
:1032D000F801E350FC458091E1028160E331F105A2
:1032E00008F02AC2E050F14D0C94572EC8019927DE
:1032F0002091170120FF1DC02DEF209530918102F4
:103300002323209381028D32910559F120F58832D3
:10331000910588F48E31910580F404974A9708F15D
:103320000E94230F0CC081EE90E0E2CF85EE90E08A
:10333000DFCF2FEFE2CF8A9799F70E94970E809107
:10334000D80280FDFDCEF7018281033FFCE51F0717
:1033500009F0C9C1ADC08C34910579F38D3292402A
:10336000EBCF82E080938102E8CF8091170182FF4A
:1033700006C040E0B60180E090E00E9475100B317D
:103380002CE51207F1F10C314CE5140709F47CC06F
:1033900090911701892F8E7F90FF81600A315CE543
:1033A000150709F474C0F701828198013056211580
:1033B000F0E23F0708F480C0305E2115304108F08C
:1033C00093C01092730210927202882309F4CECE39
:1033D00010927A0281E00A354DE5140709F4D5C24E
:1033E00001151C4509F0C2CE0E94FD119FEFE4E3D8
:1033F000FCE09150E040F040E1F700C000000E9486
:10340000DC0980911701816080931701F7018281A7
:10341000882321F01092730210927202F7018281C8
:10342000811110927A02F7018281811178C10631EF
:103430002CE5120709F09ACE90917D023091D702C7
:1034400030FF04C0292F2474211172C2292F2A7A37
:1034500031FF04C0492F4171411120E0432F4870D2
:1034600032FF68C2392F3878332309F463C241111F
:1034700077C281116AC280917B02882309F472C2EB
:1034800085E30E94080569C2809117018E7F8093B1
:1034900017010E942D0F8091170180FF58C1F7017D
:1034A000828181111CC1033FFCE51F0709F07AC02E
:1034B00026E241EE60EE3DC010927302109272025D
:1034C000882309F453CE10927A020B35EDE51E07DE
:1034D00009F464C208F05CC20E3D2CE5120709F045
:1034E00079CF0E94651358C2F7018281909117012C
:1034F00090FF29CF08321105F8F40E31110508F0BC
:1035000046C09801245031092A313105C0F1882381
:1035100071F11092730210927202093D5CE5150779
:1035200019F126E241EE61EE073D9CE5190709F02D
:1035300075CF0E942317C5CD09331105D0F40D3284
:103540001105C8F50B321105B1F1882381F01092F5
:10355000730210927202083D9CE5190741F1093D82
:10356000ECE51E0709F05ACF28E241E022C080E0D6
:10357000F2CF04361105F9F0811124C0E4CE909108
:10358000D80294FF24C0882309F4F0CDC2CF9091D3
:10359000D80293FF1CC0882309F4E8CD109273026F
:1035A00010927202083D4CE5140709F0B6CF27E2ED
:1035B00045EE65EEBECF9091D80292FF08C08823F9
:1035C00009F42CCF1092730210927202BCCE8823A1
:1035D00009F47FC090917D0280917C02B82EB92AB7
:1035E0002B2D2D7F2223C9F01092730210927202AC
:1035F0002091D80221FD11C060E0C8010E942A0973
:1036000060E0C8010E94181080917C028D7F0E94AA
:10361000560F82E00E94D11654CD26E0F701A4E7B0
:10362000B2E001900D922A95E1F710927602109285
:1036300078021092770280907202909073020815BF
:10364000190591F52091D80225FF2EC0A0901701F1
:10365000A1FAAA24A0F8AA2011F026FF25C02091E3
:10366000700230917102A601421B530B483C510578
:10367000D8F491FF08C080911701806180931701F1
:1036800082E00E94350580917D0285FF08C080910F
:10369000170180628093170180E20E9435056A2D30
:1036A000C4010E9418100DCD8D7F0E94560F1093FB
:1036B000730200937202D0927102C09270028B2D3D
:1036C0008270846090911701997F892B80931701F4
:1036D000A0CF40E0B601C8010E947510F2CC109254
:1036E000730210927202043F2CE5120708F45ACFBD
:1036F000053FECE51E0739F127E245EE66EE063F91
:10370000FCE51F0709F415CF043F2CE51207B9F0BB
:10371000F7018281882309F429CD10927A020136BB
:10372000FDE51F0709F0BFCD0E94A60C9093E202B1
:10373000809584FB809584F98093E10249C027E25B
:1037400045EE64EEF6CE26E241EE62EEF2CEF701F1
:103750008281882309F40ACD10927A02C8018A5F17
:103760009C45099708F0DEC00E94A60C9093E202E7
:103770008093E102F801EB5FFC45E830F10508F0C9
:103780004BC0ED5EF04D0C94572EF70182818111F4
:1037900088CDECCC053A8DE5180719F1C8018D5A92
:1037A0009D45039708F091CE0E94A60C9093E202EB
:1037B0008093E1020D3A9DE51907E1F00E3AEDE53F
:1037C0001E0709F44FC00F3AFDE51F0709F4A3C017
:1037D0008091E1029091E2020E94430C0E94FD114F
:1037E00070CC0E94A60C9093E202809580FB80959D
:1037F00080F9A2CF8091E20288608093E202E8CF54
:103800008091E102826098CF8091E102846094CF40
:103810008091E102886090CF8091E2028160EDCFDB
:103820008091E2028260E9CF8091E102806184CFE1
:103830008091E102806280CF8091E10280647CCF40
:103840000E94FD118091E102806876CF8091E102B3
:103850008C6072CF8091E2028360CFCF8091E102D1
:103860008E7F6ACF8091E202877FC7CF8091E1028D
:103870008D7F62CF8091E1028B7F5ECF8091E102EC
:10388000877F5ACF8091E2028E7FB7CF8091E2028C
:103890008D7FB3CF8091E1028F7E4ECF8091E10288
:1038A0008F7D4ACF8091E1028F7B46CF0E94FD1130
:1038B0008091E1028F7740CF8091E102837F3CCFFE
:1038C0008091E2028C7F99CF8091E10282FB99275F
:1038D00090F921E0922790FB82F990FB83F92CCF9D
:1038E0008091E202982F909591708E7F892B90FBAA
:1038F00081F983CF0E94FD119091E102892F97FBFE
:1039000087F9805819CF61E08EE090E00E94982EF0
:103910005FCF60E0F9CF9091E202892F877F93FF1C
:1039200088606BCF06314CE51407F1F481E084CD5B
:1039300020E08ECD442319F0927291119ACD882304
:1039400009F499CD65E3211102C080E069E280931A
:103950007B0284E691E00E9489090E94970EB1CB18
:1039600020E0EACF89E28DCD0B355DE51507B1F09A
:1039700008F4B2CD0C351D4509F0F8CB8091E20278
:1039800082FB882780F991E089270E94F316EECB0D
:10399000073A1D4509F0EACB0E94131280E0F5CFEB
:1039A000C6010E94CA04182FF0CBF02FFF70BF2E63
:1039B000003118F0B29490EFB922DD20B9F0BB20AD
:1039C00069F080E2810F883010F0111109C08091F8
:1039D0007D028B2980937D020E94970E812F56C015
:1039E000809181028B2980938102F6CF812F0E94E2
:1039F0002D10BB2009F44CC080E2810F883010F0FC
:103A0000111104C08B2D0E94350506C0B094809121
:103A100081028B21809381020E94970E39C0202F52
:103A20002F70B22E802F807F803219F0B29480EFF9
:103A3000B8221123D9F0113009F4A3C0DD2009F414
:103A4000ACC0CC2009F473C040E0F70162818081F2
:103A500091810E94660D8091DA0281FDBFCFF7014E
:103A6000858180FFBBCF8F70858361C08091E2022A
:103A700082FD3DC0DD20A9F1BB2039F080917D029F
:103A80008B2980937D020E94970E80E00E94920F06
:103A9000812F902F0E9476048111EFC11092E402D1
:103AA0001092E302AA20A9F08091820280FD11C049
:103AB000F70112828595859585950E949E16C7010E
:103AC0000E947E17809182028595859585950E943A
:103AD000C11640E0F7016281808191810E94660DEC
:103AE00000CB80E00E942D10BB2091F28BCFDD2017
:103AF00011F1C11004C080917C028B2919C041E0F2
:103B0000C41206C080917C028B290E94560FC0CF40
:103B10008091D902823078F3C812EDCF0E943D0522
:103B200090917E028B2D892B891380937E028B2DA1
:103B30000E94FD0EADCFC11003C00E943D0518C00C
:103B40008091D90251E0C51217C0823008F4A0CF8D
:103B500080917D028B21882309F49ACF0E943D0534
:103B600090917E028B2D80958923891380937E020C
:103B70008B2D0E94110F8CCF8230F8F28C11DDCF8B
:103B800087CF8091DF02DD2021F08C1508F480CFF3
:103B9000CECFC81608F07CCFEBCFCC2049F3809174
:103BA000DD029091DE02193321F08091DB029091C9
:103BB000DC020E949E0B812F0E942D1069CF802F66
:103BC000869586958370882369F0813009F060CFEF
:103BD000812F902F9370D11002C080E090E00E945E
:103BE000730956CF812F902F9370D11002C080E0BF
:103BF00090E00E945D094CCF812FDD2029F00E94CA
:103C0000BC070E946A0F44CF0E940E08FACF802F93
:103C10008370811137C0D11028C0412F429546953D
:103C20004770440F440F812F8F70042E01C0880FFE
:103C30000A94EAF7212F2071222339F02FE030E097
:103C400001C0220F4A95EAF72095302F3695369518
:103C50003370323091F0333071F040917F02313067
:103C600049F0822B84230E9494160E9450090E94DE
:103C700066040ECF842B822BF6CF822B90917F028D
:103C80008927F1CFDD2059F100FFEFCF412F429579
:103C900046954770440F440F812F8F70042E01C04A
:103CA000880F0A94EAF7212F2071222339F02FE0A0
:103CB00030E001C0220F4A95EAF72095302F369563
:103CC00036953370323089F0333069F0409180029C
:103CD000313041F0822B84230E949916C6CF823066
:103CE00020F2D4CF842B822BF7CF822B90918002AD
:103CF0008927F2CFF02FFF70BF2EDD2039F08F2FF4
:103D00000E949E16812F0E94FD0EAFCF812F0E9430
:103D1000110F8B2D0E94C116A8CF123F79F178F4B4
:103D2000103FC1F0113F09F440C0DD2009F492C0FA
:103D3000CC2009F48CC0812F0E94920F96CF133FA4
:103D400021F1143F71F1D110F3CFC1108CC0802F3D
:103D50008F71E0CF8091DF02DD2061F0C81608F09E
:103D600084CF202F2F7181E090E001C0880F2A9529
:103D7000EAF7BCCF8C1508F478CFF3CF802F8F7182
:103D8000D110C8CF0E949E1670CF80E0DD2009F4CC
:103D9000A3CF81E0902F9F7101C0880F9A95EAF719
:103DA0009BCF8091E20282FD06C0802F8F71DD20C3
:103DB00009F4B0CFE7CF8091D902823080F1DD20C5
:103DC000F1F0909182029770943061F41092820227
:103DD0001092840210928302802F8F710E94C1166C
:103DE000A12C43CFC816E0F7202F2F71B22E822FBF
:103DF0000E949E1663E08B2D0E94AA16F1CFC81672
:103E000050F010928202109284021092830264E0B9
:103E1000802F8F71F1CF81E00E94D116E1CFDD209C
:103E200059F0402F4F71B42E842F0E949E1663E0EC
:103E30008B2D0E94AA1619CF81E00E94D11651E065
:103E40005C1508F012CF82E00E94D1160ECF802FB1
:103E50008F7198CFCC2009F47ACF8091DD029091B8
:103E6000DE02193321F08091DB029091DC020E9486
:103E70009E0B812F0E942D10F8CEDD2019F0C1106D
:103E80000DCE10CEC1100ACE40E0F70162818081D4
:103E900091810E94660D8091DA0283FFFFCD8091AF
:103EA000E3029091E402029709F0F8CD812F0E947D
:103EB0001111F4CD0031FFE51F0709F416C90131D6
:103EC0002FE5120709F417C9013B4DE5140709F066
:103ED0005AC010926C0211C000315FE5150709F459
:103EE000EBC801318FE5180709F403C9013BEDE583
:103EF0001E07C1F581E080936C02C0907D02D090D6
:103F00007C0280916D02882309F419CA0E94700E08
:103F100088579C4E90936F0280936E02F7018281C6
:103F2000882309F40CCA8D2D8C298D798111F8C94B
:103F30000115F5E51F0708F05FC9011523E5120714
:103F400008F0FAC8011540E5140708F0EFC801159C
:103F500050E4150708F09DC9063E110509F4ECC8A8
:103F6000C801C6C9023BFDE51F0709F4C6C80C3AE3
:103F7000FDE51F0711F680916D02882309F4C6C87C
:103F80000E94230F9EC8023B2DE5120709F0B9C815
:103F900010926B02B2CF1F93CF93DF938091BC023C
:103FA000803108F04CC08091B902882309F447C0E1
:103FB00080918602209185026091B7023091B8020B
:103FC000C091BA02D091BB02732F76232817B9F1A2
:103FD00090E0209709F443C016E07F3F09F43FC00A
:103FE000189FF001199FF00D1124DF01A957BD4F53
:103FF00011964C91119734132CC04C91461329C043
:1040000012964C91129741111EC013964D915C91DE
:104010004C1B5D0B483C5105E0F48091BC028F7055
:1040200080618093BC02E457FD4F80818F70806176
:10403000808387EB92E00E947E170E94FE04DF914E
:10404000CF911F9108950196877099272813C8CFA3
:10405000F6CF0196877099272813BFCFF0CF01962E
:104060008770B4CFABE0B0E0E8E3F0E20C94102E40
:104070008C0185E0F801DE01179601900D928A957A
:10408000E1F7D801EC901196DC90119712966C90A4
:1040900012971396AD90BC9087EB882E82E0982EF5
:1040A00040E06091B9028091B7029091B8020E94FD
:1040B000660D8091B7029091B8022091BA023091BA
:1040C000BB022115310509F433C1492F48234F3F65
:1040D00009F42EC1C090B902F501E21BF30BCC200C
:1040E00009F4F1C07090BC02E83CF10508F0D4C0BE
:1040F000D80111962C91BFE0B71508F48FC0F62CAB
:10410000291315C0F8019081981311C0611055C092
:10411000872D8F7080618093BC02C4010E947E173E
:104120008091BC02D80115968C93F12C72C0A11419
:10413000B10409F43FC08E2D8D218F3FD9F161105C
:104140003CC0A091860290918502EA2F46E0A91317
:104150001AC08F3F51F386E0E91335C08F819885EF
:104160000E94440D292F22952F70903208F03FC0F5
:104170009F70992319F0882309F44BC0805E883022
:1041800008F447C038C02A2F30E04A9FD0011124DC
:10419000A957BD4F11965C9111975D1107C05C91B5
:1041A000E51204C012965C915111CAC0D901119652
:1041B000A770CDCF662009F4B8CF8091BC02816092
:1041C0008093BC02B2CF2E2F30E08E9FF0011124DD
:1041D000E957FD4F4181D41206C04081E41203C06B
:1041E00042814111A2CFF9013196E770B5CF225F2C
:1041F0002F70223028F0C8010E947E17FC2C09C0C5
:104200009F70992309F4BACFF8019581903108F095
:10421000B5CF8F2D2B96EEE00C942C2E291314C0C5
:10422000D8019C91981310C061100EC015967C9215
:10423000C8010E947E1786E0F801A7EBB2E001906A
:104240000D928A95E1F725C0C8010E94530D88237D
:1042500009F467C0662009F464C08091BC02803212
:1042600070F08091B7029091B8029A8389831B8283
:10427000BD82AC827E82CE0101960E947E1786E0CE
:10428000F801A7EBB2E001900D928A95E1F70E9448
:10429000CB1FFF24F394BDCFBFE0B71508F054C087
:1042A000F80121819213D0CF90819813CDCF611066
:1042B000CBCF7582C8010E947E1786E0D4011D9283
:1042C0008A95E9F7E6CFE83CF10578F5662049F1F3
:1042D000F801218192131BC09081981318C080911E
:1042E000DA0282FDA8CF8091BC0280FDA4CF80318C
:1042F00008F4A1CF8583982F907F903F09F498CF41
:10430000982F907F905F8F70892B858391CFC80104
:104310000E94530D8111B3CF8091BC0281608093C4
:10432000BC02C8010E947E17B4CF86E0D40114C03D
:104330006620B9F3C8010E94530D882391F39FCFE3
:104340002091DA0220FF05CF87EB92E00E947E17D2
:1043500086E0E7EBF2E0DF011D928A95E9F7E5CE12
:10436000CF92DF92FF920F931F93CF93DF93CDB73E
:10437000DEB767970FB6F894DEBF0FBECDBFF42E41
:104380004B8B052F5C8B162F6D8B7E8B8F8B262F87
:10439000CE88DF88C114D10469F0852F84238F3F34
:1043A00049F08091E3029091E40201969093E40237
:1043B0008093E3022111109281021A8A8091E20215
:1043C00082FF21C08091BF029091C002892BD9F059
:1043D0000E94700E2091830230918402821B930B05
:1043E0002091BF023091C0028217930738F080916C
:1043F000820282FD03C082E00E94D1160E947C0EE0
:1044000081110E943D05FD860E871F87D98AC88AC3
:1044100086E0FE013D96DE01179601900D928A9589
:10442000E1F7CE0107960E943220811113C086E089
:10443000FE013796DE01119601900D928A95E1F703
:104440008F81988520918502409186026A857B85BF
:10445000672BA9F416E0809186029091850289135A
:104460003BC067960FB6F894DEBF0FBECDBFDF919D
:10447000CF911F910F91FF90DF90CF9008958923E6
:104480008F3F41F330E0C90101968770992750E0D2
:104490008417950771F40E94FD1110928502109205
:1044A000860286E0E7EBF2E0DF011D928A95E9F7EC
:1044B000D1CF96E0929FD001939FB00D1124A957C0
:1044C000BD4FFE01319601900D929A95E1F78093D0
:1044D00085020E94FE04BECF189FC0011124895797
:1044E0009D4F0E943220882309F4BBCF8091860221
:1044F00090E001968770992780938602ACCFA5E063
:10450000B0E0E5E8F2E20C941C2E9093E401809375
:10451000E301811520E2920730F40E9402102596F3
:10452000E2E00C94382E80EF89838A8381E08B83CC
:104530000E94700E8160782F49815A816B81892F8A
:104540000E94B021ECCFA5E0B0E0E9EAF2E20C94E1
:104550001C2E9093E4018093E301811520E29207E1
:1045600030F40E945F102596E2E00C94382E80EF24
:1045700089838A831B820E94700E8160782F498113
:104580005A816B81892F0E94B021EDCFABE0B0E062
:10459000ECECF2E20C940C2E8091E502882371F091
:1045A00080918701909188010196811520E2920700
:1045B00008F01DC19093880180938701F6EE8F2E3D
:1045C000F1E09F2EEE24E394F12C312C22242A9446
:1045D0002E0CF401A190B1904F01129212926F0132
:1045E000F4E0EF1609F41AC123E0221508F40AC119
:1045F00081E0281609F40CC192E0291609F40BC1D8
:10460000849A8C988091E502882309F40DC18FE883
:1046100091E00197F1F700C000008091E502612C64
:10462000712C811126C09FEF998304E610E021E0F0
:1046300030E0AE014F5F5F4F62E180E40E94A52D44
:104640009C0191E0232B09F490E08091E502890F11
:104650008093E502898180950E945204982F969557
:104660009C778370892B782E7694682E67946624C5
:10467000679469B179B139B196B129B15CB183B1AF
:104680007695769541E0742771707A831B82EA8172
:10469000FB8175E0EE0FFF1F7A95E1F76695669551
:1046A0006695642761706C831D826C817D81A6E0B4
:1046B000660F771FAA95E1F76E2B7F2B82958F707F
:1046C000842781708E831F82EE81FF816E2B7F2B6A
:1046D00032953F703427317038871986E885F9851F
:1046E000B4E0EE0FFF1FBA95E1F76E2B7F2B92958A
:1046F000969596959370942791709A871B868A85D4
:104700009B8533E0880F991F3A95E1F7862B972B0D
:10471000022E000C330B209530952227330F221FD9
:104720003327220F331F220F331F822B932B5295D7
:10473000569556955370542750FB442440F8512CFD
:104740009201220F331F822B932B86299729F60182
:1047500091838083F3E02F1609F4ACC0F21508F4BE
:1047600076C0241609F486C022E0221609F492C00D
:1047700084988C988C9881E0F601208131812A15EB
:104780003B0509F480E0382AFFEFEF1AFF0A27E023
:10479000E216F10409F01ACF332009F49FC081E03A
:1047A000809386010E94700E90938501809384010E
:1047B00080918401909185010E941417059708F457
:1047C00091C04CE050E066EE71E08CE092E00E9417
:1047D0006D2E892B49F08CE0E6EEF1E0ACE0B2E022
:1047E00001900D928A95E1F7109286017BC010929C
:1047F0008801109287011092E5020E94390E0E94F2
:104800001F0EDCCEE4E02E120CC0219A2998FACEBD
:10481000859A8D98F7CE869A8E98F4CE879A8F983F
:10482000F1CE229A2A98EECE61E070E00E2C01C003
:10483000660F0A94EAF7609581E00E94F70D91E017
:1048400098278091E502890F8093E502E6CE84E007
:10485000281240C021982998299881E0F6012081EA
:1048600031812A153B0509F480E0382A86E0E82EDC
:10487000F12CACCE85988D988D9881E0F601208141
:1048800031812A153B0509F480E0382A33E0E32E14
:10489000F12C9CCE86988E988E9881E0F60120812E
:1048A00031812A153B0509F480E0382A24E0E22E04
:1048B000F12C8CCE87988F988F9881E0F60120811B
:1048C00031812A153B0509F480E0382A95E0E92E6C
:1048D000F12C7CCE22982A982A984DCF809186017F
:1048E000811166CF80916C02882319F084EF0E94B9
:1048F000111180916B02882319F085EF0E9411112C
:104900002B96E2E10C94282ECDB7DEB7AC970FB60C
:10491000F894DEBF0FBECDBF85B7806885BF85B771
:10492000806885BF84B7877F84BF0FB6F894A89549
:1049300080916000886180936000109260000FBEDB
:1049400080E890E00FB6F894809361009093610046
:104950000FBE8EE197E090936301809362010E9405
:10496000A10D0E949A0A0E94430B8091E20084608C
:104970008093E200789480911C02882399F08091C2
:10498000E9001091EC001795112717958F70182BDF
:104990001092E9008091E80083FD0E94D0131F70FF
:1049A0001093E90082E084BD93E095BD9AEF97BD36
:1049B00080936E000E94B40C811102C00E945513B6
:1049C0008091E50181110EC00E948B2C2FEF33EDF9
:1049D00040E3215030404040E1F700C0000081E05A
:1049E0008093E5012198299822982A9884988C9898
:1049F00085988D9886988E9887988F9829982A9868
:104A00008C988D988E988F980E94390E6E98769A11
:104A100052985A9A53985B9A54985C9A57985F9A0E
:104A20003E98469A24982C9A0E941F0E8CE0E6EE3F
:104A3000F1E0DF01282F1D922A95E9F7ECE0F2E082
:104A4000DF011D928A95E9F780E090E00E94922EA6
:104A5000883E9E4F21F40E94B40C811102C00E9436
:104A6000651382E090E00E948A2E8093F6010E94F6
:104A7000A60C9093E2028093E1020E94C622EFEF1F
:104A8000F6E721E0E150F0402040E1F700C00000EF
:104A90000E94C62280910C0280FF08C06FEF7FEF5A
:104AA00080E090E00E94B62E0E94DC0983E090E056
:104AB0000E948A2E0E949416259A2D98269A2E9846
:104AC000239A2B980E941A040E941D040E9420041D
:104AD0000E942304559A5D983FEF40E752E0315021
:104AE00040405040E1F700C00000259A2D9A8FEF1A
:104AF00090E7A2E081509040A040E1F700C00000A4
:104B0000269A2E9ABFEFE0E7F2E0B150E040F04085
:104B1000E1F700C00000239A2B9A2FEF30E742E024
:104B2000215030404040E1F700C000000E941A04CC
:104B30005FEF80E792E0515080409040E1F700C085
:104B400000000E941D04AFEFB0E7E2E0A150B040CA
:104B5000E040E1F700C000000E942004FFEF20E7E2
:104B600032E0F15020403040E1F700C000000E94E8
:104B700023040E941A040E941D040E9420040E9423
:104B8000230484E091E090931E0280931D028E0125
:104B90000F5F1F4F80911C02853059F480911C02D9
:104BA000853009F461C00E94FD110E9450090E94E5
:104BB00066040E94C622A7EF6A2EA1E07A2EBCE00E
:104BC000EB2EB2E0FB2ED701F301219131918D91B3
:104BD0009D9143E052E04E175F0709F49AC02817F1
:104BE000390799F3FCE08F2EF2E09F2E312CD4018F
:104BF000CD90DD904D01F301419051903F014C1457
:104C00005D0459F14C245D24212CAA24A394B12CD9
:104C1000C50184219521892BB1F029823A8221E0B6
:104C2000C5018C219D21892B09F420E02B830E9452
:104C3000700E8160782F9D838C8349815A816B81AE
:104C4000892F0E94B0212394AA0CBB1CFEE02F12D6
:104C5000DFCFF3013297D182C082339426E0321243
:104C6000C6CF0E94BF0977C080911C02843039F101
:104C700080E00E9466041092F20148E150E080E476
:104C80000FB6F894A895409360000FBE8093600023
:104C900083B7817F846083BF83B7816083BF78944B
:104CA000889583B78E7F83BF0FB6F894A8958091BF
:104CB0006000886180936000109260000FBE809158
:104CC000F301882309F46ACF0E94C622ECE0F2E0E7
:104CD00081919191892B29F492E0E831F907C1F78C
:104CE0005DCF80E189BD82E189BD09B400FEFDCFC1
:104CF0008091D8008F7D8093D8008091E000826001
:104D00008093E0008091E00081FDFCCF0E94FD11C6
:104D100045CF2817390709F065CF0E94700E6C0146
:104D20008091F4019091F501C816D906A1F08FEF9A
:104D300089838A831B820E94700E8160782F9D83F5
:104D40008C8349815A816B81892F0E94B021D09236
:104D5000F501C092F4018091D80280FF1CC08091BF
:104D6000170182FF18C00E94700EBC018091700272
:104D7000909171029B01281B390B80911001909139
:104D800011012817390738F041E0809172029091A3
:104D900073020E94751080916D02882369F00E9451
:104DA000700E20916E0230916F02821B930B8F3F29
:104DB0009F4710F40E94230F86E0E5E6F2E0D80159
:104DC00001900D928A95E1F71092670210926802A5
:104DD0001092690210926A028B819C81892B882330
:104DE00099F080910502909106020E9414179C018F
:104DF00080916402882309F462C04091150150E05B
:104E00004217530708F469C08D819E81892B88233E
:104E100099F080910302909104020E9414179C0162
:104E200080916302882309F497C04091130150E0F8
:104E30004217530708F49EC046E050E0B80185E6EB
:104E400092E00E946D2E892B61F48091670290910F
:104E50006802892B90916902892B90916A02892BB3
:104E600081110E946A0F86E0F801A5E6B2E0019088
:104E70000D928A95E1F70E945009D82E8091070281
:104E8000D81639F0D09207020E94BF098D2D0E94DA
:104E9000660480911C02843009F07CCE83E080930C
:104EA000E9008091E80082FF75CE8091E80085FDE1
:104EB000A0C08091E8008B778093E8006BCE409192
:104EC00014019AE0499FA00111244217530708F0EA
:104ED0009BCF8F5F8093640202C08F3FD1F7DB804E
:104EE000DD2059F00E94200791E01D140CF09FEF87
:104EF000899F802D112480936702DC80DD2059F08A
:104F00000E94200791E01D140CF09FEF899F802DD7
:104F100011248093680230916702332309F474CF1F
:104F200020916802222309F46FCF45EB3403C001BE
:104F30001124892F911101C081E08093670255EB04
:104F4000250390011124332319F0309368025CCFBC
:104F500081E08093680258CF409112019AE0499F06
:104F6000A00111244217530708F066CF8F5F80938A
:104F7000630202C08F3FD1F7DD80DD2059F00E942F
:104F8000800791E01D140CF09FEF899F802D112464
:104F900080936902DE80DD2059F00E94800791E055
:104FA0001D140CF09FEF899F802D112480936A02BD
:104FB00030916902332309F43FCF20916A02222302
:104FC00009F43ACF45EB3403C0011124892F911124
:104FD00001C081E08093690255EB25039001112403
:104FE000332319F030936A0227CF81E080936A025D
:104FF00023CF0E94690A60E2A62EB12C68018823A3
:1050000069F18091E8008B778093E800C0901A02E4
:10501000D0901B02E981C114D10471F1EE3F09F077
:105020004EC08A81833020F08550833008F047C01D
:10503000EA81EE3008F043C0F0E0E55EF04D0C94FC
:10504000572E8091F100D6018C93B1E0AB1AB108D4
:10505000A114B104B1F2EFEFCE1ADE0A8091E8009C
:1050600085FDEFCF8091E8008B778093E8000E9468
:10507000690A882399F3C5CFE43150F4EE2351F047
:10508000E150E33138F4F0E0E75DF04D0C94572E39
:10509000EE3F71F28FEFACC21A8289E08B830FC0B2
:1050A0008A81823081F08330B9F0813099F70E9493
:1050B000BF090E945D2E6B837C838D839E83C80114
:1050C0000E94E70A67CD86E290E00E948A2E1B824A
:1050D0001C821D828E83F3CF809118029091190259
:1050E000892B69F3F801D7018C9111969C91B2E05C
:1050F000EB0EF11C92838383329628E1E21622E0C4
:10510000F20689F7DCCF8A81823021F68B819C817F
:10511000AD81BE8189A79AA7ABA7BCA7BC01CD0171
:105120000E945D2E86E290E00E94982EC8CF4C81AE
:105130006B818A810E94CD0C9827892798279E83AE
:105140008D83BDCF2D813E813227232732274C818D
:105150006B818A810E946F0CB2CF0E940513AFCF82
:1051600080E18A83ACCF81E08A8385E197CF8C810F
:10517000C82ED12C8D3108F0A2CFEA80FB80FE240E
:10518000EF24FE24CE0CDF1C5E0195E0A90EB11CBD
:10519000EC14FD0409F493CF80E0A5E1EA16A1E048
:1051A000FA0628F4C70185519D4F0E948A2EF50109
:1051B00081935F01FFEFEF1AFF0AEACF8091180297
:1051C00090911902892B09F47ACF8C81A82EB12CE9
:1051D0008D3108F074CFEA80FB80FE24EF24FE249A
:1051E0006801A00EB11EAC14BD0409F468CF25E11E
:1051F000E21621E0F20640F4D60114966C91C70144
:1052000085519D4F0E94982EBFEFEB1AFB0AEFEFDE
:10521000CE1ADE0AE8CF0E94960C51CF84E0A1CFCF
:105220008C81C82ED12C8D3108F049CFEA80FB80CB
:10523000FE24EF24FE24CE0CDF1C5E01F5E0AF0E51
:10524000B11CEC14FD0409F43ACF80E020EAE21628
:1052500022E0F20620F4C70187960E948A2ED5012B
:105260008D935D01BFEFEB1AFB0AEBCF8C81C82E4B
:10527000D12C8D3108F023CFEA80FB80FE24EF246F
:10528000FE24E0EAEE16E2E0FE0608F018CF80EA1F
:1052900092E08E199F098C159D0508F410CF80911E
:1052A000180290911902892BE1F53701F7E26F0E90
:1052B000711C570121E0A222BB24A114B10469F0A2
:1052C000C70186960E948A2E9D8189279827892763
:1052D00081159C4511F48FEF8D83C7018C0D9D1DA9
:1052E000460180FF17C041E0841A910855E0452E21
:1052F000512C4C0E5D1E480C591CC3018C0D9D1D7C
:105300000E948A2ED2019C9181159C4519F48FEF41
:10531000F2018083F801EA0DFB1D2FEFA814B904F8
:1053200020F05801C00ED11E1EC0948185818115C8
:105330009C4511F42483258342E0A40EB11C3296CF
:10534000EDCF50EAE51652E0F50638F4D501149693
:105350006C91C70187960E94982EBFEFEB1AFB0A4B
:10536000EFEFAE1ABE0ACA14DB0459F7A8CE80913B
:10537000180290911902892B09F4A1CEC8010E944C
:10538000E70AFFEF21EE34E0F15020403040E1F732
:1053900000C0000089CB88E0ECE1F1E0DE019196ED
:1053A00001900D928A95E1F7FE0132968FE1DF01BF
:1053B0001D928A95E9F785E0898388E07F96DE0172
:1053C000159601900D928A95E1F779CE80ED89834B
:1053D00081E08A831B821C8272CE8B819C81092E84
:1053E000000CAA0BBB0B45E0880F991FAA1FBB1F1F
:1053F0004A95D1F7AC01BD01405E5F4F6F4F7F4FC3
:10540000803EEFEF9E07AE07BE0708F058CE803D06
:10541000F1E09F07A105B10508F051CE413D21E023
:1054200052076105710520F040ED51E060E070E049
:10543000481B590BBC016B5D794FC8010E94642E5B
:105440003ECE4AE150E06FEF70E0CE0107960E9439
:10545000832E809118028983CA8285E08B838C8396
:105460008D8386E037CE81E090E090931B0280939D
:105470001A0282E390E090930B0280930A020E944A
:10548000700E909309028093080219CECD28D1F1B5
:10549000E0901602F09017028091080290910902A4
:1054A0000E94141785369105B0F1C70135E0969535
:1054B00087953A95E1F78170882369F126E0F694A3
:1054C000E7942A95E1F73E2D3170332321F10E94B4
:1054D000700E909309028093080280910A029091C5
:1054E0000B02019790930B0280930A02892B51F4CF
:1054F00010921B0210921A0281E090E09093190220
:105500008093180280911802898380911A028A83FD
:1055100080910A02C3CD82E390E090930B028093C6
:105520000A02F0CF1092190210921802C8CDEB8037
:10553000FC8040E250E06FEF70E0C8010E94832ED3
:1055400089E295E020E030E042E050E0FC01659126
:105550007491E616F70658F046E08931940709F48D
:10556000AECDB9016E5F7F4F0C96A90112C0200F1E
:10557000311FD9016D937C93B6E089319B0709F403
:105580009ECDBA016E5F7F4F0C966132710508F0B7
:1055900096CD9A01AB01DACF2B813C81E9E2F5E0AF
:1055A000859194918217930791F085E395E045E208
:1055B00056E04817590709F46DCDFC0165917491C7
:1055C000FC013C962617370721F0CF01F2CF89E284
:1055D00095E0FC013696259134912115310509F4A9
:1055E00059CD4FE150E0BE016E5F7F4FF901099543
:1055F000898365CD2B813C81E9E2F5E08591949129
:105600008217930791F185E395E045E256E048174C
:10561000590721F4CC24CA94DC2C25C0FC016591E7
:105620007491FC013C966217730711F0CF01EFCF24
:105630007C01F7013896259134912115310551F3FC
:105640004CE150E0BE016B5F7F4FC701F901099546
:105650006C01892B41F4F7013A968591949100975A
:1056600011F0FC010995C9822ACD99E2E92E95E055
:10567000F92EDFCF0E94B81222CD8B8181111FCD70
:1056800080E2D8011D928A95E9F719CD78941F928E
:105690001FB61F9211248F939F93AF93BF93809156
:1056A000BB019091BC01A091BD01B091BE010196DA
:1056B000A11DB11D8093BB019093BC01A093BD01BE
:1056C000B093BE01BF91AF919F918F911F901FBE6C
:1056D0001F9018951F920F920FB60F9211242F93BF
:1056E0003F934F935F936F937F938F939F93AF936A
:1056F000BF93EF93FF938091E10082FF09C08091F7
:10570000E20082FF05C08091E1008B7F8093E10081
:105710008091DA0080FF24C08091D80080FF20C0F3
:105720008091DA008E7F8093DA008091D90080FF2B
:105730009BC080E189BD82E189BD09B400FEFDCF37
:1057400081E080931C0280918E01811109C00E942A
:105750009A0A0E94430B8091E20084608093E200E9
:105760008091E10080FF17C08091E20080FF13C0AC
:105770008091E2008E7F8093E2008091E200806160
:105780008093E2008091D80080628093D80019BC99
:1057900085E080931C028091E10084FF29C0809104
:1057A000E20084FF25C080E189BD82E189BD09B4A2
:1057B00000FEFDCF8091D8008F7D8093D80080912E
:1057C000E1008F7E8093E1008091E2008F7E8093E4
:1057D000E2008091E20081608093E20080918D017F
:1057E000882309F447C084E080931C0280911C0246
:1057F0008091E10083FF27C08091E20083FF23C0F6
:105800008091E100877F8093E10082E080931C0219
:1058100010928D018091E1008E7F8093E100809154
:10582000E2008E7F8093E2008091E20080618093AD
:10583000E20042E060E080E00E940C0B8091F0000A
:1058400088608093F000FF91EF91BF91AF919F919D
:105850008F917F916F915F914F913F912F910F9019
:105860000FBE0F901F90189519BC10921C02109239
:105870008E0176CF8091E30087FF02C083E0B4CF32
:1058800081E0B2CF1F920F920FB60F921124FF92B8
:105890000F931F932F933F934F935F936F937F9338
:1058A0008F939F93AF93BF93CF93DF93EF93FF9328
:1058B00009EE10E0F8018081C091EC00C795CC277B
:1058C000C7958F70FC2EF82A1082C0EFD0E0888137
:1058D000877F888378940E94D013F8011082888192
:1058E00088608883CF2DCF70C083FF91EF91DF91C7
:1058F000CF91BF91AF919F918F917F916F915F9168
:105900004F913F912F911F910F91FF900F900FBEDC
:105910000F901F9018951092B9008CE08093B800FA
:105920000895A0E0B0E0E7E9FCE20C94132EB82E55
:10593000EB010E94700E6C01EE24E394F12CC43153
:10594000D10560F025E0E22EF12CCF3FDC0731F0ED
:10595000CE0164E170E00E94F82D7B0184EAA82E5C
:1059600094E8992E1092BC00A092BC000E94700E88
:10597000182F092F8091BC0087FF0CC08091B900BF
:10598000887F8830F9F08091B900887F8031D1F02C
:105990000FEF08C0812F902F0E941417E816F90608
:1059A00048F70EEF1FEFCF3FDC07E1F2C6010E9480
:1059B0001417C817D907B0F6C801CDB7DEB7EBE0AA
:1059C0000C942F2EB092BB009092BC000E94700EDF
:1059D000182F092F8091BC0087FF0AC02091B900C1
:1059E000287F283111F0203499F600E010E0E4CF50
:1059F000812F902F0E941417E816F90658F7D1CF7F
:105A00000F931F93CF93DF93EB018093BB0084E848
:105A10008093BC000E94700E182F092F8091BC004B
:105A200087FF11C02091B900287F81E090E02832E3
:105A300011F480E090E0919581959109DF91CF91EB
:105A40001F910F910895CF3FDC0741F3812F902FD5
:105A50000E941417C817D90708F78EEF9FEFEECFF3
:105A60000F931F93CF93DF93EC0184EC8093BC00E2
:105A70000E94700E182F092F8091BC0087FF08C06C
:105A80008091BB0090E0DF91CF911F910F9108951D
:105A9000CF3FDC0789F3812F902F0E941417C8177E
:105AA000D90750F78EEF9FEFEECF0F931F93CF9351
:105AB000DF93EC0184E88093BC000E94700E182FE5
:105AC000092F8091BC0087FF08C08091BB0090E047
:105AD000DF91CF911F910F910895CF3FDC0789F39C
