:100000000C94B2020C94CF020C94CF020C94CF0249
:100010000C94CF020C94CF020C94CF020C94CF021C
:100020000C94CF020C94CF020C94AE1F0C9486203B
:100030000C942C0B0C94CF020C94CF020C94CF0296
:100040000C94CF020C94CF020C94CF020C94CF02EC
:100050000C94CF020C948A1F0C94CF020C94CF0204
:100060000C94CF020C94CF020C94CF020C94CF02CC
:100070000C94CF020C94CF020C94CF020C94CF02BC
:100080000C94CF020C94CF020C94CF020C94CF02AC
:100090000C94CF020C94CF020C94CF020C94CF029C
:1000A0000C94CF020C94CF020C94CF0205010902EC
:1000B000A10185020901A1000509190129081500FE
:1000C0002501950875018102050109300931158165
:1000D000257F95027508810609381581257F9501D0
:1000E00075088106050C0A38021581257F95017572
:1000F000088106C0C005010980A101850319012AF4
:10010000B700150126B700950175108100C0050CD8
:100110000901A101850419012AA002150126A002E6
:10012000950175108100C005010906A1018506052C
:100130000719E029E71500250195087501810205D9
:1001400007190029EF1500250195F07501810205B9
:10015000081901290595057501910295017503910D
:1001600001C005010906A101050719E029E71500ED
:100170002501950875018102950175088101050722
:10018000190029FF150026FF009506750881000556
:1001900008190129059505750191029501750391CD
:1001A00001C009023B00020100A0FA09040000019D
:1001B000030101000921110100012240000705810E
:1001C00003080001090401000103000000092111D6
:1001D00001000122B6000705820320000112010080
:1001E0000200000008091228230100010200011288
:1001F000034500720067006F0064006F006E0065C9
:1002000000000012034B002E0054002E0045002E6B
:100210000043002E0000000403090421022E022FD7
:10022000002F0226022402000000002E00270230C8
:1002300002300025021E022B003300360037001367
:10024000001C003102310009000A00060015000FF1
:10025000003800290004001200080018000C0000FB
:1002600000000007000B001700110016002D00E130
:1002700000340014000D000E001B001F0265000575
:100280000010001A0019001D00E500E300390049C4
:100290000050004F0000000000000000005200511C
:1002A000000452737CE70000004D004C002A004A15
:1002B00000E000E200E600E4004B002C0028004EC5
:1002C00000000001003A003B003C003D003E0044BD
:1002D0000045003F0040004100420043008500010E
:1002E00000010001000100010001000100010054B3
:1002F000005F00600061005600670001000100011E
:10030000000100010001000000000055005C005DDC
:10031000005E0057005800010001000100010001CB
:1003200000010001000100620059005A005B0063F7
:1003300000010001000100010001000100000000B7
:1003400000000000000100010001000100010000A8
:100350000001000100010001000100010001000195
:100360000001000100010001000000010001000186
:100370000001000100010001000100010001000175
:100380000001000100010001000100010001000165
:100390000001000100010001000100010001000155
:1003A0000001000100407E417E01000100010000CB
:1003B0000000000100010001000100010001000136
:1003C0000001000100010001000100010001000125
:1003D0000001000100010001000100010001000115
:1003E0000001000100000000000000000001000109
:1003F00000010001000100000001000100010001F6
:1004000000010001000100010001000100010001E4
:100410000000002E001E001F00200021002200E32B
:1004200000E700230024002500260027002D002BD4
:100430000014001A00080015001700010001001C3C
:100440000018000C001200130031002900040016EF
:1004500000070009000A00000000000B000D000E5C
:10046000000F0033003400E1001D001B00060019DE
:1004700000050001000100110010003600370038AF
:1004800000E500737C3500390050004F000000008B
:100490000000000000520051002F003000650000F5
:1004A0000001000100010001000100010001000144
:1004B0000001000100010001000000000000000038
:1004C000000000000000000000000000000000002C
:1004D000000000000000000000000000000000001C
:1004E000000000000000000000000000000000000C
:1004F00000000000000052015202520352000000AE
:1005000000000000000000000000000000000000EB
:1005100000000000000000000000000000000000DB
:1005200000000000000000000000000000000000CB
:1005300000000000000000000000000000000000BB
:1005400000000000000000000001000100010001A7
:100550000001000100010001000100010001000193
:100560000000000011241FBECFEFDAE0DEBFCDBFD8
:1005700012E0A0E0B1E0E8E8F6E402C005900D92D8
:10058000A035B107D9F723E0A0E5B2E001C01D9284
:10059000A439B207E1F70E94CF1B0C94F0220C940F
:1005A0000000259A2D980895269A2E980895239A4A
:1005B0002B980895559A5D9A08959C019A958115F6
:1005C0009F4118F5F901EE27F270832F8170B90170
:1005D00066277470A9014427587034FF0CC08295B7
:1005E000807FEF2B09F08062672B09F08064452B38
:1005F00069F080680895EF2B09F08260672B09F09D
:100600008460452B19F08860089580E008958295F4
:1006100094E0899F900111242C7C869586958373A4
:10062000282B30E0C901880F991F8A7A35952795C4
:100630002575822B089580FF08C02D9A81FF07C081
:100640002E9A82FF06C02B9A08952D98F7CF2E98E8
:10065000F8CF2B98089590935403809353030895F3
:100660009093560380935503089521E030E002C033
:10067000220F331F8A95E2F780915503909156031C
:10068000822B932B0E943003089521E030E002C0BA
:10069000220F331F8A95E2F72095309580915503FC
:1006A00090915603822393230E943003089596303D
:1006B00098F58E3088F5E82FF0E08EE0989FE00DF9
:1006C000F11D11248E2F877041E001C0440F8A95DF
:1006D000EAF783E0F695E7958A95E1F7EE0FFF1FBD
:1006E000EE0FFF1FE85FFC4F20E030E070E051911B
:1006F000DF011197CB01022E02C0969587950A94CF
:10070000E2F7817081958527842385278C932F5F5D
:100710003F4F2430310559F70895963078F58E30E3
:1007200068F5E82FF0E08EE0989FE00DF11D1124B0
:100730009E2F977083E0F695E7958A95E1F7EE0F87
:10074000FF1FEE0FFF1FE85FFC4F40E050E080E02E
:10075000219130E0092E02C0369527950A94E2F7E0
:1007600021703327042E01C0220F0A94EAF7822B4E
:100770004F5F5F4F4430510559F7089580E0089569
:1007800080915C0390915B03981301C008958F5F83
:100790008770FACF909128019923C1F09091580366
:1007A00097FF14C0E82FE695E695E695803FF8F4AC
:1007B000F0E0EE5AFD4F877021E030E001C0220FDB
:1007C0008A95EAF78281822B82830895A4E5B2E0BC
:1007D000EFEF90E02D91821751F0EF3F19F42111C6
:1007E00001C0E92F9F5F9630A9F7EF3F09F4089504
:1007F0000E2E000CFF0BEE5AFD4FE6CF9091280114
:100800009923E1F09091580397FF18C0E82FE695DF
:10081000E695E695803FF0F4F0E0EE5AFD4F8770E4
:1008200021E030E0A90102C0440F551F8A95E2F78C
:10083000CA0180959281892382830895E4E5F2E0DC
:100840009191891303C0DF0111971C9252E0EA35A0
:10085000F507B1F70895209157038095822380937F
:100860005703982F9770911113C030E0482F082E2E
:10087000000C550B2417350759F09091590392FF3E
:1008800007C08595859585950E944503109257036D
:100890000895982F90958091510389238093510357
:1008A0000895809152038111109252030895763079
:1008B000B8F46E30A8F48530B0F4E62FF0E09EE096
:1008C000799FE00DF11D112494E5899FE00DF11D44
:1008D0001124EE0FFF1FE55EFD4F85919491089561
:1008E00080E090E0089581E0FCCF803E9105D1F159
:1008F000C8F48133910509F47FC048F48932910529
:1009000009F46FC08A32910509F47DC008958933D6
:100910009105E1F082389105C9F08533910509F41C
:100920005BC00895843E9105D1F148F4823E910563
:1009300031F1833E910541F181EE90E00895863ECC
:100940009105C1F1873E9105E1F108952091580389
:100950002370211165C02091590323FF14C089E23F
:1009600090E008952091580320FD43C03091590331
:1009700030FF09C024FF4EC080E090E00895209130
:10098000580322FDF7CF08952091580322FD45C05A
:100990003091590330FD44C024FFF5CFEDCF2091B5
:1009A000590321FFF0CF8091580384FDE5CF87EEF6
:1009B00090E008952091580323FFE5CF24FDDCCF7C
:1009C000F6CF2091580323FD2EC03091590331FFFB
:1009D000E3CF84EE90E008952091580325FFD3CF14
:1009E000BECF2091580325FD21C02091590323FF3C
:1009F000CACF89E390E008952091580326FFC3CF22
:100A00008AE290E008952091580326FFBCCF81E34D
:100A100090E0089583EE90E0089582EE90E00895CE
:100A200080EE90E0089586EE90E0089585E390E0F2
:100A3000AACF2091580322FF06C0982F98719830B2
:100A4000C1F4877F846090915903392F317092707F
:100A500023FF21C0482F4871483191F4877E84617B
:100A60009923B1F0982F9171913191F48E7E886124
:100A70000FC0982F9471943031F78B7F8860E3CF4B
:100A8000482F4471443139F48B7E8861911118C02C
:100A900024FD877E0895332369F0382F387138306C
:100AA00019F4877F8160DCCF382F3171313011F438
:100AB0008E7F8860992361F3982F9871983191F611
:100AC000877E8161E5CF1F93CF93DF930E947504EA
:100AD000EC01811522E5920708F053C0811540E52D
:100AE000940708F0DDC0803E9105F8F48D3C910537
:100AF00008F0AEC0883A910580F4853A910508F077
:100B000099C08130910521F00497813A910550F404
:100B1000CE01DF91CF911F910895885A91094B978B
:100B200008F48BC0C0E0D0E0F3CF811550E4950706
:100B3000F8F4C11580E2D80708F0CBC0C83ED10553
:100B400038F3CE019A9581159F4160F78D2F0E9451
:100B50001905182FCE0199270E947504212F30E026
:100B6000322F2227E901CC27DF71C82BD92BD0CF18
:100B700099270E947504CC27DF70C82BD92BD06A27
:100B8000C7CF803842E59407C8F5803652E595070F
:100B900008F067C0C03482E5D807B0F08C2F869586
:100BA0008695877020E2829FC0011124C37021E0E6
:100BB00030E0A90102C0440F551FCA95E2F7EA01CF
:100BC000C82BD92BDC68A4CFC03252E5D50708F07A
:100BD00041C08C2F8695869520E2829FC00111240A
:100BE000C37021E030E0A90102C0440F551FCA952F
:100BF000E2F7EA01C82BD92BDD688ACF803C52E5A9
:100C0000950760F48F71C03AD24508F03FC090E07C
:100C1000982F8827EC01C46FD06A7ACF805C924508
:100C2000809708F07FCFDC2FCC27CC27DF71C06FF7
:100C3000D06A6ECFA497D0646BCFC85AD0E0CC0FE7
:100C4000DD1FC65EDD4F0990D881C02DD46460CF12
:100C5000D0655ECFCF71D0E0DC2FCC27C16FD06ADA
:100C600057CF86958695877020E2829FC001112418
:100C7000C37021E030E0A90102C0440F551FCA959E
:100C8000E2F7EA01C82BD92BDA6842CF0E94190596
:100C9000C82FD0E0DC2FCC27CC27DF71D06238CF33
:100CA0008F710E94190565E0D695C7956A95E1F7A1
:100CB000CF70D0E0DC2FCC27282F30E084FF05C098
:100CC00054E0220F331F5A95E1F7C22BD32BD06982
:100CD0001FCF8D2F8F710E941905182FCE019927D4
:100CE0000E947504212F30E0322F222722273F71E6
:100CF000282B392BE901D2CFA0E0B0E0E2E8F6E002
:100D00000C9459228C01E0905503F0905603809189
:100D1000530390915403E82AF92ACFE0D0E0CC2481
:100D2000C394D12CC6010C2E02C0880F991F0A94BF
:100D3000E2F78E219F21892B49F4219798F7B12C56
:100D40008B2DCDB7DEB7E9E00C947522BC2EB8012F
:100D50008C2F0E9457040E946305019771F3F0CF16
:100D60000F931F93CF93FC0182810081118188230F
:100D700091F0662381F0C8010E947C06C82F682F7D
:100D8000C8010E945703B8018C2F0E945704CF91CD
:100D90001F910F910895C8010E948D03C82FF3CFB2
:100DA000CF93DF93D82FC92F0E947C066D2F7C2F05
:100DB0000E9457040E946305DF91CF910895FC01C2
:100DC00083819481892BC9F08181908189238F3F10
:100DD000A1F0808191810E94D006282F92959F706A
:100DE000963091F060F4925F9F70923030F481E021
:100DF000203F79F030F4283E30F080E004C09A5F64
:100E0000F3CF243FD1F7089581E0283E18F0213F29
:100E1000F9CF0895089580E008958091360380FD0C
:100E200014C081FD14C082FD16C080913503882353
:100E300081F08E3180F420E5829FC00111246EE1A3
:100E400070E00E948722862F089584E1089588E249
:100E5000089588E0089580E508958091360380FD27
:100E600017C081FD17C082FD19C08091340388230B
:100E700099F0883298F428E0829FC001112468E23A
:100E800070E00E9487226115710551F0862F089548
:100E900062E0FCCF64E0FACF61E0F8CF68E0F6CF23
:100EA00081E00895FC018581862381110AC0828139
:100EB0008823B9F06823918593FF05C081E0611113
:100EC0000FC080E00895282F22952F708F70282B57
:100ED000962F92959F706F70962B81E02913F1CF1A
:100EE000089581E0FDCFE091E602F091E7023097AE
:100EF00029F00190F081E02D0995089580E0089592
:100F0000A3E0B0E0E6E8F7E00C9460229C01809159
:100F1000A8029091A90282179307A1F03093A90229
:100F20002093A802E091E602F091E702309751F099
:100F300083E089833B832A830680F781E02DCE01FD
:100F4000019609952396E2E00C947C22A3E0B0E0A0
:100F5000ECEAF7E00C9460229C018091A60290914B
:100F6000A70282179307A1F03093A7022093A6024D
:100F7000E091E602F091E702309751F084E0898336
:100F80003B832A830680F781E02DCE0101960995E7
:100F90002396E2E00C947C22A4E0B0E0E2EDF7E0DE
:100FA0000C9460228FB7F8942091D3023091D40230
:100FB0004091D5025091D60229833A834B835C83BA
:100FC0008FBF69817A818B819C812496E2E00C94A9
:100FD0007C220F931F93CF93DF93D82FC92F40917B
:100FE00046035091470360914803709149032FB71E
:100FF000F8948091D3029091D402A091D502B0913F
:10100000D6022FBF841B950BA60BB70B843F9140D4
:10101000A105B10528F560914603709147038091C1
:1010200048039091490304EF11E020E030E0609321
:10103000DB027093DC028093DD029093DE0200936A
:10104000D7021093D8022093D9023093DA02D093BA
:101050004403C0934503DF91CF911F910F910895F1
:101060000E94CC0702E310E020E030E0E0CF87E709
:1010700097E7909301088093000888E19AE00FB603
:10108000F894A895809360000FBE90936000FFCF06
:101090008091A5020895FC019B01809183029091AB
:1010A00084028617970740F0672B29F48091E800A7
:1010B0008E778093E800C90140E0009741F4411128
:1010C00006C08091E80082FF2FC080E00895209143
:1010D000B9022223A9F12530A9F12091E80023FDCE
:1010E0002DC02091E80022FDECCF2091E80020FFE8
:1010F000E4CF3091F3002091F200009719F02830EE
:10110000310558F041E02830310509F040E02091E8
:10111000E8002E772093E800D0CF41914093F10072
:1011200001972F5F3F4FE9CF8091B902882341F0AB
:10113000853041F08091E80083FFC3CF81E00895BE
:1011400082E0089583E0089580917D0287FF13C0B7
:101150008091E80082FF06C08091E8008B77809341
:10116000E80004C08091B9028111F2CF0895809106
:10117000B9028823D9F38091E80080FFF8CF8091ED
:10118000E8008E77ECCF2091E4003091E50095E601
:10119000A9018091EC008170882331F08091E800F2
:1011A00080FF06C080E008952091E80022FD1BC06A
:1011B0008091B902882391F0853091F08091EB0005
:1011C00085FD10C02091E4003091E50042175307DF
:1011D00001F391509111DCCF84E0089582E00895ED
:1011E00083E0089581E00895E8EDF0E080818E7F4E
:1011F00080831092E2001092DA001092E100A0EEDB
:10120000B0E08C9181608C9380818F77808319BC52
:10121000A7EDB0E08C918E7F8C9380818F7E808350
:1012200010927C020895982FE42FE2709093E900C9
:10123000891308C0762F242F50E0E11111C091E0EE
:10124000980FF4CF7091EC002091ED005091F000D8
:1012500021FD06C09F5F973049F78093E90008950C
:101260003091EB003E7F3093EB003091ED003D7FFD
:101270003093ED003091EB0031603093EB007093D0
:10128000EC002093ED005093F0002091EE0027FD3C
:10129000E1CF0895A0E0B0E0E0E5F9E00C945A2237
:1012A000C8EDD0E088818F7E8883E7EDF0E0808113
:1012B0008160808384E082BF81E080937C028881AA
:1012C0008E7F888302EE10E0F80110821092DA001F
:1012D00081EEC82ED12CF601108288818F77888309
:1012E00088818068888388818F7D888319BC10926B
:1012F000B90210927B021092B80210927A0290EE1C
:10130000E92EF12CF70180818B7F808388818160B9
:10131000888342E060E080E00E941309F60180814A
:101320008E7F8083F80180818160808380818860E6
:101330008083F70180818E7F8083888180618883AC
:10134000CDB7DEB7E8E00C947622E0915C03909193
:101350005B0326E0E91302C080E00895AE2FB0E001
:101360002E9FF0011124E35AFC4F3181361306C041
:101370003081381303C03281341304C0FD0131962B
:10138000E770E8CF81E008950F931F93CF93DF9329
:10139000EB018A019091B902943079F58093E900CC
:1013A0008FEF9091E80095FD07C095ED9A95F1F7C4
:1013B000000081508111F5CF8091E80085FF1DC0AC
:1013C0000E94C308811114C08091E80085FD06C009
:1013D0008091E8008E778093E800F2CF8881809337
:1013E000F100015011090115110511F02196ECCF02
:1013F0008091E8008E778093E800DF91CF911F9174
:101400000F910895CF93DF93D82FC92F8091280192
:10141000811113C048E050E06D2F792F81E00E94C8
:10142000C40980E2ED2FFC2FA5E8B2E001900D92F7
:101430008A95E1F7DF91CF9108958091580387FD58
:1014400006C048E081E050E06D2F7C2FE8CF40E2FD
:1014500082E0F9CFBC0146E050E082E00E94C4097E
:101460000895BC0143E050E082E00E94C409089561
:101470009091590392FB222720F9281779F080FBDD
:1014800092F990935903609158037091590384E045
:1014900090E00E94CD2282E00E942B040895CF9319
:1014A0008091510390915A03892B8093520290911D
:1014B00052039923D9F0892B8093520280912801FD
:1014C000882309F44CC08091580387FF48C08DE100
:1014D00090E024E532E0F90140812F5F3F4F411158
:1014E0009F5F8150C0F791110E945104C091400349
:1014F000C09580915202C82380913F03C82BC093AE
:10150000520240E250E068EE72E082E592E00E9412
:10151000E322892B11F180E2E2E5F2E0A8EEB2E0ED
:1015200001900D928A95E1F7E091E602F091E702D1
:10153000309799F080912801882349F080915803D1
:1015400087FF05C0C093530286E080935202028059
:10155000F381E02D82E592E00995CF91089585E031
:10156000B7CF882339F090915103892B8093510391
:101570000E944F0A0895882321F00E9449040E9486
:101580004F0A0895882339F090915A03892B80934C
:101590005A030E944F0A089580914C03882349F012
:1015A00080915A038D7D80935A030E944F0A1092B6
:1015B0004C030895A1E0B0E0E0EEFAE00C945D2267
:1015C000F82E698304E610E021E030E0AE014F5FC1
:1015D0005F4F682F80E40E94BE21892B71F46CE07C
:1015E0006F0D21E030E0AE014F5F5F4F80E40E945D
:1015F000BE219C0181E0232B09F080E02196E5E0EB
:101600000C947922CF936FEF80E00E94DA0AC1E058
:10161000982F9C2780919303890F809393036FEFFA
:1016200081E00E94DA0A982F9C2780919303890F0A
:1016300080939303CF9108958091930381110BC000
:101640006FEF81E00E94DA0A91E09827809193037E
:10165000890F8093930308951F921FB61F92112440
:101660008F939F93AF93BF938091B702811113C063
:101670008091D3029091D402A091D502B091D6026C
:101680004196A11DB11D8093D3029093D402A093E3
:10169000D502B093D602BF91AF919F918F911F90C9
:1016A0001FBE1F9018952FB7F8948091D302909188
:1016B000D402A091D502B091D6022FBF08950E9406
:1016C000530B2091390330913A03232B222321F02D
:1016D0008093E1029093E20220913B0330913C031E
:1016E000232B222321F08093DF029093E002E091EC
:1016F000E602F091E702309749F082E080933703E9
:101700000480F581E02D87E393E009950895662331
:1017100009F44BC0E3E3E80FE33150F4F0E0EE509E
:10172000FD4D0C949B220E940D07819580933A03F6
:101730000E945F0B08950E940D07F8CF0E940D07CD
:10174000819580933903F4CF0E940D07FACF0E9450
:101750002D0780933B03ECCF0E942D078195F9CF95
:101760000E942D07819580933C03E2CF0E942D07B4
:10177000FACF815D990B21E030E001C0220F8A95FC
:10178000EAF780913803822B80933803D1CF809180
:101790003603816080933603CBCF8091360382601D
:1017A000F9CF809136038460F5CF409139038D3CA9
:1017B00059F480913A0387FF0DC010923A034423F5
:1017C00059F41092350308C08E3C81F480913A039D
:1017D00018169CF3442381F080913B0390913C03C5
:1017E000892B8111A5CF10923403A2CF8F3C41F4F5
:1017F00047FFF0CF1092390380913A038823E0CF5E
:10180000803D19F41416B4F3E5CF90913B03893D64
:1018100029F41916FCF610923B03DCCF8A3D19F42B
:1018200097FFD8CFF8CF90913C038B3D29F497FFD9
:10183000D1CF10923C03CECF8C3D19F41916CCF3C6
:10184000C9CF9FE2980F983090F4815D990B21E009
:1018500030E0B90102C0660F771F8A95E2F7CB012D
:10186000809590913803892380933803B3CF8D3DC1
:1018700031F4809136038E7F80933603ABCF8E3D5B
:1018800021F4809136038D7FF7CF8F3D09F0A2CFF1
:10189000809136038B7FF0CFCF93C82F8823B1F18F
:1018A0008CEF8C0F813AA0F580912801882301F1FB
:1018B0008091580387FF1CC0EC2FE695E695E695CE
:1018C000F0E0EE5AFD4F828190E04C2F477021E00E
:1018D00030E002C0220F331F4A95E2F782239323A0
:1018E000892B79F08C2F0E94FE030E944F0A09C0B9
:1018F000E4E5F2E08191C817A9F322E0EA35F207A6
:10190000C9F78C2F0E94CA030E944F0ACF910895F5
:1019100080E28C0F883068F4C77081E090E001C0ED
:10192000880FCA95EAF7C0915103C82BC0935103A1
:10193000EBCF8BE58C0F833038F42C2F2452330BF4
:10194000C9010E948007E2CFE8E5EC0FEB3150F4CB
:10195000F0E0EE0FFF1FE65EFD4F808191810E9457
:10196000A607D4CF83E38C0F833180F661E08C2F00
:101970000E94870BCBCF882381F19CEF980F913A7F
:1019800028F40E94FE030E944F0A089590E2980FE7
:10199000983050F4877091E001C0990F8A95EAF76A
:1019A000892F0E944904EFCF9BE5980F933028F4CC
:1019B00080E090E00E948007089598E5980F9B31A1
:1019C00028F480E090E00E94A607089593E3980F22
:1019D000933118F460E00E94870B08951F93CF9312
:1019E000DF93182FEB010E944C0C209739F4812FC4
:1019F0000E94BB0CDF91CF911F9108958FE99FE06A
:101A00000197F1F700C000002197EFCF1F93CF930C
:101A1000DF93182FA0914203B0914303109709F46C
:101A20004AC0109245031092440310924003109252
:101A30003F031796CD91DC911897CE019A958115A9
:101A40009F4108F4D07ED1E0C11101C0D0E01A96C8
:101A5000ED91FC911B97309731F01C966D917C9124
:101A600080E00995D823DD2339F08CEF8C0F813A83
:101A700030F58C2F0E94FE031123A9F0E091420360
:101A8000F0914303818584FD0EC08091410388233A
:101A900051F0808191819C01215031092F333E47C3
:101AA00010F40E94E9070E944F0A1092430310921B
:101AB000420310924103DF91CF911F9108950E943C
:101AC0004F0A8C2F0E94BB0CD7CF109251038091EC
:101AD0002801E4E5F2E0882329F18091580387FF8B
:101AE00021C08EE1DF011D928A95E9F780E090E048
:101AF0000E94800780E090E00E94A60710925A039F
:101B00000E944F0A86E0E7E3F3E0DF011D928A9529
:101B1000E9F71092350310923403109236030E94B5
:101B20005F0B089586E0DECF0E94650D2FEF84E302
:101B30009CE0215080409040E1F700C0000088E127
:101B40009AE00FB6F894A895809360000FBE90932A
:101B50006000FFCFAAE2B0E0E0EBFDE00C945F2272
:101B60008DE792E0FC0101962091F100208322E0B4
:101B700085389207B9F780917E02893009F456C002
:101B8000C8F4823009F4B2C0833009F481C08130D6
:101B900071F18091E80083FFE6C080917D02909111
:101BA0007E029A3008F0DFC0E92FF0E0EB5FFC4DD9
:101BB0000C949B228A3009F488C08B3051F78091B5
:101BC0007D02813231F78091810290918202892BCE
:101BD00001F78091E800877F8093E8000E94A408C5
:101BE00080917F02809328010E94650DD2CF809161
:101BF0007D02813A71F68091E800877F8093E8004A
:101C00008091810290918202892B61F060E080E0F6
:101C100090E070E00E944B088091E8008B77809301
:101C2000E800B7CF60E285E892E0F3CF80917D02D3
:101C3000813209F0AECF80918102909182020297A9
:101C400008F0A7CF8091E800877F8093E80080911B
:101C5000E80082FF18C09091F3008091F200029793
:101C600031F48091F100813011F0863021F48091BF
:101C7000F1008093A5028091E8008B778093E800C3
:101C80000E94A40886CF8091B9028111E0CF81CF54
:101C900080917D02813A09F07CCF80918102909100
:101CA0008202892B09F075CF8091E800877F8093AD
:101CB000E8008091E80080FFFCCF809128018093AC
:101CC000F1008091E8008E77D9CF80917D0281323A
:101CD00009F05FCF8091E800877F8093E8000E9441
:101CE000A408809180028093790253CF80917D0275
:101CF000813A09F04ECF8091E800877F8093E80019
:101D00008091E80080FFFCCF80917902D8CF8038A5
:101D100089F0823841F5809181028F70873018F503
:101D20008093E9008091EB0085FB882780F9109271
:101D3000E90006C080917A029091B8029111826008
:101D40009091E800977F9093E8008093F1001092C3
:101D5000F1008091E8008E7723C0811116C0809138
:101D60007F02813011F18091E80083FF0AC08091E9
:101D7000E800877F8093E8008091EB008062809389
:101D8000EB00AA96E3E00C947B22823061F780910D
:101D90007F02882389F01092E9008091E800877F14
:101DA0008093E8000E94A408DECF81E0933009F020
:101DB00080E08093B802EFCF809181028F702FEF87
:101DC000280F263080F68093E9002091EB0020FF59
:101DD000E2CF933031F48091EB0080628093EB008E
:101DE000DACF9091EB0090619093EB0021E030E02E
:101DF000A90102C0440F551F8A95E2F74093EA00FB
:101E00001092EA008091EB008860E8CF8111ABCF9F
:101E100010917F021F778091E3008078812B80935F
:101E2000E3008091E800877F8093E8000E94A40887
:101E30008091E80080FFFCCF8091E3008068809370
:101E4000E30083E0111101C082E08093B9028BCFDF
:101E50008058823008F087CF40917F0250918002F5
:101E60004C3D83E0580799F583E08A838AE28983B1
:101E70004FB7F894DE01139620E03EE051E2E32FE5
:101E8000F0E050935700849120FF03C082958F703B
:101E90003F5F8F708A30C8F0895C90E08D939D938E
:101EA0002F5F243161F74FBF8091E800877F8093D7
:101EB000E8006AE270E0CE0101960E944B08809132
:101EC000E8008B778093E8004ECF805DE6CF2091CD
:101ED000810230918202852F99278330910509F183
:101EE00060F48130910509F472C0029709F03BCF8C
:101EF0008BE390E0E2EAF1E029C08132910509F438
:101F00005AC0829709F02FCF2115310509F469C015
:101F10002130310509F027CF86EB90E0ECEAF0E0C4
:101F200015C0CA0199274130B1F18230910509F4F9
:101F30003AC0892B09F017CFE7E1F2E0E4918E2F48
:101F400090E0E7E1F2E0009709F40DCF2091E8007E
:101F5000277F2093E800209183023091840282172A
:101F6000930708F49C0140E02115310509F03EC0BB
:101F700041113CC08091E80082FDA1CF8091B9025F
:101F8000882309F49CCF853009F499CF8091E8002B
:101F900083FFF0CF94CFE3E0F2E0E4918E2F90E066
:101FA000E3E0F2E0D0CFEFEEF1E0E4918E2F90E0AD
:101FB000EFEEF1E0C8CF2115310571F02130310588
:101FC00009F0D1CE89E090E0EDECF1E0BFCF82E105
:101FD00090E0EDEDF1E0BACF89E090E0E4EBF1E0E4
:101FE000B5CF80E490E0E2E6F1E0B0CF8091B902B5
:101FF000882309F464CF853009F461CF8091E8002B
:1020000083FD5DCF8091E80082FDB4CF8091E80030
:1020100080FFAACF9091F3008091F2002115310545
:1020200019F08830910550F041E0089709F040E040
:102030008091E8008E778093E80096CF449140939A
:10204000F1003196215031090196E8CF803809F02E
:102050008ACE8091E800877F8093E80080917B02A0
:102060008093F10076CE81117ECE10917F021230E6
:1020700008F079CE8091E800877F8093E800109384
:102080007B020E94A408112381F084E08093B902AE
:1020900042E061EC81E00E94130942E261EC82E0DF
:1020A0000E9413098091B9025ECE8091E30087FD02
:1020B000ECCF81E0EBCF9C014FB7F8948091D30235
:1020C0009091D402A091D502B091D6024FBF821B4D
:1020D000930B08950F931F93CF93DF93C62FD42FA5
:1020E000122F8823A9F060934F030E94530B909303
:1020F000780280937702C77081E001C0880FCA958B
:10210000EAF70E94B10ADF91CF911F910F910895D4
:1021100080914F03681336C08091770290917802C6
:102120000E945B10883C910568F5CD130EC060E0FD
:1021300070E0812F0E94EE0CD77081E001C0880F03
:10214000DA95EAF70E94BB0ADECFC77001E0802F64
:1021500001C0880FCA95EAF70E94BB0A80E28D0F82
:10216000883050F48D2F877001C0000F8A95EAF7F0
:10217000802F0E94B10ADBCF60E070E0812F0E94C7
:10218000EE0CC1CFC77081E001C0880FCA95EAF795
:10219000D9CFA0E0B0E0EFECF0E10C9451228C013B
:1021A000DC019C9111968C91119713962D913C9185
:1021B000232B09F4A4C089238F3F09F4A0C061E058
:1021C000C8010E94B006EC01F8018281C034FEE72C
:1021D000DF0711F1C1342EE7D20709F451C0482EB0
:1021E000882309F491C0CE353CE7D30709F473C0C6
:1021F000CF359CE7D90751F0CD35ACE7DA0709F0C8
:1022000083C080912901882309F465C010922901B7
:1022100080E00E94060D62C090912901882381F020
:1022200081E080933E0380915103509052039923A3
:1022300009F4A0C6582A80E6C82E8DE7D82E33C0F0
:1022400010923E03992309F495C680914A03909118
:102250004B03C817D90709F436C1E0914203F09146
:102260004303309709F4A6C180819181C817D9072B
:1022700009F040C11092410380E00E94060D3AC16E
:1022800090912901882321F181E080933D03809181
:10229000520350905103992309F46CC6582A51E611
:1022A000C52E5DE7D52ED0934B03C0934A030E9401
:1022B000CC07609346037093470380934803909341
:1022C00049031092450310924403442443943CC0B4
:1022D00010923D03B7CF81E080932901809157038D
:1022E0008770882361F0D80112968C91882339F089
:1022F0008091590382FF03C082E00E942B04CDB776
:10230000DEB7E1E10C946D2290912901992309F443
:10231000F1C06E01B0EECB1AD108509052039091EB
:102320005103592AE8E0CE16D10408F0C3C0AE012B
:102330004770552721E030E001C0220F4A95EAF7A7
:10234000882309F4B4C0522AD8018D919C910E942F
:102350008D0321E030E0390102C0660C771C8A95BC
:10236000E2F78090420390904303312CE32DF0E09C
:10237000EE0FFF1FE050FF4FE080F180E114F10409
:1023800009F406C1511004C0F70182818111C7C050
:10239000D70113968D919C91149786219721892BB3
:1023A00009F4BDC019968C91982F97709111B9C0FE
:1023B000B8E0CB16D10408F0B0C04110BAC0F701A4
:1023C000A080B180CA15DB0509F4A9C0E814F9049E
:1023D00009F4A5C0D7011E96ED91FC91309721F02C
:1023E0008081882309F49BC0652DC7010E94520794
:1023F000882309F494C0CA15DB0511F4411005C007
:10240000A114B10409F0A1C0412C80E00E94060D86
:10241000F0924303E092420381E080934103F7018D
:1024200086818093400341100DC0AB2859F0808114
:1024300091819C0124503109213A310508F08DC069
:102440000E94FE03F701A780B084C5019A9581150B
:102450009F4110F420EEB22288248394C501019795
:102460008F339E4708F0812CD7011A96ED91FC918D
:102470001B97309731F01C966D917C9181E0099506
:10248000882281E04826882079F0F70187819085AD
:102490000E94DD0280933F03C501F8E0CF16D1040E
:1024A00008F05EC00E94E9070E944F0A60C02095B4
:1024B00052224ACF8111F7CE80914A0390914B036B
:1024C000C817D90781F410924B0310924A03109257
:1024D000460310924703109248031092490310924A
:1024E000450310924403E0914203F0914303309777
:1024F00009F0BACEC337FCE7DF0709F05BC0D801AB
:1025000012968C91882309F4E9CE80914C0388239C
:1025100009F4B3C00E94CC0AE1CE41100AC0339442
:1025200025CFE8E0CE16D10458F4442031F081FFE5
:10253000F6CFD701AD90BC9049CF82FFF0CF3FCF0F
:10254000442069F380FFEBCFF4CF80914A03909150
:102550004B038A159B0519F757CF0E94BB0C72CF0E
:102560000497813A910540F48A2D0E94CA034110D4
:10257000C1CF0E944F0AB2CE0E944F0A8FE39CE95E
:102580000197F1F700C000008A2D0E944C0CEFCF9C
:102590008114910409F4AECF98E0C916D10408F073
:1025A00057C0652DC4010E945207811103C081E00C
:1025B0000E94060DE0905103F090520380914C036D
:1025C000882309F469C10E94530B88579C4E90934D
:1025D0004E0380934D03F8018281882309F45CC186
:1025E0008F2D8E298D7981117DC0C115F0E5DF0712
:1025F00008F053C0C11520E4D20708F0FEC0C63E63
:10260000D10509F458C0CE0190528115904208F0CE
:102610002DC1D80115968C91803108F466C0CE0189
:10262000992710925A03CD3209F44EC18E3291058A
:1026300008F0EEC08E31910508F026C1CE018C7FE6
:102640009927892B09F443C082E080935A0322C161
:10265000D4018D919C911197C817D90741F444205A
:1026600009F408CE19968C9185FD44CF05CE4420FF
:1026700009F440CFF4018185F7CF109251030E94F5
:1026800051040E94530B88579C4E90934E038093A5
:102690004D0381E080934C0321CEC43BB2E5DB07C0
:1026A00051F0C0F4C034F2E5DF0740F4C11522E573
:1026B000D20708F4D4C010924F032BC0CE0180562D
:1026C00092458034910508F420C110925A030E946B
:1026D000CC0AA4C0CE01805C9245809708F42EC13C
:1026E00010925A030E94CC0AD7C08D2F8F7184316B
:1026F00011F308F05DC08D2F8F70823009F05AC041
:1027000010925A030E94CC0AD80112968C91811122
:1027100088C0F8018281E080F180882309F408C232
:10272000C7010E947C06C82F682FC7010E9457036B
:10273000B7018C2F0E9457040E946305D82FC92F20
:10274000D8011296FC9012971596EC90E2943FE017
:10275000E3228091570387708823F1F0DF2CFF205C
:10276000E1F0892F807F803451F080E28D0F883036
:1027700098F0E11004C0892F807E803269F080914A
:10278000590382FF09C082E00E942B048091570305
:102790008770DD24D3948111D12CEC2FE295EF705A
:1027A000C03C08F002C2F0E0E15FFC4D0C949B22BB
:1027B0008631A4CF0E94CC0AF8018281882309F4D3
:1027C000A8CF10924F03F8019281C631FCE7DF07D2
:1027D00009F09AC180915103992309F48BC18A7A37
:1027E00091E0811101C090E090935003882309F497
:1027F0007FC185E30E94CA03BCCED80115968C9197
:10280000803178F0CE01992710925A03CD320CCF47
:102810008C34910509F05BCF0E944F0AF801828148
:10282000811110924F03D80112968C91882359F28E
:10283000CE019057839738F684E090E00E94A92259
:102840009093590380935803FE01E150F047E23220
:10285000F10508F090C0E55EFC4D0C949B221092AF
:102860005A03CD32E2E0DE07B9F23CCF10925A03B0
:10287000CD32D10549F120F5CE31D105D8F4C4309F
:10288000D10508F424CFE0CE8832910528F28A974A
:1028900009F028CF0E944F0AD80112968C91FE01B0
:1028A000E851FC47E730F10508F0B8CFE35CFC4D98
:1028B0000C949B22C832D10508F4AECFCE01E7CFED
:1028C000CC34D10571F6A8CF82E080935A03A4CF0F
:1028D00026E241EE61EE0E946A1000CD27E245EE4D
:1028E00065EEF9CF26E241EE60EEF5CF27E245EE48
:1028F00064EEF1CF26E241EE62EEEDCF27E245EE47
:1029000066EEE9CF28E241E0EBCF10924F03CB35E2
:102910003CE7D307A8F0CB35BCE7DB0709F406C1D9
:10292000CC35DC4709F0F5CE8091590382FB88272E
:1029300080F991E089270E94380AEBCE10924F036C
:10294000C1308CE7D80709F4EFC0C3309CE7D90742
:1029500009F4E4C0C115DC4709F0DBCE0E94650D27
:10296000FFEF24E33CE0F15020403040E1F700C0AD
:1029700000000E94370880915803816080935803BB
:10298000609158037091590384E090E00E94CD2239
:102990000E94650DA3CC80915903886080935903F0
:1029A000EFCF809158038260E9CF80915803846013
:1029B000E5CF809158038860E1CF80915903816011
:1029C000EDCF809159038260E9CF809158038061F7
:1029D000D5CF809158038062D1CF80915803806415
:1029E000CDCF0E94650D809158038068C7CF80913C
:1029F00058038C60C3CF809159038360CFCF8091FF
:102A000058038E7FBBCF80915903877FC7CF8091BA
:102A100058038D7FB3CF809158038B7FAFCF8091C8
:102A20005803877FABCF809159038E7FB7CF8091BA
:102A300059038D7FB3CF809158038F7E9FCF8091B4
:102A400058038F7D9BCF809158038F7B97CF0E9437
:102A5000650D809158038F7791CF80915803837FC4
:102A60008DCF809159038C7F99CF8091580382FB41
:102A7000992790F921E0922790FB82F990FB83F946
:102A80007DCF80915903982F909591708E7F892BDF
:102A900090FB81F983CF90915803892F8F7B96FF0C
:102AA00080646CCF0E94650D90915803892F97FB2D
:102AB00087F9805863CF61E08EE090E00E94AF22FA
:102AC0005FCF60E0F9CF90915803892F8F7E94FFFC
:102AD000806154CF90915803892F8E7F90FF816041
:102AE0004DCF90915903892F877F93FF886056CFF0
:102AF00089E280CE80915003882321F085E30E94F3
:102B0000FE0337CD89E2FBCF992309F402CECA3503
:102B10002CE7D20709F0FBCE81E00DCF6FEF7FEFFE
:102B200080E090E00E94CD220E94940D80E003CFCF
:102B3000C7010E948D03C82FFBCDBC2FBF70EB2EA9
:102B4000C03118F0E29420EFE222FF20B9F0EE202D
:102B500069F080E28D0F883010F0D11109C08091AA
:102B600051038E29809351030E944F0A8D2F68C014
:102B700080915A038E2980935A03F6CF8D2F0E949D
:102B8000BB0CEE2091F080E28D0F883010F0D11157
:102B900004C08E2D0E94490406C0E09480915A031F
:102BA0008E2180935A030E944F0ADD20B1F080915C
:102BB000570380FD12C0D80112961C928595859509
:102BC00085950E943503C8010E94C9108091570362
:102BD0008595859585950E94450360E0C8010E9412
:102BE000B0068DCBEC2FEF70CE2EC07FC03219F027
:102BF000C29490EFC922DD2399F0D13009F453C07B
:102C0000FF2009F45DC0EE2009F453C0D8011596E9
:102C10008C91159780FFAACF8F7015968C9349C021
:102C20002091590322FD17C0FF2069F0CC2039F014
:102C3000809151038C29809351030E944F0A80E0B8
:102C40000E944C0CB2CF80E00E94BB0CCC2009F457
:102C5000ACCF8C2D9FCFFF20A1F0909152038C2DF3
:102C6000892BE11003C00E94B10A9FCFF1E0EF125F
:102C7000FACF22FF9ACF981709F497CF8093520387
:102C800094CFE11006C00E9451048C2D0E94BB0A13
:102C90008CCF21E0E21609F488CF8C2D0E94BB0A6C
:102CA0000E94510482CFFF2031F035E03E1508F438
:102CB0007CCF8C2DD8CF84E08E1508F476CFE5CF6D
:102CC000EE2019F3D93349F4BFEFE7EEF3E0B1504A
:102CD000E040F040E1F700C000008D2F0E94BB0CE7
:102CE00064CF8C2F869586958370882369F0813018
:102CF00009F05BCF8D2F9C2F9370F11002C080E004
:102D000090E00E94A60751CF8D2F9C2F9370F11059
:102D100002C080E090E00E94800747CF6F2D8D2F8A
:102D20000E94870B42CF8C2F8370811144C0F11019
:102D30002FC04D2F429546954770440F440F2D2FBD
:102D40002F7030E0042E02C0220F331F0A94E2F7E6
:102D500080E090E0D4FF09C08FE090E002C0880FCF
:102D6000991F4A95E2F780959095C695C695C370D0
:102D7000C230C1F0C33099F04091530350915403D5
:102D8000C13059F0822B932B842395230E942B036F
:102D90000E9473070E941B0308CF242B352B822B24
:102DA000932BF4CF822B932B209153033091540318
:102DB00082279327EBCFFF2091F1C0FFE9CF4D2F62
:102DC000429546954770440F440F2D2F2F7030E0E9
:102DD000042E02C0220F331F0A94E2F780E090E035
:102DE000D4FF09C08FE090E002C0880F991F4A9578
:102DF000E2F780959095C695C695C370C230C1F034
:102E0000C33099F04091550350915603C13059F0A9
:102E1000822B932B842395230E943003B9CF8230D9
:102E200008F4B6CFCCCF242B352B822B932BF4CFA9
:102E3000822B932B209155033091560382279327A1
:102E4000EBCFCF70FF2039F08C2F0E9435038D2FF0
:102E50000E94B10A9DCF8D2F0E94BB0A8C2F0E9429
:102E6000450396CFD23FA1F178F4D03FC1F0D13FD6
:102E700009F447C0FF2009F46BC0EE2009F465C0D7
:102E80008D2F0E944C0C84CFD33F49F1D43FA9F140
:102E9000F110F3CFE1106AC08C2F8F71E0CFFF20CB
:102EA000A1F024E02E1508F473CFCF7181E090E0FB
:102EB000DC0102C0AA0FBB1FCA95E2F7809155033F
:102EC000909156038A279B27A7CFB5E0EB16EBCF4F
:102ED0008C2F8F71F110C3CF0E94350359CF80E042
:102EE00090E0FF2009F498CFCF7181E090E002C01C
:102EF000880F991FCA95E2F78FCF8091590382FD01
:102F000006C08C2F8F71FF2009F4A9CFE5CFFF20D9
:102F100089F0CF718C2F0E9435038091590382FF75
:102F200007C0E8E0CE9FC00111248360809357035F
:102F30008C2FD2CF81E00E942B04F1E0FE1508F027
:102F400027CF82E00E942B0423CF8C2F8F71C4CF18
:102F5000EE2009F4A1CFD93349F42FEF37EE83E007
:102F6000215030408040E1F700C000008D2F0E94CA
:102F7000BB0C0ECFE0905103F090520380914C03B4
:102F8000882309F44BCC1FCB1F93CF93DF93809101
:102F90009203803108F04CC080918F03882309F49C
:102FA00047C080915C0320915B0330918D03609159
:102FB0008E03C0919003D0919103732F762328172D
:102FC000B9F190E0209709F443C016E07F3F09F47F
:102FD0003FC0189FF001199FF00D1124DF01A35A83
:102FE000BC4F11964C91119746132CC04C91431332
:102FF00029C012964C91129741111EC013964D9103
:103000005C914C1B5D0B483C5105E0F480919203B0
:103010008F70806180939203EE59FC4F80818F7096
:10302000806180838DE893E00E94C9100E94C003F4
:10303000DF91CF911F9108950196877099272813EA
:10304000C8CFF6CF0196877099272813BFCFF0CF4E
:1030500001968770B4CFABE0B0E0E1E3F8E10C9407
:1030600058228C0185E0F801DE01179601900D923F
:103070008A95E1F7F801F280C380D4808DE8A82E0C
:1030800083E0B82E90918D0320918E0340919003A0
:10309000509191034115510509F4FEC0892F8223F7
:1030A0008F3F09F4F9C0E0908F03B601641B750BE4
:1030B000EE2009F4C5C080919203683C710508F0C8
:1030C000A1C0B180803108F061C02B1113C02081F4
:1030D000291310C0F1103EC08F708061809392035D
:1030E0008DE893E00E94C91080919203F8018583D6
:1030F000F12C29C0AF80C114D10451F18A2D8B214C
:103100008F3F31F1F11026C040E06B2D8A2D0E94D7
:10311000A50940E06B2D8A2D0E94A509F82E81118A
:10312000E7CF8F8198850E94D006292F22952F7096
:103130009034B0F49F702230E0F09923F1F0F80160
:1031400095819031D0F48F2D2B96EAE00C94742267
:10315000FF2071F280919203816080939203C8CF27
:103160002A5F2F70223068F0C8010E94C910FE2C1F
:10317000EACF992311F0882331F3805E883018F369
:10318000F3CF803F00F3815F8230F9CF2B1112C063
:10319000208129130FC0F1100DC08583C8010E9442
:1031A000C91086E0F801ADE8B3E001900D928A9570
:1031B000E1F725C0C8010E94DF06882309F468C032
:1031C000FF2009F465C080919203803270F0209155
:1031D0008D0330918E033A8329831B82DD82CC825A
:1031E0008E83CE0101960E94C91086E0F801ADE8F9
:1031F000B3E001900D928A95E1F70E94C417FF2475
:10320000F394A1CF803150F48DE893E00E94C9106F
:1032100086E0F50111928A95E9F76ACF3181321380
:10322000C9CF20812913C6CFF110C4CF8583C8012F
:103230000E94C91086E0F50111928A95E9F7DFCF67
:10324000683C710528F7FF2019F18181821316C0AF
:103250008081891313C08091920380FDA2CF8031B9
:1032600008F49FCF8583807F803F09F497CF8581C5
:10327000982F907F905F8F70892B8FCFC8010E940D
:10328000DF068111B2CF8091920381608093920317
:10329000C8010E94C910B3CFFF20D1F3C8010E941A
:1032A000DF068823A9F386E0F801ADE8B3E00190DA
:1032B0000D928A95E1F780918D0390918E030E9483
:1032C000D0069BCFA7E1B0E0E8E6F9E10C945F22DD
:1032D0004B8B5C8B962F6D8B7E8B8F8B611110923D
:1032E0005A031A8A85E0FE017396DE011D9601904D
:1032F0000D928A95E1F79F8786E0FE013D96DE01FB
:10330000179601900D928A95E1F7CE0107960E94DB
:103310002B18811131C086E0FE013796DE0111962F
:1033200001900D928A95E1F78F81988520915B033A
:1033300040915C036A857B85672BF1F089238F3F81
:10334000D9F030E0C90101968770992750E08417C1
:103350009507E9F096E0929FD001939FB00D11245C
:10336000A35ABC4FFE01319601900D929A95E1F758
:1033700080935B030E94C00316E080915C039091F0
:103380005B03891312C06796E3E00C947B220E94D2
:10339000650D10925B0310925C0386E0EDE8F3E0AC
:1033A000DF011D928A95E9F7E7CF189FC00111242C
:1033B000835A9C4F0E942B18882329F380915C0329
:1033C00090E001968770992780935C03D6CFA5E0A3
:1033D000B0E0EDEEF9E10C945E220E94530B8C01FB
:1033E0008091E4029091E5028017910791F08FEFB0
:1033F00089838A831B820E94530B8160782F4981C5
:103400005A816B81892F0E9462191093E502009303
:10341000E4022596E4E00C947A22ABE0B0E0E3E12C
:10342000FAE10C94502280919303882371F08091EB
:103430007502909176020196811520E2920708F0BC
:103440001DC19093760280937502FBEA8F2EF2E005
:103450009F2EEE24E394F12C312C22242A942E0C5E
:10346000F401A190B1904F01129212926F01F4E019
:10347000EF1609F41AC123E0221508F40AC181E00D
:10348000281609F40CC192E0291609F40BC1849A9C
:103490008C9880919303882309F40DC18FE891E003
:1034A0000197F1F700C0000080919303612C712C0B
:1034B000811126C09FEF998304E610E021E030E0FF
:1034C000AE014F5F5F4F62E180E40E94E9219C0101
:1034D00091E0232B09F490E080919303890F80936E
:1034E0009303898180950E940703982F96959C7776
:1034F0008370892B782E7694682E6794662467945F
:1035000069B179B139B196B129B15CB183B1769520
:10351000769541E0742771707A831B82EA81FB8182
:1035200075E0EE0FFF1F7A95E1F766956695669553
:10353000642761706C831D826C817D81A6E0660FBB
:10354000771FAA95E1F76E2B7F2B82958F708427CA
:1035500081708E831F82EE81FF816E2B7F2B3295CF
:103560003F703427317038871986E885F985B4E0D3
:10357000EE0FFF1FBA95E1F76E2B7F2B9295969574
:1035800096959370942791709A871B868A859B8560
:1035900033E0880F991F3A95E1F7862B972B022E7F
:1035A000000C330B209530952227330F221F332731
:1035B000220F331F220F331F822B932B52955695C8
:1035C00056955370542750FB442440F8512C9201D7
:1035D000220F331F822B932B86299729F601918383
:1035E0008083F3E02F1609F4ACC0F21508F476C01E
:1035F000241609F486C022E0221609F492C08498A9
:103600008C988C9881E0F601208131812A153B0548
:1036100009F480E0382AFFEFEF1AFF0A27E0E216EC
:10362000F10409F01ACF332009F49FC081E08093A0
:1036300074020E94530B90937302809372028091E4
:103640007202909173020E945B10059708F491C07A
:103650004CE050E06BEA72E08AEB92E00E94E322D9
:10366000892B49F08CE0EBEAF2E0AAEBB2E00190A2
:103670000D928A95E1F7109274027BC01092760247
:1036800010927502109293030E941C0B0E94020B71
:10369000DCCEE4E02E120CC0219A2998FACE859A4D
:1036A0008D98F7CE869A8E98F4CE879A8F98F1CE21
:1036B000229A2A98EECE61E070E00E2C01C0660FCF
:1036C0000A94EAF7609581E00E94DA0A91E098276F
:1036D00080919303890F80939303E6CE84E02812B0
:1036E00040C021982998299881E0F60120813181F4
:1036F0002A153B0509F480E0382A86E0E82EF12CF3
:10370000ACCE85988D988D9881E0F601208131812D
:103710002A153B0509F480E0382A33E0E32EF12C2A
:103720009CCE86988E988E9881E0F601208131811A
:103730002A153B0509F480E0382A24E0E22EF12C1A
:103740008CCE87988F988F9881E0F6012081318107
:103750002A153B0509F480E0382A95E0E92EF12C82
:103760007CCE22982A982A984DCF8091740281119C
:1037700066CF80913E03882329F060E070E081ED00
:103780000E94EE0C80913D03882329F060E070E0F8
:1037900082ED0E94EE0C2B96E2E10C946C22CDB7E8
:1037A000DEB728970FB6F894DEBF0FBECDBF85B742
:1037B000806885BF85B7806885BF84B7877F84BFF1
:1037C0000FB6F894A895809160008861809360009E
:1037D000109260000FBE80E890E00FB6F8948093DE
:1037E0006100909361000FBE8BE097E090935102CF
:1037F000809350020E94F4080E944A098091E200DE
:1038000084608093E20078948091B902882399F0D3
:103810008091E9001091EC001795112717958F7092
:10382000182B1092E9008091E80083FD0E94AA0DF8
:103830001F701093E90082E084BD93E095BD9AEF7C
:1038400097BD80936E008091AA0281110EC00E94E4
:10385000CF202FEF43ED80E3215040408040E1F73F
:1038600000C0000081E08093AA0221982998229844
:103870002A9884988C9885988D9886988E988798A1
:103880008F9829982A988C988D988E988F980E9456
:103890001C0B6E98769A52985A9A53985B9A549841
:1038A0005C9A57985F9A3E98469A24982C9A0E9460
:1038B000020B8CE0EBEAF2E0DF01282F1D922A9543
:1038C000E9F7EAEBF2E0DF011D928A95E9F780E083
:1038D00090E00E94A922873E9E4F09F45EC067EEE9
:1038E0007EEF80E090E00E94CD2260E082E090E0F8
:1038F0000E94AF2260E083E090E00E94AF2210922D
:1039000054031092530360E074E184E090E00E945D
:10391000CD2260E086E090E00E94AF226FEF87E06A
:1039200090E00E94AF2240E050E0BA0188E090E0D1
:103930000E94C12260E08DE090E00E94AF2240E052
:1039400050E0BA0188E190E00E94C12260E087E186
:1039500090E00E94AF2240E050E0BA018CE190E09C
:103960000E94C12260E070E080E290E00E94CD22DF
:1039700040E050E0BA0188E190E00E94C12240E0BE
:1039800050E0BA018FE090E00E94C12240E050E098
:10399000BA0183E190E00E94C12282E090E00E949F
:1039A000A1228093C60284E090E00E94A922909315
:1039B0005903809358030E940D1AEFEFF6E721E0B8
:1039C000E150F0402040E1F700C000000E940D1AD5
:1039D0008091BA0280FF08C06FEF7FEF80E090E037
:1039E0000E94CD220E94370883E090E00E94A1222D
:1039F00090E00E942B03259A2D98269A2E98239AC0
:103A00002B980E94D1020E94D4020E94D7020E94E9
:103A1000DA02559A5D984FEF80E792E0415080407E
:103A20009040E1F700C00000259A2D9AAFEFB0E773
:103A3000E2E0A150B040E040E1F700C00000269A6B
:103A40002E9AFFEF20E742E0F15020404040E1F79E
:103A500000C00000239A2B9A8FEF90E7A2E08150DC
:103A60009040A040E1F700C000000E94D102BFEFEB
:103A7000E0E7F2E0B150E040F040E1F700C00000C4
:103A80000E94D4022FEF40E782E021504040804066
:103A9000E1F700C000000E94D7029FEFA0E7B2E06C
:103AA0009150A040B040E1F700C000000E94DA024F
:103AB0000E94D1020E94D4020E94D7020E94DA0220
:103AC00080E291E09093E7028093E602CE010196B6
:103AD00048E1642E712C50E4252E332433948F83D7
:103AE00098878091B902853059F48091B902853068
:103AF00009F45CC00E94650D0E9473070E941B03BD
:103B00000E940D1A27ECA22E22E0B22E3AEB832E51
:103B100032E0932ED401F501219131918D919D9147
:103B200042E0E33DF40709F494C028173907A1F3F4
:103B3000512CD4010D911D914D01F501C190D190F1
:103B40005F01C016D10659F1C026D126412CEE24C2
:103B5000E394F12CC7018C219D21892BB1F049827E
:103B60005A8221E0C70180239123892B09F420E0A8
:103B70002B830E94530B8160782F9D838C83498116
:103B80005A816B81892F0E9462194394EE0CFF1CAD
:103B9000FEE04F12DFCFF50132971183008353947B
:103BA00026E05212C6CF0E94CC0759C08091B902BC
:103BB000843021F180E00E941B031092B7020FB6FF
:103BC000F894A895609260000FBE2092600083B7C1
:103BD000817F846083BF83B7816083BF7894889539
:103BE00083B78E7F83BF0FB6F894A895809160004D
:103BF000886180936000109260000FBE8091B802CF
:103C0000882309F472CF0E940D1AEAEBF2E086ECE9
:103C100092E021913191232B21F48E179F07C9F750
:103C200064CF80E189BD82E189BD09B400FEFDCF8A
:103C30008091D8008F7D8093D8008091E0008260D1
:103C40008093E0008091E00081FDFCCF0E94650D33
:103C50004CCF2817390709F06BCF0E94E7198091E4
:103C6000440390914503892B09F44EC04091DB0237
:103C70005091DC026091DD027091DE022FB7F89462
:103C80008091D3029091D402A091D502B091D60236
:103C90002FBF841B950BA60BB70B4091D7025091F9
:103CA000D8026091D9027091DA0284179507A607AD
:103CB000B70750F10091440310914503C8010E94D9
:103CC000DD029801205E31092830310520F0011510
:103CD000110509F096C00E94B10A802F0E944C0C79
:103CE00010924503109244031092DB021092DC0202
:103CF0001092DD021092DE021092D7021092D802CA
:103D00001092D9021092DA0280914C03882369F054
:103D10000E94530B20914D0330914E03821B930B55
:103D20008F3F9F4710F40E94CC0A86E0E7E3F3E060
:103D3000AF81B88501900D928A95E1F71092390311
:103D400010923A0310923B0310923C030B811C81AA
:103D5000802F812B882379F08091E1029091E202FB
:103D60000E945B109C018091350381114DC02B3066
:103D7000310508F04FC00D811E81802F812B8823D3
:103D800079F08091DF029091E0020E945B109C012B
:103D90008091340381117BC02B30310508F07DC048
:103DA00046E050E06F81788587E393E00E94E3224C
:103DB000892B61F48091390390913A03892B90917A
:103DC0003B03892B90913C03892B81110E945F0B4F
:103DD00086E0EF81F885A7E3B3E001900D928A9524
:103DE000E1F70E947307182F8091E302181709F476
:103DF00078CE1093E3020E94CC07812F0E941B0310
:103E000070CE0E94C20A69CF2531310508F4B3CFC4
:103E10008F3F19F08F5F80933503002359F00E9484
:103E20000D0791E010160CF09FEF899F802D112453
:103E300080933903112359F00E940D0791E0111668
:103E40000CF09FEF899F802D112480933A033091CD
:103E50003903332309F48FCF20913A03222309F445
:103E60008ACF45EB3403C0011124892F911101C081
:103E700081E08093390345EB24039001112433231F
:103E800019F030933A0377CF30923A0374CF21354B
:103E9000310508F485CF8F3F19F08F5F809334038D
:103EA000002359F00E942D0791E010160CF09FEFAF
:103EB000899F802D112480933B03112359F00E9488
:103EC0002D0791E011160CF09FEF899F802D112492
:103ED00080933C0330913B03332309F461CF20915D
:103EE0003C03222309F45CCF45EB3403C0011124C9
:103EF000892F911101C081E080933B0345EB24039E
:103F000090011124332319F030933C0349CF3092B0
:103F10003C0346CF78941F921FB61F9211248F93B3
:103F20009F93AF93BF938091D3029091D402A091BD
:103F3000D502B091D6020196A11DB11D8093D30286
:103F40009093D402A093D502B093D602BF91AF91C3
:103F50009F918F911F901FBE1F9018951F920F92D7
:103F60000FB60F9211242F933F934F935F936F934C
:103F70007F938F939F93AF93BF93EF93FF93809122
:103F8000E10082FF09C08091E20082FF05C08091BC
:103F9000E1008B7F8093E1008091DA0080FF24C0F4
:103FA0008091D80080FF20C08091DA008E7F8093BE
:103FB000DA008091D90080FF9BC080E189BD82E159
:103FC00089BD09B400FEFDCF81E08093B9028091E4
:103FD0007C02811109C00E94F4080E944A09809164
:103FE000E20084608093E2008091E10080FF17C0CE
:103FF0008091E20080FF13C08091E2008E7F809369
:10400000E2008091E20080618093E2008091D8001C
:1040100080628093D80019BC85E08093B9028091BA
:10402000E10084FF29C08091E20084FF25C080E187
:1040300089BD82E189BD09B400FEFDCF8091D80021
:104040008F7D8093D8008091E1008F7E8093E10086
:104050008091E2008F7E8093E2008091E200816097
:104060008093E20080917B02882309F447C084E0BA
:104070008093B9028091B9028091E10083FF27C04B
:104080008091E20083FF23C08091E100877F8093CD
:10409000E10082E08093B90210927B028091E100FE
:1040A0008E7F8093E1008091E2008E7F8093E2001A
:1040B0008091E20080618093E20042E060E080E075
:1040C0000E9413098091F00088608093F000FF91B6
:1040D000EF91BF91AF919F918F917F916F915F9180
:1040E0004F913F912F910F900FBE0F901F901895F9
:1040F00019BC1092B90210927C0276CF8091E30035
:1041000087FF02C083E0B4CF81E0B2CF1F920F924D
:104110000FB60F921124FF920F931F932F933F938B
:104120004F935F936F937F938F939F93AF93BF93BF
:10413000CF93DF93EF93FF9309EE10E0F8018081B6
:10414000C091EC00C795CC27C7958F70FC2EF82A3C
:104150001082C0EFD0E08881877F888378940E94A6
:10416000AA0DF8011082888188608883CF2DCF70D6
:10417000C083FF91EF91DF91CF91BF91AF919F915C
:104180008F917F916F915F914F913F912F911F91EF
:104190000F91FF900F900FBE0F901F9018951092E7
:1041A000B9008CE08093B8000895A0E0B0E0EBED9A
:1041B000F0E20C945722B82EEB010E94530B6C01D5
:1041C000EE24E394F12CC431D10560F025E0E22E19
:1041D000F12CCF3FDC0731F0CE0164E170E00E94AA
:1041E0003C227B0184EAA82E94E8992E1092BC0010
:1041F000A092BC000E94530B182F092F8091BC0085
:1042000087FF0CC08091B900887F8830F9F08091D9
:10421000B900887F8031D1F00FEF08C0812F902F37
:104220000E945B10E816F90648F70EEF1FEFCF3F2C
:10423000DC07E1F2C6010E945B10C817D907B0F68F
:10424000C801CDB7DEB7EBE00C947322B092BB008F
:104250009092BC000E94530B182F092F8091BC0034
:1042600087FF0AC02091B900287F283111F020343F
:1042700099F600E010E0E4CF812F902F0E945B10B0
:10428000E816F90658F7D1CF0F931F93CF93DF931A
:10429000EB018093BB0084E88093BC000E94530B29
:1042A000182F092F8091BC0087FF11C02091B90001
:1042B000287F81E090E0283211F480E090E0919531
:1042C00081959109DF91CF911F910F910895CF3F73
:1042D000DC0741F3812F902F0E945B10C817D9078C
:1042E00008F78EEF9FEFEECF0F931F93CF93DF93DF
:1042F000EC0184EC8093BC000E94530B182F092F13
:104300008091BC0087FF08C08091BB0090E0DF91E6
:10431000CF911F910F910895CF3FDC0789F3812F33
:10432000902F0E945B10C817D90750F78EEF9FEFB0
:10433000EECF0F931F93CF93DF93EC0184E880932C
:10434000BC000E94530B182F092F8091BC0087FFDF
:1043500008C08091BB0090E0DF91CF911F910F9139
:104360000895CF3FDC0789F3812F902F0E945B10C7
:10437000C817D90750F78EEF9FEFEECFA0E0B0E05F
:10438000E4ECF1E20C945A22C62F6A017901B801DB
:104390000E94D5209C0197FD0DC0B8018C2F0E9472
:1043A00044219C01E601EC0CFD1CCE15DF0511F04B
:1043B00037FF09C084E98093BC00C901CDB7DEB7DF
:1043C000E8E00C947622B80189910E9444219C0176
:1043D000ECCFA0E0B0E0EFEEF1E20C945622D82E44
:1043E000C62E7A01E901B8010E94D5209C0197FDF3
:1043F00013C0B8018C2D0E9444219C0197FD0CC074
:10440000B8018D2D81600E94D5209C0121976E01FD
:10441000209781F437FF26C084E98093BC00C9014E
:104420001816190614F480E090E0CDB7DEB7ECE082
:104430000C94722297FDF0CFA12CB12C4601C8013B
:104440000E9474219C0197FDE7CFF701EA0DFB1D47
:1044500080838FEFA81AB80AC82DD92DAC14BD04DB
:1044600070F3D8CFC8010E9499219C0197FDD4CF49
:10447000CE0DDF1D8883D0CFAA1BBB1B51E107C027
:10448000AA1FBB1FA617B70710F0A61BB70B881FE4
:10449000991F5A95A9F780959095BC01CD01089573
:1044A0002F923F924F925F926F927F928F929F9244
:1044B000AF92BF92CF92DF92EF92FF920F931F9332
:1044C000CF93DF93CDB7DEB7CA1BDB0B0FB6F894E3
:1044D000DEBF0FBECDBF09942A88398848885F8423
:1044E0006E847D848C849B84AA84B984C884DF8094
:1044F000EE80FD800C811B81AA81B981CE0FD11D78
:104500000FB6F894DEBF0FBECDBFED01089597FB47
:10451000072E16F4009407D077FD09D00E943C22A4
:1045200007FC05D03EF4909581959F4F08957095B6
:1045300061957F4F0895EE0FFF1F0590F491E02DD8
:104540000994F999FECF92BD81BDF89A992780B55B
:104550000895A8E1B0E042E050E00C94D522262F67
:10456000F999FECF92BD81BDF89A019700B4021669
:1045700039F01FBA20BD0FB6F894FA9AF99A0FBE17
:1045800008950396272F0E94B0220E94AF22252F64
:104590000E94B022242F0C94B0220196272F0E9453
:1045A000B0220C94AF22DC01CB01FC01F999FECFC3
:1045B00006C0F2BDE1BDF89A319600B40D924150AB
:1045C0005040B8F70895FB01DC0104C08D910190C3
:1045D000801921F441505040C8F7881B990B089569
:1045E000F894FFCF930B9B0B9E0BA40BB90BB90B4D
:1045F000B90BB90BB90BB90BB90BB90BA70BAC0BBA
:10460000B00BB60BC70BCD0BD10B870EAD0EB30E97
:10461000AD0EB30E060F280FB30E261033109D15E6
:104620009D15F215F21571168E16D515D515931622
:10463000211732173217FF146A150715D114D51434
:104640000B15D9140F151B15E5146315E9141F1567
:10465000ED1423154B15F11427155215F7142D15CC
:104660003515DD141315E1141715FB14311541151B
:104670005B156115CB14031571157214761468144B
:084680006E147A147E148214FA
:104688000A02FA01EA01DA01CA01BA01AA019A0189
:104698008A017A016A015A014A013A012A01000095
:1046A8004808020A2A0A310A01011F0222FFFF00F4
:1046B80022230207000000000000310022FFFF0053
:1046C80022200207000000000000310222FFFF0044
:1046D800223500070000000000001E0222FFFF0034
:1046E80022220207000000000000250222FFFF002E
:1046F80022270007000000000000300022FFFF0012
:1047080022260007000000000000300222FFFF0000
:1047180022250007000000000000270222FFFF00FA
:10472800222400070000000000002E0022FFFF00E6
:1047380022230007000000000000240222FFFF00DF
:1047480022220007000000000000260222FFFF00CE
:10475800222100070000000000002F0222FFFF00B6
:10476800222000070000000000002F0022FFFF00A9
:10477800221F00070000000000002E0222FFFF0099
:10478800221E0007000000000000210222FFFF0097
:1047980022350207000000000000E200E900EA00FC
:1047A800B500B600B700CD008301CC008A019201A4
:1047B80094012102230224022502260227022A024A
:1047C800B300B4006F0070009F01CB019F02A002EC
:00000001FF
