:100000000C940A020C9427020C9427020C942702E9
:100010000C9427020C9427020C9427020C942702BC
:100020000C9427020C9427020C94C41B0C949C1C67
:100030000C94BB090C9427020C9427020C94270201
:100040000C9427020C9427020C9427020C9427028C
:100050000C9427020C94A01B0C9427020C942702EA
:100060000C9427020C9427020C9427020C9427026C
:100070000C9427020C9427020C9427020C9427025C
:100080000C9427020C9427020C9427020C9427024C
:100090000C9427020C9427020C9427020C9427023C
:1000A0000C9427020C9427020C94270205010902E4
:1000B000A10185020901A1000509190129081500FE
:1000C0002501950875018102050109300931158165
:1000D000257F95027508810609381581257F9501D0
:1000E00075088106050C0A38021581257F95017572
:1000F000088106C0C005010980A101850319012AF4
:10010000B700150126B700950175108100C0050CD8
:100110000901A101850419012AA002150126A002E6
:10012000950175108100C005010906A1018506052C
:100130000719E029E71500250195087501810205D9
:1001400007190029EF1500250195F07501810205B9
:10015000081901290595057501910295017503910D
:1001600001C005010906A101050719E029E71500ED
:100170002501950875018102950175088101050722
:10018000190029FF150026FF009506750881000556
:1001900008190129059505750191029501750391CD
:1001A00001C009023B00020100A0FA09040000019D
:1001B000030101000921110100012240000705810E
:1001C00003080001090401000103000000092111D6
:1001D00001000122B6000705820320000112010080
:1001E0000200000008091228230100010200011288
:1001F000034500720067006F0064006F006E0065C9
:1002000000000012034B002E0054002E0045002E6B
:100210000043002E000000040309042E001E001FEE
:1002200000200021002200E300E700230024002535
:1002300000260027002D002B0014001A00080015CE
:10024000001700005202521C0018000C001200138C
:10025000003100290004001600070009000A000010
:100260000000000B000D000E000F0033003400E111
:10027000001D001B00060019000500015249001175
:10028000001000360037003800E500737C35003977
:100290000050004F0000000000000000005200511C
:1002A000002F003000650000004D004C002A004A7D
:1002B00000E000E200E600E4004B002C0028004EC5
:1002C0000000003A003B003C003D003E003F0001C2
:1002D000000100400041004200430044004500018D
:1002E0000054005F00600061005700010001000140
:1002F0000001000100010001000100010055005C47
:10030000005D005E008500000000005000510052BA
:10031000004F00010001000100560059005A005B27
:1003200000670001000100680069006A006B006C52
:10033000000100010001006200630058000000009D
:1003400000000000000100010001000100010000A8
:100350000001000100010001000100010001000195
:100360000001000100010001000000010001000186
:100370000001000100010001000100010001000175
:10038000000100010001000100D400D300D200D11F
:1003900000D5000100010001000100010001000181
:1003A00000010001000100DB00D900DA00DC0000E0
:1003B000000000CF00CE00CD00D000010001000100
:1003C00000010001000100010001000100010040E6
:1003D0007E417E01000100010001000100010001D9
:1003E0000001000100000000000000000001000109
:1003F00000010001000100000001000100010001F6
:1004000000010001000100010001000100010001E4
:100410000000000011241FBECFEFDAE0DEBFCDBF29
:1004200011E0A0E0B1E0E4EBFEE302C005900D9224
:10043000A034B107D9F722E0A0E4B1E001C01D92D9
:10044000AF36B207E1F70E942C180C94061F0C94EB
:100450000000259A2D980895269A2E980895239A9B
:100460002B980895559A5D9A0895829594E0899FF6
:10047000900111242C7C869586958373282B30E07F
:10048000C901880F991F8A7A359527952575822B82
:10049000089580FF08C02D9A81FF07C02E9A82FF21
:1004A00006C02B9A08952D98F7CF2E98F8CF2B9849
:1004B000089590932F0280932E0208959093310215
:1004C00080933002089521E030E002C0220F331FF4
:1004D0008A95E2F78091300290913102822B932B22
:1004E0000E945E02089521E030E002C0220F331F17
:1004F0008A95E2F7209530958091300290913102F3
:10050000822393230E945E020895963098F58E30E0
:1005100088F5E82FF0E08EE0989FE00DF11D1124A2
:100520008E2F877041E001C0440F8A95EAF783E07F
:10053000F695E7958A95E1F7EE0FFF1FEE0FFF1F87
:10054000E051FE4F20E030E070E05191DF01119763
:10055000CB01022E02C0969587950A94E2F781702E
:1005600081958527842385278C932F5F3F4F2430E7
:10057000310559F70895963078F58E3068F5E82FF3
:10058000F0E08EE0989FE00DF11D11249E2F9770F2
:1005900083E0F695E7958A95E1F7EE0FFF1FEE0FE2
:1005A000FF1FE051FE4F40E050E080E0219130E03D
:1005B000092E02C0369527950A94E2F72170332759
:1005C000042E01C0220F0A94EAF7822B4F5F5F4F7F
:1005D0004430510559F7089580E00895809137021D
:1005E00090913602981301C008958F5F8770FACFFB
:1005F000909108019923E1F09091330297FF18C080
:10060000E82FE695E695E695803FF0F4F0E0EE5BA6
:10061000FE4F877021E030E0A90102C0440F551F52
:100620008A95E2F7CA018095928189238283089591
:10063000E4E4F1E09191891303C0DF0111971C926A
:1006400051E0EA34F507B1F7089520913202809520
:10065000822380933202982F9770911113C030E05B
:10066000482F082E000C550B2417350759F0909190
:10067000340292FF07C08595859585950E94730287
:10068000109232020895982F909580912C02892320
:1006900080932C02089580912D02811110922D02D9
:1006A00008957630B8F46E30A8F48330B0F4E62FB5
:1006B000F0E09EE0799FE00DF11D112494E5899F03
:1006C000E00DF11D1124EE0FFF1FE55EFD4F85913A
:1006D0009491089580E090E0089581E0FCCF803E01
:1006E0009105D1F1C8F48133910509F47FC048F434
:1006F0008932910509F46FC08A32910509F47DC0F1
:10070000089589339105E1F082389105C9F0853368
:10071000910509F45BC00895843E9105D1F148F438
:10072000823E910531F1833E910541F181EE90E0E9
:100730000895863E9105C1F1873E9105E1F1089546
:10074000209133022370211165C02091340223FFD0
:1007500014C089E290E008952091330220FD43C047
:100760003091340230FF09C024FF4EC080E090E099
:1007700008952091330222FDF7CF0895209133028E
:1007800022FD45C03091340230FD44C024FFF5CF36
:10079000EDCF2091340221FFF0CF8091330284FD10
:1007A000E5CF87EE90E008952091330223FFE5CF57
:1007B00024FDDCCFF6CF2091330223FD2EC03091F3
:1007C000340231FFE3CF84EE90E0089520913302AC
:1007D00025FFD3CFBECF2091330225FD21C020912C
:1007E000340223FFCACF89E390E0089520913302B9
:1007F00026FFC3CF8AE290E008952091330226FFBE
:10080000BCCF81E390E0089583EE90E0089582EEFE
:1008100090E0089580EE90E0089586EE90E00895CF
:1008200085E390E0AACF2091330222FF06C0982FE3
:1008300098719830C1F4877F846090913402392F89
:100840003170927023FF21C0482F4871483191F4D4
:10085000877E84619923B1F0982F9171913191F441
:100860008E7E88610FC0982F9471943031F78B7F02
:100870008860E3CF482F4471443139F48B7E88611E
:10088000911118C024FD877E0895332369F0382F15
:100890003871383019F4877F8160DCCF382F31719F
:1008A000313011F48E7F8860992361F3982F98710D
:1008B000983191F6877E8161E5CF1F93CF93DF93C7
:1008C0000E946F03EC01811522E5920708F053C0E6
:1008D000811540E5940708F0DDC0803E9105F8F4ED
:1008E0008D3C910508F0AEC0883A910580F4853AB8
:1008F000910508F099C08130910521F00497813A63
:10090000910550F4CE01DF91CF911F910895885A3F
:1009100091094B9708F48BC0C0E0D0E0F3CF81156C
:1009200050E49507F8F4C11580E2D80708F0CBC071
:10093000C83ED10538F3CE019A9581159F4160F7E5
:100940008D2F0E941304182FCE0199270E946F0348
:10095000212F30E0322F2227E901CC27DF71C82B6D
:10096000D92BD0CF99270E946F03CC27DF70C82BDB
:10097000D92BD06AC7CF803842E59407C8F58036B6
:1009800052E5950708F067C0C03482E5D807B0F09B
:100990008C2F86958695877020E2829FC001112456
:1009A000C37021E030E0A90102C0440F551FCA9571
:1009B000E2F7EA01C82BD92BDC68A4CFC03252E59C
:1009C000D50708F041C08C2F8695869520E2829F3E
:1009D000C0011124C37021E030E0A90102C0440F1E
:1009E000551FCA95E2F7EA01C82BD92BDD688ACFDB
:1009F000803C52E5950760F48F71C03AD24508F00B
:100A00003FC090E0982F8827EC01C46FD06A7ACF5E
:100A1000805C9245809708F07FCFDC2FCC27CC27D5
:100A2000DF71C06FD06A6ECFA497D0646BCFC85A05
:100A3000D0E0CC0FDD1FC75FDE4F0990D881C02DFD
:100A4000D46460CFD0655ECFCF71D0E0DC2FCC27EF
:100A5000C16FD06A57CF86958695877020E2829FB6
:100A6000C0011124C37021E030E0A90102C0440F8D
:100A7000551FCA95E2F7EA01C82BD92BDA6842CF95
:100A80000E941304C82FD0E0DC2FCC27CC27DF71C5
:100A9000D06238CF8F710E94130465E0D695C79558
:100AA0006A95E1F7CF70D0E0DC2FCC27282F30E01B
:100AB00084FF05C054E0220F331F5A95E1F7C22B83
:100AC000D32BD0691FCF8D2F8F710E941304182F45
:100AD000CE0199270E946F03212F30E0322F222769
:100AE00022273F71282B392BE901D2CFA0E0B0E0BB
:100AF000ECE7F5E00C946F1E8C01E0903002F09072
:100B0000310280912E0290912F02E82AF92ACFE03B
:100B1000D0E0CC24C394D12CC6010C2E02C0880F87
:100B2000991F0A94E2F78E219F21892B49F421977E
:100B300098F7B12C8B2DCDB7DEB7E9E00C948B1E66
:100B4000BC2EB8018C2F0E9451030E945D040197B6
:100B500071F3F0CF0F931F93CF93FC01828100813B
:100B60001181882391F0662381F0C8010E947605E7
:100B7000C82F682FC8010E948502B8018C2F0E94DF
:100B80005103CF911F910F910895C8010E94BB029C
:100B9000C82FF3CFCF93DF93D82FC92F0E947605AC
:100BA0006D2F7C2F0E9451030E945D04DF91CF9135
:100BB0000895FC0183819481892BC9F08181908102
:100BC00089238F3FA1F0808191810E94CA05282F3F
:100BD00092959F70963091F060F4925F9F70923082
:100BE00030F481E0203F79F030F4283E30F080E0AE
:100BF00004C09A5FF3CF243FD1F7089581E0283EE7
:100C000018F0213FF9CF0895089580E0089580916C
:100C10001E0280FD14C081FD14C082FD16C08091AB
:100C20001D02882381F08E3180F420E5829FC0016F
:100C300011246EE170E00E949D1E862F089584E1CC
:100C4000089588E2089588E0089580E508958091E8
:100C50001E0280FD17C081FD17C082FD19C0809162
:100C60001C02882399F0883298F428E0829FC00102
:100C7000112468E270E00E949D1E6115710551F01B
:100C8000862F089562E0FCCF64E0FACF61E0F8CFF0
:100C900068E0F6CF81E00895E091CE01F091CF01B8
:100CA000309729F00190F081E02D0995089580E0BA
:100CB0000895A3E0B0E0EFE5F6E00C94761E9C0109
:100CC000809198019091990182179307A1F0309338
:100CD000990120939801E091CE01F091CF013097D6
:100CE00051F083E089833B832A830680F781E02DDE
:100CF000CE01019609952396E2E00C94921EA3E0A2
:100D0000B0E0E5E8F6E00C94761E9C018091960137
:100D10009091970182179307A1F030939701209348
:100D20009601E091CE01F091CF01309751F084E02F
:100D300089833B832A830680F781E02DCE010196CB
:100D400009952396E2E00C94921E9C018091080183
:100D50008823C1F08091330287FF14C0862F8695C7
:100D600086958695603FF8F4F901E80FF11D6770EC
:100D700021E030E001C0220F6A95EAF78281822BE0
:100D800082830895F90132968FEF90E041916417C4
:100D900051F08F3F19F4411101C0892F9F5F9630A8
:100DA000A9F78F3F09F40895280F311D87FD3A9563
:100DB000F9016283089587E797E79093010880938C
:100DC000000888E19AE00FB6F894A8958093600037
:100DD0000FBE90936000FFCF809195010895FC01B4
:100DE0009B0180917301909174018617970740F0E1
:100DF000672B29F48091E8008E778093E800C90181
:100E000040E0009741F4411106C08091E80082FF64
:100E10002FC080E008952091A9012223A9F1253057
:100E2000A9F12091E80023FD2DC02091E80022FDCA
:100E3000ECCF2091E80020FFE4CF3091F300209127
:100E4000F200009719F02830310558F041E02830C1
:100E5000310509F040E02091E8002E772093E8006A
:100E6000D0CF41914093F10001972F5F3F4FE9CFE1
:100E70008091A901882341F0853041F08091E800FC
:100E800083FFC3CF81E0089582E0089583E0089551
:100E900080916D0187FF13C08091E80082FF06C03A
:100EA0008091E8008B778093E80004C08091A901CD
:100EB0008111F2CF08958091A9018823D9F38091FF
:100EC000E80080FFF8CF8091E8008E77ECCF20918A
:100ED000E4003091E50095E6A9018091EC00817075
:100EE000882331F08091E80080FF06C080E00895FB
:100EF0002091E80022FD1BC08091A901882391F078
:100F0000853091F08091EB0085FD10C02091E400C8
:100F10003091E5004217530701F391509111DCCF56
:100F200084E0089582E0089583E0089581E00895C3
:100F3000E8EDF0E080818E7F80831092E2001092D5
:100F4000DA001092E100A0EEB0E08C9181608C9309
:100F500080818F77808319BCA7EDB0E08C918E7F64
:100F60008C9380818F7E808310926C010895982FDE
:100F7000E42FE2709093E900891308C0762F242FA4
:100F800050E0E11111C091E0980FF4CF7091EC00A6
:100F90002091ED005091F00021FD06C09F5F973039
:100FA00049F78093E90008953091EB003E7F30933C
:100FB000EB003091ED003D7F3093ED003091EB0080
:100FC00031603093EB007093EC002093ED00509370
:100FD000F0002091EE0027FDE1CF0895A0E0B0E001
:100FE000E4EFF7E00C94701EC8EDD0E088818F7EAE
:100FF0008883E7EDF0E080818160808384E082BFB8
:1010000081E080936C0188818E7F888302EE10E0FE
:10101000F80110821092DA0081EEC82ED12CF60170
:10102000108288818F77888388818068888388810F
:101030008F7D888319BC1092A90110926B011092C8
:10104000A80110926A0190EEE92EF12CF70180813F
:101050008B7F808388818160888342E060E080E0CC
:101060000E94B707F60180818E7F8083F80180811E
:1010700081608083808188608083F70180818E7F9A
:101080008083888180618883CDB7DEB7E8E00C94E7
:101090008C1EE09137029091360226E0E91302C0DF
:1010A00080E00895AE2FB0E02E9FF0011124E85C9F
:1010B000FD4F3181361306C03081381303C03281B1
:1010C000341304C0FD013196E770E8CF81E0089544
:1010D0000F931F93CF93DF93EB018A019091A901A6
:1010E000943079F58093E9008FEF9091E80095FDB9
:1010F00007C095ED9A95F1F7000081508111F5CF69
:101100008091E80085FF1DC00E946707811114C00F
:101110008091E80085FD06C08091E8008E7780937D
:10112000E800F2CF88818093F10001501109011588
:10113000110511F02196ECCF8091E8008E77809315
:10114000E800DF91CF911F910F910895CF93DF9326
:10115000D82FC92F80910801811113C048E050E0B9
:101160006D2F792F81E00E94680880E2ED2FFC2F1F
:10117000A5E7B1E001900D928A95E1F7DF91CF915B
:1011800008958091330287FD06C048E081E050E079
:101190006D2F7C2FE8CF40E282E0F9CFBC0146E022
:1011A00050E082E00E9468080895BC0143E050E0EE
:1011B00082E00E94680808959091340292FB2227F1
:1011C00020F9281779F080FB92F99093340260910E
:1011D00033027091340284E090E00E94E31E82E0CA
:1011E0000E942503089580912C0290913502892B4D
:1011F0008093420190912D029923D9F0892B8093FD
:10120000420180910801882309F442C08091330291
:1012100087FF3EC08DE190E024E431E0F901408198
:101220002F5F3F4F41119F5F8150C0F791110E9486
:101230004B0340E250E060ED71E082E491E00E94F7
:10124000F91E892B21F180E2E2E4F1E0A0EDB1E0AA
:1012500001900D928A95E1F7E091CE01F091CF01D6
:101260003097A9F080910801882359F080913302CA
:1012700087FF07C0809142018093430186E08093FD
:1012800042010280F381E02D82E491E00995089506
:1012900085E0C1CF882339F090912C02892B80936F
:1012A0002C020E94F3080895882321F00E94430332
:1012B0000E94F308089580912702882349F08091C5
:1012C00035028D7D809335020E94F308109227022B
:1012D0000895A1E0B0E0EFE6F9E00C94731EF82E5B
:1012E000698304E610E021E030E0AE014F5F5F4F1C
:1012F000682F80E40E94D41D892B71F46CE06F0D7F
:1013000021E030E0AE014F5F5F4F80E40E94D41DCA
:101310009C0181E0232B09F080E02196E5E00C940C
:101320008F1ECF936FEF80E00E946909C1E0982F74
:101330009C2780916E02890F80936E026FEF81E08F
:101340000E946909982F9C2780916E02890F8093D3
:101350006E02CF91089580916E0281110BC06FEFE4
:1013600081E00E94690991E0982780916E02890FBF
:1013700080936E0208951F921FB61F9211248F93BF
:101380009F93AF93BF938091A701811113C0809168
:10139000C7019091C801A091C901B091CA014196BD
:1013A000A11DB11D8093C7019093C801A093C901ED
:1013B000B093CA01BF91AF919F918F911F901FBEB3
:1013C0001F9018952FB7F8948091C7019091C8018C
:1013D000A091C901B091CA012FBF08950E94E209EE
:1013E0002091210230912202232B222321F080938D
:1013F000C5019093C6012091230230912402232B32
:10140000222321F08093C3019093C401E091CE0187
:10141000F091CF01309749F082E080931F02048061
:10142000F581E02D8FE192E009950895662309F496
:101430004BC0E3E3E80FE33150F4F0E0E85FF04E37
:101440000C94B11E0E9407068195809322020E948F
:10145000EE0908950E940706F8CF0E9407068195BD
:1014600080932102F4CF0E940706FACF0E9427063C
:1014700080932302ECCF0E9427068195F9CF0E942A
:101480002706819580932402E2CF0E942706FACF97
:10149000815D990B21E030E001C0220F8A95EAF7C7
:1014A00080912002822B80932002D1CF80911E0256
:1014B000816080931E02CBCF80911E028260F9CFA3
:1014C00080911E028460F5CF409121028D3C59F439
:1014D0008091220287FF0DC010922202442359F40A
:1014E00010921D0208C08E3C81F4809122021816D1
:1014F0009CF3442381F08091230290912402892B54
:101500008111A5CF10921C02A2CF8F3C41F447FF5E
:10151000F0CF10922102809122028823E0CF803DFB
:1015200019F41416B4F3E5CF90912302893D29F400
:101530001916FCF610922302DCCF8A3D19F497FFAE
:10154000D8CFF8CF909124028B3D29F497FFD1CFCB
:1015500010922402CECF8C3D19F41916CCF3C9CFCA
:101560009FE2980F983090F4815D990B21E030E074
:10157000B90102C0660F771F8A95E2F7CB0180950B
:1015800090912002892380932002B3CF8D3D31F4C6
:1015900080911E028E7F80931E02ABCF8E3D21F480
:1015A00080911E028D7FF7CF8F3D09F0A2CF8091F1
:1015B0001E028B7FF0CFCF93C82F8823C1F18CEF11
:1015C0008C0F813AB0F580910801882301F1809158
:1015D000330287FF1CC0EC2FE695E695E695F0E018
:1015E000EE5BFE4F828190E04C2F477021E030E0AF
:1015F00002C0220F331F4A95E2F782239323892BDF
:1016000079F08C2F0E94F8020E94F30809C0E4E4EC
:10161000F1E08191C817A9F321E0EA34F207C9F794
:101620006C2F82E491E00E94A5060E94F308CF91FE
:10163000089580E28C0F883068F4C77081E090E0F4
:1016400001C0880FCA95EAF7C0912C02C82BC0933D
:101650002C02EBCF8BE58C0F833038F42C2F2452E7
:10166000330BC9010E945906E2CFE8E5EC0FEB31DC
:1016700050F4F0E0EE0FFF1FE75FFE4F8081918195
:101680000E947F06D4CF83E38C0F833180F661E024
:101690008C2F0E94160ACBCF882381F19CEF980FE4
:1016A000913A28F40E94F8020E94F308089590E20B
:1016B000980F983050F4877091E001C0990F8A9587
:1016C000EAF7892F0E944303EFCF9BE5980F9330F1
:1016D00028F480E090E00E945906089598E5980F5C
:1016E0009B3128F480E090E00E947F06089593E308
:1016F000980F933118F460E00E94160A08951F9322
:10170000CF93DF93182FEB010E94DB0A209739F467
:10171000812F0E944C0BDF91CF911F9108958FE98B
:101720009FE00197F1F700C000002197EFCF1092E2
:101730002C0280910801E4E4F1E0882329F18091F2
:10174000330287FF21C08EE1DF011D928A95E9F700
:1017500080E090E00E94590680E090E00E947F06C1
:10176000109235020E94F30886E0EFE1F2E0DF011B
:101770001D928A95E9F710921D0210921C02109298
:101780001E020E94EE09089586E0DECF0E94970BAC
:101790002FEF84E39CE0215080409040E1F700C0AF
:1017A000000088E19AE00FB6F894A8958093600055
:1017B0000FBE90936000FFCFAAE2B0E0E2EEFBE044
:1017C0000C94751E8DE691E0FC0101962091F100CC
:1017D000208321E085379207B9F780916E01893027
:1017E00009F456C0C8F4823009F4B2C0833009F459
:1017F00081C0813071F18091E80083FFE6C0809163
:101800006D0190916E019A3008F0DFC0E92FF0E091
:10181000E55EF04E0C94B11E8A3009F488C08B301E
:1018200051F780916D01813231F780917101909172
:101830007201892B01F78091E800877F8093E8008F
:101840000E94480780916F01809308010E94970BC6
:10185000D2CF80916D01813A71F68091E800877F47
:101860008093E8008091710190917201892B61F061
:1018700060E080E090E070E00E94EF068091E80078
:101880008B778093E800B7CF60E285E791E0F3CFF4
:1018900080916D01813209F0AECF809171019091FC
:1018A0007201029708F0A7CF8091E800877F8093AC
:1018B000E8008091E80082FF18C09091F3008091C9
:1018C000F200029731F48091F100813011F08630FE
:1018D00021F48091F100809395018091E8008B774D
:1018E0008093E8000E94480786CF8091A90181116A
:1018F000E0CF81CF80916D01813A09F07CCF80915A
:10190000710190917201892B09F075CF8091E800E7
:10191000877F8093E8008091E80080FFFCCF809172
:1019200008018093F1008091E8008E77D9CF8091F3
:101930006D01813209F05FCF8091E800877F80934D
:10194000E8000E944807809170018093690153CF9D
:1019500080916D01813A09F04ECF8091E800877F38
:101960008093E8008091E80080FFFCCF80916901BE
:10197000D8CF803889F0823841F5809171018F701D
:10198000873018F58093E9008091EB0085FB88276C
:1019900080F91092E90006C080916A019091A80137
:1019A000911182609091E800977F9093E800809376
:1019B000F1001092F1008091E8008E7723C0811130
:1019C00016C080916F01813011F18091E80083FF92
:1019D0000AC08091E800877F8093E8008091EB0047
:1019E00080628093EB00AA96E3E00C94911E823013
:1019F00061F780916F01882389F01092E90080914E
:101A0000E800877F8093E8000E944807DECF81E0EE
:101A1000933009F080E08093A801EFCF80917101AD
:101A20008F702FEF280F263080F68093E9002091E9
:101A3000EB0020FFE2CF933031F48091EB00806225
:101A40008093EB00DACF9091EB0090619093EB00E4
:101A500021E030E0A90102C0440F551F8A95E2F74A
:101A60004093EA001092EA008091EB008860E8CF92
:101A70008111ABCF10916F011F778091E3008078C7
:101A8000812B8093E3008091E800877F8093E800BA
:101A90000E9448078091E80080FFFCCF8091E3001E
:101AA00080688093E30083E0111101C082E080939D
:101AB000A9018BCF8058823008F087CF40916F0109
:101AC000509170014C3D83E0580799F583E08A837B
:101AD0008AE289834FB7F894DE01139620E03EE056
:101AE00051E2E32FF0E050935700849120FF03C0B0
:101AF00082958F703F5F8F708A30C8F0895C90E06C
:101B00008D939D932F5F243161F74FBF8091E80043
:101B1000877F8093E8006AE270E0CE0101960E9420
:101B2000EF068091E8008B778093E8004ECF805DD0
:101B3000E6CF2091710130917201852F9927833072
:101B4000910509F160F48130910509F472C00297A2
:101B500009F03BCF8BE390E0E2EAF1E029C081326B
:101B6000910509F45AC0829709F02FCF211531054C
:101B700009F469C02130310509F027CF86EB90E0E8
:101B8000ECEAF0E015C0CA0199274130B1F182308A
:101B9000910509F43AC0892B09F017CFE7E1F2E08B
:101BA000E4918E2F90E0E7E1F2E0009709F40DCF89
:101BB0002091E800277F2093E80020917301309165
:101BC00074018217930708F49C0140E02115310548
:101BD00009F03EC041113CC08091E80082FDA1CFD8
:101BE0008091A901882309F49CCF853009F499CF0D
:101BF0008091E80083FFF0CF94CFE3E0F2E0E4913E
:101C00008E2F90E0E3E0F2E0D0CFEFEEF1E0E49150
:101C10008E2F90E0EFEEF1E0C8CF2115310571F085
:101C20002130310509F0D1CE89E090E0EDECF1E012
:101C3000BFCF82E190E0EDEDF1E0BACF89E090E036
:101C4000E4EBF1E0B5CF80E490E0E2E6F1E0B0CF84
:101C50008091A901882309F464CF853009F461CF0C
:101C60008091E80083FD5DCF8091E80082FDB4CFD4
:101C70008091E80080FFAACF9091F3008091F2005C
:101C80002115310519F08830910550F041E0089791
:101C900009F040E08091E8008E778093E80096CFCD
:101CA00044914093F1003196215031090196E8CFDB
:101CB000803809F08ACE8091E800877F8093E80021
:101CC00080916B018093F10076CE81117ECE1091D0
:101CD0006F01123008F079CE8091E800877F809301
:101CE000E80010936B010E944807112381F084E003
:101CF0008093A90142E061EC81E00E94B70742E2D3
:101D000061EC82E00E94B7078091A9015ECE8091CC
:101D1000E30087FDECCF81E0EBCF9C014FB7F89457
:101D20008091C7019091C801A091C901B091CA01E9
:101D30004FBF821B930B08950F931F93CF93DF9395
:101D4000C62FD42F122F8823A9F060932A020E9455
:101D5000E2099093680180936701C77081E001C038
:101D6000880FCA95EAF70E944A09DF91CF911F9127
:101D70000F91089580912A02681336C080916701FF
:101D8000909168010E948D0E883C910568F5CD13F5
:101D90000EC060E070E0812F0E947F0BD77081E061
:101DA00001C0880FDA95EAF70E945409DECFC770A8
:101DB00001E0802F01C0880FCA95EAF70E945409FC
:101DC00080E28D0F883050F48D2F877001C0000F96
:101DD0008A95EAF7802F0E944A09DBCF60E070E025
:101DE000812F0E947F0BC1CFC77081E001C0880F97
:101DF000CA95EAF7D9CFA0E0B0E0E1E0FFE00C94AB
:101E0000701E8C01FC019081818123813481232B00
:101E100081F189238F3F69F161E0C8010E94AA0521
:101E2000EC018034FEE79F0749F181342EE79207E9
:101E300009F47CC083379C4709F099C0F80182817E
:101E4000882339F080912702882309F480C00E94FA
:101E50005B09809132028770882359F0F8018281F2
:101E6000882339F08091340282FF03C082E00E940F
:101E70002503CDB7DEB7E8E00C948C1EF801928103
:101E8000F0902C02E0902D0280912702992309F412
:101E90004AC091E090932602882309F457C10E941A
:101EA000E20988579C4E9093290280932802F801FA
:101EB0009281992309F463C08F2D8E298D79811128
:101EC00091C0C115F0E5DF0708F066C0C11520E438
:101ED000D20708F013C1C63ED10509F46BC0CE018C
:101EE00090528115904208F043C1F80185818031FC
:101EF00008F47BC0CE01992710923502CD3209F447
:101F00003CC18E32910508F01BC18E31910508F05D
:101F100038C1CE018C7F9927892B09F457C082E004
:101F20008093350234C110922602B6CFF801928117
:101F3000F0902C02E0902D0280912702992321F04D
:101F400091E090932502A8CF10922502A5CF109280
:101F50002C020E944B030E94E20988579C4E9093EA
:101F600029028093280281E08093270272CFF090AB
:101F70002C02E0902D0280912702811190CFF80170
:101F80008281FE01E851FC47E730F10508F0DEC030
:101F9000EB5DF04E0C94B11EC43BF2E5DF0751F04F
:101FA000C0F4C03432E5D30740F4C11582E5D80748
:101FB00008F4D1C010922A022BC0CE01805692455F
:101FC0008034910508F410C1109235020E945B091B
:101FD000BDC09E01205C32452032310508F421C18C
:101FE000109235020E945B09CACF8D2F8F71843108
:101FF00009F308F059C08D2F8F70823009F056C058
:10200000109235020E945B09F801828181117BC028
:10201000F8018281E080F180882309F4F4C1C701CE
:102020000E947605C82F682FC7010E948502B7015C
:102030008C2F0E9451030E945D04D82FC92FF801F4
:10204000F280E580E2942FE0E222809132028770F4
:102050008823F1F0DF2CFF20E1F0892F807F80348E
:1020600051F080E28D0F883098F0E11004C0892F84
:10207000807E803269F08091340282FF09C082E064
:102080000E942503809132028770DD24D394811150
:10209000D12CEC2FE295EF70C03C08F0F1C1F0E0DC
:1020A000E45DF04E0C94B11E8631A8CF0E945B090E
:1020B000F8018281882309F4ABCF10922A02F8013B
:1020C0008281C631FCE7DF0709F0AEC090912C0297
:1020D000882309F482C1892F8A7A91E0811101C095
:1020E00090E090932B0265E3811101C069E282E4E4
:1020F00091E00E94A5060E94F308ABCEF80185810D
:10210000803108F0F7CE10922A02F80182818823EC
:10211000B1F2CE019057839790F684E090E00E9450
:10212000BF1E9093340280933302FE01E150F047CA
:10213000E232F10508F094C0E85CF04E0C94B11E58
:102140008C34910509F042CF0E94F308F801828196
:102150008111D9CFDACF10923502CE32D105F8F401
:10216000CE31D105B8F4C430D10508F42FCFD7CE85
:1021700010923502CD32D10581F782E0809335028D
:10218000E3CF8832910500F38A9709F02BCF0E94A4
:10219000F308F5CEC832D105B8F2CE01F5CFCC3474
:1021A000D10591F2CD3222E0D20771F21BCF26E2A7
:1021B00041EE61EE0E949C0E4CCE27E245EE65EEAC
:1021C000F9CF26E241EE60EEF5CF27E245EE64EE70
:1021D000F1CF26E241EE62EEEDCF27E245EE66EE6C
:1021E000E9CF28E241E0EBCF10922A02C1308CE720
:1021F000D80709F402C1C3309CE7D90709F4F7C036
:10220000C115DC4709F004CF0E94970B3FEF84E330
:102210009CE0315080409040E1F700C000000E94F7
:10222000DB0610922A02892F882309F4F1CECA35E1
:102230002CE7D20709F4E3C0C8F2CB35FCE7DF078F
:1022400009F4DFC0CC35DC4709F0E2CE80913402DE
:1022500082FB882780F991E089270E94DC08D8CE8C
:1022600080913302816080933302609133027091D8
:10227000340284E090E00E94E31E0E94970BE9CDB7
:1022800080913402886080933402EFCF80913302D2
:102290008260E9CF809133028460E5CF8091330280
:1022A0008860E1CF809134028160EDCF809134026B
:1022B0008260E9CF809133028061D5CF8091330273
:1022C0008062D1CF809133028064CDCF0E94970B82
:1022D000809133028068C7CF809133028C60C3CF76
:1022E000809134028360CFCF809133028E7FBBCF49
:1022F00080913402877FC7CF809133028D7FB3CF27
:10230000809133028B7FAFCF80913302877FABCF39
:10231000809134028E7FB7CF809134028D7FB3CF0E
:10232000809133028F7E9FCF809133028F7D9BCF30
:10233000809133028F7B97CF0E94970B809133025D
:102340008F7791CF80913302837F8DCF809134023C
:102350008C7F99CF8091330282FB992790F921E0FD
:10236000922790FB82F990FB83F97DCF8091340214
:10237000982F909591708E7F892B90FB81F983CF58
:1023800090913302892F8F7B96FF80646CCF0E94DF
:10239000970B90913302892F97FB87F9805863CF71
:1023A00061E08EE090E00E94C51E5FCF60E0F9CF53
:1023B00090913302892F8F7E94FF806154CF90914A
:1023C0003302892F8E7F90FF81604DCF9091340230
:1023D000892F877F93FF886056CF80912B028823B7
:1023E00021F085E30E94F80286CE89E2FBCF6FEFF1
:1023F0007FEF80E090E00E94E31E0E94C60B81E028
:102400002CCF80E02ACFC7010E94BB02C82F0FCE7D
:10241000FC2FFF70EF2EC03118F0E29490EFE9220C
:10242000FF20B9F0EE2069F080E28D0F883010F0C7
:10243000D11109C080912C028E2980932C020E9418
:10244000F3088D2F64C0809135028E298093350268
:10245000F6CF8D2F0E944C0BEE2091F080E28D0F75
:10246000883010F0D11104C08E2D0E94430306C0A5
:10247000E094809135028E21809335020E94F3080A
:10248000DD20A9F08091320280FD11C0F801128296
:102490008595859585950E946302C8010E94FB0E73
:1024A000809132028595859585950E94730260E042
:1024B000C8010E94AA05DDCC2C2F2F70C22EC07F30
:1024C000C03219F0C29480EFC822DD2381F0D130F0
:1024D00009F450C0FF2009F45AC0EE2009F450C09E
:1024E000F801858180FFADCF8F70858349C0209131
:1024F000340222FD17C0FF2069F0CC2039F0809112
:102500002C028C2980932C020E94F30880E00E9408
:10251000DB0AB6CF80E00E944C0BCC2009F4B0CF90
:102520008C2DA3CFFF20A1F090912D02892F8C2913
:10253000E11003C00E944A09A3CF31E0E312FACFB1
:1025400022FF9ECF981709F49BCF80932D0298CF3E
:10255000E11006C00E944B038C2D0E94540990CFBD
:1025600081E0E81609F48CCF8C2D0E9454090E945A
:102570004B0386CFFF2031F095E09E1508F480CF05
:102580008C2DD8CFE4E0EE1508F47ACFE5CFEE201D
:1025900019F3D93349F4FFEF27EE33E0F15020402F
:1025A0003040E1F700C000008D2F0E944C0B68CF37
:1025B0008C2F869586958370882369F0813009F089
:1025C0005FCF8D2F9C2F9370F11002C080E090E0C0
:1025D0000E947F0655CF8D2F9C2F9370F11002C063
:1025E00080E090E00E9459064BCF6F2D8D2F0E9406
:1025F000160A46CF8C2F8370811144C0F1102FC072
:102600004D2F429546954770440F440F2D2F2F7044
:1026100030E0042E02C0220F331F0A94E2F780E05C
:1026200090E0D4FF09C08FE090E002C0880F991FAE
:102630004A95E2F780959095C695C695C370C230CD
:10264000C1F0C33099F040912E0250912F02C13059
:1026500059F0822B932B842395230E9459020E94C8
:102660004C060E9449020CCF242B352B822B932B36
:10267000F4CF822B932B20912E0230912F028227B0
:102680009327EBCFFF2091F1C0FFE9CF4D2F42956B
:1026900046954770440F440F2D2F2F7030E0042EC5
:1026A00002C0220F331F0A94E2F780E090E0D4FFCB
:1026B00009C08FE090E002C0880F991F4A95E2F7A9
:1026C00080959095C695C695C370C230C1F0C33051
:1026D00099F04091300250913102C13059F0822B73
:1026E000932B842395230E945E02B9CF823008F495
:1026F000B6CFCCCF242B352B822B932BF4CF822B30
:10270000932B209130023091310282279327EBCF17
:10271000CF70FF2039F08C2F0E9463028D2F0E9412
:102720004A099DCF8D2F0E9454098C2F0E9473025D
:1027300096CFD23FA1F178F4D03FC1F0D13F09F458
:1027400047C0FF2009F46BC0EE2009F465C08D2F4F
:102750000E94DB0A84CFD33F49F1D43FA9F1F110A5
:10276000F3CFE1106AC08C2F8F71E0CFFF20A1F072
:1027700084E08E1508F473CFCF7181E090E0FC0106
:1027800002C0EE0FFF1FCA95E2F7809130029091D0
:1027900031028E279F27A7CFF5E0EF16EBCF8C2FC6
:1027A0008F71F110C3CF0E94630259CF80E090E097
:1027B000FF2009F498CFCF7181E090E002C0880F2C
:1027C000991FCA95E2F78FCF8091340282FD06C02F
:1027D0008C2F8F71FF2009F4A9CFE5CFFF2089F05E
:1027E000CF718C2F0E9463028091340282FF07C058
:1027F00028E0C29FC00111248360809332028C2F95
:10280000D2CF81E00E94250331E03E1508F027CFAA
:1028100082E00E94250323CF8C2F8F71C4CFEE203E
:1028200009F4A1CFD93349F48FEF97EEE3E081505B
:102830009040E040E1F700C000008D2F0E944C0B5B
:102840000ECF1F93CF93DF9380916D02803108F0FC
:102850004CC080916A02882309F447C080913702F6
:10286000209136023091680260916902C0916B023A
:10287000D0916C02732F76232817B9F190E020973E
:1028800009F443C016E07F3F09F43FC0189FF001F0
:10289000199FF00D1124DF01A85CBD4F11964C91DA
:1028A000119746132CC04C91431329C012964C919A
:1028B000129741111EC013964D915C914C1B5D0BFC
:1028C000483C5105E0F480916D028F7080618093E7
:1028D0006D02E35CFD4F80818F708061808388E6AC
:1028E00092E00E94FB0E0E94EE02DF91CF911F91B9
:1028F00008950196877099272813C8CFF6CF0196BF
:10290000877099272813BFCFF0CF01968770B4CF77
:10291000ABE0B0E0EEE8F4E10C946E1E8C0185E0D3
:10292000F801DE01179601900D928A95E1F7F80102
:10293000F280C380D48088E6A82E82E0B82E9091E1
:1029400068022091690240916B0250916C0241151E
:10295000510509F4FEC0892F82238F3F09F4F9C085
:10296000E0906A02B601641B750BEE2009F4C5C045
:1029700080916D02683C710508F0A1C0B180803182
:1029800008F061C02B1113C02081291310C0F11071
:102990003EC08F70806180936D0288E692E00E9455
:1029A000FB0E80916D02F8018583F12C29C0AF8068
:1029B000C114D10451F18A2D8B218F3F31F1F110D7
:1029C00026C040E06B2D8A2D0E94490840E06B2D07
:1029D0008A2D0E944908F82E8111E7CF8F819885B2
:1029E0000E94CA05292F22952F709034B0F49F7051
:1029F0002230E0F09923F1F0F80195819031D0F484
:102A00008F2D2B96EAE00C948A1EFF2071F28091A4
:102A10006D02816080936D02C8CF2A5F2F702230D3
:102A200068F0C8010E94FB0EFE2CEACF992311F03A
:102A3000882331F3805E883018F3F3CF803F00F3B2
:102A4000815F8230F9CF2B1112C0208129130FC072
:102A5000F1100DC08583C8010E94FB0E86E0F801CD
:102A6000A8E6B2E001900D928A95E1F725C0C80171
:102A70000E94D905882309F468C0FF2009F465C0C5
:102A800080916D02803270F020916802309169026D
:102A90003A8329831B82DD82CC828E83CE0101960C
:102AA0000E94FB0E86E0F801A8E6B2E001900D92CC
:102AB0008A95E1F70E942114FF24F394A1CF80317D
:102AC00050F488E692E00E94FB0E86E0F501119238
:102AD0008A95E9F76ACF31813213C9CF2081291352
:102AE000C6CFF110C4CF8583C8010E94FB0E86E0DB
:102AF000F50111928A95E9F7DFCF683C710528F757
:102B0000FF2019F18181821316C08081891313C0BF
:102B100080916D0280FDA2CF803108F49FCF858324
:102B2000807F803F09F497CF8581982F907F905FB9
:102B30008F70892B8FCFC8010E94D9058111B2CF28
:102B400080916D02816080936D02C8010E94FB0E2E
:102B5000B3CFFF20D1F3C8010E94D9058823A9F380
:102B600086E0F801A8E6B2E001900D928A95E1F7BF
:102B700080916802909169020E94CA059BCFA7E1EB
:102B8000B0E0E5ECF5E10C94751E4B8B5C8B962F59
:102B90006D8B7E8B8F8B6111109235021A8A85E0C6
:102BA000FE017396DE011D9601900D928A95E1F764
:102BB0009F8786E0FE013D96DE01179601900D92FB
:102BC0008A95E1F7CE0107960E948814811131C0E1
:102BD00086E0FE013796DE01119601900D928A95EE
:102BE000E1F78F81988520913602409137026A85FE
:102BF0007B85672BF1F089238F3FD9F030E0C90145
:102C000001968770992750E084179507E9F096E0C0
:102C1000929FD001939FB00D1124A85CBD4FFE017F
:102C2000319601900D929A95E1F7809336020E94B9
:102C3000EE0216E08091370290913602891312C09D
:102C40006796E3E00C94911E0E94970B1092360257
:102C50001092370286E0E8E6F2E0DF011D928A95E5
:102C6000E9F7E7CF189FC0011124885C9D4F0E94AF
:102C70008814882329F38091370290E001968770A9
:102C8000992780933702D6CFA5E0B0E0EAE4F6E1D9
:102C90000C94741E0E94E2098C018091CC019091E9
:102CA000CD018017910791F08FEF89838A831B8272
:102CB0000E94E2098160782F49815A816B81892FB6
:102CC0000E94BF151093CD010093CC012596E4E03E
:102CD0000C94901EABE0B0E0E0E7F6E10C94661EC9
:102CE00080916E02882371F0809165019091660158
:102CF0000196811520E2920708F01DC190936601AC
:102D000080936501FBE98F2EF1E09F2EEE24E39482
:102D1000F12C312C22242A942E0CF401A190B19094
:102D20004F01129212926F01F4E0EF1609F41AC1EA
:102D300023E0221508F40AC181E0281609F40CC129
:102D400092E0291609F40BC1849A8C9880916E0246
:102D5000882309F40DC18FE891E00197F1F700C0D5
:102D6000000080916E02612C712C811126C09FEFB2
:102D7000998304E610E021E030E0AE014F5F5F4F41
:102D800062E180E40E94FF1D9C0191E0232B09F485
:102D900090E080916E02890F80936E028981809508
:102DA0000E943502982F96959C778370892B782EF8
:102DB0007694682E67946624679469B179B139B1C5
:102DC00096B129B15CB183B17695769541E07427CF
:102DD00071707A831B82EA81FB8175E0EE0FFF1F21
:102DE0007A95E1F7669566956695642761706C83C0
:102DF0001D826C817D81A6E0660F771FAA95E1F7A1
:102E00006E2B7F2B82958F70842781708E831F821B
:102E1000EE81FF816E2B7F2B32953F70342731700E
:102E200038871986E885F985B4E0EE0FFF1FBA955B
:102E3000E1F76E2B7F2B929596959695937094273C
:102E400091709A871B868A859B8533E0880F991F2E
:102E50003A95E1F7862B972B022E000C330B209529
:102E600030952227330F221F3327220F331F220FC3
:102E7000331F822B932B529556955695537054279A
:102E800050FB442440F8512C9201220F331F822B17
:102E9000932B86299729F60191838083F3E02F16DF
:102EA00009F4ACC0F21508F476C0241609F486C003
:102EB00022E0221609F492C084988C988C9881E0C4
:102EC000F601208131812A153B0509F480E0382A7A
:102ED000FFEFEF1AFF0A27E0E216F10409F01ACF1C
:102EE000332009F49FC081E0809364010E94E209CD
:102EF00090936301809362018091620190916301DC
:102F00000E948D0E059708F491C04CE050E06BE9EB
:102F100071E08AEA91E00E94F91E892B49F08CE069
:102F2000EBE9F1E0AAEAB1E001900D928A95E1F7B0
:102F3000109264017BC0109266011092650110929C
:102F40006E020E94AB090E949109DCCEE4E02E12D1
:102F50000CC0219A2998FACE859A8D98F7CE869A38
:102F60008E98F4CE879A8F98F1CE229A2A98EECE38
:102F700061E070E00E2C01C0660F0A94EAF76095DC
:102F800081E00E94690991E0982780916E02890F83
:102F900080936E02E6CE84E0281240C021982998E2
:102FA000299881E0F601208131812A153B0509F439
:102FB00080E0382A86E0E82EF12CACCE85988D98FA
:102FC0008D9881E0F601208131812A153B0509F4B5
:102FD00080E0382A33E0E32EF12C9CCE86988E9840
:102FE0008E9881E0F601208131812A153B0509F494
:102FF00080E0382A24E0E22EF12C8CCE87988F983E
:103000008F9881E0F601208131812A153B0509F472
:1030100080E0382A95E0E92EF12C7CCE22982A987F
:103020002A984DCF80916401811166CF809126024C
:10303000882329F060E070E081ED0E947F0B809191
:103040002502882329F060E070E082ED0E947F0B6A
:103050002B96E2E10C94821ECDB7DEB728970FB60F
:10306000F894DEBF0FBECDBF85B7806885BF85B73A
:10307000806885BF84B7877F84BF0FB6F894A89512
:1030800080916000886180936000109260000FBEA4
:1030900080E890E00FB6F89480936100909361000F
:1030A0000FBE85E096E090934101809340010E941D
:1030B00098070E94EE078091E20084608093E2000E
:1030C00078948091A901882399F08091E90010916A
:1030D000EC001795112717958F70182B1092E900A7
:1030E0008091E80083FD0E94DC0B1F701093E900C3
:1030F00082E084BD93E095BD9AEF97BD80936E000A
:1031000080919A0181110EC00E94E51C2FEF43EDC2
:1031100080E3215040408040E1F700C0000081E0A2
:1031200080939A012198299822982A9884988C98BB
:1031300085988D9886988E9887988F9829982A9840
:103140008C988D988E988F980E94AB096E98769A7D
:1031500052985A9A53985B9A54985C9A57985F9AE7
:103160003E98469A24982C9A0E9491098CE0EBE9AB
:10317000F1E0DF01282F1D922A95E9F7EAEAF1E054
:10318000DF011D928A95E9F780E090E00E94BF1E62
:10319000873E9E4F09F45EC067EE7EEF80E090E0D0
:1031A0000E94E31E60E082E090E00E94C51E60E0A5
:1031B00083E090E00E94C51E10922F0210922E0212
:1031C00060E074E184E090E00E94E31E60E086E04D
:1031D00090E00E94C51E6FEF87E090E00E94C51E40
:1031E00040E050E0BA0188E090E00E94D71E60E025
:1031F0008DE090E00E94C51E40E050E0BA0188E1F9
:1032000090E00E94D71E60E087E190E00E94C51E1A
:1032100040E050E0BA018CE190E00E94D71E60E0EF
:1032200070E080E290E00E94E31E40E050E0BA01CE
:1032300088E190E00E94D71E40E050E0BA018FE0A4
:1032400090E00E94D71E40E050E0BA0183E190E098
:103250000E94D71E82E090E00E94B71E8093B601C4
:1032600084E090E00E94BF1E90933402809333026A
:103270000E946A16EFEFF6E721E0E150F0402040AF
:10328000E1F700C000000E946A168091AA0180FF49
:1032900008C06FEF7FEF80E090E00E94E31E0E9485
:1032A000DB0683E090E00E94B71E90E00E94590286
:1032B000259A2D98269A2E98239A2B980E942902B7
:1032C0000E942C020E942F020E943202559A5D98A1
:1032D0004FEF80E792E0415080409040E1F700C01E
:1032E0000000259A2D9AAFEFB0E7E2E0A150B04080
:1032F000E040E1F700C00000269A2E9AFFEF20E799
:1033000042E0F15020404040E1F700C00000239A25
:103310002B9A8FEF90E7A2E081509040A040E1F718
:1033200000C000000E942902BFEFE0E7F2E0B150C8
:10333000E040F040E1F700C000000E942C022FEFB7
:1033400040E782E0215040408040E1F700C00000AB
:103350000E942F029FEFA0E7B2E09150A040B04042
:10336000E1F700C000000E9432020E9429020E9480
:103370002C020E942F020E94320280E091E0909382
:10338000CF018093CE0143EC442E41E0542ECE0178
:10339000019658E1652E712C8F8398878091A90141
:1033A000853059F48091A901853009F464C00E94E8
:1033B000970B0E944C060E9449020E946A1627EB56
:1033C000A22E21E0B22E3AEA832E31E0932ED401D0
:1033D000F501219131918D919D914E165F0609F471
:1033E0009DC028173907A9F3312CD4010D911D91E7
:1033F0004D01F501C190D1905F01C016D10659F180
:10340000C026D126212CEE24E394F12CC7018C2177
:103410009D21892BB1F029823A8221E0C7018023C6
:103420009123892B09F420E02B830E94E20981601B
:10343000782F9D838C8349815A816B81892F0E94CB
:10344000BF152394EE0CFF1CFEE02F12DFCFF50119
:10345000329711830083339426E03212C6CF8FB7A0
:10346000F8944091C7015091C8016091C9017091D1
:10347000CA018FBF59C08091A901843029F180E031
:103480000E9449021092A701E0E40FB6F894A895B3
:10349000609260000FBEE093600083B7817F84601C
:1034A00083BF83B7816083BF7894889583B78E7F0D
:1034B00083BF0FB6F894A8958091600088618093CF
:1034C0006000109260000FBE8091A801882309F46B
:1034D00069CF0E946A16EAEAF1E081919191892B05
:1034E00029F421E0E63BF207C1F75CCF40E149BD9A
:1034F00082E189BD09B400FEFDCF8091D8008F7DA7
:103500008093D8008091E00082608093E0008091F9
:10351000E00081FDFCCF0E94970B44CF28173907AC
:1035200009F062CF0E94441680912702882369F037
:103530000E94E2092091280230912902821B930BFC
:103540008F3F9F4710F40E945B0986E0EFE1F2E0B5
:10355000AF81B88501900D928A95E1F71092210212
:103560001092220210922302109224020B811C81DD
:10357000802F812B882379F08091C5019091C6011D
:103580000E948D0E9C0180911D02811151C02B3033
:10359000310508F053C00D811E81802F812B8823B7
:1035A00079F08091C3019091C4010E948D0E9C011D
:1035B00080911C02811180C02B30310508F082C03F
:1035C00046E050E06F8178858FE192E00E94F91E1D
:1035D000892B61F48091210290912202892B909194
:1035E0002302892B90912402892B81110E94EE09DC
:1035F00086E0EF81F885AFE1B2E001900D928A9507
:10360000E1F70E944C069091CB01891709F4C6CED0
:103610008093CB019FB7F8944091C7015091C801A6
:103620006091C9017091CA019FBF0E944902B6CE44
:103630002531310508F4AFCF8F3F19F08F5F8093AC
:103640001D02002359F00E94070691E010160CF0AD
:103650009FEF899F802D112480932102112359F01F
:103660000E94070691E011160CF09FEF899F802DB4
:1036700011248093220230912102332309F48BCF4D
:1036800020912202222309F486CF45EB3403C001A6
:103690001124892F911101C081E08093210245EB13
:1036A000240390011124332319F03093220273CFA5
:1036B00081E0809322026FCF2135310508F480CF5D
:1036C0008F3F19F08F5F80931C02002359F00E94F6
:1036D000270691E010160CF09FEF899F802D112492
:1036E00080932302112359F00E94270691E01116BE
:1036F0000CF09FEF899F802D11248093240230913C
:103700002302332309F45CCF20912402222309F4FD
:1037100057CF45EB3403C0011124892F911101C00B
:1037200081E08093230245EB24039001112433238D
:1037300019F03093240244CF81E08093240240CFDB
:1037400078941F921FB61F9211248F939F93AF936B
:10375000BF938091C7019091C801A091C901B09118
:10376000CA010196A11DB11D8093C7019093C801A4
:10377000A093C901B093CA01BF91AF919F918F915E
:103780001F901FBE1F9018951F920F920FB60F9299
:1037900011242F933F934F935F936F937F938F9356
:1037A0009F93AF93BF93EF93FF938091E10082FFCC
:1037B00009C08091E20082FF05C08091E1008B7F0B
:1037C0008093E1008091DA0080FF24C08091D800CE
:1037D00080FF20C08091DA008E7F8093DA00809194
:1037E000D90080FF9BC080E189BD82E189BD09B419
:1037F00000FEFDCF81E08093A90180916C018111D1
:1038000009C00E9498070E94EE078091E200846040
:103810008093E2008091E10080FF17C08091E20078
:1038200080FF13C08091E2008E7F8093E200809140
:10383000E20080618093E2008091D80080628093F2
:10384000D80019BC85E08093A9018091E10084FF34
:1038500029C08091E20084FF25C080E189BD82E11A
:1038600089BD09B400FEFDCF8091D8008F7D809383
:10387000D8008091E1008F7E8093E1008091E2008A
:103880008F7E8093E2008091E20081608093E2006D
:1038900080916B01882309F447C084E08093A901DB
:1038A0008091A9018091E10083FF27C08091E2000F
:1038B00083FF23C08091E100877F8093E10082E055
:1038C0008093A90110926B018091E1008E7F80931B
:1038D000E1008091E2008E7F8093E2008091E2001F
:1038E00080618093E20042E060E080E00E94B707E0
:1038F0008091F00088608093F000FF91EF91BF917C
:10390000AF919F918F917F916F915F914F913F9177
:103910002F910F900FBE0F901F90189519BC109209
:10392000A90110926C0176CF8091E30087FF02C05D
:1039300083E0B4CF81E0B2CF1F920F920FB60F9207
:103940001124FF920F931F932F933F934F935F93F5
:103950006F937F938F939F93AF93BF93CF93DF9397
:10396000EF93FF9309EE10E0F8018081C091EC0025
:10397000C795CC27C7958F70FC2EF82A1082C0EF10
:10398000D0E08881877F888378940E94DC0BF801DF
:103990001082888188608883CF2DCF70C083FF918B
:1039A000EF91DF91CF91BF91AF919F918F917F91D7
:1039B0006F915F914F913F912F911F910F91FF90C8
:1039C0000F900FBE0F901F9018951092B9008CE0C9
:1039D0008093B8000895A0E0B0E0E1EFFCE10C9422
:1039E0006D1EB82EEB010E94E2096C01EE24E394F7
:1039F000F12CC431D10560F025E0E22EF12CCF3F4F
:103A0000DC0731F0CE0164E170E00E94521E7B01C0
:103A100084EAA82E94E8992E1092BC00A092BC00D3
:103A20000E94E209182F092F8091BC0087FF0CC06B
:103A30008091B900887F8830F9F08091B900887F43
:103A40008031D1F00FEF08C0812F902F0E948D0E92
:103A5000E816F90648F70EEF1FEFCF3FDC07E1F25B
:103A6000C6010E948D0EC817D907B0F6C801CDB7A0
:103A7000DEB7EBE00C94891EB092BB009092BC00C4
:103A80000E94E209182F092F8091BC0087FF0AC00D
:103A90002091B900287F283111F0203499F600E0F8
:103AA00010E0E4CF812F902F0E948D0EE816F906CA
:103AB00058F7D1CF0F931F93CF93DF93EB018093F0
:103AC000BB0084E88093BC000E94E209182F092FF4
:103AD0008091BC0087FF11C02091B900287F81E050
:103AE00090E0283211F480E090E091958195910961
:103AF000DF91CF911F910F910895CF3FDC0741F3E4
:103B0000812F902F0E948D0EC817D90708F78EEFCE
:103B10009FEFEECF0F931F93CF93DF93EC0184ECD5
:103B20008093BC000E94E209182F092F8091BC00ED
:103B300087FF08C08091BB0090E0DF91CF911F917B
:103B40000F910895CF3FDC0789F3812F902F0E94BA
:103B50008D0EC817D90750F78EEF9FEFEECF0F935A
:103B60001F93CF93DF93EC0184E88093BC000E9405
:103B7000E209182F092F8091BC0087FF08C08091AF
:103B8000BB0090E0DF91CF911F910F910895CF3F3F
:103B9000DC0789F3812F902F0E948D0EC817D9075B
:103BA00050F78EEF9FEFEECFA0E0B0E0EAEDFDE141
:103BB0000C94701EC62F6A017901B8010E94EB1C9B
:103BC0009C0197FD0DC0B8018C2F0E945A1D9C01CD
:103BD000E601EC0CFD1CCE15DF0511F037FF09C026
:103BE00084E98093BC00C901CDB7DEB7E8E00C944E
:103BF0008C1EB80189910E945A1D9C01ECCFA0E057
:103C0000B0E0E5E0FEE10C946C1ED82EC62E7A01E1
:103C1000E901B8010E94EB1C9C0197FD13C0B8019B
:103C20008C2D0E945A1D9C0197FD0CC0B8018D2D52
:103C300081600E94EB1C9C0121976E01209781F40A
:103C400037FF26C084E98093BC00C9011816190605
:103C500014F480E090E0CDB7DEB7ECE00C94881E61
:103C600097FDF0CFA12CB12C4601C8010E948A1DFE
:103C70009C0197FDE7CFF701EA0DFB1D80838FEFD5
:103C8000A81AB80AC82DD92DAC14BD0470F3D8CF2A
:103C9000C8010E94AF1D9C0197FDD4CFCE0DDF1D42
:103CA0008883D0CFAA1BBB1B51E107C0AA1FBB1F33
:103CB000A617B70710F0A61BB70B881F991F5A95B8
:103CC000A9F780959095BC01CD0108952F923F9260
:103CD0004F925F926F927F928F929F92AF92BF921C
:103CE000CF92DF92EF92FF920F931F93CF93DF93C8
:103CF000CDB7DEB7CA1BDB0B0FB6F894DEBF0FBE25
:103D0000CDBF09942A88398848885F846E847D8471
:103D10008C849B84AA84B984C884DF80EE80FD8073
:103D20000C811B81AA81B981CE0FD11D0FB6F894E9
:103D3000DEBF0FBECDBFED01089597FB072E16F431
:103D4000009407D077FD09D00E94521E07FC05D0D1
:103D50003EF4909581959F4F0895709561957F4FA2
:103D60000895EE0FFF1F0590F491E02D0994F99945
:103D7000FECF92BD81BDF89A992780B50895A8E13C
:103D8000B0E042E050E00C94EB1E262FF999FECFF4
:103D900092BD81BDF89A019700B4021639F01FBA9E
:103DA00020BD0FB6F894FA9AF99A0FBE08950396BB
:103DB000272F0E94C61E0E94C51E252F0E94C61EC8
:103DC000242F0C94C61E0196272F0E94C61E0C9409
:103DD000C51EDC01CB01FC01F999FECF06C0F2BD86
:103DE000E1BDF89A319600B40D9241505040B8F7B9
:103DF0000895FB01DC0104C08D910190801921F42C
:103E000041505040C8F7881B990B0895F894FFCF94
:103E1000220A2A0A2D0A330A480A480A480A480A86
:103E2000480A480A480A480A360A3B0A3F0A450A2D
:103E3000560A5C0A600AB90CDF0CE50CDF0CE50CD5
:103E4000380D5A0DE50C580E650EE110E510D7102F
:103E5000DD10E910ED10F110081208125C125C126E
:103E6000D812F51240124012FA12881399139913BE
:103E70007411DF117C1146114A1180114E11841109
:103E800090115A11D8115E11941162119811C0113C
:103E900066119C11C7116C11A211AA11521188113F
:103EA00056118C117011A611B611D011D6114011F6
:043EB0007811E6118E
:103EB400EC06A608CE08D50801E200E900EA00B540
:103EC40000B600B700CD008301CC008A01920194B2
:103ED400012102230224022502260227022A02B318
:103EE40000B4006F0070009F01CB019F02A002008C
:00000001FF
