:100000000C9408030C9425030C9425030C942503ED
:100010000C9425030C9425030C9425030C942503C0
:100020000C9425030C9425030C94541F0C942C2041
:100030000C94A30B0C9425030C9425030C9425031A
:100040000C9425030C9425030C9425030C94250390
:100050000C9425030C94301F0C9425030C94250359
:100060000C9425030C9425030C9425030C94250370
:100070000C9425030C9425030C9425030C94250360
:100080000C9425030C9425030C9425030C94250350
:100090000C9425030C9425030C9425030C94250340
:1000A0000C9425030C9425030C94250305010902E7
:1000B000A10185020901A1000509190129081500FE
:1000C0002501950875018102050109300931158165
:1000D000257F95027508810609381581257F9501D0
:1000E00075088106050C0A38021581257F95017572
:1000F000088106C0C005010980A101850319012AF4
:10010000B700150126B700950175108100C0050CD8
:100110000901A101850419012AA002150126A002E6
:10012000950175108100C005010906A1018506052C
:100130000719E029E71500250195087501810205D9
:1001400007190029EF1500250195F07501810205B9
:10015000081901290595057501910295017503910D
:1001600001C005010906A101050719E029E71500ED
:100170002501950875018102950175088101050722
:10018000190029FF150026FF009506750881000556
:10019000081901290515002501950575019102959C
:1001A0000175039101C009023B00020100A0FA0998
:1001B0000400000103010100092111010001224492
:1001C0000007058103080001090401000103000084
:1001D0000009211101000122B60007058203200059
:1001E0000112010002000000080912282301000189
:1001F00002000112034500720067006F0064006F87
:10020000006E006500000012034B002E0054002E0B
:100210000045002E0043002E0000000403090421C5
:10022000022E022F002F0226022402460065002E15
:100230000027023002300025021E022B0033003658
:1002400000370013001C004E004B0009000A000696
:100250000015000F003800290004001200080018E3
:10026000000C000000000007000B00170011001632
:10027000002D00E100340014000D000E001B0039B9
:1002800000737C050010001A0019001D00E500E253
:10029000014A001F02E200310200000000000000DD
:1002A000003100E60049004D00E611000024524CE8
:1002B000002A002552E000E300E700E40025522C6C
:1002C0000028002452000001001E001F0020002111
:1002D0000022000100010023002400250026002741
:1002E0000001000100010001000100010001000106
:1002F00000010001000100010001000100010001F6
:1003000000010001000100010001000000000001E7
:1003100000010001000100010001000100010001D5
:1003200000010001000100010001000100010001C5
:1003300000010001000100010001000100010001B5
:1003400000000000000000000001000100010001A9
:100350000001000000010001000100010001000196
:100360000001000100010001000100010000003552
:10037000001E001F002000210022000100010023B8
:100380000024002500260027002D00010014001A7B
:1003900000080015001700010001001C0018000CE7
:1003A00000120013002F00010004001600070009CE
:1003B000000A00000000000B000D000E000F0033CB
:1003C00000340001001D001B00060019000500019B
:1003D0000001001100100036003700380001000154
:1003E0000001002E0030003100000000000000007D
:1003F000005000510052004F0001000000010001B8
:1004000000010001000100010001000100010001E4
:1004100000010001000000010001000100010001D5
:100420000001000100010001005300540055005676
:100430000001000100010052000100010001000163
:1004400000010001005F0060006100570001000131
:1004500000500051004F00010001000000000001A9
:10046000005C005D005E00850001000100010001EC
:100470000001000100010001000100010059005AC3
:10048000005B0067000100010001000100010001A4
:10049000000000000000000000620001006300583E
:1004A0000001000000010001000100010001000145
:1004B0000001000100010001000100010000000135
:1004C000003A003B003C003D003E00440045003F38
:1004D0000040004100420043000100010001000112
:1004E0000001000100010001000100010001000104
:1004F0000001004F000100010000520152025203AE
:100500005201000000000001005000010001000144
:100510000001000100407E417E51005200010001B7
:1005200000010001000100010001000100010001C3
:1005300000010001000100010000000000000000B7
:1005400000010001000100010001000000010001A4
:100550000001000100010001000100010001000193
:100560000001000100000001000100010001000184
:100570000001000100010001005300540055005625
:100580000001000100010046004700480001000191
:1005900000010001005F00600061005700010001E0
:1005A00000010049004A004B00010000000000016A
:1005B000005C005D005E0085000100010001004C50
:1005C000004D004E00010001000100010059005AD9
:1005D000005B006700010001000100010001000153
:1005E00000000000000000000062000100630058ED
:1005F00000010000000100010001000100010001F4
:1006000000010001000100010001000100000000E4
:1006100011241FBECFEFDAE0DEBFCDBF13E0A0E0B4
:10062000B1E0ECEEF5E402C005900D92A430B10704
:10063000D9F724E0A4E0B3E001C01D92A235B207CF
:10064000E1F70E94641B0C94A2220C940000259AEE
:100650002D980895269A2E980895239A2B980895F8
:10066000559A5D9A0895559A5D980895209A28980C
:100670000895CF93DF93D82FC92F292F30E048E07A
:100680002115310519F4282F392F40E0C90164E004
:10069000969587956A95E1F7009711F04C5F9C015C
:1006A000C9019695879596958795009711F04E5FAD
:1006B0009C0136952795232B39F0443081F00E9418
:1006C0003003209A289A06C04430C9F70E943003AC
:1006D0000E9436038D2F9C2FDF91CF9108950E94A9
:1006E0003303F6CF9C019A9581159F4118F5F901C6
:1006F000EE27F270832F8170B90166277470A9010B
:100700004427587034FF0CC08295807FEF2B09F08E
:100710008062672B09F08064452B69F0806808953A
:10072000EF2B09F08260672B09F08460452B19F0EC
:100730008860089580E008958295982F990F990F09
:100740009C7C869586958373982B892F880F8A7A4F
:1007500096959575892B089580FF08C02D9A81FF85
:1007600007C02E9A82FF06C02B9A08952D98F7CFC6
:100770002E98F8CF2B98089590930904809308043D
:1007800008950E94390390930B0480930A040895FE
:1007900021E030E002C0220F331F8A95E2F78091FA
:1007A0000A0490910B04822B932B0E94C10308959D
:1007B00021E030E002C0220F331F8A95E2F7209536
:1007C000309580910A0490910B04822393230E9418
:1007D000C1030895963098F58E3088F5E82FF0E043
:1007E0008EE0989FE00DF11D11248E2F877041E05F
:1007F00001C0440F8A95EAF783E0F695E7958A955C
:10080000E1F7EE0FFF1FEE0FFF1FE454FC4F20E057
:1008100030E070E05191DF011197CB01022E02C050
:10082000969587950A94E2F78170819585278423B0
:1008300085278C932F5F3F4F2430310559F708955A
:10084000963078F58E3068F5E82FF0E08EE0989FCE
:10085000E00DF11D11249E2F977083E0F695E7952A
:100860008A95E1F7EE0FFF1FEE0FFF1FE454FC4FD8
:1008700040E050E080E0219130E0092E02C0369542
:1008800027950A94E2F721703327042E01C0220F26
:100890000A94EAF7822B4F5F5F4F4430510559F7B6
:1008A000089580E0089580911104909110049813A8
:1008B00001C008958F5F8770FACF90913C01911528
:1008C000C1F090910D0497FF14C0E82FE695E695CE
:1008D000E695803FF8F4F0E0EA5FFC4F877021E096
:1008E00030E001C0220F8A95EAF78281822B828351
:1008F0000895A8E0B3E0EFEF90E02D91821751F05A
:10090000EF3F19F4211101C0E92F9F5F9630A9F73D
:10091000EF3F09F408950E2E000CFF0BEA5FFC4F29
:10092000E6CF90913C019115E1F090910D0497FF75
:1009300018C0E82FE695E695E695803FF0F4F0E0E4
:10094000EA5FFC4F877021E030E0A90102C0440F4C
:10095000551F8A95E2F7CA01809592818923828387
:100960000895E8E0F3E09191891303C0DF01119746
:100970001C9253E0EE30F507B1F7089590910C0406
:100980008095892380930C04282F277021110DC096
:10099000891759F090910E0492FF07C086958695AD
:1009A00086950E94D80310920C040895982F909574
:1009B0008091050489238093050408957630B8F466
:1009C0006E30A8F48630B0F4E62FF0E09EE0799F18
:1009D000E00DF11D112494E5899FE00DF11D112416
:1009E000EE0FFF1FE15EFD4F85919491089580E029
:1009F00090E0089581E0FCCF803E9105D9F1C8F4E4
:100A00008133910509F482C048F48932910509F4D3
:100A100072C08A32910509F480C008958933910526
:100A2000E9F082389105D1F08533910509F45EC073
:100A30000895843E9105D9F148F4823E910539F13B
:100A4000833E910549F181EE90E00895863E91053F
:100A5000C9F1873E910509F43EC0089520910D0427
:100A60002370211164C020910E0423FF14C089E279
:100A700090E0089520910D0420FD45C030910E04B2
:100A800030FF09C024FD24C083EE90E0089520913A
:100A90000D0422FDF7CF089520910D0422FD44C0DE
:100AA00030910E0430FD43C024FFF5CF11C02091DA
:100AB0000E0421FFF0CF80910D0484FD09C087EE64
:100AC00090E0089520910D0423FFE5CF24FFF7CF98
:100AD00080E090E0089520910D0423FD2BC030911B
:100AE0000E0431FFE1CF84EE90E0089520910D04D3
:100AF00025FFD1CFBCCF20910D0425FD1EC0209134
:100B00000E0423FFC8CF89E390E0089520910D04DF
:100B100026FFC1CF8AE290E0089520910D0426FFC0
:100B2000BACF81E390E0089582EE90E0089580EEE0
:100B300090E0089586EE90E0089585E390E00895B2
:100B400090910D0492FF10C041E0282F24712430B1
:100B500009F040E031E0282F2871283009F030E01A
:100B6000431711F02CE0822793FF10C041E0282F9B
:100B70002471243109F040E031E0282F2871283118
:100B800009F030E0431711F02CE0822730910E0479
:100B900030FF10C051E0282F2171213009F050E0C2
:100BA00041E0282F2871283009F040E0541711F057
:100BB00029E0822731FF10C041E0282F2171213127
:100BC00009F040E031E0282F2871283109F030E0A9
:100BD000431711F029E0822794FD877E08951F9323
:100BE000CF93DF930E94FC04EC01811522E592076C
:100BF00008F05DC0811540E5940708F0DBC0803E39
:100C0000910528F58D3C910508F0ACC0883A910516
:100C100078F4853A910508F0A2C08130910509F475
:100C200041C00497813A9105E8F1C0E0D0E03AC0B4
:100C3000885A91094B97C8F7C85AD0E0CC0FDD1FEE
:100C4000C253DD4F0990D881C02DD4642BC08115CB
:100C500050E49507F8F4C11580E2D80708F0C3C046
:100C6000C83ED105F8F0CE019A9581159F41E8F66E
:100C70008D2F0E94A005182FCE0199270E94FC04F9
:100C8000212F30E0322F2227E901CC27DF71C82B3A
:100C9000D92B08C099270E94FC04CC27DF70C82BF1
:100CA000D92BD06ACE01DF91CF911F910895803862
:100CB00042E59407C8F5803652E5950708F05BC019
:100CC000C03482E5D807D0F4C03292E5D90708F0E5
:100CD0004BC08C2F8695869520E2829FC0011124FF
:100CE000C37021E030E0A90102C0440F551FCA952E
:100CF000E2F7EA01C82BD92BDD68D4CF8C2F86957B
:100D00008695877050E2859FC0011124C37021E051
:100D100030E0A90102C0440F551FCA95E2F7EA016D
:100D2000C82BD92BDC68BECF803C52E5950758F420
:100D30008F71C03AD245A0F590E0982F8827EC013A
:100D4000C46FD06AAFCF805C9245809708F06DCFBA
:100D5000DC2FCC27CC27DF71C06FD06AA3CFA4973C
:100D6000D064A0CFD0659ECFCF71D0E0DC2FCC2750
:100D7000C16FD06A97CF86958695877020E2829F53
:100D8000C0011124C37021E030E0A90102C0440F6A
:100D9000551FCA95E2F7EA01C82BD92BDA6882CF32
:100DA0000E94A005C82FD0E0DC2FCC27CC27DF7114
:100DB000D06278CF8F710E94A00565E0D695C79567
:100DC0006A95E1F7CF70D0E0DC2FCC27282F30E0F8
:100DD00084FF05C054E0220F331F5A95E1F7C22B60
:100DE000D32BD0695FCF8D2F8F710E94A005182F54
:100DF000CE0199270E94FC04212F30E0322F2227B8
:100E000022273F71282B392BE901D2CFA0E0B0E097
:100E1000ECE0F7E00C94FB218C01E0900A04F090E8
:100E20000B048091080490910904E82AF92ACFE084
:100E3000D0E0CC24C394D12CC6010C2E02C0880F64
:100E4000991F0A94E2F78E219F21892B49F421975B
:100E500098F7B12C8B2DCDB7DEB7E9E00C941722B3
:100E6000BC2EB8018C2F0E94DE040E94EF05019772
:100E700071F3F0CF0F931F93CF93FC018581008115
:100E80001181811591F0611581F0C8010E9406075A
:100E9000C82F682FC8010E94EA03B8018C2F0E9456
:100EA000DE04CF911F910F910895C8010E94200484
:100EB000C82FF3CFCF93DF93D82FC92F0E940607F7
:100EC0006D2F7C2F0E94DE040E94EF05DF91CF91F1
:100ED0000895FC0184818115A1F0808191810E9497
:100EE0005A07282F92959F70963099F060F4925F80
:100EF0009F70923030F4203F89F038F481E0283E32
:100F000038F080E008959A5FF3CF81E0243FC9F77D
:100F1000089581E0283E20F0213FF9CF81E0089537
:100F2000089580E00895282F35EB2303C001112494
:100F300097FF04C080589109892F089580589F4FCA
:100F4000FBCF8091EA0380FD14C081FD14C082FDB7
:100F500016C08091E903811581F08E3180F420E57F
:100F6000829FC00111246EE170E00E942922862F29
:100F7000089584E1089588E2089588E0089580E561
:100F800008958091EA0380FD17C081FD17C082FD9E
:100F900019C08091E803811599F0883298F428E00F
:100FA000829FC001112468E270E00E94292261152D
:100FB000710551F0862F089562E0FCCF64E0FACF0E
:100FC00061E0F8CF68E0F6CF81E00895FC0185810B
:100FD000862381110AC082818115B9F06823918529
:100FE00093FF05C081E061110FC080E00895282FB4
:100FF00022952F708F70282B962F92959F706F706F
:10100000962B81E02913F1CF089581E00895E091B6
:101010009A03F0919B03309729F00190F081E02D25
:101020000995089580E00895A3E0B0E0EAE1F8E0D2
:101030000C9402229C0180915C0390915D038217C5
:101040009307A1F030935D0320935C03E0919A0332
:10105000F0919B03309751F083E089833B832A838F
:101060000680F781E02DCE01019609952396E2E0F6
:101070000C941E22A3E0B0E0E0E4F8E00C9402221D
:101080009C0180915A0390915B0382179307A1F012
:1010900030935B0320935A03E0919A03F0919B03F2
:1010A000309751F084E089833B832A830680F7815F
:1010B000E02DCE01019609952396E2E00C941E22C4
:1010C0002FB7F8946091870370918803809189030A
:1010D00090918A032FBF08950F931F93CF93DF93AF
:1010E000D82FC92F4091FD035091FE036091FF035B
:1010F000709100042FB7F894809187039091880332
:10110000A0918903B0918A032FBF841B950BA60B76
:10111000B70B843F9140A105B10528F56091FD030F
:101120007091FE038091FF039091000404EF11E0A1
:1011300020E030E060938F037093900380939103DD
:101140009093920300938B0310938C0320938D0351
:1011500030938E03D093FB03C093FC03DF91CF91B8
:101160001F910F9108950E94600802E310E020E0B3
:1011700030E0E0CF87E797E790930108809300087D
:1011800088E19AE00FB6F894A895809360000FBEAE
:1011900090936000FFCF809159030895FC019B015B
:1011A00080913703909138038617970740F0672B9B
:1011B00029F48091E8008E778093E800C90140E02F
:1011C000009741F4411106C08091E80082FF2FC0D2
:1011D00080E0089520916D032115A9F12530A9F132
:1011E0002091E80023FD2DC02091E80022FDECCFE6
:1011F0002091E80020FFE4CF3091F3002091F2002D
:10120000009719F02830310558F041E028303105B9
:1012100009F040E02091E8002E772093E800D0CF3D
:1012200041914093F10001972F5F3F4FE9CF8091AB
:101230006D03811541F0853041F08091E80083FF16
:10124000C3CF81E0089582E0089583E008958091FE
:10125000310387FF13C08091E80082FF06C08091B0
:10126000E8008B778093E800089580916D038111E9
:10127000F2CF089580916D038115D9F38091E80034
:1012800080FFF8CF8091E8008E77ECCF2091E400CA
:101290003091E50095E6A9018091EC0081708115FF
:1012A00031F08091E80080FF06C080E00895209131
:1012B000E80022FD1AC080916D03811589F0853008
:1012C00089F08091EB0085FD0FC02091E400309102
:1012D000E5004217530701F39A95E9F684E0089573
:1012E00082E0089583E0089581E00895E8EDF0E05C
:1012F00080818E7F80831092E2001092DA0010923B
:10130000E100A0EEB0E08C9181608C9380818F77BA
:10131000808319BCA7EDB0E08C918E7F8C93808187
:101320008F7E8083109230030895982F9093E90068
:10133000242F762F50E0981731F07091EC00209117
:10134000ED005091F00021FD06C09F5F973071F7CE
:101350008093E90008953091EB003E7F3093EB00DD
:101360003091ED003D7F3093ED003091EB00316026
:101370003093EB007093EC002093ED005093F0005D
:101380002091EE0027FDE1CF0895A0E0B0E0EBEC66
:10139000F9E00C94FC21C8EDD0E088818F7E888331
:1013A000E7EDF0E080818160808384E082BF81E0AE
:1013B0008093300388818E7F888302EE10E0F801ED
:1013C00010821092DA0081EEC82ED12CF601108224
:1013D00088818F77888388818068888388818F7DE2
:1013E000888319BC10926D0310922F0310926C0326
:1013F00010922E0390EEE92EF12CF70180818B7F65
:10140000808388818160888342E060E080E00E9480
:101410009509F60180818E7F8083F801808181604B
:101420008083808188608083F70180818E7F8083C4
:10143000888180618883CDB7DEB7E8E00C941822FC
:10144000E09111049091100427E0E91302C080E0BC
:101450000895AE2FB0E02E9FF0011124EE5EFB4FF9
:101460003181361306C03081381303C035813413FF
:1014700004C0FD013196E770E8CF81E008950F9335
:101480001F93CF93DF938B01EA0190916D0394300A
:1014900059F58093E9008FEF9091E80095FD06C023
:1014A00095ED9A95F1F700008A95B1F78091E800E3
:1014B00085FF1AC00E944609811111C08091E80081
:1014C00085FD06C08091E8008E778093E800F2CF1A
:1014D000F80181918F018093F100219779F7809134
:1014E000E8008E778093E800DF91CF911F910F91F4
:1014F0000895CF93DF93D82FC92F80913C0181119C
:1015000013C048E050E06D2F792F81E00E943F0A20
:1015100080E2ED2FFC2FA9E3B3E001900D928A95B4
:10152000E1F7DF91CF91089580910D0487FD06C00A
:1015300048E081E050E06D2F7C2FE8CF40E282E070
:10154000F9CFBC0146E050E082E00E943F0A0895D6
:10155000BC0143E050E082E00E943F0A0895909170
:101560000E0492FB222720F9281779F080FB92F9CC
:1015700090930E0460910D0470910E0484E090E04D
:101580000E947F2282E00E94BE040895CF93809142
:10159000050490910F04892B809306039091060413
:1015A0009115D9F0892B8093060380913C01811518
:1015B00021F080910D0487FD49C086E0815090E0C4
:1015C00028E033E0F90140812F5F3F4F41119F5FD9
:1015D0008150C0F7911110920604C091F703C09595
:1015E00080910603C8238091F603C82BC09306039D
:1015F00040E250E06CE973E086E093E00E949522BF
:10160000892B11F180E2E6E0F3E0ACE9B3E0019070
:101610000D928A95E1F7E0919A03F0919B03309740
:1016200099F080913C01811549F080910D0487FF6C
:1016300005C0C093070386E0809306030280F38110
:10164000E02D86E093E00995CF9108958EE1B6CF25
:10165000811539F090910504892B809305040E942F
:10166000C60A0895811521F00E94D6040E94C60A78
:101670000895811539F090910F04892B80930F0400
:101680000E94C60A08958091F303811549F0809164
:101690000F048D7D80930F040E94C60A1092F303FD
:1016A0000895A1E0B0E0E7E5FBE00C94FF21F82EFF
:1016B000698304E610E021E030E0AE014F5F5F4F48
:1016C000682F80E40E946421892B71F46CE06F0D17
:1016D00021E030E0AE014F5F5F4F80E40E94642163
:1016E0009C0181E0232B09F080E02196E5E00C9439
:1016F0001B22CF936FEF80E00E94510BC1E0982F27
:101700009C2780915104890F809351046FEF81E0F1
:101710000E94510B982F9C2780915104890F809330
:101720005104CF9108958091510481110BC06FEF46
:1017300081E00E94510B91E0982780915104890F1C
:101740008093510408951F921FB61F9211248F9306
:101750009F93AF93BF9380916B03811113C08091CE
:10176000870390918803A0918903B0918A034196E1
:10177000A11DB11D8093870390938803A0938903D3
:10178000B0938A03BF91AF919F918F911F901FBE1D
:101790001F9018952FB7F894809187039091880334
:1017A000A0918903B0918A032FBF08950E94CA0BAC
:1017B0002091ED033091EE03232B211521F080932E
:1017C0009503909396032091EF033091F003232B20
:1017D000211521F08093930390939403E0919A0351
:1017E000F0919B03309749F082E08093EB030480F3
:1017F000F581E02D8BEE93E009950895611509F4CC
:101800004BC0E3E3E80FE33150F4F0E0EC55FD4D5D
:101810000C943D220E94A10781958093EE030E94C3
:10182000D60B08950E94A107F8CF0E94A1078195C9
:101830008093ED03F4CF0E94A107FACF0E94C10765
:101840008093EF03ECCF0E94C1078195F9CF0E94EE
:10185000C10781958093F003E2CF0E94C107FACFC0
:10186000815D990B21E030E001C0220F8A95EAF7F3
:101870008091EC03822B8093EC03D1CF8091EA031B
:1018800081608093EA03CBCF8091EA038260F9CF35
:101890008091EA038460F5CF4091ED038D3C59F4CB
:1018A0008091EE0387FF0DC01092EE03411559F4AD
:1018B0001092E90308C08E3C81F48091EE03181663
:1018C0009CF3411581F08091EF039091F003892BF7
:1018D0008111A5CF1092E803A2CF8F3C41F447FFBE
:1018E000F0CF1092ED038091EE038115E0CF803DA3
:1018F00019F41416B4F3E5CF9091EF03893D29F460
:101900001916FCF61092EF03DCCF8A3D19F497FF0D
:10191000D8CFF8CF9091F0038B3D29F497FFD1CF2A
:101920001092F003CECF8C3D19F41916CCF3C9CF29
:101930009FE2980F983090F4815D990B21E030E0A0
:10194000B90102C0660F771F8A95E2F7CB01809537
:101950009091EC0389238093EC03B3CF8D3D31F458
:101960008091EA038E7F8093EA03ABCF8E3D21F412
:101970008091EA038D7FF7CF8F3D09F0A2CF809150
:10198000EA038B7FF0CFCF93C82F8115B9F18CEF8D
:101990008C0F813AA8F580913C01811501F180916D
:1019A0000D0487FF1CC0EC2FE695E695E695F0E068
:1019B000EA5FFC4F828190E04C2F477021E030E0DD
:1019C00002C0220F331F4A95E2F782239323892B0B
:1019D00081F08C2F0E9491040E94C60A0AC0E8E0A0
:1019E000F3E08EE093E02191C21799F38E179F07E1
:1019F000D1F78C2F0E945D040E94C60ACF910895F2
:101A000080E28C0F883068F4C77081E090E001C0FC
:101A1000880FCA95EAF7C0910504C82BC093050446
:101A2000EBCF8BE58C0F833038F42C2F2452330B03
:101A3000C9010E941408E2CFE8E5EC0FEB3150F445
:101A4000F0E0EE0FFF1FE253FD4F808191810E9475
:101A50003A08D4CF83E38C0F833180F661E08C2F7A
:101A60000E94FE0BCBCF811581F19CEF980F913A2C
:101A700028F40E9491040E94C60A089590E2980FEB
:101A8000983050F4877091E001C0990F8A95EAF779
:101A9000892F0E94D604EFCF9BE5980F933028F44E
:101AA00080E090E00E941408089598E5980F9B311B
:101AB00028F480E090E00E943A08089593E3980F9C
:101AC000933118F460E00E94FE0B08951F93CF93AA
:101AD000DF93182FEB010E94C30C209739F4812F5C
:101AE0000E94330DDF91CF911F9108958FE99FE000
:101AF0000197F1F700C000002197EFCF1F93CF931C
:101B0000DF93182FA091F903B091FA03109709F40D
:101B10004AC01092FC031092FB031092F70310923C
:101B2000F6031796CD91DC911897CE019A95811501
:101B30009F4108F4D07ED1E0C11101C0D0E01A96D7
:101B4000ED91FC911B97309731F01C966D917C9133
:101B500080E00995D823D11539F08CEF8C0F813AAC
:101B600030F58C2F0E9491041115A9F0E091F90332
:101B7000F091FA03818584FD0EC08091F8038115F0
:101B800051F0808191819C01215031092F333E47D2
:101B900010F40E946C080E94C60A1092FA03109278
:101BA000F9031092F803DF91CF911F9108950E94DD
:101BB000C60A8C2F0E94330DD7CF10920504809156
:101BC0003C01E8E0F3E0811529F180910D0487FFE5
:101BD00021C08EE1DF011D928A95E9F780E090E057
:101BE0000E94140880E090E00E943A0810920F04CE
:101BF0000E94C60A86E0EBEEF3E0DF011D928A95B3
:101C0000E9F71092E9031092E8031092EA030E94A8
:101C1000D60B089586E0DECF0E94DD0D2FEF84E322
:101C20009CE0215080409040E1F700C0000088E136
:101C30009AE00FB6F894A895809360000FBE909339
:101C40006000FFCFAAE2B0E0E8E2FEE00C940122DF
:101C500081E393E0FC0101962091F100208323E0D1
:101C600089339207B9F780913203893009F456C05D
:101C7000C8F4823009F4B2C0833009F481C08130E5
:101C800071F18091E80083FFE7C08091310390916A
:101C900032039A3008F0E0C0E92FF0E0E954FD4D3E
:101CA0000C943D228A3009F488C08B3051F7809122
:101CB0003103813231F78091350390913603892BBE
:101CC00001F78091E800877F8093E8000E94270950
:101CD0008091330380933C010E94DD0DD2CF80912F
:101CE0003103813A71F68091E800877F8093E800A4
:101CF0008091350390913603892B61F060E080E09C
:101D000090E070E00E94CE088091E8008B7780938D
:101D1000E800B7CF60E289E393E0F3CF809131032D
:101D2000813209F0AECF809135039091360302974E
:101D300008F0A7CF8091E800877F8093E80080912A
:101D4000E80082FF18C09091F3008091F2000297A2
:101D500031F48091F100813011F0863021F48091CE
:101D6000F100809359038091E8008B778093E8001D
:101D70000E94270986CF80916D038111E0CF81CF2A
:101D800080913103813A09F07CCF809135039091A5
:101D90003603892B09F075CF8091E800877F809307
:101DA000E8008091E80080FFFCCF80913C018093A7
:101DB000F1008091E8008E77D9CF80913103813294
:101DC00009F05FCF8091E800877F8093E8000E9450
:101DD00027098091340380932D0353CF80913103E1
:101DE000813A09F04ECF8091E800877F8093E80028
:101DF0008091E80080FFFCCF80912D03D8CF803800
:101E000089F0823849F5809135038F70873020F54D
:101E10008093E9008091EB0085FB882780F9109280
:101E2000E90007C090916C039195927080912E0308
:101E3000892B9091E800977F9093E8008093F100C0
:101E40001092F1008091E8008E7723C0811116C0B6
:101E500080913303813011F18091E80083FF0AC043
:101E60008091E800877F8093E8008091EB0080629A
:101E70008093EB00AA96E3E00C941D22823061F778
:101E800080913303811589F01092E9008091E80078
:101E9000877F8093E8000E942709DECF81E093309E
:101EA00009F080E080936C03EFCF809135038F7051
:101EB0002FEF280F263080F68093E9002091EB0069
:101EC00020FFE2CF933031F48091EB008062809369
:101ED000EB00DACF9091EB0090619093EB0021E062
:101EE00030E0A90102C0440F551F8A95E2F74093E4
:101EF000EA001092EA008091EB008860E8CF81113F
:101F0000ABCF109133031F778091E3008078812B52
:101F10008093E3008091E800877F8093E8000E942F
:101F200027098091E80080FFFCCF8091E300806862
:101F30008093E30083E0111101C082E080936D0380
:101F40008BCF8058823008F087CF40913303509177
:101F500034034C3D83E0580799F583E08A838AE295
:101F600089834FB7F894DE01139620E03EE051E2FA
:101F7000E32FF0E050935700849120FF03C0829537
:101F80008F703F5F8F708A30C8F0895C90E08D93CE
:101F90009D932F5F243161F74FBF8091E800877FC9
:101FA0008093E8006AE270E0CE0101960E94CE08BC
:101FB0008091E8008B778093E8004ECF805DE6CF7C
:101FC0002091350330913603852F99278330910571
:101FD00009F160F48130910509F472C0029709F0AB
:101FE0003BCF8BE390E0E6EAF1E029C08132910536
:101FF00009F45AC0829709F02FCF2115310509F451
:1020000069C02130310509F027CF86EB90E0ECEA7A
:10201000F0E015C0CA0199274130B1F18230910535
:1020200009F43AC0892B09F017CFEBE1F2E0E49113
:102030008E2F90E0EBE1F2E0009709F40DCF2091B4
:10204000E800277F2093E800209137033091380380
:102050008217930708F49C0140E02115310509F02F
:102060003EC041113CC08091E80082FDA1CF80912B
:102070006D03811509F49CCF853009F499CF8091C7
:10208000E80083FFF0CF94CFE7E0F2E0E4918E2FF9
:1020900090E0E7E0F2E0D0CFE3EFF1E0E4918E2FC3
:1020A00090E0E3EFF1E0C8CF2115310571F0213068
:1020B000310509F0D1CE89E090E0E1EDF1E0BFCF4C
:1020C00082E190E0E1EEF1E0BACF89E090E0E8EB68
:1020D000F1E0B5CF84E490E0E2E6F1E0B0CF8091AA
:1020E0006D03811509F464CF853009F461CF8091C7
:1020F000E80083FD5DCF8091E80082FDB4CF809140
:10210000E80080FFAACF9091F3008091F2002115A2
:10211000310519F08830910550F041E0089709F039
:1021200040E08091E8008E778093E80096CF44915C
:102130004093F1003196215031090196E8CF803863
:1021400009F08ACE8091E800877F8093E800809133
:102150002F038093F10076CE81117ECE1091330350
:10216000123008F079CE8091E800877F8093E800F4
:1021700010932F030E942709111581F084E08093AA
:102180006D0342E061EC81E00E94950942E261EC5E
:1021900082E00E94950980916D035ECE8091E300FC
:1021A00087FDECCF81E0EBCF9C014FB7F894809195
:1021B000870390918803A0918903B0918A034FBF50
:1021C000821B930B0895FF920F931F93CF93DF937E
:1021D000C62FD42F122F8115A9F0609303040E94FB
:1021E000CA0B90932C0380932B03C77081E001C02E
:1021F000880FCA95EAF70E94280BCDB7DEB7E5E055
:102200000C941B2280910304681332C080912B032D
:1022100090912C030E94D410883C910548F500E26F
:102220000D0FCD17A9F0C770FF24F3948F2D01C0B7
:10223000880FCA95EAF70E94320B083048F48D2FB8
:10224000877001C0FF0C8A95EAF78F2D0E94280B3A
:1022500060E070E0812F0E94660D083070F6D77044
:1022600081E001C0880FDA95EAF70E94320BC5CFF2
:10227000C77081E001C0880FCA95EAF7F6CFA0E0E9
:10228000B0E0E5E4F1E10C94F2218C01DC0114965C
:102290008C91811571F161E0C8010E943A07EC014F
:1022A0008034BEE79B0751F18134EEE79E0709F4C5
:1022B00071C083379C4759F5D80115968C918115CB
:1022C00039F08091F303811509F46FC00E94430B2C
:1022D00080910C048770811561F0D80115968C915E
:1022E000811539F080910E0482FF03C082E00E94C4
:1022F000BE04CDB7DEB7E2E10C940E22D8011596EC
:102300008C91811509F443C081E08093F203E09041
:102310000504F09006048091F303811509F480C050
:102320000E94CA0B88579C4E9093F5038093F40348
:10233000F8018581811509F473C08F2D8E298D795F
:102340008111A3C0C115F0E5DF0708F041C0C11538
:1023500020E4D20708F09EC0C63ED10509F460C053
:10236000CE0190528115904208F09BC0D80116967C
:102370008C91803108F47EC0CE01992710920F0411
:102380008D329105B1F582E080930F048EC01092DA
:10239000F203BDCFF8018581811521F081E08093A2
:1023A000F103B5CF1092F103B2CF109205048091E2
:1023B00006048111109206040E94CA0B88579C4E95
:1023C0009093F5038093F40381E08093F30380CF2F
:1023D000C43BB2E5DB0721F108F03FC0C034F2E5B1
:1023E000DF07C0F4C11522E5D207D0F410920F0424
:1023F000CE018E32910508F05BC08832910508F05D
:1024000052C08E31910508F050C004974A9708F4E5
:10241000BACF3BC0CE01805692458034910530F74B
:10242000F8014580411409F44DC0CE35FCE7DF07C3
:1024300009F444C0CF352CE7D20749F0CD353CE74D
:10244000D30709F03FC080913D018115B9F1109289
:102450003D0180E00E947E0D3BCFC03E32E5D307B8
:1024600020F4C03C82E5D807C0CFCE0187579C47F7
:102470000297D5CF8D2F8F71843191F248F48D2F33
:102480008F70823011F410920F040E94430BC8CF5A
:102490008631F8CFD80116968C91803108F06CCF38
:1024A000BFCFCE016BCF8A9781F70E94C60AB8CF03
:1024B0008C349105D1F38D329240F6CF81E0809338
:1024C0003D0106CF80913D0181110EC0D8011596C6
:1024D0008C91FE01E851FC47E730F10508F094C00B
:1024E000EF53FD4D0C943D224E01B0EE8B1A910836
:1024F0005090070480910504582A80910604582AB8
:10250000E8E08E16910408F052C09E012770332730
:1025100081E090E001C0880F2A95EAF7411409F4A0
:1025200043C0582AD8018D919C910E94200421E03B
:1025300030E0390102C0660C771C8A95E2F7A09062
:10254000F903B090FA03312CE32DF0E0EE0FFF1FFA
:10255000E050FF4FE080F180E114F10409F440C045
:10256000511004C0F701828181111CC0D70113965C
:102570008D919C91149786219721892B99F019961A
:102580008C91982F9770911101C087E0B8E08B165D
:10259000910408F06FC0411409F468C086958170F9
:1025A00081116DC03394D0CF80955822BBCF41109C
:1025B0004AC08091010490910204C817D90781F4A0
:1025C00010920204109201041092FD031092FE0377
:1025D0001092FF03109200041092FC031092FB0370
:1025E0008091F9039091FA03009709F46FCFA8E066
:1025F0008A16910408F0DEC0652D0E94E60781115D
:1026000003C081E00E947E0DF8018581811509F4E7
:10261000C1C110920304CE019057839708F076C48D
:1026200084E090E00E944B2290930E0480930D046E
:10263000FE01E150F047E232F10508F0EFC0E85347
:10264000FD4D0C943D22D0930204C09301040E94DE
:1026500060086093FD037093FE038093FF039093E3
:1026600000041092FC031092FB035CCF82FB8827CE
:1026700080F996CF411409F495CF80FF93CFF701ED
:10268000C080D180CC15DD0519F4411409F48ACF3E
:10269000EA14FB0409F486CFD7011E96ED91FC9154
:1026A000309721F08081811509F47CCF652DC70119
:1026B0000E94E607811509F475CF212CCC15DD05A4
:1026C00009F4242CC114D10451F0211008C08091C8
:1026D000010490910204C816D90609F063CF80E086
:1026E0000E947E0DF092FA03E092F90381E080935C
:1026F000F803F70186818093F70321100CC0CD28E1
:1027000051F0808191819C0124503109213A310599
:10271000A8F50E949104D7011796CD90DC90C601D0
:102720009A9581159F4110F4E0EEDE22BB24B3940C
:10273000C60101978F339E4708F0B12CD7011A9636
:10274000ED91FC911B97309731F01C966D917C9127
:1027500081E00995B822B11471F0F7018781908565
:102760000E9472038093F603C601F8E08F1691046D
:1027700040F40E946C080E94C60A0AC00E94330DF1
:10278000CACF0497813A910548F48C2D0E945D04CC
:10279000211409F49BCE0E94C60A9ACD0E94C60A53
:1027A0008FE39CE90197F1F700C000008C2D0E9497
:1027B000C30CEECFFC0120813181C217D30741F455
:1027C000411009C01092F80380E00E947E0D7ECE79
:1027D000411409F47BCEDC0119968C9185FD76CEEF
:1027E000F3CF26E241EE61EE0E94E31071CD27E2C5
:1027F00045EE65EEF9CF26E241EE60EEF5CF27E239
:1028000045EE64EEF1CF26E241EE62EEEDCF27E237
:1028100045EE66EEE9CF28E241E0EBCF80910D0472
:10282000816080930D0460910D0470910E0484E02A
:1028300090E00E947F220E94DD0D4ACD80910E041F
:10284000886080930E04EFCF80910D048260E9CF01
:1028500080910D048460E5CF80910D048860E1CF04
:1028600080910E048160EDCF80910E048260E9CFEB
:1028700080910D048061D5CF80910D048062D1CF0D
:1028800080910D048064CDCF0E94DD0D80910D04F8
:102890008068C7CF80910D048C60C3CF80910E04F7
:1028A0008360CFCF80910D048E7FBBCF80910E04CB
:1028B000877FC7CF80910D048D7FB3CF80910D04AA
:1028C0008B7FAFCF80910D04877FABCF80910E04BB
:1028D0008E7FB7CF80910E048D7FB3CF80910D0492
:1028E0008F7E9FCF80910D048F7D9BCF80910D04B3
:1028F0008F7B97CF0E94DD0D80910D048F7791CF54
:1029000080910D04837F8DCF80910E048C7F99CFB1
:1029100080910D0482FB992790F921E0922790FB8A
:1029200082F990FB83F97DCF80910E04982F9095CA
:1029300090FB80F990FB81F984CF90910D04892F51
:102940008F7B96FF80646DCF0E94DD0D90910D040A
:10295000892F97FB87F9805864CF61E08EE090E083
:102960000E94612260CF60E0F9CF90910D04892F21
:102970008F7E94FF806155CF90910D04892F8E7FBB
:1029800090FF81604ECF90910E04892F877F93FF37
:10299000886057CFC631DC4719F580910404811156
:1029A00008C089E20E949104F6CE85E30E945D048E
:1029B000F2CE85E3F7CFCA352CE7D20709F486C0FB
:1029C00008F05DC0C1308CE7D80709F47DC0C33082
:1029D0009CE7D90709F472C0C115DC4709F461C04E
:1029E000F8018581E080F180811509F473C0C70189
:1029F0000E940607C82F682FC7010E94EA03B7018B
:102A00008C2F0E94DE040E94EF05D82FC92FD80119
:102A10001596DC9015971696CC90C2942FE0C222A2
:102A200080910C0487708115F1F0ED2CD114E1F048
:102A3000892F807F803451F080E28D0F883098F0AC
:102A4000C11004C0892F807E803269F080910E040D
:102A500082FF09C082E00E94BE0480910C0487704E
:102A6000EE24E3948111E12CEC2FE295EF70C03C51
:102A700008F09BC0F0E0E651FD4D0C943D22CB35B3
:102A8000BCE7DB0729F1CC35DC4709F0A9CF809101
:102A90000E0482FB882780F991E089270E94AF0A03
:102AA0009FCF0E94DD0DFFEF24E33CE0F15020407A
:102AB0003040E1F700C000000E94BA086FEF7FEFDE
:102AC00080E090E00E947F220E940C0E81E0E6CF21
:102AD00080E0E4CFC7010E942004C82F90CFBC2F14
:102AE000BF70FB2EC03118F0F29490EFF922D11490
:102AF000B9F0F11469F080E28D0F883010F0D11137
:102B000009C0809105048F29809305040E94C60A9C
:102B10008D2F43C080910F048F2980930F04F6CF2F
:102B20008D2F0E94330DF11409F43FC080E28D0F08
:102B3000883010F0D11104C08F2D0E94D60406C039
:102B4000F09480910F048F2180930F040E94C60A95
:102B50002CC0EC2FEF70FE2EC07FC03219F0F29423
:102B600080EFF822D11549F0D13009F46CC0D114AE
:102B700009F478C0C114D1F1CBCF80910E0482FD4D
:102B800031C0D11469F0F11439F0809105048F2916
:102B9000809305040E94C60A80E00E94C30C05C011
:102BA00080E00E94330DF110C7CFE114B1F08091A5
:102BB0000C0480FD12C0D80115961C92869586954E
:102BC00086950E94C803C8010E943F1180910C04A1
:102BD0008695869586950E94D80360E0C8010E947C
:102BE0003A0787CBD11499F0C11004C08F2D0E94F1
:102BF000280BDBCFF1E0CF12D8CF809106049F2DB8
:102C00009823F91691F28F2980930604CECFC11034
:102C1000CCCF8F2D0E94320B909106048F2D8923EB
:102C2000811529F08F2D809589238093060480914A
:102C300007049F2D9823911509F4B7CFF094F8223B
:102C4000F0920704B2CFD11429F026E0C21608F0A2
:102C5000ACCFCCCF35E0C31608F0A7CF8F2D0E94A4
:102C6000320BA3CFC114D1F3D93349F48FEF97EED0
:102C7000A3E081509040A040E1F700C000008D2FFC
:102C80000E94330D92CF8C2F869586958370811587
:102C900069F0813009F089CF8D2F9C2F9370D1106E
:102CA00002C080E090E00E943A087FCF8D2F9C2FD9
:102CB0009370D11002C080E090E00E94140875CF9C
:102CC0006D2D8D2F0E94FE0B70CF8C2F8370811184
:102CD00044C0D1102FC04D2F429546954770440FE8
:102CE000440F2D2F2F7030E0042E02C0220F331F0F
:102CF0000A94E2F780E090E0D4FF09C08FE090E012
:102D000002C0880F991F4A95E2F780959095C69565
:102D1000C695C370C230C1F0C33099F04091080429
:102D200050910904C13059F0822B932B84239523B1
:102D30000E94BC030E9407080E94AC0336CF242BDC
:102D4000352B822B932BF4CF822B932B20910804CD
:102D50003091090482279327EBCFD11491F1C0FF62
:102D6000E9CF4D2F429546954770440F440F2D2FC4
:102D70002F7030E0042E02C0220F331F0A94E2F7B6
:102D800080E090E0D4FF09C08FE090E002C0880F9F
:102D9000991F4A95E2F780959095C695C695C370A0
:102DA000C230C1F0C33099F040910A0450910B0435
:102DB000C13059F0822B932B842395230E94C103A9
:102DC000B9CF823008F4B6CFCCCF242B352B822B51
:102DD000932BF4CF822B932B20910A0430910B0478
:102DE00082279327EBCFCF70D11439F08C2F0E941C
:102DF000C8038D2F0E94280B9DCF8D2F0E94320B70
:102E00008C2F0E94D80396CFD23FB1F170F4D03FFF
:102E1000C9F0D13F91F0D11409F464C0C11409F490
:102E20005EC08D2F0E94C30C85CFD33F61F1D43F8C
:102E300091F780910E0482FD34C08C2F8F71D114D4
:102E400001F31EC0D114A9F0B5E0CB1608F072CF83
:102E5000CF7181E090E0FC0102C0EE0FFF1FCA9528
:102E6000E2F7EF0180910A0490910B048E279D27D1
:102E7000A5CFF6E0CF16EACF8C2F8F71D110C1CF3E
:102E80000E94C80357CF80E090E0D11409F496CF98
:102E9000CF7181E090E002C0880F991FCA95E2F7D8
:102EA0008DCFD11489F0CF718C2F0E94C8038091EF
:102EB0000E0482FF07C08C2F880F880F880F836055
:102EC00080930C048C2FDCCF81E00E94BE0422E0B2
:102ED000C21608F42FCF82E00E94BE042BCF8C2FA5
:102EE0008F71CECFC11479F0D93349F43FEF87EE1B
:102EF00093E0315080409040E1F700C000008D2FFA
:102F00000E94330D17CF8C2F8F717BCFC631BCE75A
:102F1000DB0709F050CD809105048A7A91E0811198
:102F200001C090E09093040481113FCD89E23ECD31
:102F300080915004803178F480914F04811559F0CC
:102F4000E09111042091100430914B0440914A0407
:102F500057E02E1301C008956E2F70E05E9FF001C0
:102F60001124DF01AE5EBB4F14968C91149781152E
:102F700061F111968C911197831327C08C91841362
:102F800024C015968C91159781111FC012968D91B2
:102F90009C91A0914C04B0914D048A1B9B0B883CE2
:102FA000910598F4809150048F7080618093500453
:102FB000E85EFB4F80818F70806180838AE494E0BB
:102FC0000E943F110E9453040895FB013196E7705F
:102FD000C0CFADE0B0E0EFEEF7E10C94F7218C014B
:102FE00086E0F801DE01189601900D928A95E1F7CE
:102FF000F801E080F580A280B380C4808AE4882E46
:1030000084E0982E70904E04711020C0C114D9F045
:10301000F11409F419C1C8010E946907811509F466
:1030200013C187E0F801D40101900D928A95E1F770
:10303000F1E0CF1206C080914A0490914B040E94A7
:103040005A070E949817FF24F39451C0D0904F0460
:1030500080914C0490914D049501281B390BD1149B
:1030600009F4BAC0283C310508F090C0C11459F3E6
:1030700090914B04C18080915004803108F058C079
:10308000C91214C090914A049E1110C0F1104AC098
:103090008F708061809350048AE494E00E943F1115
:1030A00080915004F8018683F12C21C0F1103AC0C0
:1030B00040E06C2D8E2D0E94200A40E06C2D8E2D5C
:1030C0000E94200AF82E8111EFCF888599850E94F1
:1030D0005A07292F22952F70903470F49F70223058
:1030E000A0F09115B1F0F8019681903190F48F2DF8
:1030F0002D96EDE00C9413222A5F2F70223068F099
:10310000C8010E943F11FD2CF2CF911511F08115DD
:1031100071F3805E883058F3F3CF803F40F3815FD6
:103120008330F9CF80915004816080935004BCCFEC
:10313000C91207C090914A049E1103C0F11409F40A
:103140006CC0C8010E946907811509F47DC0F114A3
:1031500009F47AC080915004803278F020914A04BA
:1031600030914B043A832983BC82AB827D821E82DC
:103170008F83CE0101960E943F1187E0F801AAE4F7
:10318000B4E001900D928A95E1F75BCF80915004F5
:10319000803150F48AE494E00E943F1187E0F4010A
:1031A00011928A95E9F780CFC11409F44CCF209190
:1031B0004B0491812913C5CF90914A049E11C1CF30
:1031C000F110BFCF8683C8010E943F1187E0F40150
:1031D00011928A95E9F737CF283C3105F8F6C114EA
:1031E00009F431CFF11481F190914B04818198134E
:1031F00021C080914A048E111DC08091500480FD31
:1032000010C0803170F08683807F803F39F08681E6
:10321000982F907F905F8F70892B8683C8010E94C2
:103220003F1187E0F801AAE4B4E001900D928A957D
:10323000E1F709CFC8010E94690781119ECF8091F3
:103240005004816080935004C8010E943F11FBCE5E
:10325000ABE1B0E0EEE2F9E10C9401224E8B5F8B22
:10326000688F798F8A8F9B8F911110920F041D8A1E
:1032700086E0FE017696DE011F9601900D928A95FA
:10328000E1F78B89811529F061E0CE010F960E944C
:103290003A0787E0FE013F96DE01189601900D92F5
:1032A0008A95E1F7CE0108960E94E91781112AC09C
:1032B00087E0FE013896DE01119601900D928A9505
:1032C000E1F720911004409111048C858115D1F013
:1032D00030E0C90101968770992748171906E9F06F
:1032E00097E0929FD001939FB00D1124AE5EBB4F2B
:1032F000FE01319601900D929A95E1F780931004AA
:103300000E94530417E080911104909110048913D6
:1033100012C06B96E3E00C941D220E94DD0D10920A
:1033200010041092110487E0EAE4F4E0DF011D923A
:103330008A95E9F7E7CF189FC00111248E5E9B4F55
:103340000E94E917811529F38091110490E00196FC
:103350008770992780931104D6CFA6E0B0E0E3EB05
:10336000F9E10C9400220E94CA0B8C018091980311
:10337000909199038017910779F019821A820E941F
:10338000CA0BBC0149815A8180E090E00E94281953
:1033900010939903009398032696E4E00C941C2262
:1033A000ACE0B0E0E6EDF9E10C94F221809151043B
:1033B000811571F08091290390912A03019681155E
:1033C00020E2920708F01DC190932A0380932903FD
:1033D000FFE58F2EF3E09F2ECC24C394D12C412CFB
:1033E000512CF401619071904F01129212927F0161
:1033F000F3E05F1609F41EC124E0521608F00EC176
:1034000081E0581609F410C192E0591609F40FC171
:10341000849A8C98F1E0F50DFA838091510481151E
:1034200009F40EC18FE891E00197F1F700C00000A8
:1034300080915104A12CB12C811126C09FEF99835A
:1034400004E610E021E030E0AE014F5F5F4F62E143
:1034500080E40E948F219C0191E0232B09F490E0ED
:1034600080915104890F80935104898180950E9435
:103470009C03982F96959C778370892BB82EB694D1
:10348000A82EA794AA24A79479B169B139B196B1AD
:1034900029B15CB183B176957695769541E0742734
:1034A00070FB222420F8312CF10176E0EE0FFF1F93
:1034B0007A95E1F766956695642761706B831C8247
:1034C0006B817C81A5E0660F771FAA95E1F76E2BD3
:1034D0007F2B82958F70842781708D831E82ED8172
:1034E000FE816E2B7F2B32953F70342731703F83E6
:1034F0001886EF81F885B4E0EE0FFF1FBA95E1F76B
:103500006E2B7F2B9295969596959370942791703C
:1035100099871A8689859A8533E0880F991F3A958D
:10352000E1F7862B972B022E000C330B209530955C
:103530002227330F221F3327220F331F220F331F5F
:10354000822B932B52955695569553705427517054
:103550005B871C862B853C85220F331F822B932B88
:103560008A299B29F70191838083F3E05F1609F490
:1035700089C024E0521608F076C0541609F47AC0C7
:1035800082E0581609F47AC084988C988C9881E06F
:10359000F701208131812615370509F480E0482A9A
:1035A000FFEFCF1ADF0A2A812630B1F5411409F462
:1035B00071C081E0809328030E94CA0B9093270377
:1035C0008093260380912603909127030E94D410B4
:1035D000059708F463C04CE050E06FE573E08EE6B9
:1035E00093E00E949522892B49F08CE0EFE5F3E00F
:1035F000AEE6B3E001900D928A95E1F710922803B0
:103600004DC010922A0310922903109251040E9477
:10361000930B0E94790BDCCE5A80E3CEE4E05E127D
:103620000CC0219A2998F6CE859A8D98F3CE869A69
:103630008E98F0CE879A8F98EDCE229A2A98EACE6D
:1036400061E070E00C2C01C0660F0A94EAF7609507
:1036500081E00E94510B91E0982780915104890FDD
:1036600080935104E5CE94E0591210C02198299816
:1036700029988DCF85988D988D9889CF86988E982A
:103680008E9885CF87988F988F9881CF22982A9887
:103690002A987DCF80912803811194CF8091F203E5
:1036A000811529F060E070E081ED0E94660D809147
:1036B000F103811529F060E070E082ED0E94660D53
:1036C0002C96E2E10C940E22CDB7DEB72A970FB606
:1036D000F894DEBF0FBECDBF85B7806885BF85B7C4
:1036E000806885BF84B7877F84BF0FB6F894A8959C
:1036F00080916000886180936000109260000FBE2E
:1037000080E890E00FB6F894809361009093610098
:103710000FBE81E997E090930503809304030E9414
:1037200076090E94C5098091E20084608093E200DE
:10373000789480916D03811599F08091E900109142
:10374000EC001795112717958F70182B1092E90030
:103750008091E80083FD0E94220E1F701093E90003
:1037600082E084BD93E095BD9AEF97BD80936E0093
:1037700080915E0381110EC00E9475202FEF43EDF2
:1037800080E3215040408040E1F700C0000081E02C
:1037900080935E032198299822982A9884988C987F
:1037A00085988D9886988E9887988F9829982A98CA
:1037B0008C988D988E988F980E94930B6E98769A1D
:1037C00052985A9A53985B9A54985C9A57985F9A71
:1037D0003E98469A24982C9A0E94790B8CE0EFE54B
:1037E000F3E0DF01282F1D922A95E9F7EEE6F3E0DA
:1037F000DF011D928A95E9F780E090E00E944B225C
:10380000863E9E4F09F464C066EE7EEF80E090E055
:103810000E947F2260E082E090E00E94612260E0EE
:1038200083E090E00E946122109209041092080443
:1038300060E074E184E090E00E947F2260E086E036
:1038400090E00E9461226FEF87E090E00E94612289
:1038500040E050E0BA0188E090E00E94732260E00E
:1038600084E290E00E94612260E087E190E00E94A3
:10387000612260E08CE090E00E94612260E08DE0D7
:1038800090E00E94612219821A821B821C821D8292
:103890001E821F82188648E050E068E170E0CE0189
:1038A00001960E94512240E050E0BA0180E290E08F
:1038B0000E94732240E050E0BA018FE090E00E9445
:1038C000732240E050E0BA0183E190E00E9473224D
:1038D00082E090E00E94432280937A0384E090E0AB
:1038E0000E944B2290930E0480930D040E94D019E5
:1038F000EFEFF6E721E0E150F0402040E1F700C0B3
:1039000000000E94D01980916E0380FF08C06FEF05
:103910007FEF80E090E00E947F220E94BA0883E05F
:1039200090E00E94432290E00E94BC0380910A0430
:1039300090910B040E943903259A2D98269A2E986F
:10394000239A2B980E9427030E942A030E942D038A
:103950000E9430030E9433034FEF80E792E0415012
:1039600080409040E1F700C00000259A2D9AAFEF0B
:10397000B0E7E2E0A150B040E040E1F700C0000055
:10398000269A2E9AFFEF20E742E0F1502040404077
:10399000E1F700C00000239A2B9A8FEF90E7A2E096
:1039A00081509040A040E1F700C000000E94270332
:1039B000BFEFE0E7F2E0B150E040F040E1F700C0D7
:1039C00000000E942A032FEF40E782E02150404090
:1039D0008040E1F700C000000E942D039FEFA0E7A8
:1039E000B2E09150A040B040E1F700C000000E945A
:1039F00030030E9427030E942A030E942D030E9485
:103A0000300384E391E090939B0380939A03CE016B
:103A1000019648E1642E712C33243394222423949C
:103A200089879A8780916D03853059F480916D0361
:103A3000853009F45CC00E94DD0D0E9407080E94D9
:103A4000AC030E94D0192BE7A22E23E0B22E3EE653
:103A5000832E33E0932ED401F501219131918D9184
:103A60009D9143E0E738F40709F494C0281739071B
:103A7000A1F3512CD4010D911D914D01F501C1907F
:103A8000D1905F01C016D10659F1C026D126412C34
:103A9000EE24E394F12CC6018E219F21892BB1F0F5
:103AA00049825A820E94CA0B9C838B832D8291E0AB
:103AB000970120233123232B09F490E09E83498131
:103AC0005A816B817C818D810E9428194394EE0C70
:103AD000FF1CFEE04F12DFCFF50132971183008308
:103AE000539426E05212C6CF0E94600859C08091BC
:103AF0006D03843029F180E00E94AC0310926B03C7
:103B0000E0E40FB6F894A895609260000FBEE093D1
:103B1000600083B7817F846083BF83B7816083BF88
:103B20007894889583B78E7F83BF0FB6F894A89555
:103B300080916000886180936000109260000FBEE9
:103B400080916C03811509F471CF0E94D019EEE6C3
:103B5000F3E081919191892B29F423E0EA37F20770
:103B6000C1F764CF80E189BD82E189BD09B400FE5F
:103B7000FDCF8091D8008F7D8093D8008091E000A8
:103B800082608093E0008091E00081FDFCCF0E9484
:103B9000DD0D4CCF2817390709F06BCF0E94AD1906
:103BA0008091FB039091FC03892B09F44EC0409156
:103BB0008F035091900360919103709192032FB7FE
:103BC000F8948091870390918803A0918903B09124
:103BD0008A032FBF841B950BA60BB70B40918B0359
:103BE00050918C0360918D0370918E03841795071B
:103BF000A607B70750F10091FB031091FC03C80121
:103C00000E9472039801205E31092830310520F0AE
:103C10000115110509F011C10E94280B802F0E9487
:103C2000C30C1092FC031092FB0310928F031092AE
:103C30009003109291031092920310928B031092B2
:103C40008C0310928D0310928E038091F3038115E3
:103C500069F00E94CA0B2091F4033091F503821B96
:103C6000930B8F3F9F4710F40E94430B86E0EBEECF
:103C7000F3E0A985BA8501900D928A95E1F7E0906D
:103C8000EC031091ED03F090EE03D090EF03009160
:103C9000F0031092ED031092EE031092EF031092D6
:103CA000F003812F8F29811509F445C08091950378
:103CB000909196030E94D4109C018091E903811594
:103CC00009F4C9C025313105B0F18F3F19F08F5F7C
:103CD0008093E903111559F00E94A10791E0111694
:103CE0000CF09FEF899F802D11248093ED03F11438
:103CF00059F00E94A10791E01F140CF09FEF899FDB
:103D0000802D11248093EE038091ED03811599F0AD
:103D1000C090EE03C11479F00E949307811101C095
:103D200081E08093ED038C2D0E949307811509F4A7
:103D300087C08093EE03802F8D29811509F445C03B
:103D400080919303909194030E94D4109C018091E0
:103D5000E803811509F47AC021353105B0F18F3FB0
:103D600019F08F5F8093E803D11459F00E94C107C6
:103D700091E01D140CF09FEF899F802D11248093FA
:103D8000EF03011559F00E94C10791E010160CF0E5
:103D90009FEF899F802D11248093F0038091EF0382
:103DA000811599F0D090F003D11479F00E94930717
:103DB000811101C081E08093EF038D2D0E94930754
:103DC000811509F440C08093F0038091EC038E11BB
:103DD00019C08091ED03811511F0181313C02091C3
:103DE000EE03211511F02F110DC09091F0039115E4
:103DF00011F0091307C03091EF03311103C0822B7A
:103E0000892B81110E94D60B86E0E985FA85ABEEFD
:103E1000B3E001900D928A95E1F70E940708182FF0
:103E200080919703181709F4FDCD109397030E9412
:103E30006008812F0E94AC03F5CD0E94390BEECEB5
:103E40003092EE0378CF3092F003BFCF2B303105A4
:103E500008F087CFBACF2B30310508F038CF6BCFC1
:103E600078941F921FB61F9211248F939F93AF9344
:103E7000BF938091870390918803A0918903B091AB
:103E80008A030196A11DB11D809387039093880337
:103E9000A0938903B0938A03BF91AF919F918F91B3
:103EA0001F901FBE1F9018951F920F920FB60F9272
:103EB00011242F933F934F935F936F937F938F932F
:103EC0009F93AF93BF93EF93FF938091E10082FFA5
:103ED00009C08091E20082FF05C08091E1008B7FE4
:103EE0008093E1008091DA0080FF24C08091D800A7
:103EF00080FF20C08091DA008E7F8093DA0080916D
:103F0000D90080FF9BC080E189BD82E189BD09B4F1
:103F100000FEFDCF81E080936D038091300381111D
:103F200009C00E9476090E94C5098091E200846060
:103F30008093E2008091E10080FF17C08091E20051
:103F400080FF13C08091E2008E7F8093E200809119
:103F5000E20080618093E2008091D80080628093CB
:103F6000D80019BC85E080936D038091E10084FF47
:103F700029C08091E20084FF25C080E189BD82E1F3
:103F800089BD09B400FEFDCF8091D8008F7D80935C
:103F9000D8008091E1008F7E8093E1008091E20063
:103FA0008F7E8093E2008091E20081608093E20046
:103FB00080912F03811509F447C084E080936D033D
:103FC00080916D038091E10083FF27C08091E20022
:103FD00083FF23C08091E100877F8093E10082E02E
:103FE00080936D0310922F038091E1008E7F809368
:103FF000E1008091E2008E7F8093E2008091E200F8
:1040000080618093E20042E060E080E00E949509D8
:104010008091F00088608093F000FF91EF91BF9154
:10402000AF919F918F917F916F915F914F913F9150
:104030002F910F900FBE0F901F90189519BC1092E2
:104040006D031092300376CF8091E30087FF02C0AA
:1040500083E0B4CF81E0B2CF1F920F920FB60F92E0
:104060001124FF920F931F932F933F934F935F93CE
:104070006F937F938F939F93AF93BF93CF93DF9370
:10408000EF93FF9309EE10E0F8018081C091EC00FE
:10409000C795CC27C7958F70FC2EF82A1082C0EFE9
:1040A000D0E08881877F888378940E94220EF8016F
:1040B0001082888188608883CF2DCF70C083FF9164
:1040C000EF91DF91CF91BF91AF919F918F917F91B0
:1040D0006F915F914F913F912F911F910F91FF90A1
:1040E0000F900FBE0F901F9018951092B9008CE0A2
:1040F0008093B8000895A0E0B0E0E1E8F0E20C940D
:10410000F921B82EEB010E94CA0B6C01EE24E39456
:10411000F12CC431D10560F025E0E22EF12CCF3F27
:10412000DC0731F0CE0164E170E00E94DE217B010A
:1041300084EAA82E94E8992E1092BC00A092BC00AC
:104140000E94CA0B182F092F8091BC0087FF0CC05A
:104150008091B900887F8830F9F08091B900887F1C
:104160008031D1F00FEF08C0812F902F0E94D41022
:10417000E816F90648F70EEF1FEFCF3FDC07E1F234
:10418000C6010E94D410C817D907B0F6C801CDB730
:10419000DEB7EBE00C941522B092BB009092BC000D
:1041A0000E94CA0B182F092F8091BC0087FF0AC0FC
:1041B0002091B900287F283111F0203499F600E0D1
:1041C00010E0E4CF812F902F0E94D410E816F9065A
:1041D00058F7D1CF0F931F93CF93DF93EB018093C9
:1041E000BB0084E88093BC000E94CA0B182F092FE3
:1041F0008091BC0087FF11C02091B900287F81E029
:1042000090E0283211F480E090E091958195910939
:10421000DF91CF911F910F910895CF3FDC0741F3BC
:10422000812F902F0E94D410C817D90708F78EEF5E
:104230009FEFEECF0F931F93CF93DF93EC0184ECAE
:104240008093BC000E94CA0B182F092F8091BC00DC
:1042500087FF08C08091BB0090E0DF91CF911F9154
:104260000F910895CF3FDC0789F3812F902F0E9493
:10427000D410C817D90750F78EEF9FEFEECF0F93EA
:104280001F93CF93DF93EC0184E88093BC000E94DE
:10429000CA0B182F092F8091BC0087FF08C080919E
:1042A000BB0090E0DF91CF911F910F910895CF3F18
:1042B000DC0789F3812F902F0E94D410C817D907EB
:1042C00050F78EEF9FEFEECFA0E0B0E0EAE6F1E22C
:1042D0000C94FC21C62F6A017901B8010E947B2051
:1042E0009C0197FD0DC0B8018C2F0E94EA209C0113
:1042F000E601EC0CFD1CCE15DF0511F037FF09C0FF
:1043000084E98093BC00C901CDB7DEB7E8E00C9426
:104310001822B80189910E94EA209C01ECCFA0E00C
:10432000B0E0E5E9F1E20C94FC21D82EC62EEA01BA
:104330007901B8010E947B209C0197FD17C0B8014C
:104340008C2D0E94EA209C0197FD10C0B8018D2D94
:1043500081600E947B209C01C12CD12C81E0E81A55
:10436000F108CE14DF0480F037FF1EC084E980938B
:10437000BC00C9011216130614F480E090E0CDB71A
:10438000DEB7E8E00C94182237FDF0CFC8010E9498
:104390001A219C0197FD04C0FE01EC0DFD1D8083D8
:1043A0008FEFC81AD80ADDCFC8010E943F219C01B7
:1043B00097FDDCCFCE0DDF1D8883D8CFAA1BBB1B9A
:1043C00051E107C0AA1FBB1FA617B70710F0A61B15
:1043D000B70B881F991F5A95A9F780959095BC0136
:1043E000CD0108952F923F924F925F926F927F92EC
:1043F0008F929F92AF92BF92CF92DF92EF92FF92F5
:104400000F931F93CF93DF93CDB7DEB7CA1BDB0BA0
:104410000FB6F894DEBF0FBECDBF09942A88398845
:1044200048885F846E847D848C849B84AA84B9844C
:10443000C884DF80EE80FD800C811B81AA81B98158
:10444000CE0FD11D0FB6F894DEBF0FBECDBFED016C
:10445000089597FB072E16F4009407D077FD09D036
:104460000E94DE2107FC05D03EF4909581959F4F78
:104470000895709561957F4F0895EE0FFF1F059089
:10448000F491E02D0994F999FECF92BD81BDF89A7F
:10449000992780B50895A8E1B0E042E050E00C947F
:1044A0008722DC01A40FB51F4150504048F0CB01DA
:1044B000840F951F2E910E94622241505040D0F7E8
:1044C0000895262FF999FECF92BD81BDF89A0197E4
:1044D00000B4021639F01FBA20BD0FB6F894FA9A4C
:1044E000F99A0FBE08950396272F0E9462220E9418
:1044F0006122252F0E946222242F0C9462220196B1
:10450000272F0E9462220C946122DC01CB01FC0166
:10451000F999FECF06C0F2BDE1BDF89A319600B41C
:104520000D9241505040B8F70895FB01DC0104C0E2
:104530008D910190801921F441505040C8F7881B9B
:10454000990B0895F894FFCF0A0C120C150C1B0C54
:10455000300C300C300C300C300C300C300C300C7B
:104560001E0C230C270C2D0C3E0C440C480CFF0E8B
:10457000260F2C0F260F2C0F7F0FA10F2C0F9F1033
:10458000AC10FB13FF13F113F713031407140B14F0
:104590005214BC145A14241428145E142C146214DB
:1045A0006E143814B5143C147214401476149D140F
:1045B00044147A14A4144A14801488143014661411
:1045C00034146A144E1484149414AD14B3141E14C9
:1045D0005614C3146F156F15A915A9154316601647
:0C45E000D515D5156516F3160417041741
:1045EC00BE02AE029E028E027E026E025E024E027F
:1045FC003E022E021E020E02FE01EE01DE01CE0173
:10460C00BE01AE019E018E017E016E015E014E0166
:10461C003E010000CB08790AA10AA80A0101270073
:10462C0022020000222502070000000000002600E4
:10463C0022020000223000070000000000002500CC
:10464C0022020000223002070000000000002400BB
:10465C0022020000222702070000000000002300B5
:10466C0022020000222E00070000000000002200A1
:10467C00220200002224020700000000000021009A
:10468C002202000022260207000000000000200089
:10469C0022020000222F02070000000000001F0071
:1046AC0022020000222F00070000000000001E0064
:1046BC0022020000222E02070000000000001F0250
:1046CC0022FFFF002223020700000000000031003F
:1046DC0022FFFF0022200207000000000000310230
:1046EC0022FFFF00223500070000000000001E0220
:1046FC0022FFFF002222020700000000000025021A
:10470C0022010000222700070000000000003000FA
:10471C0022010000222600070000000000003002E9
:10472C0022010000222500070000000000002702E3
:10473C0022010000222400070000000000002E00CF
:10474C0022010000222300070000000000002402C8
:10475C0022010000222200070000000000002602B7
:10476C0022010000222100070000000000002F029F
:10477C0022010000222000070000000000002F0092
:10478C0022010000221F00070000000000002E0282
:10479C0022010000221E0007000000000000210280
:1047AC0022FFFF0022350207000000000000E2009B
:1047BC00E900EA00B500B600B700CD008301CC00DB
:1047CC008A0192019401210223022402250226026D
:1047DC0027022A02B300B4006F0070009F01CB01C6
:0447EC009F02A00286
:00000001FF
