:100000000C94B4020C94D1020C94D1020C94D10241
:100010000C94D1020C94D1020C94D1020C94D10214
:100020000C94D1020C94D1020C94141F0C94EC1F6C
:100030000C94370B0C94D1020C94D1020C94D10285
:100040000C94D1020C94D1020C94D1020C94D102E4
:100050000C94D1020C94F01E0C94D1020C94D10299
:100060000C94D1020C94D1020C94D1020C94D102C4
:100070000C94D1020C94D1020C94D1020C94D102B4
:100080000C94D1020C94D1020C94D1020C94D102A4
:100090000C94D1020C94D1020C94D1020C94D10294
:1000A0000C94D1020C94D1020C94D10205010902E6
:1000B000A10185020901A1000509190129081500FE
:1000C0002501950875018102050109300931158165
:1000D000257F95027508810609381581257F9501D0
:1000E00075088106050C0A38021581257F95017572
:1000F000088106C0C005010980A101850319012AF4
:10010000B700150126B700950175108100C0050CD8
:100110000901A101850419012AA002150126A002E6
:10012000950175108100C005010906A1018506052C
:100130000719E029E71500250195087501810205D9
:1001400007190029EF1500250195F07501810205B9
:10015000081901290595057501910295017503910D
:1001600001C005010906A101050719E029E71500ED
:100170002501950875018102950175088101050722
:10018000190029FF150026FF009506750881000556
:10019000081901290515002501950575019102959C
:1001A0000175039101C009023B00020100A0FA0998
:1001B0000400000103010100092111010001224492
:1001C0000007058103080001090401000103000084
:1001D0000009211101000122B60007058203200059
:1001E0000112010002000000080912282301000189
:1001F00002000112034500720067006F0064006F87
:10020000006E006500000012034B002E0054002E0B
:100210000045002E0043002E0000000403090421C5
:10022000022E022F002F0226022402460065002E15
:100230000027023002300025021E022B0033003658
:1002400000370013001C004E004B0009000A000696
:100250000015000F003800290004001200080018E3
:10026000000C000000000007000B00170011001632
:10027000002D00E100340014000D000E001B0039B9
:1002800000737C050010001A0019001D00E500E253
:100290000049001F02310031020000000000000090
:1002A000005000510052004F00E600000023522A87
:1002B000002C002452E000E300E700E40024522870
:1002C000004C002352000001001E001F00200021EE
:1002D0000022000100010023002400250026002741
:1002E0000001000100010001000100010001000106
:1002F00000010001000100010001000100010001F6
:1003000000010001000100010001000000000001E7
:1003100000010001000100010001000100010001D5
:1003200000010001000100010001000100010001C5
:1003300000010001000100010001000100010001B5
:1003400000000000000000000001000100010001A9
:100350000001000000010001000100010001000196
:100360000001000100010001000100010000003552
:10037000001E001F002000210022000100010023B8
:100380000024002500260027002D00010014001A7B
:1003900000080015001700010001001C0018000CE7
:1003A00000120013002F00010004001600070009CE
:1003B000000A00000000000B000D000E000F0033CB
:1003C00000340001001D001B00060019000500019B
:1003D0000001001100100036003700380001000154
:1003E0000001002E0031003000000000000000007D
:1003F00000010001000100010001000000010001F6
:1004000000010001000100010001000100010001E4
:100410000001000100000001003A003B003C003DEB
:10042000003E00440045003F0040004100420043C0
:1004300000010001000100010001000100010001B4
:1004400000010001000100010001004F0001000156
:1004500000005201520252010001000000000001A0
:1004600000500001000100010001000100407E4138
:100470007E51005200010001000100010001000155
:100480000001000100010001000100010001000164
:100490000000000000000000000100010001000158
:1004A0000001000000010001000100010001000145
:1004B0000001000100010001000100010000000135
:1004C0000001000100010001000100010001000124
:1004D0000053005400550056000100010001004681
:1004E000004700480001000100010001005F0060BA
:1004F000006100570001000100010049004A004B63
:100500000001000000000001005C005D005E00854D
:10051000000100010001004C004D004E00010001EF
:10052000000100010059005A005B00670001000152
:1005300000010001000100010000000000000000B7
:10054000006200010063005800010000000100018A
:100550000001000100010001000100010001000193
:10056000000100010000000011241FBECFEFDAE0FF
:10057000DEBFCDBF13E0A0E0B1E0ECE7F5E402C0E0
:1005800005900D92AA33B107D9F724E0AAE3B3E0AE
:1005900001C01D92AC38B207E1F70E94341B0C94E5
:1005A0006A220C940000259A2D980895269A2E9878
:1005B0000895239A2B980895559A5D9A0895559A0F
:1005C0005D980895209A28980895CF93DF93D82FA7
:1005D000C92F292F30E098E0C11103C0282F3C2FEC
:1005E00090E0A90174E0569547957A95E1F7411599
:1005F000510511F09C5F9A01A901569547955695B2
:1006000047954115510511F09E5F9A013695279542
:10061000290F233039F0243071F00E94DC02209A37
:10062000289A04C00E94DC020E94E2028D2F9C2FB7
:10063000DF91CF9108950E94DF02F6CF9C019A9539
:1006400081159F4118F5F32FF270EE27832F8170EB
:10065000732F74706627532F5870442734FF0CC0D3
:100660008295807FEF2B09F08062672B09F0806410
:10067000452B69F080680895EF2B09F08260672BA5
:1006800009F08460452B19F08860089580E0089592
:100690008295982F990F990F9C7C869586958373E8
:1006A000982B892F880F8A7A96959575892B0895AE
:1006B00080FF08C02D9A81FF07C02E9A82FF06C0D6
:1006C0002B9A08952D98F7CF2E98F8CF2B98089550
:1006D000909343048093420408950E94E50290930E
:1006E000450480934404089521E030E002C0220FC5
:1006F000331F8A95E2F78091440490914504822B40
:10070000932B0E946D03089521E030E002C0220F78
:10071000331F8A95E2F7209530958091440490919B
:100720004504822393230E946D030895963090F52B
:100730008E3080F5E82FF0E08EE0989FE00DF11DFF
:1007400011248E2F877041E001C0440F8A95EAF78B
:1007500083E0F695E7958A95E1F7EE0FFF1FEE0F20
:10076000FF1FEE50FC4F20E030E070E05191DF01C0
:10077000CB01022E02C0969587950A94E2F781700C
:1007800081958527842385278E932F5F3F4F2430C3
:10079000310561F70895963078F58E3068F5E82FC9
:1007A000F0E08EE0989FE00DF11D11249E2F9770D0
:1007B00083E0F695E7958A95E1F7EE0FFF1FEE0FC0
:1007C000FF1FEE50FC4F40E050E080E0219130E010
:1007D000092E02C0369527950A94E2F72170332737
:1007E000042E01C0220F0A94EAF7822B4F5F5F4F5D
:1007F0004430510559F7089580E0089580914B04E5
:1008000090914A04981301C008958F5F8770FACFC2
:1008100090913C01911521F09091470497FD12C0F1
:10082000AEE3B3E0EFEF90E02D91821751F0EF3F90
:1008300019F4211101C0E92F9F5F9630A9F7EF3F0E
:10084000A9F40895E82FE695E695E695803FC8F768
:10085000F0E0E45CFC4F877021E030E001C0220F43
:100860008A95EAF78281822B828308950E2E000CEE
:10087000FF0BE45CFC4FF8CF90913C0191110CC050
:10088000EEE3F3E09191891302C0DF011E9253E081
:10089000E434F507B9F708959091470497FFF0CF36
:1008A000E82FE695E695E695803FA8F7F0E0E45C52
:1008B000FC4F877021E030E0A90102C0440F551FB2
:1008C0008A95E2F7CA0180959281892382830895EF
:1008D000909146048095892380934604282F2770A1
:1008E00021110DC0891759F09091480492FF07C05B
:1008F0008695869586950E948403109246040895F5
:10090000982F909580913F04892380933F04089508
:100910007630B8F46E30A8F48530B0F4E62FF0E00D
:100920009EE0799FE00DF11D112494E5899FE00D73
:10093000F11D1124EE0FFF1FE15EFD4F8591959192
:10094000089580E090E0089581E0FCCF9C01803E16
:10095000910509F448C0D8F48133910509F47DC0AC
:1009600048F48932910509F46DC08A9709F47CC076
:10097000C90108958933910551F18238910539F102
:10098000C597B1F78091470485FFF2CF29C0843E17
:10099000910509F447C048F4823E910599F1833EE0
:1009A0009105A9F121EE30E0E3CF863E910509F4EF
:1009B00044C0873E9105E1F68091470483FD61C004
:1009C0009091480491FF2BC024EE30E0D1CF80916C
:1009D00047048370811152C08091480483FFC8CFBF
:1009E00029E230E0C5CF8091470480FD33C090916B
:1009F000480490FFBDCF23EE30E084FFB9CF20E064
:100A000030E0B6CF8091470482FDF5CFB1CF809121
:100A1000470482FD30C09091480490FD2FC084FFB0
:100A2000A7CFEDCF8091480481FFA2CF80914704EA
:100A300027EE30E084FDE3CF9BCF8091470483FD18
:100A4000F7CF96CF8091470485FD1EC08091480462
:100A500083FF8ECF29E330E08BCF8091470486FF60
:100A600087CF2AE230E084CF8091470486FF80CF91
:100A700021E330E07DCF22EE30E07ACF20EE30E08F
:100A800077CF26EE30E074CF25E330E071CF909140
:100A9000470492FF10C041E0282F2471243009F050
:100AA00040E031E0282F2871283009F030E043176A
:100AB00011F02CE0822793FF10C041E0282F247111
:100AC000243109F040E031E0282F2871283109F065
:100AD00030E0431711F02CE082273091480430FFBA
:100AE00010C051E0282F2171213009F050E041E081
:100AF000282F2871283009F040E0541711F029E020
:100B0000822731FF10C041E0282F2171213109F0E7
:100B100040E031E0282F2871283109F030E04317F8
:100B200011F029E0822794FD877E08951F93CF93CB
:100B3000DF930E94A604EC01811522E5920708F0DC
:100B400055C0811540E5940708F0D1C0803E91055D
:100B500020F58D3C910508F0A4C0883A910570F409
:100B6000853A910508F09AC081309105D1F104973A
:100B7000813A9105B0F1C0E0D0E033C0885A9109C4
:100B80004B97C8F7C85AD0E0CC0FDD1FC253DD4FDA
:100B90000990D881C02DD46424C0811550E49507F4
:100BA000C0F4C11580E2D80708F0B7C0C83ED1052F
:100BB000C0F0CE019A9581159F41E8F68D2F0E94D5
:100BC0004705182FCE0199270E94A604EC01D12BCE
:100BD00008C099270E94A604CC27DF70C82BD92B08
:100BE000D06ACE01DF91CF911F910895803842E500
:100BF0009407C8F5803652E5950708F05BC0C0340D
:100C000082E5D807D0F4C03292E5D90708F04BC08E
:100C10008C2F8695869520E2829FC0011124C37097
:100C200021E030E0A90102C0440F551FCA95E2F748
:100C3000EA01C82BD92BDD68D4CF8C2F86958695F9
:100C4000877050E2859FC0011124C37021E030E01D
:100C5000A90102C0440F551FCA95E2F7EA01C82B4B
:100C6000D92BDC68BECF803C52E5950758F48F71D4
:100C7000C03AD245A0F590E0982F8827EC01C46FC8
:100C8000D06AAFCF805C9245809708F074CFDC2F9C
:100C9000CC27CC27DF71C06FD06AA3CFA497D064D4
:100CA000A0CFD0659ECFCF71D0E0DC2FCC27C16F15
:100CB000D06A97CF86958695877020E2829FC00183
:100CC0001124C37021E030E0A90102C0440F551F78
:100CD000CA95E2F7EA01C82BD92BDA6882CF0E94C5
:100CE0004705C82FD0E0DC2FCC27D0627ACF8F7198
:100CF0000E94470593E0CC0FDD1F9A95E1F7CC27C2
:100D0000DF70282F30E084FF04C050E1859F900100
:100D10001124C22BD32BD06964CF8D2F8F710E94E9
:100D20004705182FCE0199270E94A604EC01D12B6C
:100D3000DCCFA0E0B0E0EFE9F6E00C94C3218C0139
:100D4000E0904404F0904504809142049091430463
:100D5000E82AF92ACFE0D0E0CC24C394D12CC601F4
:100D60000C2E02C0880F991F0A94E2F78E219F2152
:100D7000892B49F4219798F7B12C8B2DCDB7DEB78D
:100D8000E9E00C94DF21BC2EB8018C2F0E9488046E
:100D90000E949605019771F3F0CF0F931F93CF93A5
:100DA000FC01858100811181811591F0611581F02F
:100DB000C8010E949906C82F682FC8010E94960397
:100DC000B8018C2F0E948804CF911F910F91089534
:100DD000C8010E94CB03C82FF3CFCF93DF93D82F46
:100DE000C92F0E9499066D2F7C2F0E9488040E94B3
:100DF0009605DF91CF910895FC0184818115A1F0C2
:100E0000808191810E94ED06282F92959F709630E7
:100E100099F060F4925F9F70923030F4203FB1F00F
:100E200038F481E0283E38F080E008959A5FF3CFEF
:100E300081E0243FC9F7089591E0213F09F090E057
:100E400081E0283E08F080E0892B089581E0089534
:100E500080E00895282F35EB2303C001112497FF6C
:100E600004C080589109892F089580589F4FFBCF67
:100E70008091200480FD14C081FD14C082FD16C045
:100E800080911F04811581F08E3180F420E5829FCE
:100E9000C00111246EE170E00E94F121862F0895B7
:100EA00084E1089588E2089588E0089580E5089532
:100EB0008091200480FD17C081FD17C082FD19C0FC
:100EC00080911E04811599F0883298F428E0829F61
:100ED000C001112468E270E00E94F12161157105E2
:100EE00051F0862F089562E0FCCF64E0FACF61E014
:100EF000F8CF68E0F6CF81E00895FC018581862374
:100F000081110AC082818115B9F06823918593FF10
:100F100005C081E061110FC080E00895282F22955F
:100F20002F708F70282B962F92959F706F70962B35
:100F300081E02913F1CF089581E00895E091D00375
:100F4000F091D103309729F00190F081E02D0995BF
:100F5000089580E00895A3E0B0E0E1EBF7E00C94A1
:100F6000CA219C0180919203909193038217930769
:100F7000A1F03093930320939203E091D003F0917A
:100F8000D103309751F083E089833B832A83068025
:100F9000F781E02DCE01019609952396E2E00C94AD
:100FA000E621A3E0B0E0E7EDF7E00C94CA219C0154
:100FB000809190039091910382179307A1F0309351
:100FC000910320939003E091D003F091D1033097E7
:100FD00051F084E089833B832A830680F781E02DEA
:100FE000CE01019609952396E2E00C94E6212FB7F5
:100FF000F8946091BD037091BE038091BF039091FE
:10100000C0032FBF08950F931F93CF93DF93D82F63
:10101000C92F409137045091380460913904709180
:101020003A042FB7F8948091BD039091BE03A0912C
:10103000BF03B091C0032FBF841B950BA60BB70B4A
:10104000843F9140A105B10528F560913704709166
:1010500038048091390490913A0404EF11E020E0C3
:1010600030E06093C5037093C6038093C7039093E9
:10107000C8030093C1031093C2032093C3033093AA
:10108000C403D0933504C0933604DF91CF911F91F0
:101090000F9108950E94F70702E310E020E030E08E
:1010A000E0CF87E797E7909301088093000888E1F5
:1010B0009AE00FB6F894A895809360000FBE9093C5
:1010C0006000FFCF80918F030895FC019B01809108
:1010D0006D0390916E038617970740F0672B29F4F4
:1010E0008091E8008E778093E800C90140E0009786
:1010F00041F4411106C08091E80082FF2FC080E0DA
:1011000008952091A3032115A9F12530A9F120917B
:10111000E80023FD2DC02091E80022FDECCF2091B6
:10112000E80020FFE4CF3091F3002091F200009717
:1011300019F02830310558F041E02830310509F028
:1011400040E02091E8002E772093E800D0CF419135
:101150004093F10001972F5F3F4FE9CF8091A303A8
:10116000811541F0853041F08091E80083FFC3CFC5
:1011700081E0089582E0089583E0089580916703F7
:1011800087FF13C08091E80082FF06C08091E800CD
:101190008B778093E80008958091A3038111F2CFAB
:1011A00008958091A3038115D9F38091E80080FF11
:1011B000F8CF8091E8008E77ECCF2091E400309159
:1011C000E50095E6A9012091EC00822F817020FFB7
:1011D00006C08091E80080FF06C080E0089520915D
:1011E000E80022FD1AC08091A303811589F08530A3
:1011F00089F08091EB0085FD0FC02091E4003091D3
:10120000E50042175307F9F29A95E1F684E0089554
:1012100082E0089583E0089581E00895E8EDF0E02C
:1012200080818E7F80831092E2001092DA0010920B
:10123000E100A0EEB0E08C9181608C9380818F778B
:10124000808319BCA7EDB0E08C918E7F8C93808158
:101250008F7E8083109266030895982F9093E90003
:10126000891771F07091EC002091ED005091F00021
:1012700021FD09C09F5F973089F78093E9000895A9
:10128000762F242F50E03091EB003E7F3093EB001F
:101290003091ED003D7F3093ED003091EB003160F7
:1012A0003093EB007093EC002093ED005093F0002E
:1012B0002091EE0027FDDECF0895A0E0B0E0E3E648
:1012C000F9E00C94C421C8EDD0E088818F7E88833A
:1012D000E7EDF0E080818160808384E082BF81E07F
:1012E0008093660388818E7F888302EE10E0F80188
:1012F00010821092DA0081EEC82ED12CF6011082F5
:1013000088818F77888388818068888388818F7DB2
:10131000888319BC1092A303109265031092A20354
:101320001092640390EEE92EF12CF70180818B7FFF
:10133000808388818160888342E060E080E00E9451
:101340002D09F60180818E7F8083F8018081816084
:101350008083808188608083F70180818E7F808395
:10136000888180618883CDB7DEB7E8E00C94E02106
:10137000E0914B0490914A0427E0E91302C080E019
:101380000895AE2FB0E02E9FF0011124E45BFB4FD7
:101390003181361306C03081381303C035813413D0
:1013A00004C0FD013196E770E8CF81E008950F9306
:1013B0001F93CF93DF938B01EA019091A3039430A5
:1013C00059F58093E9008FEF9091E80095FD06C0F4
:1013D00095ED9A95F1F700008A95B1F78091E800B4
:1013E00085FF1AC00E94DD08811111C08091E800BC
:1013F00085FD06C08091E8008E778093E800F2CFEB
:10140000F80181918F018093F100219779F7809104
:10141000E8008E778093E800DF91CF911F910F91C4
:101420000895CF93DF93D82FC92F80913C0181116C
:1014300013C048E050E06D2F792F81E00E94D7095A
:1014400080E2ED2FFC2FAFE6B3E001900D928A957C
:10145000E1F7DF91CF9108958091470487FD06C0A1
:1014600048E081E050E06D2F7C2FE8CF40E282E041
:10147000F9CFBC0146E050E082E00E94D709089510
:10148000BC0143E050E082E00E94D70908959091AA
:10149000480492FB222720F9281779F080FB92F963
:1014A00090934804609147047091480484E090E070
:1014B0000E94472282E00E9468040895CF938091A1
:1014C0003F0490914904892B909140049115A9F013
:1014D000892B80933C0390913C01911521F09091D0
:1014E000470497FD41C096E0EEE3F3E020E0915021
:1014F00008F03CC0211110924004C0913104C09505
:10150000C82380913004C82BC0933C0340E250E0D4
:1015100062ED73E08CE393E00E945D22892B11F170
:1015200080E2ECE3F3E0A2EDB3E001900D928A9546
:10153000E1F7E091D003F091D103309799F08091D9
:101540003C01811549F08091470487FF05C0C09395
:101550003D0386E080933C030280F381E02D8CE321
:1015600093E00995CF9108959EE1BECF3191311559
:1015700009F4BDCF2F5FBBCF811539F090913F04A7
:10158000892B80933F040E945E0A0895811521F003
:101590000E9480040E945E0A0895811539F090919E
:1015A0004904892B809349040E945E0A0895809122
:1015B0002D04811549F0809149048D7D8093490463
:1015C0000E945E0A10922D040895A1E0B0E0EBEEB7
:1015D000FAE00C94C721F82E698304E610E021E0BC
:1015E00030E0AE014F5F5F4F682F80E40E942621FC
:1015F000892B71F46CE06F0D21E030E0AE014F5F9C
:101600005F4F80E40E9426219C0181E0232B09F09A
:1016100080E02196E5E00C94E321CF936FEF80E02A
:101620000E94E50AC1E0982F9C2780918B04890FC6
:1016300080938B046FEF81E00E94E50A982F9C272E
:1016400080918B04890F80938B04CF9108958091B2
:101650008B0481110BC06FEF81E00E94E50A91E0DD
:10166000982780918B04890F80938B0408951F9293
:101670001FB61F9211248F939F93AF93BF938091B6
:10168000A103811113C08091BD039091BE03A0916D
:10169000BF03B091C0034196A11DB11D8093BD034E
:1016A0009093BE03A093BF03B093C003BF91AF91CB
:1016B0009F918F911F901FBE1F9018952FB7F89480
:1016C0008091BD039091BE03A091BF03B091C00370
:1016D0002FBF08950E945E0B2091230430912404B3
:1016E000232B211521F08093CB039093CC032091E1
:1016F000250430912604232B211521F08093C90362
:101700009093CA03E091D003F091D103309749F050
:1017100082E0809321040480F581E02D81E294E051
:1017200009950895611509F44BC0E3E3E80FE3312F
:1017300050F4F0E0E459FD4D0C9405220E94380766
:101740008195809324040E946A0B08950E943807B3
:10175000F8CF0E943807819580932304F4CF0E942C
:101760003807FACF0E94580780932504ECCF0E94D7
:1017700058078195F9CF0E945807819580932604D8
:10178000E2CF0E945807FACF815D990B21E030E04B
:1017900001C0220F8A95EAF780912204822B809360
:1017A0002204D1CF80912004816080932004CBCF8C
:1017B000809120048260F9CF809120048460F5CF6D
:1017C000409123048D3C59F48091240487FF0DC07F
:1017D00010922404411559F410921F0408C08E3C45
:1017E00081F48091240418169CF3411581F08091B6
:1017F000250490912604892B8111A5CF10921E04F7
:10180000A2CF8F3C41F447FFF0CF10922304809188
:1018100024048115E0CF803D19F41416B4F3E5CF0C
:1018200090912504893D29F41916FCF6109225049F
:10183000DCCF8A3D19F497FFD8CFF8CF90912604DA
:101840008B3D29F497FFD1CF10922604CECF8C3D4B
:1018500019F41916CCF3C9CF9FE2980F983090F481
:10186000815D990B21E030E0B90102C0660F771F5E
:101870008A95E2F7CB018095909122048923809389
:101880002204B3CF8D3D31F4809120048E7F80936C
:101890002004ABCF8E3D21F4809120048D7FF7CFC3
:1018A0008F3D09F0A2CF809120048B7FF0CFCF93A2
:1018B000C82F8115D9F08CEF8C0F813AA8F5809153
:1018C0003C01811521F08091470487FD11C0EEE3B2
:1018D000F3E084E493E02191C21701F18E179F0792
:1018E000D1F78C2F0E9408040E945E0ACF910895C0
:1018F000EC2FE695E695E695F0E0E45CFC4F8281FE
:1019000090E04C2F477021E030E002C0220F331FDF
:101910004A95E2F782239323892B19F38C2F0E9497
:101920003C040E945E0ADDCF80E28C0F883068F4B0
:10193000C77081E090E001C0880FCA95EAF7C091B6
:101940003F04C82BC0933F04CFCF8BE58C0F83306F
:1019500038F42C2F2452330BC9010E94AB07C6CF99
:10196000E8E5EC0FEB3150F4F0E0EE0FFF1FEC5F19
:10197000FC4F808191810E94D107B8CF83E38C0F07
:10198000833108F0B3CF61E08C2F0E94920BAECF71
:10199000811581F19CEF980F913A28F40E943C0444
:1019A0000E945E0A089590E2980F983050F4877074
:1019B00091E001C0990F8A95EAF7892F0E9480046F
:1019C000EFCF9BE5980F933028F480E090E00E94E1
:1019D000AB07089598E5980F9B3128F480E090E0DC
:1019E0000E94D107089593E3980F933118F460E0B3
:1019F0000E94920B08950F931F93CF93C82F8B01D2
:101A00000E94570C0115110539F48C2F0E94C80C47
:101A1000CF911F910F9108958FE99FE00197F1F702
:101A200000C0000001501109EDCF1F93CF93DF9349
:101A3000182FA0913304B0913404109709F44AC0D0
:101A40001092360410923504109231041092300432
:101A50001796CD91DC911897CE019A9581159F41EB
:101A600008F4D07ED1E0C11101C0D0E01A96ED910A
:101A7000FC911B97309731F01C966D917C9180E022
:101A80000995D823D11539F08CEF8C0F813A30F5B8
:101A90008C2F0E943C041115A9F0E0913304F091C1
:101AA0003404818584FD0EC080913204811551F08B
:101AB000808191819C01215031092F333E4710F4E0
:101AC0000E9403080E945E0A1092340410923304AC
:101AD00010923204DF91CF911F9108950E945E0A07
:101AE0008C2F0E94C80CD7CF10923F0480913C01EC
:101AF000EEE3F3E0811529F18091470487FF21C0CF
:101B00008EE1DF011D928A95E9F780E090E00E9466
:101B1000AB0780E090E00E94D107109249040E9438
:101B20005E0A86E0E1E2F4E0DF011D928A95E9F7C2
:101B300010921F0410921E04109220040E946A0B3F
:101B4000089586E0DECF0E94740D2FEF84E39CE0C1
:101B5000215080409040E1F700C0000088E19AE009
:101B60000FB6F894A895809360000FBE9093600024
:101B7000FFCFAAE2B0E0EFEBFDE00C94C92187E6CD
:101B800093E0FC0101962091F100208323E08F3641
:101B90009207B9F780916803893009F456C0C8F4F8
:101BA000823009F4B2C0833009F481C0813071F110
:101BB0008091E80083FFE6C08091670390916803FD
:101BC0009A3008F0DFC0E92FF0E0E158FD4D0C94A9
:101BD00005228A3009F488C08B3051F78091670361
:101BE000813231F780916B0390916C03892B01F75F
:101BF0008091E800877F8093E8000E94BE08809172
:101C0000690380933C010E94740DD2CF80916703D9
:101C1000813A71F68091E800877F8093E800809197
:101C20006B0390916C03892B61F060E080E090E0A1
:101C300070E00E9465088091E8008B778093E8004F
:101C4000B7CF60E28FE693E0F3CF809167038132F4
:101C500009F0AECF80916B0390916C03029708F06E
:101C6000A7CF8091E800877F8093E8008091E8000B
:101C700082FF18C09091F3008091F200029731F436
:101C80008091F100813011F0863021F48091F100D3
:101C900080938F038091E8008B778093E8000E9407
:101CA000BE0886CF8091A3038111E0CF81CF8091C0
:101CB0006703813A09F07CCF80916B0390916C03AC
:101CC000892B09F075CF8091E800877F8093E80029
:101CD0008091E80080FFFCCF80913C018093F1006F
:101CE0008091E8008E77D9CF80916703813209F027
:101CF0005FCF8091E800877F8093E8000E94BE0854
:101D000080916A038093630353CF80916703813A84
:101D100009F04ECF8091E800877F8093E8008091A2
:101D2000E80080FFFCCF80916303D8CF803889F032
:101D3000823841F580916B038F70873018F580935E
:101D4000E9008091EB0085FB882780F91092E9007B
:101D500006C08091A203880F90916403892B909113
:101D6000E800977F9093E8008093F1001092F100D3
:101D70008091E8008E7723C0811116C0809169039D
:101D8000813011F18091E80083FF0AC08091E80062
:101D9000877F8093E8008091EB0080628093EB0066
:101DA000AA96E3E00C94E521823061F78091690303
:101DB000811589F01092E9008091E800877F809377
:101DC000E8000E94BE08DECF81E0933009F080E099
:101DD0008093A203EFCF80916B038F702FEF280FBA
:101DE000263080F68093E9002091EB0020FFE2CFBF
:101DF000933031F48091EB0080628093EB00DACF76
:101E00009091EB0090619093EB0021E030E0A9010C
:101E100002C0440F551F8A95E2F74093EA001092E2
:101E2000EA008091EB008860E8CF8111ABCF109180
:101E300069031F778091E3008078812B8093E30012
:101E40008091E800877F8093E8000E94BE0880911F
:101E5000E80080FFFCCF8091E30080688093E3007E
:101E600083E0111101C082E08093A3038BCF8058DF
:101E7000823008F087CF2091690330916A032C3DAE
:101E800053E0350799F583E08A838AE289834FB767
:101E9000F894DE01139620E03EE051E2E32FF0E0FB
:101EA00050935700849120FF03C082958F703F5F4D
:101EB0008F708A30C8F0895C90E08D939D932F5F7E
:101EC000243161F74FBF8091E800877F8093E8005D
:101ED0006AE270E0CE0101960E9465088091E800F8
:101EE0008B778093E8004ECF805DE6CF832F9927D4
:101EF0008330910529F160F48130910509F475C0B2
:101F0000029709F03FCF8BE390E0E6EAF1E02CC0C6
:101F100020916B0330916C038132910509F459C013
:101F2000829709F02FCF2115310509F468C02130BF
:101F3000310509F027CF86EB90E0ECEAF0E014C021
:101F4000C90199272130A9F182309105D1F1892B5E
:101F500009F018CFEBE1F2E0E4918E2F90E0EBE195
:101F6000F2E0009709F40ECF2091E800277F20933C
:101F7000E80020916D0330916E038217930708F4F7
:101F80009C0140E02115310509F03EC041113CC0E3
:101F90008091E80082FDA2CF8091A303811509F40E
:101FA0009DCF853009F49ACF8091E80083FFF0CF70
:101FB00095CFE7E0F2E0E4918E2F90E0E7E0F2E0E9
:101FC000D0CFE3EFF1E0E4918E2F90E0E3EFF1E08A
:101FD000C8CF2115310571F02130310509F0D2CE7D
:101FE00089E090E0E1EDF1E0BFCF82E190E0E1EE49
:101FF000F1E0BACF89E090E0E8EBF1E0B5CF84E41E
:1020000090E0E2E6F1E0B0CF8091A303811509F4FE
:1020100065CF853009F462CF8091E80083FD5ECF03
:102020008091E80082FDB4CF8091E80080FFAACFC4
:102030009091F3008091F2002115310519F088305C
:10204000910550F041E0089709F040E08091E800E8
:102050008E778093E80096CF44914093F1003196BB
:10206000215031090196E8CF803809F08BCE80915C
:10207000E800877F8093E800809165038093F100FA
:1020800077CE81117FCE10916903123008F07ACE9D
:102090008091E800877F8093E800109365030E9499
:1020A000BE08111581F084E08093A30342E061EC47
:1020B00081E00E942D0942E261EC82E00E942D093C
:1020C0008091A3035FCE8091E30087FDECCF81E098
:1020D000EBCF9C014FB7F8948091BD039091BE0364
:1020E000A091BF03B091C0034FBF821B930B089513
:1020F000FF920F931F93CF93DF93C62FD42F122FEE
:102100008115A9F060933D040E945E0B90936203D9
:1021100080936103C77081E001C0880FCA95EAF718
:102120000E94BC0ACDB7DEB7E5E00C94E3218091B4
:102130003D04681332C080916103909162030E9454
:102140006910883C910548F500E20D0FCD17A9F004
:10215000C770FF24F3948F2D01C0880FCA95EAF74A
:102160000E94C60A083048F48D2F877001C0FF0C0A
:102170008A95EAF78F2D0E94BC0A60E070E0812FFB
:102180000E94FB0C083070F6D77081E001C0880F08
:10219000DA95EAF70E94C60AC5CFC77081E001C090
:1021A000880FCA95EAF7F6CFA4E0B0E0EAEDF0E1D7
:1021B0000C94BA218C01DC0114968C91811591F15B
:1021C00061E0C8010E94CD068B839C83EB81FC817A
:1021D000E0342EE7F20751F1E134FE4709F471C013
:1021E0002B813C8123373C4761F5D80115968C91B2
:1021F000811539F080912D04811509F46DC00E947C
:10220000D70A809146048770811561F0D801159630
:102210008C91811539F08091480482FF03C082E0DF
:102220000E9468042496E2E10C94D621D801159608
:102230008C9180932C040E945E0B90932B048093CE
:102240002A0480912D04811509F484C0E0903F0494
:10225000F09040040E945E0B88579C4E90932F0490
:1022600080932E04F8018581811509F473C08F2DA8
:102270008E298D798111A6C02B813C81211540E5E5
:102280003407E8F5211550E4350708F0A0C0263ED4
:10229000310509F45FC0C90190528115904208F0E0
:1022A0009BC08681803108F482C08B819C819927F4
:1022B000109249048D329105A9F582E0809349047A
:1022C00090C0F8018581809329040E945E0B909351
:1022D000280480932704B5CF10923F0480914004D6
:1022E0008111109240040E945E0B88579C4E90937F
:1022F0002F0480932E0481E080932D0482CF8B8164
:102300009C81843BA2E59A0729F108F041C0803402
:10231000E2E59E07C0F481159245E0F4109249046D
:102320008B819C818E32910508F05EC088329105C8
:1023300008F055C08E31910508F053C004974A97B4
:1023400008F4BBCF3FC08B819C818056924580347E
:10235000910520F7F8014580411409F44FC02B8105
:102360003C812E354CE7340709F444C02F355CE737
:10237000350741F02D353C4709F040C080913D01C3
:102380008115C1F110923D0180E00E94150D39CFF9
:102390002B813C81203E42E5340718F4203C324535
:1023A000BCCF8B819C8187579C470297D2CF8C8171
:1023B0008F71843179F248F48C818F70823011F4FE
:1023C000109249040E94D70AC5CF8631F8CF868182
:1023D000803108F06ACFBECF8B819C8169CF8A970C
:1023E00089F70E945E0AB6CF8C349105D1F38D3205
:1023F0009240F6CF81E080933D0103CF80913D0173
:1024000081110FC0D80115968C91EB81FC81E851A8
:10241000FC47E730F10508F09CC0E757FD4D0C94F0
:1024200005228B809C80B0EE8B1A9108509041045D
:1024300080913F04582A80914004582AE8E08E1683
:10244000910408F057C02B813C812770332781E02D
:1024500090E001C0880F2A95EAF7411409F447C0BB
:10246000582AD8018D919C910E94CB03E0913304AE
:10247000F0913404FA83E98360903B0470903C044B
:10248000212C21E030E0590102C0AA0CBB1C8A9526
:10249000E2F7E22DF0E0EE0FFF1FE050FF4FE0808B
:1024A000F180E114F10409F440C0511005C0D701D6
:1024B00012968C91811119C0F701838194818A2130
:1024C0009B21892B91F08185982F9770911101C0E4
:1024D00087E0F8E08F16910408F075C0411409F404
:1024E0006EC086958170811173C02394D2CF809580
:1024F0005822B7CF41104EC080913B0490913C04CC
:102500002B813C812817390781F410923C041092EA
:102510003B04109237041092380410923904109240
:102520003A0410923604109235048091330490914D
:102530003404009709F466CFA8E08A16910408F0E5
:10254000E7C0652D0E947D07811103C081E00E94D4
:10255000150DF8018581811509F490C410923D0490
:102560008B819C819057839708F097C484E090E01A
:102570000E9413229093480480934704EB81FC81CE
:10258000E150F047E232F10508F0F8C0E057FD4DA8
:102590000C9405224B815C8150933C0440933B0496
:1025A0000E94F707609337047093380480933904CE
:1025B00090933A04109236041092350452CF82FB65
:1025C000882780F990CF411409F48FCF80FF8DCFF9
:1025D000D701CD90DC90EB81FC81EC15FD0519F461
:1025E000411409F482CF29813A81E216F30609F4F5
:1025F0007CCFD7011E96ED91FC91309721F0808120
:10260000811509F472CF652DC7010E947D078115E0
:1026100009F46BCF81E0EB81FC81EC15FD0509F03D
:1026200080E0382E3420C114D10431F0311004C0C0
:10263000C614D70409F059CF80E00E94150DF0921E
:102640003404E092330481E080933204D70116967B
:102650008C9116978093310431100CC0CD2851F025
:102660008D919C919C0124503109213A3105A0F5AE
:102670000E943C04F701C780D084C6019A95811559
:102680009F4110F420EED222BB24B394C6010197DF
:102690008F339E4708F0B12CD7011A96ED91FC912B
:1026A0001B97309731F01C966D917C9181E00995D4
:1026B000B822B11471F0F701878190850E941E0342
:1026C00080933004C601F8E08F16910440F40E9414
:1026D00003080E945E0A0AC00E94C80CCBCF049770
:1026E000813A910548F48C2D0E940804311409F4B4
:1026F00089CE0E945E0A85CD0E945E0A8FE39CE926
:102700000197F1F700C000008C2D0E94570CEECF0E
:10271000FC01208131814B815C814217530741F4D8
:10272000411009C01092320480E00E94150D6ACE5B
:10273000411409F467CEDC0119968C9185FD62CEB7
:10274000F3CF26E241EE61EE0E9478105ACD27E2E7
:1027500045EE65EEF9CF26E241EE60EEF5CF27E2D9
:1027600045EE64EEF1CF26E241EE62EEEDCF27E2D8
:1027700045EE66EEE9CF28E241E0EBCF80914704D9
:10278000816080934704609147047091480484E01D
:1027900090E00E9447220E94740D33CD809148043E
:1027A000886080934804EFCF809147048260E9CF2E
:1027B000809147048460E5CF809147048860E1CF31
:1027C000809148048160EDCF809148048260E9CF18
:1027D000809147048061D5CF809147048062D1CF3A
:1027E000809147048064CDCF0E94740D809147048E
:1027F0008068C7CF809147048C60C3CF8091480424
:102800008360CFCF809147048E7FBBCF80914804F7
:10281000877FC7CF809147048D7FB3CF80914704D6
:102820008B7FAFCF80914704877FABCF80914804E7
:102830008E7FB7CF809148048D7FB3CF80914704BE
:102840008F7E9FCF809147048F7D9BCF80914704DF
:102850008F7B97CF0E94740D809147048F7791CF23
:1028600080914704837F8DCF809148048C7F99CFDE
:1028700080914704992782FF939590FB82F990FB02
:1028800083F97FCF80914804982F909590FB80F931
:1028900090FB81F986CF90914704892F8F7B96FF1B
:1028A00080646FCF0E94740D90914704892F97FB2D
:1028B00087F9805866CF61E08EE090E00E9429227F
:1028C00062CF60E0F9CF90914704892F8F7E94FF0B
:1028D000806157CF90914704892F8E7F90FF816050
:1028E00050CF90914804892F877F93FF886059CFFC
:1028F00089E2E6C289E2CEC22B813C812A354CE7CF
:10290000340709F488C008F05EC021306CE7360750
:1029100009F47FC023308CE7380709F474C021150F
:102920003C4709F463C0F8018581E080F18081159E
:1029300009F475C0C7010E9499068983682FC701F1
:102940000E949603B70189810E9488040E9496051F
:102950008B839983D8011596DC9015971696CC90A9
:10296000C2942FE0C2228091460487708115F1F055
:10297000ED2CD114E1F0892F807F803451F08B81D0
:10298000805E883098F0C11004C0892F807E80322C
:1029900069F08091480482FF09C082E00E946804C7
:1029A000809146048770EE24E3948111E12CE98143
:1029B000E295EF70B981B03C08F0A1C0F0E0EE54B0
:1029C000FD4D0C940522AB81BC81AB35ECE7BE0715
:1029D00021F180914804002482FF0394802DAC35BE
:1029E000BC4709F0A0CF0E94470A9DCF0E94740DFA
:1029F0002FEF34E34CE0215030404040E1F700C07D
:102A000000000E9451086FEF7FEF80E090E00E948D
:102A100047220E94A30D81E0E6CF80E0E4CFC7010A
:102A20000E94CB0389838ECFE981EF70FE2EF9815E
:102A3000F03118F0F29490EFF922D114C1F0F114B2
:102A400071F08B81805E883018F02B81211109C0D4
:102A500080913F048F2980933F040E945E0A8B81FE
:102A600046C0809149048F2980934904F6CF8B8119
:102A70000E94C80CF11409F442C08B81805E88303A
:102A800018F03B81311104C08F2D0E94800406C0D4
:102A9000F094809149048F21809349040E945E0A3A
:102AA0002EC049814F70F42E5981507F503219F059
:102AB000F29480EFF8226B81611549F0613009F4DE
:102AC0006CC0D11409F478C0C114D1F1C8CF809181
:102AD000480482FD31C0D11469F0F11439F08091BD
:102AE0003F048F2980933F040E945E0A80E00E9489
:102AF000570C05C080E00E94C80CF110C5CFE1144E
:102B0000B1F08091460480FD12C0D80115961C9248
:102B10008695869586950E947403C8010E94D410FC
:102B2000809146048695869586950E94840360E090
:102B3000C8010E94CD0676CBD11499F0C11004C013
:102B40008F2D0E94BC0ADBCF81E0C812D8CF8091C4
:102B500040049F2D9823F91691F28F298093400409
:102B6000CECFC110CCCF8F2D0E94C60A90914004C9
:102B70008F2D8923811529F08F2D809589238093AE
:102B80004004809141049F2D9823911509F4B7CFFB
:102B9000F094F822F0924104B2CFD11429F096E0DB
:102BA000C91608F0ACCFCCCFA5E0CA1608F0A7CF65
:102BB0008F2D0E94C60AA3CFC114D1F3BB81B933B4
:102BC00049F4EFEFF7EE23E0E150F0402040E1F769
:102BD00000C000008B810E94C80C91CF898186952E
:102BE00086958370811569F0813009F088CF8B81DB
:102BF00099819370D11002C080E090E00E94D107CB
:102C00007ECF8B8199819370D11002C080E090E0DB
:102C10000E94AB0774CF6D2D8B810E94920B6FCFFA
:102C200089818370811146C0D11031C04B8142959A
:102C300046954770440F440F2B812F7030E0042ECF
:102C400002C0220F331F0A94E2F75B8180E090E01C
:102C500054FF09C08FE090E002C0880F991F4A9589
:102C6000E2F780959095698166956695637062300C
:102C7000C1F0633099F040914204509143046130B7
:102C800059F0822B932B842395230E9468030E9482
:102C90009E070E94580333CF242B352B822B932B76
:102CA000F4CF822B932B209142043091430482274E
:102CB0009327EBCFD11499F1898180FFE8CF4B8125
:102CC000429546954770440F440F2B812F7030E09A
:102CD000042E02C0220F331F0A94E2F79B8194FF57
:102CE00022C08FE090E002C0880F991F4A95E2F75A
:102CF00080959095A981A695A695A370A230D9F04C
:102D0000A330B1F04091440450914504A13071F0DA
:102D1000822B932B842395230E946D03B8CF82309E
:102D200008F4B5CFCCCF80E090E0E4CF242B352B56
:102D3000822B932BF1CF822B932B20914404309143
:102D4000450482279327E8CFB981BF70B983D11496
:102D500039F08B2F0E9474038B810E94BC0A97CF9D
:102D60008B810E94C60A89810E94840390CFEB81E7
:102D7000E23FB9F170F4E03FD1F0E13F99F0D114B6
:102D800009F467C0C11409F461C08B810E94570C1B
:102D90007ECFFB81F33F61F1F43F89F780914804D6
:102DA00082FD35C089818F71D114F1F21EC0D1141A
:102DB000A9F025E0C21608F06ACF39813F7181E0A1
:102DC00090E0AC0102C0440F551F3A95E2F78091A4
:102DD000440490914504842795279ECF56E0C5165C
:102DE000EACF89818F71D110BFCF0E9474034FCF7A
:102DF00080E090E0D11409F48FCF69816F7181E098
:102E000090E002C0880F991F6A95E2F785CFD11430
:102E100091F089818F7189830E94740380914804A5
:102E200082FF07C08981880F880F880F8360809395
:102E300046048981DACF81E00E94680492E0C916D5
:102E400008F425CF82E00E94680421CF89818F7128
:102E5000CCCFC11481F0AB81A93349F4BFEFE7EEC9
:102E6000F3E0B150E040F040E1F700C000008B819A
:102E70000E94C80C0CCF89818F7176CFEB81FC81C9
:102E8000E631FC4709F04FCD80913E04811509F4ED
:102E900031CD85E30E943C042CCC4B815C814631D2
:102EA0005C4709F029CD80913F048A7A91E0811135
:102EB00001C090E090933E04811509F419CD85E39B
:102EC0000E94080416CC80918A04803178F48091A5
:102ED0008904811559F0E0914B0420914A04309106
:102EE00085044091840457E02E1301C008956E2F8D
:102EF00070E05E9FF0011124DF01A45BBB4F1496CC
:102F00008C911497811561F111968C91119783130F
:102F100027C08C91841324C015968C91159781112C
:102F20001FC012968D919C91A0918604B091870448
:102F30008A1B9B0B883C910598F480918A048F70C2
:102F4000806180938A04EE5AFB4F80818F7080618C
:102F5000808384E894E00E94D4100E94FE030895C8
:102F6000FB013196E770C0CFADE0B0E0EAEBF7E1EE
:102F70000C94BF218C0186E0F801DE0118960190C7
:102F80000D928A95E1F7F801F580C48084E8882ED7
:102F900084E0982E70908804711020C0C114D9F07C
:102FA000F11409F41CC1C8010E94FC06811509F442
:102FB00016C187E0F801D40101900D928A95E1F7DE
:102FC000F1E0CF1206C080918404909185040E94A4
:102FD000ED060E946317FF24F39454C0E080A280A2
:102FE000B380D090890480918604909187049501E4
:102FF000281B390BD11409F4BAC0283C310508F05C
:1030000090C0C11441F390918504C18080918A04DD
:10301000803108F058C0C91214C0909184049E11E8
:1030200010C0F1104AC08F70806180938A0484E8D8
:1030300094E00E94D41080918A04F8018683F12CD8
:1030400021C0F1103AC040E06C2D8E2D0E94B809CD
:1030500040E06C2D8E2D0E94B809F82E8111EFCF23
:10306000888599850E94ED06292F22952F7090342E
:1030700070F49F702230A0F09115B1F0F8019681A4
:10308000903190F48F2D2D96EDE00C94DB212A5F8A
:103090002F70223068F0C8010E94D410FD2CF2CFAE
:1030A000911511F0811571F3805E883058F3F3CFDC
:1030B000803F40F3815F8330F9CF80918A04816043
:1030C00080938A04BCCFC91207C0909184049E11DA
:1030D00003C0F11409F46CC0C8010E94FC068115FC
:1030E00009F47DC0F11409F47AC080918A04803219
:1030F00078F020918404309185043A832983BC823E
:10310000AB827D821E828F83CE0101960E94D410F5
:1031100087E0F801A4E8B4E001900D928A95E1F708
:1031200058CF80918A04803150F484E894E00E9462
:10313000D41087E0F40111928A95E9F780CFC11489
:1031400009F449CF2091850491812913C5CF90912D
:1031500084049E11C1CFF110BFCF8683C8010E94A5
:10316000D41087E0F40111928A95E9F734CF283C16
:103170003105F8F6C11409F42ECFF11481F19091C4
:1031800085048181981321C0809184048E111DC013
:1031900080918A0480FD10C0803170F08683807F2A
:1031A000803F39F08681982F907F905F8F70892BB8
:1031B0008683C8010E94D41087E0F801A4E8B4E037
:1031C00001900D928A95E1F706CFC8010E94FC0696
:1031D00081119ECF80918A04816080938A04C80106
:1031E0000E94D410F8CEABE1B0E0E9EFF8E10C9426
:1031F000C8214E8B5F8B688F798F8A8F192F9B8F99
:103200009111109249041D8A86E0FE017696DE0136
:103210001F9601900D928A95E1F70A8D011539F0FC
:103220000B8B1C8B61E0CE010F960E94CD060B8BA1
:103230001C8B87E0FE013F96DE01189601900D92EF
:103240008A95E1F7CE0108960E94B417811128C033
:1032500020914A0430914B0487E0FE013896DE014C
:10326000119601900D928A95E1F78C858115C1F038
:10327000822F90E001968770992738171906D9F0A8
:1032800097E0929FD0011124A45BBB4FFE013196C1
:1032900001900D929A95E1F780934A040E94FE03F3
:1032A00017E080914B0490914A04891312C06B96E9
:1032B000E4E00C94E4210E94740D10924A041092F0
:1032C0004B0487E0E4E8F4E0DF011D928A95E9F71A
:1032D000E7CF189FC0011124845B9B4F0E94B41755
:1032E000811529F380914B0490E00196877099270E
:1032F00080934B04D6CFA6E0B0E0E1E8F9E10C946E
:10330000C8210E945E0B8C018091CE039091CF0367
:103310008017910779F019821A820E945E0BBC0116
:1033200049815A8180E090E00E94F3181093CF0306
:103330000093CE032696E4E00C94E421A2E0B0E0F2
:10334000E4EAF9E10C94BA2180918B04811569F0CB
:1033500080915F03909160030196811500E29007D0
:1033600088F49093600380935F0385E9A82E83E03F
:10337000B82ECC24C394D12C212C312C442443943A
:10338000512C0CC01092600310925F0310928B04BA
:103390000E94270B0E940D0BE8CF3A80F501619047
:1033A00071905F01129212927F01F3E03F1609F4CF
:1033B000F0C004E0301608F0E0C011E0311609F466
:1033C000E2C022E0321609F4E1C0849A8C9881E0D0
:1033D000830D8A8380918B04811509F4E0C0EFE8A6
:1033E000F1E03197F1F700C0000080918B04812C4F
:1033F000912C811126C0FFEFF98304E610E021E053
:1034000030E0AE014F5F5F4F62E180E40E945321E4
:103410009C0191E0232B09F490E080918B04890FAB
:1034200080938B04898180950E944803982F9695FC
:103430009C778370892B982E9694882E8794882465
:103440008794A9B189B1E9B166B149B12CB1A3FBA7
:10345000AA27A0F931E0A32700E4A002D00111249B
:1034600082FB882780F9832710E28102C0011124A2
:10347000A82BB92B99271C99939593278D01092B7C
:10348000C801E295E170E32710E1E102F0011124A7
:103490008E2B9F2B66FB662760F9632758E0659F9C
:1034A000B0011124862B972B042E000C550B409550
:1034B000509557FB4427552742F9842B952B26FB23
:1034C000222720F92327022E000C330B220F331F53
:1034D000822B932B88299929F70191838083F3E02C
:1034E0003F1609F47DC004E0301608F06AC011E010
:1034F000311609F46DC022E0321609F46DC08498CB
:103500008C988C9881E0F701208131812615370550
:1035100009F480E0282AFFEFCF1ADF0A0A8106307B
:1035200009F03BCF211409F463C081E080935E036E
:103530000E945E0B90935D0380935C0380915C031B
:1035400090915D030E946910059708F455C04CE006
:1035500050E065E973E084EA93E00E945D22892BE4
:1035600049F08CE0E5E9F3E0A4EAB3E001900D92C4
:103570008A95E1F710925E033FC054E035120CC00B
:10358000219A299824CF859A8D9821CF869A8E9852
:103590001ECF879A8F981BCF229A2A9818CFB201F4
:1035A0000C2C01C0660F0A94EAF7609581E00E9436
:1035B000E50A91E0982780918B04890F80938B0412
:1035C00014CF54E0351210C02198299829989ACF29
:1035D00085988D988D9896CF86988E988E9892CF54
:1035E00087988F988F988ECF22982A982A988ACF7A
:1035F00080915E038111A2CF80912C048115B1F0DE
:1036000080912A0490912B040E9469104F9770F0CA
:1036100060E070E081ED0E94FB0C80912A049091A3
:103620002B044E9690932B0480932A0480912904B6
:103630008115B1F080912704909128040E946910AF
:103640004F9770F060E070E082ED0E94FB0C80917B
:103650002704909128044E96909328048093270481
:103660002296E2E10C94D621CDB7DEB72A970FB6A9
:10367000F894DEBF0FBECDBF85B7806885BF85B724
:10368000806885BF84B7877F84BF0FB6F894A895FC
:1036900080916000886180936000109260000FBE8E
:1036A00080E890E00FB6F8948093610090936100F9
:1036B0000FBE88E297E090933B0380933A030E9409
:1036C0000E090E945D098091E20084608093E2000F
:1036D00078948091A303811599F08091E90010916D
:1036E000EC008F70179511271795182B1092E90091
:1036F0008091E80083FD0E94B90D1F701093E900CE
:1037000082E084BD93E095BD9AEF97BD80936E00F3
:103710008091940381110EC00E9437202FEF43ED5A
:1037200080E3215040408040E1F700C0000081E08C
:10373000809394032198299822982A9884988C98A9
:1037400085988D9886988E9887988F9829982A982A
:103750008C988D988E988F980E94270B6E98769AE9
:1037600052985A9A53985B9A54985C9A57985F9AD1
:103770003E98469A24982C9A0E940D0B8CE0E5E91D
:10378000F3E0DF01282F1D922A95E9F7E4EAF3E040
:10379000DF011D928A95E9F780E090E00E941322F4
:1037A000863E9E4F09F464C066EE7EEF80E090E0B6
:1037B0000E94472260E082E090E00E94292260E0BF
:1037C00083E090E00E942922109243041092420468
:1037D00060E074E184E090E00E94472260E086E0CF
:1037E00090E00E9429226FEF87E090E00E9429225A
:1037F00040E050E0BA0188E090E00E943B2260E0A7
:1038000084E290E00E94292260E087E190E00E943B
:10381000292260E08CE090E00E94292260E08DE0A7
:1038200090E00E94292219821A821B821C821D822A
:103830001E821F82188648E050E068E170E0CE01E9
:1038400001960E94192240E050E0BA0180E290E027
:103850000E943B2240E050E0BA018FE090E00E94DD
:103860003B2240E050E0BA0183E190E00E943B221D
:1038700082E090E00E940B228093B00384E090E00D
:103880000E94132290934804809347040E949E193B
:10389000EFEFF6E721E0E150F0402040E1F700C013
:1038A00000000E949E198091A4039091A50380FFBF
:1038B00008C06FEF7FEF80E090E00E9447220E94F7
:1038C000510883E090E00E940B2290E00E94680380
:1038D00080914404909145040E94E502259A2D9818
:1038E000269A2E98239A2B980E94D3020E94D602E1
:1038F0000E94D9020E94DC020E94DF024FEF80E7A3
:1039000092E0415080409040E1F700C00000259ACD
:103910002D9AAFEFB0E7E2E0A150B040E040E1F710
:1039200000C00000269A2E9AFFEF20E742E0F150F7
:1039300020404040E1F700C00000239A2B9A8FEF0F
:1039400090E7A2E081509040A040E1F700C0000065
:103950000E94D302BFEFE0E7F2E0B150E040F04058
:10396000E1F700C000000E94D6022FEF40E782E09E
:10397000215040408040E1F700C000000E94D90281
:103980009FEFA0E7B2E09150A040B040E1F700C047
:1039900000000E94DC020E94D3020E94D6020E9414
:1039A000D9020E94DC0284E391E09093D1038093DA
:1039B000D003CE01019689879A878091A303853031
:1039C00059F48091A303853009F45CC00E94740D02
:1039D0000E949E070E9458030E949E1921EB822E8E
:1039E00023E0922E34EA432E33E0532ED201F40129
:1039F000219131918D919D9143E0ED3BF40709F4C4
:103A000097C028173907A1F3312CD2010D911D91D0
:103A10002D01F401619071904F016016710659F10A
:103A200060267126212CEE24E394F12CC701862117
:103A30009721892BB9F029823A820E945E0B9C83E0
:103A40008B83F1E0FD8391E0970120233123232B29
:103A500009F490E09E8349815A816B817C818D813C
:103A60000E94F3182394EE0CFF1C2EE02212DECFEE
:103A7000F40112930293339446E03412C6CF0E94AD
:103A8000F7075CC08091A303843039F180E00E9485
:103A900058031092A103E8E1F0E020E40FB6F89497
:103AA000A895E09360000FBE2093600083B7817FEC
:103AB000846083BF83B7816083BF7894889583B720
:103AC0008E7F83BF0FB6F894A895809160008861BF
:103AD00080936000109260000FBE8091A203811558
:103AE00009F46FCF0E949E19E4EAF3E080EB93E0C3
:103AF00021913191232B21F48E179F07C9F761CFB4
:103B000080E189BD82E189BD09B400FEFDCF8091CD
:103B1000D8008F7D8093D8008091E00082608093F0
:103B2000E0008091E00081FDFCCF0E94740D49CF40
:103B30002817390709F068CF0E947B198091350456
:103B400090913604892B09F44EC04091C5035091E1
:103B5000C6036091C7037091C8032FB7F894809192
:103B6000BD039091BE03A091BF03B091C0032FBFCE
:103B7000841B950BA60BB70B4091C1035091C20358
:103B80006091C3037091C40384179507A607B70714
:103B900050F10091350410913604C8010E941E03B3
:103BA0009801205E31092830310520F001151105FA
:103BB00009F007C10E94BC0A802F0E94570C109286
:103BC0003604109235041092C5031092C603109269
:103BD000C7031092C8031092C1031092C20310923F
:103BE000C3031092C40380912D04811569F00E94D3
:103BF0005E0B20912E0430912F04821B930B8F3F7C
:103C00009F4710F40E94D70A86E0E1E2F4E0A9851C
:103C1000BA8501900D928A95E1F790902204109157
:103C20002304F0902404E0902504009126041092CF
:103C30002304109224041092250410922604812F4C
:103C40008F29811509F440C08091CB039091CC035A
:103C50000E9469106C0180911F04811509F4BAC09B
:103C6000B5E1CB16D10480F18F3F19F08F5F8093BF
:103C70001F04111559F00E94380791E011160CF03D
:103C80009FEF899F802D112480932304F11459F014
:103C90000E94380791E01F140CF09FEF899F802D40
:103CA00011248093240480912304811569F080906D
:103CB0002404811449F00E942A0780932304882D4C
:103CC0000E942A0780932404802F8E29811509F4ED
:103CD00040C08091C9039091CA030E9469105C01A1
:103CE00080911E04811509F46FC0E1E5AE16B104A0
:103CF00080F18F3F19F08F5F80931E04E11459F01B
:103D00000E94580791E01E140CF09FEF899F802DB0
:103D1000112480932504011559F00E94580791E061
:103D200010160CF09FEF899F802D1124809326049C
:103D300080912504811569F0E0902604E11449F092
:103D40000E942A07809325048E2D0E942A078093C3
:103D5000260480912204891119C0809123048115C1
:103D600011F0181313C020912404211511F02F1104
:103D70000DC090912604911511F0091307C03091E0
:103D80002504311103C0822B892B81110E946A0BFB
:103D900086E0E985FA85A1E2B4E001900D928A956A
:103DA000E1F70E949E07182F8091CD03181709F4A0
:103DB00004CE1093CD030E94F707812F0E94580371
:103DC000FCCD0E94CD0AF8CEFBE0AF16B10408F09E
:103DD00092CFBFCF2BE0C216D10408F047CF74CFEB
:103DE00078941F921FB61F9211248F939F93AF93C5
:103DF000BF938091BD039091BE03A091BF03B0918A
:103E0000C0030196A11DB11D8093BD039093BE0315
:103E1000A093BF03B093C003BF91AF919F918F91C7
:103E20001F901FBE1F9018951F920F920FB60F92F2
:103E300011242F933F934F935F936F937F938F93AF
:103E40009F93AF93BF93EF93FF938091E10082FF25
:103E500009C08091E20082FF05C08091E1008B7F64
:103E60008093E1008091DA0080FF24C08091D80027
:103E700080FF20C08091DA008E7F8093DA008091ED
:103E8000D90080FF9BC080E189BD82E189BD09B472
:103E900000FEFDCF81E08093A30380916603811132
:103EA00009C00E940E090E945D098091E2008460B1
:103EB0008093E2008091E10080FF17C08091E200D2
:103EC00080FF13C08091E2008E7F8093E20080919A
:103ED000E20080618093E2008091D800806280934C
:103EE000D80019BC85E08093A3038091E10084FF92
:103EF00029C08091E20084FF25C080E189BD82E174
:103F000089BD09B400FEFDCF8091D8008F7D8093DC
:103F1000D8008091E1008F7E8093E1008091E200E3
:103F20008F7E8093E2008091E20081608093E200C6
:103F300080916503811509F447C084E08093A30351
:103F40008091A3038091E10083FF27C08091E2006C
:103F500083FF23C08091E100877F8093E10082E0AE
:103F60008093A303109265038091E1008E7F80937C
:103F7000E1008091E2008E7F8093E2008091E20078
:103F800080618093E20042E060E080E00E942D09C1
:103F90008091F00088608093F000FF91EF91BF91D5
:103FA000AF919F918F917F916F915F914F913F91D1
:103FB0002F910F900FBE0F901F90189519BC109263
:103FC000A3031092660376CF8091E30087FF02C0BF
:103FD00083E0B4CF81E0B2CF1F920F920FB60F9261
:103FE0001124EF92FF920F931F932F933F934F93C0
:103FF0005F936F937F938F939F93AF93BF93CF9371
:10400000EF93FF9309EE10E0F8018081C091EC007E
:104010008F70C795CC27C795C82B108280EFE82EEC
:10402000F12CF7018081877F808378940E94B90DFD
:10403000F8011082F701808188608083CF70F801D9
:10404000C083FF91EF91CF91BF91AF919F918F91DD
:104050007F916F915F914F913F912F911F910F91A0
:10406000FF90EF900F900FBE0F901F901895109239
:10407000B9008CE08093B8000895A0E0B0E0E3E4DC
:10408000F0E20C94C121B82EEB010E945E0B6C0192
:10409000EE24E394F12CC431D10560F025E0E22E4A
:1040A000F12CCF3FDC0731F0CE0164E170E00E94DB
:1040B000A6217B0184EAA82E94E8992E1092BC00D8
:1040C000A092BC000E945E0B182F092F8091BC00AB
:1040D00087FF0CC08091B900887F8830F9F080910B
:1040E000B900887F8031D1F00FEF08C0812F902F69
:1040F0000E946910E816F90648F70EEF1FEFCF3F50
:10410000DC07E1F2C6010E946910C817D907B0F6B2
:10411000C801CDB7DEB7EBE00C94DD21B092BB0057
:104120009092BC000E945E0B182F092F8091BC005A
:1041300087FF0AC02091B900287F283111F0203470
:1041400099F600E010E0E4CF812F902F0E946910D3
:10415000E816F90658F7D1CF0F931F93CF93DF934B
:10416000EB018093BB0084E88093BC000E945E0B4F
:10417000182F092F8091BC0087FF11C02091B90032
:10418000287F81E090E0283211F480E090E0919562
:1041900081959109DF91CF911F910F910895CF3FA4
:1041A000DC0741F3812F902F0E946910C817D907AF
:1041B00008F78EEF9FEFEECF0F931F93CF93DF9310
:1041C000EC0184EC8093BC000E945E0B182F092F39
:1041D0008091BC0087FF08C08091BB0090E0DF9118
:1041E000CF911F910F910895CF3FDC0789F3812F65
:1041F000902F0E946910C817D90750F78EEF9FEFD4
:10420000EECF0F931F93CF93DF93EC0184E880935D
:10421000BC000E945E0B182F092F8091BC0087FF05
:1042200008C08091BB0090E0DF91CF911F910F916A
:104230000895CF3FDC0789F3812F902F0E946910EA
:10424000C817D90750F78EEF9FEFEECFA0E0B0E090
:10425000ECE2F1E20C94C221F62E5A016901B80198
:104260000E943D20EC01892B69F4B8018F2D0E943A
:10427000AC20EC017501CA0CDB1CEC14FD0411F040
:10428000209749F084E98093BC00CE01CDB7DEB71A
:10429000EAE00C94DE21B801F70181917F010E94D0
:1042A000AC20EC01EACFA0E0B0E0E9E5F1E20C944B
:1042B000C221B82EA62E7A016901B8010E943D20C4
:1042C000EC01892BB9F4B8018A2D0E94AC20EC01D5
:1042D000892B81F4B8018B2D81600E943D20EC0177
:1042E000A12CB12C81E0C81AD108AC14BD0480F017
:1042F000D7FF1EC084E98093BC00CE011C161D06AA
:1043000014F480E090E0CDB7DEB7EAE00C94DE2153
:10431000D7FDF0CFC8010E94DC20EC0197FD04C05E
:10432000F701EA0DFB1D8083EFEFAE1ABE0ADDCF69
:10433000C8010E940121EC0197FD05C0EC0CFD1C99
:10434000F7018083D7CFCEEFDFEFD4CFAA1BBB1B03
:1043500051E107C0AA1FBB1FA617B70710F0A61B85
:10436000B70B881F991F5A95A9F780959095BC01A6
:10437000CD0108952F923F924F925F926F927F925C
:104380008F929F92AF92BF92CF92DF92EF92FF9265
:104390000F931F93CF93DF93CDB7DEB7CA1BDB0B11
:1043A0000FB6F894DEBF0FBECDBF09942A883988B6
:1043B00048885F846E847D848C849B84AA84B984BD
:1043C000C884DF80EE80FD800C811B81AA81B981C9
:1043D000CE0FD11D0FB6F894DEBF0FBECDBFED01DD
:1043E000089597FB072E16F4009407D077FD09D0A7
:1043F0000E94A62107FC05D03EF4909581959F4F21
:104400000895709561957F4F0895EE0FFF1F0590F9
:10441000F491E02D0994F999FECF92BD81BDF89AEF
:10442000992780B50895A8E1B0E042E050E00C94EF
:104430004F22DC01A40FB51F4150504048F0CB0182
:10444000840F951F2E910E942A2241505040D0F790
:104450000895262FF999FECF92BD81BDF89A019754
:1044600000B4021639F01FBA20BD0FB6F894FA9ABC
:10447000F99A0FBE08950396272F0E942A220E94C0
:104480002922252F0E942A22242F0C942A220196C9
:10449000272F0E942A220C942922DC01CB01FC0147
:1044A000F999FECF06C0F2BDE1BDF89A319600B48D
:1044B0000D9241505040B8F70895FB01DC0104C053
:1044C0008D910190801921F441505040C8F7881B0C
:1044D000990B0895F894FFCF9E0BA60BA90BAF0B79
:1044E000C40BC40BC40BC40BC40BC40BC40BC40B54
:1044F000B20BB70BBB0BC10BD20BD80BDC0B960E60
:10450000BC0EC20EBC0EC20E150F370FC20E3410F9
:104510004110AB13AF13A113A713B313B713BB13FE
:1045200002146A140A14D413D8130E14DC131214D0
:104530001E14E8136314EC132214F01326144B1406
:10454000F4132A145214FA1330143814E013161406
:10455000E4131A14FE13341442145B146114CE13C2
:10456000061471141415141551155115EE150B166A
:0C4570007F157F151016A416B716B7169D
:10457C00BE02AE029E028E027E026E025E024E02EF
:10458C003E022E021E020E02FE01EE01DE01CE01E3
:10459C00BE01AE019E018E017E016E015E014E01D7
:1045AC003E0100006208110A390A400A0101270085
:1045BC002202000022250207000000000000260055
:1045CC00220200002230000700000000000025003D
:1045DC00220200002230020700000000000024002C
:1045EC002202000022270207000000000000230026
:1045FC0022020000222E0007000000000000220012
:10460C00220200002224020700000000000021000A
:10461C0022020000222602070000000000002000F9
:10462C0022020000222F02070000000000001F00E1
:10463C0022020000222F00070000000000001E00D4
:10464C0022020000222E02070000000000001F02C0
:10465C0022FFFF00222302070000000000003100AF
:10466C0022FFFF00222002070000000000003102A0
:10467C0022FFFF00223500070000000000001E0290
:10468C0022FFFF002222020700000000000025028A
:10469C00220100002227000700000000000030006B
:1046AC00220100002226000700000000000030025A
:1046BC002201000022250007000000000000270254
:1046CC0022010000222400070000000000002E0040
:1046DC002201000022230007000000000000240239
:1046EC002201000022220007000000000000260228
:1046FC0022010000222100070000000000002F0210
:10470C0022010000222000070000000000002F0002
:10471C0022010000221F00070000000000002E02F2
:10472C0022010000221E00070000000000002102F0
:10473C0022FFFF0022350207000000000000E2000B
:10474C00E900EA00B500B600B700CD008301CC004B
:10475C008A019201940121022302240225022602DD
:10476C0027022A02B300B4006F0070009F01CB0136
:10477C009F02A002E200E900EA00B500B600B70013
:10478C00CD008301CC008A01920194012102230205
:10479C0024022502260227022A02B300B4006F006D
:0A47AC0070009F01CB019F02A002E4
:00000001FF
