:100000000C94B4020C94D1020C94D1020C94D10241
:100010000C94D1020C94D1020C94D1020C94D10214
:100020000C94D1020C94D1020C94001F0C94D81F94
:100030000C944F0B0C94D1020C94D1020C94D1026D
:100040000C94D1020C94D1020C94D1020C94D102E4
:100050000C94D1020C94DC1E0C94D1020C94D102AD
:100060000C94D1020C94D1020C94D1020C94D102C4
:100070000C94D1020C94D1020C94D1020C94D102B4
:100080000C94D1020C94D1020C94D1020C94D102A4
:100090000C94D1020C94D1020C94D1020C94D10294
:1000A0000C94D1020C94D1020C94D10205010902E6
:1000B000A10185020901A1000509190129081500FE
:1000C0002501950875018102050109300931158165
:1000D000257F95027508810609381581257F9501D0
:1000E00075088106050C0A38021581257F95017572
:1000F000088106C0C005010980A101850319012AF4
:10010000B700150126B700950175108100C0050CD8
:100110000901A101850419012AA002150126A002E6
:10012000950175108100C005010906A1018506052C
:100130000719E029E71500250195087501810205D9
:1001400007190029EF1500250195F07501810205B9
:10015000081901290595057501910295017503910D
:1001600001C005010906A101050719E029E71500ED
:100170002501950875018102950175088101050722
:10018000190029FF150026FF009506750881000556
:10019000081901290515002501950575019102959C
:1001A0000175039101C009023B00020100A0FA0998
:1001B0000400000103010100092111010001224492
:1001C0000007058103080001090401000103000084
:1001D0000009211101000122B60007058203200059
:1001E0000112010002000000080912282301000189
:1001F00002000112034500720067006F0064006F87
:10020000006E006500000012034B002E0054002E0B
:100210000045002E0043002E0000000403090421C5
:10022000022E022F002F0226022402000065002E5B
:100230000027023002300025021E022B0033003658
:1002400000370013001C000000000009000A00062F
:100250000015000F003800290004001200080018E3
:10026000000C000000000007000B00170011001632
:10027000002D00E100340014000D000E001B0039B9
:1002800000737C050010001A0019001D00E500E253
:1002900001E200000031021F020000000000000027
:1002A00000310049000000E600E611000023524C36
:1002B000002A002452E000E300E700E40024522C6E
:1002C0000028002352000035001E001F00200021DE
:1002D0000022000100010023002400250026002741
:1002E000002D00010014001A00080015001700017D
:1002F0000001001C0018000C00120013002F000168
:100300000004001600070009000A00000000000BAE
:10031000000D000E000F003300340001001D001B13
:100320000006001900050001000100110010003650
:1003300000370038000100010001002E00300031BC
:100340000000000000000000005000510052004F6B
:100350000001000000010001000100010001000196
:100360000001000100010001000100010000000186
:100370000001000100010001000100010001000175
:1003800000530054005500560001000100010052C6
:10039000000100010001000100010001005F006098
:1003A000006100570001000100500051004F0001A2
:1003B0000001000000000001005C005D005E00859F
:1003C0000001000100010001000100010001000125
:1003D000000100010059005A005B006700010001A4
:1003E0000001000100010001000000000000000009
:1003F00000620001006300580001000000010001DC
:1004000000010001000100010001000100010001E4
:100410000001000100000001003A003B003C003DEB
:10042000003E00440045003F0040004100420043C0
:1004300000010001000100010001000100010001B4
:1004400000010001000100010001004F0001000156
:1004500000005201520252010001000000000001A0
:1004600000500001000100010001000100407E4138
:100470007E51005200010001000100010001000155
:100480000001000100010001000100010001000164
:100490000000000000000000000100010001000158
:1004A0000001000000010001000100010001000145
:1004B0000001000100010001000100010000000135
:1004C0000001000100010001000100010001000124
:1004D0000053005400550056000100010001004681
:1004E000004700480001000100010001005F0060BA
:1004F000006100570001000100010049004A004B63
:100500000001000000000001005C005D005E00854D
:10051000000100010001004C004D004E00010001EF
:10052000000100010059005A005B00670001000152
:1005300000010001000100010000000000000000B7
:10054000006200010063005800010000000100018A
:100550000001000100010001000100010001000193
:10056000000100010000000011241FBECFEFDAE0FF
:10057000DEBFCDBF12E0A0E0B1E0E4E4F5E402C0EC
:1005800005900D92A035B107D9F723E0A0E5B2E0C0
:1005900001C01D92AE39B207E1F70E94101B0C9406
:1005A0004E220C940000259A2D980895269A2E9894
:1005B0000895239A2B980895559A5D9A0895559A0F
:1005C0005D980895209A28980895CF93DF93D82FA7
:1005D000C92F292F30E048E02115310519F4282FC3
:1005E000392F40E0C90164E0969587956A95E1F757
:1005F000009711F04C5F9C01C901969587959695DF
:100600008795009711F04E5F9C0136952795232B17
:1006100039F4443081F00E94DC02209A289A06C006
:100620004230C9F70E94DC020E94E2028D2F9C2F0B
:10063000DF91CF9108950E94DF02F6CF9C019A9539
:1006400081159F4118F5F901EE27F270832F817013
:10065000B90166277470A9014427587034FF0CC093
:100660008295807FEF2B09F08062672B09F0806410
:10067000452B69F080680895EF2B09F08260672BA5
:1006800009F08460452B19F08860089580E0089592
:100690008295982F990F990F9C7C869586958373E8
:1006A000982B892F880F8A7A96959575892B0895AE
:1006B00080FF08C02D9A81FF07C02E9A82FF06C0D6
:1006C0002B9A08952D98F7CF2E98F8CF2B98089550
:1006D000909355038093540308950E94E5029093EC
:1006E000570380935603089521E030E002C0220FA3
:1006F000331F8A95E2F78091560390915703822B1E
:10070000932B0E946D03089521E030E002C0220F78
:10071000331F8A95E2F7209530958091560390918A
:100720005703822393230E946D030895963098F512
:100730008E3088F5E82FF0E08EE0989FE00DF11DF7
:1007400011248E2F877041E001C0440F8A95EAF78B
:1007500083E0F695E7958A95E1F7EE0FFF1FEE0F20
:10076000FF1FE85FFC4F20E030E070E05191DF01B7
:100770001197CB01022E02C0969587950A94E2F755
:10078000817081958527842385278C932F5F3F4F28
:100790002430310559F70895963078F58E3068F594
:1007A000E82FF0E08EE0989FE00DF11D11249E2FC0
:1007B000977083E0F695E7958A95E1F7EE0FFF1FB6
:1007C000EE0FFF1FE85FFC4F40E050E080E021911A
:1007D00030E0092E02C0369527950A94E2F7217081
:1007E0003327042E01C0220F0A94EAF7822B4F5FB1
:1007F0005F4F4430510559F7089580E00895809186
:100800005D0390915C03981301C008958F5F87701A
:10081000FACF909128019115C1F09091590397FF5B
:1008200014C0E82FE695E695E695803FF8F4F0E0F1
:10083000EE5AFD4F877021E030E001C0220F8A950B
:10084000EAF78281822B82830895A4E5B2E0EFEF7C
:1008500090E02D91821751F0EF3F19F4211101C062
:10086000E92F9F5F9630A9F7EF3F09F408950E2E08
:10087000000CFF0BEE5AFD4FE6CF90912801911529
:10088000E1F09091590397FF18C0E82FE695E6959F
:10089000E695803FF0F4F0E0EE5AFD4F877021E0DE
:1008A00030E0A90102C0440F551F8A95E2F7CA0142
:1008B00080959281892382830895E4E5F2E0919105
:1008C000891303C0DF0111971C9252E0EA35F50746
:1008D000B1F7089590915803809589238093580328
:1008E000282F277021110DC0891759F090915A03B4
:1008F00092FF07C08695869586950E948403109284
:1009000058030895982F90958091510389238093DF
:10091000510308957630B8F46E30A8F48530B0F401
:10092000E62FF0E09EE0799FE00DF11D112494E5A3
:10093000899FE00DF11D1124EE0FFF1FE15EFD4FB9
:1009400085919491089580E090E0089581E0FCCF36
:10095000803E9105D9F1C8F48133910509F482C034
:1009600048F48932910509F472C08A32910509F47C
:1009700080C0089589339105E9F082389105D1F05E
:100980008533910509F45EC00895843E9105D9F13F
:1009900048F4823E910539F1833E910549F181EE9B
:1009A00090E00895863E9105C9F1873E910509F4CE
:1009B0003EC00895209159032370211164C02091F5
:1009C0005A0323FF14C089E290E00895209159034F
:1009D00020FD45C030915A0330FF09C024FD24C0DA
:1009E00083EE90E008952091590322FDF7CF0895FA
:1009F0002091590322FD44C030915A0330FD43C079
:100A000024FFF5CF11C020915A0321FFF0CF809130
:100A1000590384FD09C087EE90E0089520915903A1
:100A200023FFE5CF24FFF7CF80E090E008952091E9
:100A3000590323FD2BC030915A0331FFE1CF84EEDF
:100A400090E008952091590325FFD1CFBCCF20918C
:100A5000590325FD1EC020915A0323FFC8CF89E307
:100A600090E008952091590326FFC1CF8AE290E0DB
:100A700008952091590326FFBACF81E390E00895AD
:100A800082EE90E0089580EE90E0089586EE90E08A
:100A9000089585E390E008959091590392FF10C066
:100AA00041E0282F2471243009F040E031E0282F64
:100AB0002871283009F030E0431711F02CE082272C
:100AC00093FF10C041E0282F2471243109F040E049
:100AD00031E0282F2871283109F030E0431711F058
:100AE0002CE0822730915A0330FF10C051E0282FAC
:100AF0002171213009F050E041E0282F2871283081
:100B000009F040E0541711F029E0822731FF10C0AE
:100B100041E0282F2171213109F040E031E0282FF8
:100B20002871283109F030E0431711F029E08227BD
:100B300094FD877E08951F93CF93DF930E94A804AE
:100B4000EC01811522E5920708F05DC0811540E5B2
:100B5000940708F0DBC0803E910528F58D3C910597
:100B600008F0ACC0883A910578F4853A910508F010
:100B7000A2C08130910509F441C00497813A9105E2
:100B8000E8F1C0E0D0E03AC0885A91094B97C8F725
:100B9000C85AD0E0CC0FDD1FC65EDD4F0990D8816A
:100BA000C02DD4642BC0811550E49507F8F4C1150D
:100BB00080E2D80708F0C3C0C83ED105F8F0CE01E6
:100BC0009A9581159F41E8F68D2F0E944C05182FAC
:100BD000CE0199270E94A804212F30E0322F22272E
:100BE000E901CC27DF71C82BD92B08C099270E94B7
:100BF000A804CC27DF70C82BD92BD06ACE01DF9197
:100C0000CF911F910895803842E59407C8F580364A
:100C100052E5950708F05BC0C03482E5D807D0F4F0
:100C2000C03292E5D90708F04BC08C2F8695869587
:100C300020E2829FC0011124C37021E030E0A901AD
:100C400002C0440F551FCA95E2F7EA01C82BD92B01
:100C5000DD68D4CF8C2F86958695877050E2859F6E
:100C6000C0011124C37021E030E0A90102C0440F8B
:100C7000551FCA95E2F7EA01C82BD92BDC68BECF15
:100C8000803C52E5950758F48F71C03AD245A0F5E3
:100C900090E0982F8827EC01C46FD06AAFCF805CBA
:100CA0009245809708F06DCFDC2FCC27CC27DF71E1
:100CB000C06FD06AA3CFA497D064A0CFD0659ECFD9
:100CC000CF71D0E0DC2FCC27C16FD06A97CF86954B
:100CD0008695877020E2829FC0011124C37021E0B5
:100CE00030E0A90102C0440F551FCA95E2F7EA019E
:100CF000C82BD92BDA6882CF0E944C05C82FD0E0D0
:100D0000DC2FCC27CC27DF71D06278CF8F710E9487
:100D10004C0565E0D695C7956A95E1F7CF70D0E0B0
:100D2000DC2FCC27282F30E084FF05C054E0220FB1
:100D3000331F5A95E1F7C22BD32BD0695FCF8D2F8C
:100D40008F710E944C05182FCE0199270E94A8048C
:100D5000212F30E0322F222722273F71282B392BD9
:100D6000E901D2CFA0E0B0E0E8EBF6E00C94A721D7
:100D70008C01E0905603F0905703809154039091BA
:100D80005503E82AF92ACFE0D0E0CC24C394D12C33
:100D9000C6010C2E02C0880F991F0A94E2F78E211B
:100DA0009F21892B49F4219798F7B12C8B2DCDB732
:100DB000DEB7E9E00C94C321BC2EB8018C2F0E9451
:100DC0008A040E949B05019771F3F0CF0F931F9344
:100DD000CF93FC01858100811181811591F061150E
:100DE00081F0C8010E94B206C82F682FC8010E9476
:100DF0009603B8018C2F0E948A04CF911F910F9106
:100E00000895C8010E94CC03C82FF3CFCF93DF937E
:100E1000D82FC92F0E94B2066D2F7C2F0E948A0402
:100E20000E949B05DF91CF910895FC01848181157B
:100E3000A1F0808191810E940607282F92959F70D2
:100E4000963099F060F4925F9F70923030F4203FBA
:100E500089F038F481E0283E38F080E008959A5F08
:100E6000F3CF81E0243FC9F7089581E0283E20F0C8
:100E7000213FF9CF81E00895089580E00895282F5B
:100E800035EB2303C001112497FF04C0805891095A
:100E9000892F089580589F4FFBCF8091360380FDA6
:100EA00014C081FD14C082FD16C0809135038115E8
:100EB00081F08E3180F420E5829FC00111246EE123
:100EC00070E00E94D521862F089584E1089588E27C
:100ED000089588E0089580E508958091360380FDA7
:100EE00017C081FD17C082FD19C0809134038115A0
:100EF00099F0883298F428E0829FC001112468E2BA
:100F000070E00E94D5216115710551F0862F08957A
:100F100062E0FCCF64E0FACF61E0F8CF68E0F6CFA2
:100F200081E00895FC018581862381110AC08281B8
:100F30008115B9F06823918593FF05C081E06111A7
:100F40000FC080E00895282F22952F708F70282BD6
:100F5000962F92959F706F70962B81E02913F1CF99
:100F6000089581E00895E091E602F091E70230975C
:100F700029F00190F081E02D0995089580E0089511
:100F8000A3E0B0E0E6ECF7E00C94AE219C01809188
:100F9000A8029091A90282179307A1F03093A902A9
:100FA0002093A802E091E602F091E702309751F019
:100FB00083E089833B832A830680F781E02DCE017D
:100FC000019609952396E2E00C94CA21A3E0B0E0D3
:100FD000ECEEF7E00C94AE219C018091A60290917A
:100FE000A70282179307A1F03093A7022093A602CD
:100FF000E091E602F091E702309751F084E08983B6
:101000003B832A830680F781E02DCE010196099566
:101010002396E2E00C94CA212FB7F8946091D30292
:101020007091D4028091D5029091D6022FBF08957D
:101030000F931F93CF93DF93D82FC92F409149036C
:1010400050914A0360914B0370914C032FB7F89471
:101050008091D3029091D402A091D502B091D60292
:101060002FBF841B950BA60BB70B843F9140A105A6
:10107000B10528F56091490370914A0380914B03B3
:1010800090914C0304EF11E020E030E06093DB022C
:101090007093DC028093DD029093DE020093D7020E
:1010A0001093D8022093D9023093DA02D0934703E9
:1010B000C0934803DF91CF911F910F9108950E9433
:1010C0000C0802E310E020E030E0E0CF87E797E78C
:1010D000909301088093000888E19AE00FB6F89495
:1010E000A895809360000FBE90936000FFCF809121
:1010F000A5020895FC019B018091830290918402D6
:101100008617970740F0672B29F48091E8008E77C7
:101110008093E800C90140E0009741F4411106C006
:101120008091E80082FF2FC080E008952091B902ED
:101130002115A9F12530A9F12091E80023FD2DC04A
:101140002091E80022FDECCF2091E80020FFE4CFC1
:101150003091F3002091F200009719F0283031050A
:1011600058F041E02830310509F040E02091E800D6
:101170002E772093E800D0CF41914093F100019762
:101180002F5F3F4FE9CF8091B902811541F0853043
:1011900041F08091E80083FFC3CF81E0089582E0B1
:1011A000089583E0089580917D0287FF13C08091A8
:1011B000E80082FF06C08091E8008B778093E8000A
:1011C00008958091B9028111F2CF08958091B902FA
:1011D0008115D9F38091E80080FFF8CF8091E80075
:1011E0008E77ECCF2091E4003091E50095E6A901DF
:1011F0008091EC008170811531F08091E80080FFD2
:1012000006C080E008952091E80022FD1AC0809178
:10121000B902811589F0853089F08091EB0085FD58
:101220000FC02091E4003091E5004217530701F30D
:101230009A95E9F684E0089582E0089583E00895A0
:1012400081E00895E8EDF0E080818E7F8083109248
:10125000E2001092DA001092E100A0EEB0E08C9172
:1012600081608C9380818F77808319BCA7EDB0E07B
:101270008C918E7F8C9380818F7E808310927C02F4
:101280000895982F9093E900242F762F50E0981717
:1012900031F07091EC002091ED005091F00021FDB3
:1012A00006C09F5F973071F78093E90008953091F1
:1012B000EB003E7F3093EB003091ED003D7F3093AB
:1012C000ED003091EB0031603093EB007093EC0057
:1012D0002093ED005093F0002091EE0027FDE1CF28
:1012E0000895A0E0B0E0E7E7F9E00C94A821C8ED8C
:1012F000D0E088818F7E8883E7EDF0E08081816097
:10130000808384E082BF81E080937C0288818E7F2D
:10131000888302EE10E0F80110821092DA0081EE6C
:10132000C82ED12CF601108288818F77888388811E
:101330008068888388818F7D888319BC1092B90268
:1013400010927B021092B80210927A0290EEE92E6F
:10135000F12CF70180818B7F808388818160888375
:1013600042E060E080E00E944109F60180818E7FCA
:101370008083F801808181608083808188608083A0
:10138000F70180818E7F8083888180618883CDB7DB
:10139000DEB7E8E00C94C421E0915D0390915C031A
:1013A00027E0E91302C080E00895AE2FB0E02E9F41
:1013B000F0011124E25AFC4F3181361306C030810E
:1013C000381303C03581341304C0FD013196E77032
:1013D000E8CF81E008950F931F93CF93DF938B01A4
:1013E000EA019091B902943059F58093E9008FEFAA
:1013F0009091E80095FD06C095ED9A95F1F70000F3
:101400008A95B1F78091E80085FF1AC00E94F20822
:10141000811111C08091E80085FD06C08091E8002F
:101420008E778093E800F2CFF80181918F0180934D
:10143000F100219779F78091E8008E778093E8009A
:10144000DF91CF911F910F910895CF93DF93D82F04
:10145000C92F80912801811113C048E050E06D2F01
:10146000792F81E00E94EB0980E2ED2FFC2FA5E8A7
:10147000B2E001900D928A95E1F7DF91CF91089546
:101480008091590387FD06C048E081E050E06D2F50
:101490007C2FE8CF40E282E0F9CFBC0146E050E08B
:1014A00082E00E94EB090895BC0143E050E082E035
:1014B0000E94EB09089590915A0392FB222720F98C
:1014C000281779F080FB92F990935A0360915903A1
:1014D00070915A0384E090E00E942B2282E00E94E7
:1014E0006A040895CF938091510390915B03892BF7
:1014F00080935202909152039115D9F0892B8093D9
:10150000520280912801811521F08091590387FDB5
:1015100049C086E0815090E024E532E0F901408145
:101520002F5F3F4F41119F5F8150C0F79111109283
:101530005203C0914303C09580915202C823809109
:101540004203C82BC093520240E250E068EE72E0C2
:1015500082E592E00E944122892B11F180E2E2E5CE
:10156000F2E0A8EEB2E001900D928A95E1F7E091E9
:10157000E602F091E702309799F0809128018115F9
:1015800049F08091590387FF05C0C093530286E05C
:10159000809352020280F381E02D82E592E009956A
:1015A000CF9108958EE1B6CF811539F09091510316
:1015B000892B809351030E94720A0895811521F0AE
:1015C0000E9482040E94720A0895811539F0909158
:1015D0005B03892B80935B030E94720A08958091BC
:1015E0003F03811549F080915B038D7D80935B0300
:1015F0000E94720A10923F030895A1E0B0E0E3E078
:10160000FBE00C94AB21F82E698304E610E021E0A6
:1016100030E0AE014F5F5F4F682F80E40E941021E1
:10162000892B71F46CE06F0D21E030E0AE014F5F6B
:101630005F4F80E40E9410219C0181E0232B09F080
:1016400080E02196E5E00C94C721CF936FEF80E016
:101650000E94FD0AC1E0982F9C2780919D03890F6D
:1016600080939D036FEF81E00E94FD0A982F9C27D5
:1016700080919D03890F80939D03CF910895809160
:101680009D0381110BC06FEF81E00E94FD0A91E084
:10169000982780919D03890F80939D0308951F9241
:1016A0001FB61F9211248F939F93AF93BF93809186
:1016B000B702811113C08091D3029091D402A091FE
:1016C000D502B091D6024196A11DB11D8093D302DF
:1016D0009093D402A093D502B093D602BF91AF915C
:1016E0009F918F911F901FBE1F9018952FB7F89450
:1016F0008091D3029091D402A091D502B091D602EC
:101700002FBF08950E94760B2091390330913A0340
:10171000232B211521F08093E1029093E202209186
:101720003B0330913C03232B211521F08093DF02F2
:101730009093E002E091E602F091E702309749F0E1
:1017400082E0809337030480F581E02D87E393E006
:1017500009950895611509F44BC0E3E3E80FE331FF
:1017600050F4F0E0E05BFD4D0C94E9210E944D0740
:10177000819580933A030E94820B08950E944D0741
:10178000F8CF0E944D07819580933903F4CF0E94D2
:101790004D07FACF0E946D0780933B03ECCF0E9468
:1017A0006D078195F9CF0E946D07819580933C0369
:1017B000E2CF0E946D07FACF815D990B21E030E006
:1017C00001C0220F8A95EAF780913803822B80931B
:1017D0003803D1CF80913603816080933603CBCF1D
:1017E000809136038260F9CF809136038460F5CF13
:1017F000409139038D3C59F480913A0387FF0DC025
:1018000010923A03411559F41092350308C08E3CEA
:1018100081F480913A0318169CF3411581F0809170
:101820003B0390913C03892B8111A5CF1092340387
:10183000A2CF8F3C41F447FFF0CF10923903809143
:101840003A038115E0CF803D19F41416B4F3E5CFC7
:1018500090913B03893D29F41916FCF610923B0345
:10186000DCCF8A3D19F497FFD8CFF8CF90913C0395
:101870008B3D29F497FFD1CF10923C03CECF8C3D06
:1018800019F41916CCF3C9CF9FE2980F983090F451
:10189000815D990B21E030E0B90102C0660F771F2E
:1018A0008A95E2F7CB018095909138038923809344
:1018B0003803B3CF8D3D31F4809136038E7F809312
:1018C0003603ABCF8E3D21F4809136038D7FF7CF69
:1018D0008F3D09F0A2CF809136038B7FF0CFCF935D
:1018E000C82F8115B9F18CEF8C0F813AA8F5809142
:1018F0002801811501F18091590387FF1CC0EC2F4D
:10190000E695E695E695F0E0EE5AFD4F828190E08F
:101910004C2F477021E030E002C0220F331F4A9560
:10192000E2F782239323892B81F08C2F0E943D04C0
:101930000E94720A0AC0E4E5F2E08AE592E0219191
:10194000C21799F38E179F07D1F78C2F0E940904B5
:101950000E94720ACF91089580E28C0F883068F45B
:10196000C77081E090E001C0880FCA95EAF7C09186
:101970005103C82BC0935103EBCF8BE58C0F833001
:1019800038F42C2F2452330BC9010E94C007E2CF38
:10199000E8E5EC0FEB3150F4F0E0EE0FFF1FE65EF0
:1019A000FD4F808191810E94E607D4CF83E38C0FA5
:1019B000833180F661E08C2F0E94AA0BCBCF81157A
:1019C00081F19CEF980F913A28F40E943D040E9407
:1019D000720A089590E2980F983050F4877091E061
:1019E00001C0990F8A95EAF7892F0E948204EFCFF0
:1019F0009BE5980F933028F480E090E00E94C007A8
:101A0000089598E5980F9B3128F480E090E00E94BB
:101A1000E607089593E3980F933118F460E00E946D
:101A2000AA0B08951F93CF93DF93182FEB010E9409
:101A30006F0C209739F4812F0E94DF0CDF91CF913A
:101A40001F9108958FE99FE00197F1F700C0000012
:101A50002197EFCF1F93CF93DF93182FA0914503CA
:101A6000B0914603109709F44AC0109248031092AF
:101A7000470310924303109242031796CD91DC91D5
:101A80001897CE019A9581159F4108F4D07ED1E038
:101A9000C11101C0D0E01A96ED91FC911B973097CF
:101AA00031F01C966D917C9180E00995D823D11579
:101AB00039F08CEF8C0F813A30F58C2F0E943D0469
:101AC0001115A9F0E0914503F0914603818584FD4D
:101AD0000EC080914403811551F0808191819C0159
:101AE000215031092F333E4710F40E9418080E94FC
:101AF000720A109246031092450310924403DF913C
:101B0000CF911F9108950E94720A8C2F0E94DF0CC2
:101B1000D7CF1092510380912801E4E5F2E08115BE
:101B200029F18091590387FF21C08EE1DF011D92C9
:101B30008A95E9F780E090E00E94C00780E090E09D
:101B40000E94E60710925B030E94720A86E0E7E3B8
:101B5000F3E0DF011D928A95E9F7109235031092A8
:101B60003403109236030E94820B089586E0DECF84
:101B70000E94890D2FEF84E39CE02150804090402B
:101B8000E1F700C0000088E19AE00FB6F894A8954C
:101B9000809360000FBE90936000FFCFAAE2B0E098
:101BA000E4EDFDE00C94AD218DE792E0FC0101969F
:101BB0002091F100208322E085389207B9F78091C7
:101BC0007E02893009F456C0C8F4823009F4B2C0EC
:101BD000833009F481C0813071F18091E80083FF86
:101BE000E7C080917D0290917E029A3008F0E0C0BB
:101BF000E92FF0E0ED59FD4D0C94E9218A3009F40C
:101C000088C08B3051F780917D02813231F780910D
:101C1000810290918202892B01F78091E800877FF1
:101C20008093E8000E94D30880917F02809328016E
:101C30000E94890DD2CF80917D02813A71F6809108
:101C4000E800877F8093E800809181029091820272
:101C5000892B61F060E080E090E070E00E947A08FB
:101C60008091E8008B778093E800B7CF60E285E849
:101C700092E0F3CF80917D02813209F0AECF809166
:101C8000810290918202029708F0A7CF8091E8002C
:101C9000877F8093E8008091E80082FF18C09091D0
:101CA000F3008091F200029731F48091F1008130CD
:101CB00011F0863021F48091F1008093A50280918B
:101CC000E8008B778093E8000E94D30886CF80914C
:101CD000B9028111E0CF81CF80917D02813A09F074
:101CE0007CCF8091810290918202892B09F075CF7F
:101CF0008091E800877F8093E8008091E80080FF72
:101D0000FCCF809128018093F1008091E8008E77CC
:101D1000D9CF80917D02813209F05FCF8091E800B8
:101D2000877F8093E8000E94D3088091800280938F
:101D3000790253CF80917D02813A09F04ECF809194
:101D4000E800877F8093E8008091E80080FFFCCF67
:101D500080917902D8CF803889F0823849F5809116
:101D600081028F70873020F58093E9008091EB002D
:101D700085FB882780F91092E90007C09091B8028E
:101D80009195927080917A02892B9091E800977FCB
:101D90009093E8008093F1001092F1008091E800A8
:101DA0008E7723C0811116C080917F02813011F19E
:101DB0008091E80083FF0AC08091E800877F8093CC
:101DC000E8008091EB0080628093EB00AA96E3E04C
:101DD0000C94C921823061F780917F02811589F0CE
:101DE0001092E9008091E800877F8093E8000E94CC
:101DF000D308DECF81E0933009F080E08093B80211
:101E0000EFCF809181028F702FEF280F263080F660
:101E10008093E9002091EB0020FFE2CF933031F472
:101E20008091EB0080628093EB00DACF9091EB0021
:101E300090619093EB0021E030E0A90102C0440FD3
:101E4000551F8A95E2F74093EA001092EA008091CC
:101E5000EB008860E8CF8111ABCF10917F021F7734
:101E60008091E3008078812B8093E3008091E800EB
:101E7000877F8093E8000E94D3088091E80080FF6C
:101E8000FCCF8091E30080688093E30083E0111130
:101E900001C082E08093B9028BCF8058823008F075
:101EA00087CF40917F02509180024C3D83E05807DC
:101EB00099F583E08A838AE289834FB7F894DE013B
:101EC000139620E03EE051E2E32FF0E050935700FC
:101ED000849120FF03C082958F703F5F8F708A309E
:101EE000C8F0895C90E08D939D932F5F243161F75A
:101EF0004FBF8091E800877F8093E8006AE270E03E
:101F0000CE0101960E947A088091E8008B77809339
:101F1000E8004ECF805DE6CF2091810230918202B1
:101F2000852F99278330910509F160F4813091055F
:101F300009F472C0029709F03BCF8BE390E0E6EA28
:101F4000F1E029C08132910509F45AC0829709F065
:101F50002FCF2115310509F469C02130310509F071
:101F600027CF86EB90E0ECEAF0E015C0CA01992794
:101F70004130B1F18230910509F43AC0892B09F062
:101F800017CFEBE1F2E0E4918E2F90E0EBE1F2E08D
:101F9000009709F40DCF2091E800277F2093E800F7
:101FA00020918302309184028217930708F49C01E8
:101FB00040E02115310509F03EC041113CC080913F
:101FC000E80082FDA1CF8091B902811509F49CCF70
:101FD000853009F499CF8091E80083FFF0CF94CF4A
:101FE000E7E0F2E0E4918E2F90E0E7E0F2E0D0CF7E
:101FF000E3EFF1E0E4918E2F90E0E3EFF1E0C8CF62
:102000002115310571F02130310509F0D1CE89E07B
:1020100090E0E1EDF1E0BFCF82E190E0E1EEF1E0B0
:10202000BACF89E090E0E8EBF1E0B5CF84E490E04E
:10203000E2E6F1E0B0CF8091B902811509F464CFF6
:10204000853009F461CF8091E80083FD5DCF8091F8
:10205000E80082FDB4CF8091E80080FFAACF909184
:10206000F3008091F2002115310519F088309105B7
:1020700050F041E0089709F040E08091E8008E7749
:102080008093E80096CF44914093F100319621501F
:1020900031090196E8CF803809F08ACE8091E800B6
:1020A000877F8093E80080917B028093F10076CE59
:1020B00081117ECE10917F02123008F079CE80918E
:1020C000E800877F8093E80010937B020E94D3088A
:1020D000111581F084E08093B90242E061EC81E067
:1020E0000E94410942E261EC82E00E944109809134
:1020F000B9025ECE8091E30087FDECCF81E0EBCFAB
:102100009C014FB7F8948091D3029091D402A09192
:10211000D502B091D6024FBF821B930B0895FF9258
:102120000F931F93CF93DF93C62FD42F122F8115B8
:10213000A9F060934F030E94760B909378028093EE
:102140007702C77081E001C0880FCA95EAF70E9444
:10215000D40ACDB7DEB7E5E00C94C72180914F03D8
:10216000681332C080917702909178020E948010AB
:10217000883C910548F500E20D0FCD17A9F0C77016
:10218000FF24F3948F2D01C0880FCA95EAF70E94AF
:10219000DE0A083048F48D2F877001C0FF0C8A9545
:1021A000EAF78F2D0E94D40A60E070E0812F0E9430
:1021B000120D083070F6D77081E001C0880FDA95F3
:1021C000EAF70E94DE0AC5CFC77081E001C0880F20
:1021D000CA95EAF7F6CFA0E0B0E0E1EFF0E10C94A9
:1021E0009E218C01DC0114968C91811571F161E0C6
:1021F000C8010E94E606EC018034BEE79B0751F15E
:102200008134EEE79E0709F471C083379C4759F586
:10221000D80115968C91811539F080913F03811575
:1022200009F46FC00E94EF0A8091580387708115EE
:1022300061F0D80115968C91811539F080915A037F
:1022400082FF03C082E00E946A04CDB7DEB7E2E1FC
:102250000C94BA21D80115968C91811509F443C0CC
:1022600081E080933E03E0905103F090520380910F
:102270003F03811509F480C00E94760B88579C4E5D
:102280009093410380934003F8018581811509F4FF
:1022900073C08F2D8E298D798111A3C0C115F0E5F2
:1022A000DF0708F041C0C11520E4D20708F09EC046
:1022B000C63ED10509F460C0CE019052811590420E
:1022C00008F09BC0D80116968C91803108F47EC02E
:1022D000CE01992710925B038D329105B1F582E012
:1022E00080935B038EC010923E03BDCFF8018581C1
:1022F000811521F081E080933D03B5CF10923D031D
:10230000B2CF109251038091520381111092520367
:102310000E94760B88579C4E909341038093400314
:1023200081E080933F0380CFC43BB2E5DB0721F11E
:1023300008F03FC0C034F2E5DF07C0F4C11522E564
:10234000D207D0F410925B03CE018E32910508F0D3
:102350005BC08832910508F052C08E31910508F0BB
:1023600050C004974A9708F4BACF3BC0CE018056BC
:1023700092458034910530F7F8014580411409F405
:102380004DC0CE35FCE7DF0709F444C0CF352CE75C
:10239000D20749F0CD353CE7D30709F03FC0809123
:1023A00029018115B9F11092290180E00E942A0DBE
:1023B0003BCFC03E32E5D30720F4C03C82E5D807CE
:1023C000C0CFCE0187579C470297D5CF8D2F8F71F5
:1023D000843191F248F48D2F8F70823011F4109275
:1023E0005B030E94EF0AC8CF8631F8CFD80116965A
:1023F0008C91803108F06CCFBFCFCE016BCF8A9724
:1024000081F70E94720AB8CF8C349105D1F38D32D6
:102410009240F6CF81E08093290106CF8091290177
:1024200081110EC0D80115968C91FE01E851FC4730
:10243000E730F10508F094C0E359FD4D0C94E92113
:102440004E01B0EE8B1A91085090530380915103C6
:10245000582A80915203582AE8E08E16910408F019
:1024600052C09E012770332781E090E001C0880FA1
:102470002A95EAF7411409F443C0582AD8018D91EE
:102480009C910E94CC0321E030E0390102C0660C2F
:10249000771C8A95E2F7A0904503B0904603312C53
:1024A000E32DF0E0EE0FFF1FE050FF4FE080F180E2
:1024B000E114F10409F440C0511004C0F701828115
:1024C00081111CC0D70113968D919C911497862180
:1024D0009721892B99F019968C91982F97709111CB
:1024E00001C087E0B8E08B16910408F06FC041147A
:1024F00009F468C08695817081116DC03394D0CF86
:1025000080955822BBCF41104AC080914D039091D5
:102510004E03C817D90781F410924E0310924D0351
:102520001092490310924A0310924B0310924C03ED
:1025300010924803109247038091450390914603FF
:10254000009709F46FCFA8E08A16910408F0DEC066
:10255000652D0E949207811103C081E00E942A0D1F
:10256000F8018581811509F4C1C110924F03CE0194
:102570009057839708F076C484E090E00E94F7219A
:1025800090935A0380935903FE01E150F047E232E1
:10259000F10508F0EFC0EC58FD4D0C94E921D09303
:1025A0004E03C0934D030E940C086093490370933F
:1025B0004A0380934B0390934C031092480310926C
:1025C00047035CCF82FB882780F996CF411409F43A
:1025D00095CF80FF93CFF701C080D180CC15DD056A
:1025E00019F4411409F48ACFEA14FB0409F486CFE4
:1025F000D7011E96ED91FC91309721F080818115D5
:1026000009F47CCF652DC7010E949207811509F45A
:1026100075CF212CCC15DD0509F4242CC114D1046F
:1026200051F0211008C080914D0390914E03C816BF
:10263000D90609F063CF80E00E942A0DF09246038C
:10264000E092450381E080934403F7018681809303
:10265000430321100CC0CD2851F0808191819C0151
:1026600024503109213A3105A8F50E943D04D701D3
:102670001796CD90DC90C6019A9581159F4110F474
:10268000E0EEDE22BB24B394C60101978F339E4750
:1026900008F0B12CD7011A96ED91FC911B97309759
:1026A00031F01C966D917C9181E00995B822B114AE
:1026B00071F0F701878190850E941E038093420389
:1026C000C601F8E08F16910440F40E9418080E9499
:1026D000720A0AC00E94DF0CCACF0497813A9105A2
:1026E00048F48C2D0E940904211409F49BCE0E9409
:1026F000720A9ACD0E94720A8FE39CE90197F1F762
:1027000000C000008C2D0E946F0CEECFFC012081D8
:102710003181C217D30741F4411009C0109244031C
:1027200080E00E942A0D7ECE411409F47BCEDC01AC
:1027300019968C9185FD76CEF3CF26E241EE61EEBF
:102740000E948F1071CD27E245EE65EEF9CF26E2AB
:1027500041EE60EEF5CF27E245EE64EEF1CF26E2E2
:1027600041EE62EEEDCF27E245EE66EEE9CF28E2DC
:1027700041E0EBCF809159038160809359036091D0
:10278000590370915A0384E090E00E942B220E942A
:10279000890D4ACD80915A03886080935A03EFCF08
:1027A000809159038260E9CF809159038460E5CF1D
:1027B000809159038860E1CF80915A038160EDCF09
:1027C00080915A038260E9CF809159038061D5CF0F
:1027D000809159038062D1CF809159038064CDCF1D
:1027E0000E94890D809159038068C7CF8091590359
:1027F0008C60C3CF80915A038360CFCF80915903FF
:102800008E7FBBCF80915A03877FC7CF80915903BA
:102810008D7FB3CF809159038B7FAFCF80915903C8
:10282000877FABCF80915A038E7FB7CF80915A03B9
:102830008D7FB3CF809159038F7E9FCF80915903B5
:102840008F7D9BCF809159038F7B97CF0E94890DFD
:10285000809159038F7791CF80915903837F8DCFDA
:1028600080915A038C7F99CF8091590382FB9927DD
:1028700090F921E0922790FB82F990FB83F97DCFBC
:1028800080915A03982F909590FB80F990FB81F9E5
:1028900084CF90915903892F8F7B96FF80646DCFF1
:1028A0000E94890D90915903892F97FB87F98058D1
:1028B00064CF61E08EE090E00E940D2260CF60E086
:1028C000F9CF90915903892F8F7E94FF806155CF66
:1028D00090915903892F8E7F90FF81604ECF909108
:1028E0005A03892F877F93FF886057CFC631DC4713
:1028F00019F580915003811108C089E20E943D04BE
:10290000F6CE85E30E940904F2CE85E3F7CFCA35FF
:102910002CE7D20709F486C008F05DC0C1308CE70F
:10292000D80709F47DC0C3309CE7D90709F472C009
:10293000C115DC4709F461C0F8018581E080F180B0
:10294000811509F473C0C7010E94B206C82F682F11
:10295000C7010E949603B7018C2F0E948A040E942F
:102960009B05D82FC92FD8011596DC901597169680
:10297000CC90C2942FE0C2228091580387708115B9
:10298000F1F0ED2CD114E1F0892F807F803451F0EB
:1029900080E28D0F883098F0C11004C0892F807EAE
:1029A000803269F080915A0382FF09C082E00E9460
:1029B0006A04809158038770EE24E3948111E12C1E
:1029C000EC2FE295EF70C03C08F09BC0F0E0EA56B7
:1029D000FD4D0C94E921CB35BCE7DB0729F1CC3563
:1029E000DC4709F0A9CF80915A0382FB882780F940
:1029F00091E089270E945B0A9FCF0E94890DFFEF1B
:102A000024E33CE0F15020403040E1F700C00000FA
:102A10000E9466086FEF7FEF80E090E00E942B221B
:102A20000E94B80D81E0E6CF80E0E4CFC7010E94AC
:102A3000CC03C82F90CFBC2FBF70FB2EC03118F035
:102A4000F29490EFF922D114B9F0F11469F080E218
:102A50008D0F883010F0D11109C0809151038F295A
:102A6000809351030E94720A8D2F43C080915B03B3
:102A70008F2980935B03F6CF8D2F0E94DF0CF1141A
:102A800009F43FC080E28D0F883010F0D11104C0EE
:102A90008F2D0E94820406C0F09480915B038F21E9
:102AA00080935B030E94720A2CC0EC2FEF70FE2E05
:102AB000C07FC03219F0F29480EFF822D11549F0AE
:102AC000D13009F46CC0D11409F478C0C114D1F12B
:102AD000CBCF80915A0382FD31C0D11469F0F1143B
:102AE00039F0809151038F29809351030E94720A1B
:102AF00080E00E946F0C05C080E00E94DF0CF110A6
:102B0000C7CFE114B1F08091580380FD12C0D80105
:102B100015961C928695869586950E947403C80129
:102B20000E94EB10809158038695869586950E94A9
:102B3000840360E0C8010E94E60687CBD11499F0B7
:102B4000C11004C08F2D0E94D40ADBCFF1E0CF1258
:102B5000D8CF809152039F2D9823F91691F28F2997
:102B600080935203CECFC110CCCF8F2D0E94DE0AAE
:102B7000909152038F2D8923811529F08F2D8095F7
:102B8000892380935203809153039F2D982391159D
:102B900009F4B7CFF094F822F0925303B2CFD114D6
:102BA00029F026E0C21608F0ACCFCCCF35E0C31632
:102BB00008F0A7CF8F2D0E94DE0AA3CFC114D1F356
:102BC000D93349F48FEF97EEA3E081509040A040B5
:102BD000E1F700C000008D2F0E94DF0C92CF8C2FF8
:102BE000869586958370811569F0813009F089CFCB
:102BF0008D2F9C2F9370D11002C080E090E00E9436
:102C0000E6077FCF8D2F9C2F9370D11002C080E0FC
:102C100090E00E94C00775CF6D2D8D2F0E94AA0BEA
:102C200070CF8C2F8370811144C0D1102FC04D2FD5
:102C3000429546954770440F440F2D2F2F7030E07A
:102C4000042E02C0220F331F0A94E2F780E090E0C6
:102C5000D4FF09C08FE090E002C0880F991F4A9509
:102C6000E2F780959095C695C695C370C230C1F0C5
:102C7000C33099F04091540350915503C13059F03D
:102C8000822B932B842395230E9468030E94B30711
:102C90000E94580336CF242B352B822B932BF4CF55
:102CA000822B932B20915403309155038227932735
:102CB000EBCFD11491F1C0FFE9CF4D2F429546954E
:102CC0004770440F440F2D2F2F7030E0042E02C0A8
:102CD000220F331F0A94E2F780E090E0D4FF09C08E
:102CE0008FE090E002C0880F991F4A95E2F7809527
:102CF0009095C695C695C370C230C1F0C33099F0A7
:102D00004091560350915703C13059F0822B932BB9
:102D1000842395230E946D03B9CF823008F4B6CF87
:102D2000CCCF242B352B822B932BF4CF822B932BC0
:102D3000209156033091570382279327EBCFCF7012
:102D4000D11439F08C2F0E9474038D2F0E94D40A65
:102D50009DCF8D2F0E94DE0A8C2F0E94840396CF78
:102D6000D23FB1F170F4D03FC9F0D13F91F0D1140E
:102D700009F464C0C11409F45EC08D2F0E946F0C69
:102D800085CFD33F61F1D43F91F780915A0382FD03
:102D900034C08C2F8F71D11401F31EC0D114A9F04F
:102DA000B5E0CB1608F072CFCF7181E090E0FC0166
:102DB00002C0EE0FFF1FCA95E2F7EF0180915603A4
:102DC000909157038E279D27A5CFF6E0CF16EACF27
:102DD0008C2F8F71D110C1CF0E94740357CF80E028
:102DE00090E0D11409F496CFCF7181E090E002C059
:102DF000880F991FCA95E2F78DCFD11489F0CF7152
:102E00008C2F0E94740380915A0382FF07C08C2F7D
:102E1000880F880F880F8360809358038C2FDCCF36
:102E200081E00E946A0422E0C21608F42FCF82E0FB
:102E30000E946A042BCF8C2F8F71CECFC11479F0F2
:102E4000D93349F43FEF87EE93E031508040904012
:102E5000E1F700C000008D2F0E94DF0C17CF8C2FF0
:102E60008F717BCFC631BCE7DB0709F050CD809175
:102E700051038A7A91E0811101C090E09093500350
:102E800081113FCD89E23ECD80919C03803178F461
:102E900080919B03811559F0E0915D0320915C03C3
:102EA000309197034091960357E02E1301C0089587
:102EB0006E2F70E05E9FF0011124DF01A25ABC4F1B
:102EC00014968C911497811561F111968C9111973C
:102ED000831327C08C91841324C015968C91159769
:102EE00081111FC012968D919C91A0919803B09171
:102EF00099038A1B9B0B883C910598F480919C0355
:102F00008F70806180939C03EC59FC4F80818F709F
:102F10008061808386E993E00E94EB100E94FF03AA
:102F20000895FB013196E770C0CFADE0B0E0EBE96A
:102F3000F7E10C94A3218C0186E0F801DE011896DC
:102F400001900D928A95E1F7F801E080F580A2806A
:102F5000B380C48086E9882E83E0982E70909A030F
:102F6000711020C0C114D9F0F11409F419C1C801BD
:102F70000E941507811509F413C187E0F801D401F7
:102F800001900D928A95E1F7F1E0CF1206C0809191
:102F90009603909197030E9406070E944417FF240E
:102FA000F39451C0D0909B03809198039091990322
:102FB0009501281B390BD11409F4BAC0283C3105FE
:102FC00008F090C0C11459F390919703C18080918B
:102FD0009C03803108F058C0C91214C09091960328
:102FE0009E1110C0F1104AC08F70806180939C03C5
:102FF00086E993E00E94EB1080919C03F8018683A0
:10300000F12C21C0F1103AC040E06C2D8E2D0E94B1
:10301000CC0940E06C2D8E2D0E94CC09F82E811138
:10302000EFCF888599850E940607292F22952F705A
:10303000903470F49F702230A0F09115B1F0F80137
:103040009681903190F48F2D2D96EDE00C94BF2158
:103050002A5F2F70223068F0C8010E94EB10FD2C0F
:10306000F2CF911511F0811571F3805E883058F31D
:10307000F3CF803F40F3815F8330F9CF80919C0391
:10308000816080939C03BCCFC91207C090919603C6
:103090009E1103C0F11409F46CC0C8010E94150709
:1030A000811509F47DC0F11409F47AC080919C0364
:1030B000803278F020919603309197033A832983E8
:1030C000BC82AB827D821E828F83CE0101960E94DC
:1030D000EB1087E0F801A6E9B3E001900D928A9524
:1030E000E1F75BCF80919C03803150F486E993E057
:1030F0000E94EB1087E0F40111928A95E9F780CFE6
:10310000C11409F44CCF2091970391812913C5CFA5
:10311000909196039E11C1CFF110BFCF8683C80155
:103120000E94EB1087E0F40111928A95E9F737CFFE
:10313000283C3105F8F6C11409F431CFF11481F1BE
:10314000909197038181981321C0809196038E11ED
:103150001DC080919C0380FD10C0803170F086837B
:10316000807F803F39F08681982F907F905F8F70AD
:10317000892B8683C8010E94EB1087E0F801A6E93D
:10318000B3E001900D928A95E1F709CFC8010E9442
:10319000150781119ECF80919C03816080939C03D1
:1031A000C8010E94EB10FBCEABE1B0E0EAEDF8E124
:1031B0000C94AD214E8B5F8B688F798F8A8F9B8F9C
:1031C000911110925B031D8A86E0FE017696DE0166
:1031D0001F9601900D928A95E1F78B89811529F050
:1031E00061E0CE010F960E94E60687E0FE013F9661
:1031F000DE01189601900D928A95E1F7CE010896AE
:103200000E94951781112AC087E0FE013896DE01E1
:10321000119601900D928A95E1F720915C034091FF
:103220005D038C858115D1F030E0C901019687706E
:10323000992748171906E9F097E0929FD001939FCC
:10324000B00D1124A25ABC4FFE01319601900D928F
:103250009A95E1F780935C030E94FF0317E0809149
:103260005D0390915C03891312C06B96E3E00C94AC
:10327000C9210E94890D10925C0310925D0387E0C2
:10328000E6E9F3E0DF011D928A95E9F7E7CF189FA1
:10329000C0011124825A9C4F0E949517811529F371
:1032A00080915D0390E001968770992780935D037C
:1032B000D6CFA6E0B0E0EFE5F9E10C94AC210E9496
:1032C000760B8C018091E4029091E50280179107C2
:1032D00079F019821A820E94760BBC0149815A81C9
:1032E00080E090E00E94D4181093E5020093E4027D
:1032F0002696E4E00C94C821ACE0B0E0E2E8F9E105
:103300000C949E2180919D03811571F0809175022E
:10331000909176020196811520E2920708F01DC176
:103320009093760280937502FBEA8F2EF2E09F2E37
:10333000CC24C394D12C412C512CF4016190719078
:103340004F01129212927F01F3E05F1609F41EC141
:1033500024E0521608F00EC181E0581609F410C19D
:1033600092E0591609F40FC1849A8C98F1E0F50D9A
:10337000FA8380919D03811509F40EC18FE891E0D5
:103380000197F1F700C0000080919D03A12CB12CA2
:10339000811126C09FEF998304E610E021E030E020
:1033A000AE014F5F5F4F62E180E40E943B219C01D0
:1033B00091E0232B09F490E080919D03890F809385
:1033C0009D03898180950E944803982F96959C774C
:1033D0008370892BB82EB694A82EA794AA24A794FC
:1033E00079B169B139B196B129B15CB183B1769542
:1033F0007695769541E0742770FB222420F8312CD5
:10340000F10176E0EE0FFF1F7A95E1F7669566957C
:10341000642761706B831C826B817C81A5E0660FE1
:10342000771FAA95E1F76E2B7F2B82958F708427EB
:1034300081708D831E82ED81FE816E2B7F2B3295F4
:103440003F70342731703F831886EF81F885B4E0F0
:10345000EE0FFF1FBA95E1F76E2B7F2B9295969595
:10346000969593709427917099871A8689859A8585
:1034700033E0880F991F3A95E1F7862B972B022EA0
:10348000000C330B209530952227330F221F332752
:10349000220F331F220F331F822B932B52955695E9
:1034A00056955370542751705B871C862B853C853D
:1034B000220F331F822B932B8A299B29F70191839B
:1034C0008083F3E05F1609F489C024E0521608F007
:1034D00076C0541609F47AC082E0581609F47AC00E
:1034E00084988C988C9881E0F70120813181261591
:1034F000370509F480E0482AFFEFCF1ADF0A2A8156
:103500002630B1F5411409F471C081E08093740252
:103510000E94760B909373028093720280917202E4
:10352000909173020E948010059708F463C04CE0EC
:1035300050E06BEA72E08AEB92E00E944122892B14
:1035400049F08CE0EBEAF2E0AAEBB2E001900D92D8
:103550008A95E1F7109274024DC010927602109293
:10356000750210929D030E943F0B0E94250BDCCE3A
:103570005A80E3CEE4E05E120CC0219A2998F6CE80
:10358000859A8D98F3CE869A8E98F0CE879A8F98EA
:10359000EDCE229A2A98EACE61E070E00C2C01C0B0
:1035A000660F0A94EAF7609581E00E94FD0A91E0B7
:1035B000982780919D03890F80939D03E5CE94E029
:1035C000591210C02198299829988DCF85988D98E7
:1035D0008D9889CF86988E988E9885CF87988F986A
:1035E0008F9881CF22982A982A987DCF8091740253
:1035F000811194CF80913E03811529F060E070E045
:1036000081ED0E94120D80913D03811529F060E04B
:1036100070E082ED0E94120D2C96E2E10C94BA212A
:10362000CDB7DEB72A970FB6F894DEBF0FBECDBF79
:1036300085B7806885BF85B7806885BF84B7877F79
:1036400084BF0FB6F894A89580916000886180933C
:103650006000109260000FBE80E890E00FB6F89412
:1036600080936100909361000FBE8DE397E090938B
:103670005102809350020E9422090E947109809198
:10368000E20084608093E20078948091B902811511
:1036900099F08091E9001091EC001795112717958A
:1036A0008F70182B1092E9008091E80083FD0E9432
:1036B000CE0D1F701093E90082E084BD93E095BDAC
:1036C0009AEF97BD80936E008091AA0281110EC07F
:1036D0000E9421202FEF43ED80E3215040408040A5
:1036E000E1F700C0000081E08093AA0221982998A8
:1036F00022982A9884988C9885988D9886988E9888
:1037000087988F9829982A988C988D988E988F985A
:103710000E943F0B6E98769A52985A9A53985B9AE9
:1037200054985C9A57985F9A3E98469A24982C9A97
:103730000E94250B8CE0EBEAF2E0DF01282F1D92BE
:103740002A95E9F7EAEBF2E0DF011D928A95E9F7A5
:1037500080E090E00E94F721863E9E4F09F464C00D
:1037600066EE7EEF80E090E00E942B2260E082E037
:1037700090E00E940D2260E083E090E00E940D2224
:10378000109255031092540360E074E184E090E0DD
:103790000E942B2260E086E090E00E940D226FEFF5
:1037A00087E090E00E940D2240E050E0BA0188E0FE
:1037B00090E00E941F2260E084E290E00E940D22CF
:1037C00060E087E190E00E940D2260E08CE090E0F4
:1037D0000E940D2260E08DE090E00E940D2219828F
:1037E0001A821B821C821D821E821F82188648E05C
:1037F00050E068E170E0CE0101960E94FD2140E0BA
:1038000050E0BA0180E290E00E941F2240E050E0C8
:10381000BA018FE090E00E941F2240E050E0BA0120
:1038200083E190E00E941F2282E090E00E94EF215D
:103830008093C60284E090E00E94F72190935A039F
:10384000809359030E947C19EFEFF6E721E0E150E5
:10385000F0402040E1F700C000000E947C198091F8
:10386000BA0280FF08C06FEF7FEF80E090E00E9417
:103870002B220E94660883E090E00E94EF2190E0F6
:103880000E94680380915603909157030E94E502BD
:10389000259A2D98269A2E98239A2B980E94D30227
:1038A0000E94D6020E94D9020E94DC020E94DF021E
:1038B0004FEF80E792E0415080409040E1F700C038
:1038C0000000259A2D9AAFEFB0E7E2E0A150B0409A
:1038D000E040E1F700C00000269A2E9AFFEF20E7B3
:1038E00042E0F15020404040E1F700C00000239A40
:1038F0002B9A8FEF90E7A2E081509040A040E1F733
:1039000000C000000E94D302BFEFE0E7F2E0B15038
:10391000E040F040E1F700C000000E94D6022FEF27
:1039200040E782E0215040408040E1F700C00000C5
:103930000E94D9029FEFA0E7B2E09150A040B040B2
:10394000E1F700C000000E94DC020E94D3020E9446
:10395000D6020E94D9020E94DC0280E291E090939C
:10396000E7028093E602CE01019648E1642E712CB5
:10397000332433942224239489879A878091B9022F
:10398000853059F48091B902853009F45CC00E94F9
:10399000890D0E94B3070E9458030E947C1927ECEE
:1039A000A22E22E0B22E3AEB832E32E0932ED401E7
:1039B000F501219131918D919D9142E0E33DF40714
:1039C00009F494C028173907A1F3512CD4010D91A3
:1039D0001D914D01F501C190D1905F01C016D10636
:1039E00059F1C026D126412CEE24E394F12CC601D6
:1039F0008E219F21892BB1F049825A820E94760B39
:103A00009C838B832D8291E0970120233123232BEC
:103A100009F490E09E8349815A816B817C818D817C
:103A20000E94D4184394EE0CFF1CFEE04F12DFCF2F
:103A3000F501329711830083539426E05212C6CFCA
:103A40000E940C0859C08091B902843029F180E0AD
:103A50000E9458031092B702E0E40FB6F894A895BC
:103A6000609260000FBEE093600083B7817F846046
:103A700083BF83B7816083BF7894889583B78E7F37
:103A800083BF0FB6F894A8958091600088618093F9
:103A90006000109260000FBE8091B802811509F499
:103AA00071CF0E947C19EAEBF2E081919191892B10
:103AB00029F422E0E63CF207C1F764CF80E189BD3A
:103AC00082E189BD09B400FEFDCF8091D8008F7DD1
:103AD0008093D8008091E00082608093E000809124
:103AE000E00081FDFCCF0E94890D4CCF28173907DB
:103AF00009F06BCF0E9459198091470390914803B8
:103B0000892B09F44EC04091DB025091DC02609198
:103B1000DD027091DE022FB7F8948091D30290916C
:103B2000D402A091D502B091D6022FBF841B950B71
:103B3000A60BB70B4091D7025091D8026091D902E1
:103B40007091DA0284179507A607B70750F1009124
:103B5000470310914803C8010E941E039801205E8C
:103B600031092830310520F00115110509F011C186
:103B70000E94D40A802F0E946F0C1092480310926A
:103B800047031092DB021092DC021092DD021092C9
:103B9000DE021092D7021092D8021092D90210922F
:103BA000DA0280913F03811569F00E94760B209123
:103BB000400330914103821B930B8F3F9F4710F4CA
:103BC0000E94EF0A86E0E7E3F3E0A985BA85019059
:103BD0000D928A95E1F7E090380310913903F09047
:103BE0003A03D0903B0300913C03109239031092AA
:103BF0003A0310923B0310923C03812F8F298115C9
:103C000009F445C08091E1029091E2020E94801087
:103C10009C0180913503811509F4C9C02531310516
:103C2000B0F18F3F19F08F5F80933503111559F074
:103C30000E944D0791E011160CF09FEF899F802D97
:103C4000112480933903F11459F00E944D0791E03B
:103C50001F140CF09FEF899F802D112480933A034D
:103C600080913903811599F0C0903A03C11479F01D
:103C70000E943F07811101C081E0809339038C2DA0
:103C80000E943F07811509F487C080933A03802F73
:103C90008D29811509F445C08091DF029091E002E1
:103CA0000E9480109C0180913403811509F47AC030
:103CB00021353105B0F18F3F19F08F5F80933403C8
:103CC000D11459F00E946D0791E01D140CF09FEF84
:103CD000899F802D112480933B03011559F00E9488
:103CE0006D0791E010160CF09FEF899F802D112435
:103CF00080933C0380913B03811599F0D0903C0365
:103D0000D11479F00E943F07811101C081E08093B6
:103D10003B038D2D0E943F07811509F440C080931D
:103D20003C03809138038E1119C0809139038115AD
:103D300011F0181313C020913A03211511F02F111F
:103D40000DC090913C03911511F0091307C03091FB
:103D50003B03311103C0822B892B81110E94820BFE
:103D600086E0E985FA85A7E3B3E001900D928A9594
:103D7000E1F70E94B307182F8091E302181709F4A6
:103D8000FDCD1093E3020E940C08812F0E9458037E
:103D9000F5CD0E94E50AEECE30923A0378CF30920C
:103DA0003C03BFCF2B30310508F087CFBACF2B3083
:103DB000310508F038CF6BCF78941F921FB61F9251
:103DC00011248F939F93AF93BF938091D3029091CF
:103DD000D402A091D502B091D6020196A11DB11DC9
:103DE0008093D3029093D402A093D502B093D602CD
:103DF000BF91AF919F918F911F901FBE1F901895FB
:103E00001F920F920FB60F9211242F933F934F934F
:103E10005F936F937F938F939F93AF93BF93EF9332
:103E2000FF938091E10082FF09C08091E20082FF50
:103E300005C08091E1008B7F8093E1008091DA00E2
:103E400080FF24C08091D80080FF20C08091DA00DC
:103E50008E7F8093DA008091D90080FF9BC080E143
:103E600089BD82E189BD09B400FEFDCF81E0809368
:103E7000B90280917C02811109C00E9422090E942E
:103E800071098091E20084608093E2008091E100FA
:103E900080FF17C08091E20080FF13C08091E20094
:103EA0008E7F8093E2008091E20080618093E20047
:103EB0008091D80080628093D80019BC85E08093FF
:103EC000B9028091E10084FF29C08091E20084FF63
:103ED00025C080E189BD82E189BD09B400FEFDCF26
:103EE0008091D8008F7D8093D8008091E1008F7EF3
:103EF0008093E1008091E2008F7E8093E2008091C8
:103F0000E20081608093E20080917B02811509F4D8
:103F100047C084E08093B9028091B9028091E100AA
:103F200083FF27C08091E20083FF23C08091E100DE
:103F3000877F8093E10082E08093B90210927B0238
:103F40008091E1008E7F8093E1008091E2008E7F7E
:103F50008093E2008091E20080618093E20042E081
:103F600060E080E00E9441098091F00088608093C9
:103F7000F000FF91EF91BF91AF919F918F917F9151
:103F80006F915F914F913F912F910F900FBE0F90C6
:103F90001F90189519BC1092B90210927C0276CF2E
:103FA0008091E30087FF02C083E0B4CF81E0B2CF0D
:103FB0001F920F920FB60F921124FF920F931F932F
:103FC0002F933F934F935F936F937F938F939F9321
:103FD000AF93BF93CF93DF93EF93FF9309EE10E07E
:103FE000F8018081C091EC00C795CC27C7958F70F0
:103FF000FC2EF82A1082C0EFD0E08881877F88836A
:1040000078940E94CE0DF8011082888188608883A0
:10401000CF2DCF70C083FF91EF91DF91CF91BF91F2
:10402000AF919F918F917F916F915F914F913F9150
:104030002F911F910F91FF900F900FBE0F901F9027
:1040400018951092B9008CE08093B8000895A0E014
:10405000B0E0EDE2F0E20C94A521B82EEB010E9455
:10406000760B6C01EE24E394F12CC431D10560F0A1
:1040700025E0E22EF12CCF3FDC0731F0CE0164E1E8
:1040800070E00E948A217B0184EAA82E94E8992E90
:104090001092BC00A092BC000E94760B182F092F32
:1040A0008091BC0087FF0CC08091B900887F883068
:1040B000F9F08091B900887F8031D1F00FEF08C00E
:1040C000812F902F0E948010E816F90648F70EEF16
:1040D0001FEFCF3FDC07E1F2C6010E948010C81736
:1040E000D907B0F6C801CDB7DEB7EBE00C94C1211B
:1040F000B092BB009092BC000E94760B182F092F43
:104100008091BC0087FF0AC02091B900287F283128
:1041100011F0203499F600E010E0E4CF812F902FC9
:104120000E948010E816F90658F7D1CF0F931F931D
:10413000CF93DF93EB018093BB0084E88093BC00B6
:104140000E94760B182F092F8091BC0087FF11C0A9
:104150002091B900287F81E090E0283211F480E0BE
:1041600090E0919581959109DF91CF911F910F91E9
:104170000895CF3FDC0741F3812F902F0E948010DC
:10418000C817D90708F78EEF9FEFEECF0F931F9355
:10419000CF93DF93EC0184EC8093BC000E94760BFC
:1041A000182F092F8091BC0087FF08C08091BB00A9
:1041B00090E0DF91CF911F910F910895CF3FDC07E1
:1041C00089F3812F902F0E948010C817D90750F7CC
:1041D0008EEF9FEFEECF0F931F93CF93DF93EC0102
:1041E00084E88093BC000E94760B182F092F8091E1
:1041F000BC0087FF08C08091BB0090E0DF91CF91A9
:104200001F910F910895CF3FDC0789F3812F902FE5
:104210000E948010C817D90750F78EEF9FEFEECF9E
:10422000A0E0B0E0E6E1F1E20C94A821C62F6A011B
:104230007901B8010E9427209C0197FD0DC0B801AB
:104240008C2F0E9496209C01E601EC0CFD1CCE15E3
:10425000DF0511F037FF09C084E98093BC00C90174
:10426000CDB7DEB7E8E00C94C421B80189910E9473
:1042700096209C01ECCFA0E0B0E0E1E4F1E20C94E8
:10428000A821D82EC62EEA017901B8010E94272064
:104290009C0197FD17C0B8018C2D0E9496209C01AF
:1042A00097FD10C0B8018D2D81600E9427209C01D0
:1042B000C12CD12C81E0E81AF108CE14DF0480F083
:1042C00037FF1EC084E98093BC00C9011216130693
:1042D00014F480E090E0CDB7DEB7E8E00C94C421A0
:1042E00037FDF0CFC8010E94C6209C0197FD04C095
:1042F000FE01EC0DFD1D80838FEFC81AD80ADDCFBB
:10430000C8010E94EB209C0197FDDCCFCE0DDF1D84
:104310008883D8CFAA1BBB1B51E107C0AA1FBB1FB4
:10432000A617B70710F0A61BB70B881F991F5A9541
:10433000A9F780959095BC01CD0108952F923F92E9
:104340004F925F926F927F928F929F92AF92BF92A5
:10435000CF92DF92EF92FF920F931F93CF93DF9351
:10436000CDB7DEB7CA1BDB0B0FB6F894DEBF0FBEAE
:10437000CDBF09942A88398848885F846E847D84FB
:104380008C849B84AA84B984C884DF80EE80FD80FD
:104390000C811B81AA81B981CE0FD11D0FB6F89473
:1043A000DEBF0FBECDBFED01089597FB072E16F4BB
:1043B000009407D077FD09D00E948A2107FC05D020
:1043C0003EF4909581959F4F0895709561957F4F2C
:1043D0000895EE0FFF1F0590F491E02D0994F999CF
:1043E000FECF92BD81BDF89A992780B50895A8E1C6
:1043F000B0E042E050E00C943322DC01A40FB51F82
:104400004150504048F0CB01840F951F2E910E94DF
:104410000E2241505040D0F70895262FF999FECF33
:1044200092BD81BDF89A019700B4021639F01FBA07
:1044300020BD0FB6F894FA9AF99A0FBE0895039624
:10444000272F0E940E220E940D22252F0E940E224D
:10445000242F0C940E220196272F0E940E220C94DA
:104460000D22DC01CB01FC01F999FECF06C0F2BDA3
:10447000E1BDF89A319600B40D9241505040B8F722
:104480000895FB01DC0104C08D910190801921F495
:1044900041505040C8F7881B990B0895F894FFCFFE
:1044A000B60BBE0BC10BC70BDC0BDC0BDC0BDC0B48
:1044B000DC0BDC0BDC0BDC0BCA0BCF0BD30BD90BEF
:1044C000EA0BF00BF40BAB0ED20ED80ED20ED80EB8
:1044D0002B0F4D0FD80E4B105810A713AB139D1375
:1044E000A313AF13B313B713FE1368140614D0133A
:1044F000D4130A14D8130E141A14E4136114E81315
:104500001E14EC1322144914F01326145014F6133D
:104510002C143414DC131214E0131614FA13301490
:10452000401459145F14CA1302146F141B151B1581
:1045300055155515EF150C168115811511169F1679
:04454000B016B016EB
:104544000A02FA01EA01DA01CA01BA01AA019A01CE
:104554008A017A016A015A014A013A012A010000DA
:104564007708250A4D0A540A01011F0222FFFF00A1
:1045740022230207000000000000310022FFFF0098
:1045840022200207000000000000310222FFFF0089
:10459400223500070000000000001E0222FFFF0079
:1045A40022220207000000000000250222FFFF0073
:1045B40022270007000000000000300022FFFF0057
:1045C40022260007000000000000300222FFFF0046
:1045D40022250007000000000000270222FFFF0040
:1045E400222400070000000000002E0022FFFF002C
:1045F40022230007000000000000240222FFFF0025
:1046040022220007000000000000260222FFFF0013
:10461400222100070000000000002F0222FFFF00FB
:10462400222000070000000000002F0022FFFF00EE
:10463400221F00070000000000002E0222FFFF00DE
:10464400221E0007000000000000210222FFFF00DC
:1046540022350207000000000000E200E900EA0041
:10466400B500B600B700CD008301CC008A019201E9
:1046740094012102230224022502260227022A028F
:10468400B300B4006F0070009F01CB019F02A00231
:00000001FF
