:100000000C94B2020C94CF020C94CF020C94CF0249
:100010000C94CF020C94CF020C94CF020C94CF021C
:100020000C94CF020C94CF020C941A210C94F22160
:100030000C94BB0B0C94CF020C94CF020C94CF0207
:100040000C94CF020C94CF020C94CF020C94CF02EC
:100050000C94CF020C94F6200C94CF020C94CF0297
:100060000C94CF020C94CF020C94CF020C94CF02CC
:100070000C94CF020C94CF020C94CF020C94CF02BC
:100080000C94CF020C94CF020C94CF020C94CF02AC
:100090000C94CF020C94CF020C94CF020C94CF029C
:1000A0000C94CF020C94CF020C94CF0205010902EC
:1000B000A10185020901A1000509190129081500FE
:1000C0002501950875018102050109300931158165
:1000D000257F95027508810609381581257F9501D0
:1000E00075088106050C0A38021581257F95017572
:1000F000088106C0C005010980A101850319012AF4
:10010000B700150126B700950175108100C0050CD8
:100110000901A101850419012AA002150126A002E6
:10012000950175108100C005010906A1018506052C
:100130000719E029E71500250195087501810205D9
:1001400007190029EF1500250195F07501810205B9
:10015000081901290595057501910295017503910D
:1001600001C005010906A101050719E029E71500ED
:100170002501950875018102950175088101050722
:10018000190029FF150026FF009506750881000556
:1001900008190129059505750191029501750391CD
:1001A00001C009023B00020100A0FA09040000019D
:1001B000030101000921110100012240000705810E
:1001C00003080001090401000103000000092111D6
:1001D00001000122B6000705820320000112010080
:1001E0000200000008091228230100010200011288
:1001F000034500720067006F0064006F006E0065C9
:1002000000000012034B002E0054002E0045002E6B
:100210000043002E000000040309042102005701DE
:100220005702570357045744004500055706570720
:1002300057085709571E022B0033003600370013AA
:10024000001C003102310009000A00060015000FF1
:10025000003800290004001200080018000C0000FB
:1002600000000007000B001700110016002D00E130
:1002700000340014000D000E001B001F0265000575
:100280000010001A0019001D00E500E300390049C4
:100290000050004F0000000000000000005200511C
:1002A000000452737CE70000004D004C002A004A15
:1002B00000E000E200E600E4004B002C0028004EC5
:1002C0000000000100010001000100010001000127
:1002D0000001000100530054005500560067000162
:1002E0000001000100010001000100010001000106
:1002F000005F00600061005700580001000100012C
:10030000000100010001000000000001005C005D30
:10031000005E0085000100010001000100010001F4
:1003200000010001000100620059005A005B0063F7
:1003300000010001000100010001000100000000B7
:1003400000000000000100010001000100010000A8
:100350000001000100010001000100010001000195
:100360000001000100010001000000010001000186
:100370000001000100010001000100010001000175
:100380000001000100010001000100010001000165
:100390000001000100010001000100010001000155
:1003A0000001000100407E417E01000100010000CB
:1003B0000000000100010001000100010001000136
:1003C0000001000100010001000100010001000125
:1003D0000001000100010001000100010001000115
:1003E0000001000100000000000000000001000109
:1003F00000010001000100000001000100010001F6
:1004000000010001000100010001000100010001E4
:1004100000000035001E001F002000210022000106
:10042000000100230024002500260027002D0001E4
:100430000014001A000800150017002F0030001CDF
:100440000018000C00120013003100010004001617
:1004500000070009000A00000000000B000D000E5C
:10046000000F003300340001001D001B00060019BE
:100470000005002E00010011001000360037003882
:100480000001000100010001000100010000000066
:100490000000000000010001000100010001000057
:1004A0000001000100010001000100010001000144
:1004B0000001000100010001000000000000000038
:1004C000000000000000000000000000000000002C
:1004D000000000000000000000000000000000001C
:1004E000000000000000000000000000000000000C
:1004F00000000000000052015202520352000000AE
:1005000000000000000000000000000000000000EB
:1005100000000000000000000000000000000000DB
:1005200000000000000000000000000000000000CB
:1005300000000000000000000000000000000000BB
:1005400000000000000000000001000100010001A7
:100550000001000100010001000100010001000193
:100560000000000011241FBECFEFDAE0DEBFCDBFD8
:1005700013E0A0E0B1E0E0E6F9E402C005900D92DE
:10058000A430B107D9F724E0A4E0B3E001C01D9284
:10059000AC34B207E1F70E94291D0C945C240C9442
:1005A0000000259A2D980895269A2E980895239A4A
:1005B0002B980895559A5D9A0895559A5D980895D7
:1005C000CF93DF93D82FC92F292F30E048E0211592
:1005D000310519F4282F392F40E0C90174E09695B0
:1005E00087957A95E1F7892BC1F0C90156E0969578
:1005F00087955A95E1F765E0369527956A95E1F775
:10060000822B932B892B49F4411107C00E94DD02F4
:100610008D2F9C2FDF91CF9108950E94DA02F8CFA1
:100620009C019A9581159F4118F5F901EE27F2700A
:10063000832F8170B90166277470A901442758700F
:1006400034FF0CC08295807FEF2B09F08062672B0E
:1006500009F08064452B69F080680895EF2B09F05C
:100660008260672B09F08460452B19F0886008953B
:1006700080E00895CF93DF93EB010E941003FE0109
:100680000995DF91CF910895829594E0899F90011B
:1006900011242C7C869586958373282B30E0C90124
:1006A000880F991F8A7A359527952575822B08958D
:1006B00080FF08C02D9A81FF07C02E9A82FF06C0D6
:1006C0002B9A08952D98F7CF2E98F8CF2B98089550
:1006D00090930C0480930B0408950E94E002909381
:1006E0000E0480930D04089521E030E002C0220F33
:1006F000331F8A95E2F780910D0490910E04822BAE
:10070000932B0E946D03089521E030E002C0220F78
:10071000331F8A95E2F72095309580910D049091D2
:100720000E04822393230E946D030895963098F55A
:100730008E3088F5E82FF0E08EE0989FE00DF11DF7
:1007400011248E2F877041E001C0440F8A95EAF78B
:1007500083E0F695E7958A95E1F7EE0FFF1FEE0F20
:10076000FF1FE454FC4F20E030E070E05191DF01C6
:100770001197CB01022E02C0969587950A94E2F755
:10078000817081958527842385278C932F5F3F4F28
:100790002430310559F70895963078F58E3068F594
:1007A000E82FF0E08EE0989FE00DF11D11249E2FC0
:1007B000977083E0F695E7958A95E1F7EE0FFF1FB6
:1007C000EE0FFF1FE454FC4F40E050E080E0219129
:1007D00030E0092E02C0369527950A94E2F7217081
:1007E0003327042E01C0220F0A94EAF7822B4F5FB1
:1007F0005F4F4430510559F7089580E00895809186
:10080000140490911304981301C008958F5F8770AA
:10081000FACF909150019923C1F09091100497FF65
:1008200014C0E82FE695E695E695803FF8F4F0E0F1
:10083000EA5FFC4F877021E030E001C0220F8A950B
:10084000EAF78281822B82830895A8E0B3E0EFEF7C
:1008500090E02D91821751F0EF3F19F4211101C062
:10086000E92F9F5F9630A9F7EF3F09F408950E2E08
:10087000000CFF0BEA5FFC4FE6CF909150019923EB
:10088000E1F09091100497FF18C0E82FE695E695E7
:10089000E695803FF0F4F0E0EA5FFC4F877021E0DE
:1008A00030E0A90102C0440F551F8A95E2F7CA0142
:1008B00080959281892382830895E8E0F3E0919105
:1008C000891303C0DF0111971C9253E0EE30F50746
:1008D000B1F7089520910F048095822380930F042F
:1008E000982F9770911113C030E0482F082E000CFC
:1008F000550B2417350759F09091110492FF07C04A
:100900008595859585950E94840310920F0408951E
:10091000982F909580910904892380930904089564
:1009200080910A04811110920A0408957630B8F477
:100930006E30A8F48530B0F4E62FF0E09EE0799FA9
:10094000E00DF11D112494E5899FE00DF11D1124A6
:10095000EE0FFF1FE55EFD4F85919491089580E0B5
:1009600090E0089581E0FCCF803E9105D1F1C8F47C
:100970008133910509F47FC048F48932910509F467
:100980006FC08A32910509F47DC0089589339105BD
:10099000E1F082389105C9F08533910509F45BC017
:1009A0000895843E9105D1F148F4823E910531F1DC
:1009B000833E910541F181EE90E00895863E9105D8
:1009C000C1F1873E9105E1F1089520911004237053
:1009D000211165C02091110423FF14C089E290E029
:1009E00008952091100420FD43C03091110430FF80
:1009F00009C024FF4EC080E090E0089520911004CB
:100A000022FDF7CF08952091100422FD45C03091BA
:100A1000110430FD44C024FFF5CFEDCF2091110427
:100A200021FFF0CF8091100484FDE5CF87EE90E0A8
:100A300008952091100423FFE5CF24FDDCCFF6CFED
:100A40002091100423FD2EC03091110431FFE3CF1B
:100A500084EE90E008952091100425FFD3CFBECFFF
:100A60002091100425FD21C02091110423FFCACF3D
:100A700089E390E008952091100426FFC3CF8AE215
:100A800090E008952091100426FFBCCF81E390E010
:100A9000089583EE90E0089582EE90E0089580EE50
:100AA00090E0089586EE90E0089585E390E0AACF67
:100AB0002091100422FF06C0982F98719830C1F43D
:100AC000877F846090911104392F3170927023FFD9
:100AD00021C0482F4871483191F4877E8461992361
:100AE000B1F0982F9171913191F48E7E88610FC091
:100AF000982F9471943031F78B7F8860E3CF482F23
:100B00004471443139F48B7E8861911118C024FD01
:100B1000877E0895332369F0382F3871383019F4FF
:100B2000877F8160DCCF382F3171313011F48E7FB7
:100B30008860992361F3982F9871983191F6877E98
:100B40008161E5CF1F93CF93DF930E94B404EC0142
:100B5000811522E5920708F053C0811540E59407FE
:100B600008F0DDC0803E9105F8F48D3C910508F059
:100B7000AEC0883A910580F4853A910508F099C095
:100B80008130910521F00497813A910550F4CE010E
:100B9000DF91CF911F910895885A91094B9708F4DE
:100BA0008BC0C0E0D0E0F3CF811550E49507F8F496
:100BB000C11580E2D80708F0CBC0C83ED10538F394
:100BC000CE019A9581159F4160F78D2F0E9458059F
:100BD000182FCE0199270E94B404212F30E0322F24
:100BE0002227E901CC27DF71C82BD92BD0CF992739
:100BF0000E94B404CC27DF70C82BD92BD06AC7CF92
:100C0000803842E59407C8F5803652E5950708F02C
:100C100067C0C03482E5D807B0F08C2F86958695E2
:100C2000877020E2829FC0011124C37021E030E070
:100C3000A90102C0440F551FCA95E2F7EA01C82B6B
:100C4000D92BDC68A4CFC03252E5D50708F041C0EB
:100C50008C2F8695869520E2829FC0011124C37057
:100C600021E030E0A90102C0440F551FCA95E2F708
:100C7000EA01C82BD92BDD688ACF803C52E5950765
:100C800060F48F71C03AD24508F03FC090E0982FD1
:100C90008827EC01C46FD06A7ACF805C9245809738
:100CA00008F07FCFDC2FCC27CC27DF71C06FD06A54
:100CB0006ECFA497D0646BCFC85AD0E0CC0FDD1FA5
:100CC000C253DD4F0990D881C02DD46460CFD06568
:100CD0005ECFCF71D0E0DC2FCC27C16FD06A57CF69
:100CE00086958695877020E2829FC0011124C3708B
:100CF00021E030E0A90102C0440F551FCA95E2F778
:100D0000EA01C82BD92BDA6842CF0E945805C82FB8
:100D1000D0E0DC2FCC27CC27DF71D06238CF8F71A9
:100D20000E94580565E0D695C7956A95E1F7CF70A2
:100D3000D0E0DC2FCC27282F30E084FF05C054E022
:100D4000220F331F5A95E1F7C22BD32BD0691FCF47
:100D50008D2F8F710E945805182FCE0199270E9460
:100D6000B404212F30E0322F222722273F71282B75
:100D7000392BE901D2CFA0E0B0E0E1ECF6E00C9431
:100D8000C5238C01E0900D04F0900E0480910B04BB
:100D900090910C04E82AF92ACFE0D0E0CC24C39447
:100DA000D12CC6010C2E02C0880F991F0A94E2F7BD
:100DB0008E219F21892B49F4219798F7B12C8B2DF7
:100DC000CDB7DEB7E9E00C94E123BC2EB8018C2F3F
:100DD0000E9496040E94A205019771F3F0CF0F9331
:100DE0001F93CF93FC01828100811181882391F0B0
:100DF000662381F0C8010E94BB06C82F682FC80176
:100E00000E949603B8018C2F0E949604CF911F91E7
:100E10000F910895C8010E94CC03C82FF3CFCF9340
:100E2000DF93D82FC92F0E94BB066D2F7C2F0E9405
:100E300096040E94A205DF91CF910895FC01838161
:100E40009481892BC9F08181908189238F3FA1F002
:100E5000808191810E940F07282F92959F70963074
:100E600091F060F4925F9F70923030F481E0203F07
:100E700079F030F4283E30F080E004C09A5FF3CF80
:100E8000243FD1F7089581E0283E18F0213FF9CFA3
:100E90000895089580E008958091EA0380FD14C0CC
:100EA00081FD14C082FD16C08091E903882381F082
:100EB0008E3180F420E5829FC00111246EE170E044
:100EC0000E94F323862F089584E1089588E208950F
:100ED00088E0089580E508958091EA0380FD17C0B9
:100EE00081FD17C082FD19C08091E803882399F025
:100EF000883298F428E0829FC001112468E270E0F3
:100F00000E94F3236115710551F0862F089562E068
:100F1000FCCF64E0FACF61E0F8CF68E0F6CF81E083
:100F20000895FC018581862381110AC0828188236E
:100F3000B9F06823918593FF05C081E061110FC06E
:100F400080E00895282F22952F708F70282B962FE0
:100F500092959F706F70962B81E02913F1CF0895C1
:100F600081E0FDCFE0919A03F0919B03309729F047
:100F70000190F081E02D0995089580E00895A3E0A7
:100F8000B0E0E5ECF7E00C94CC239C0180915C038D
:100F900090915D0382179307A1F030935D03209336
:100FA0005C03E0919A03F0919B03309751F083E04A
:100FB00089833B832A830680F781E02DCE01019649
:100FC00009952396E2E00C94E823A3E0B0E0EBEE71
:100FD000F7E00C94CC239C0180915A0390915B0321
:100FE00082179307A1F030935B0320935A03E0919B
:100FF0009A03F0919B03309751F084E089833B83FF
:101000002A830680F781E02DCE010196099523966B
:10101000E2E00C94E823A4E0B0E0E1E1F8E00C9415
:10102000CC238FB7F89420918703309188034091A7
:10103000890350918A0329833A834B835C838FBF52
:1010400069817A818B819C812496E2E00C94E8236B
:101050000F931F93CF93DF93D82FC92F4091FA039B
:101060005091FB036091FC037091FD032FB7F8943E
:101070008091870390918803A0918903B0918A039E
:101080002FBF841B950BA60BB70B843F9140A10586
:10109000B10528F56091FA037091FB038091FC0380
:1010A0009091FD0304EF11E020E030E060938F03A6
:1010B00070939003809391039093920300938B031A
:1010C00010938C0320938D0330938E03D093F803F9
:1010D000C093F903DF91CF911F910F9108950E9462
:1010E0000B0802E310E020E030E0E0CF87E797E76D
:1010F000909301088093000888E19AE00FB6F89475
:10110000A895809360000FBE90936000FFCF809100
:1011100059030895FC019B01809137039091380396
:101120008617970740F0672B29F48091E8008E77A7
:101130008093E800C90140E0009741F4411106C0E6
:101140008091E80082FF2FC080E0089520916D0318
:101150002223A9F12530A9F12091E80023FD2DC01B
:101160002091E80022FDECCF2091E80020FFE4CFA1
:101170003091F3002091F200009719F028303105EA
:1011800058F041E02830310509F040E02091E800B6
:101190002E772093E800D0CF41914093F100019742
:1011A0002F5F3F4FE9CF80916D03882341F0853059
:1011B00041F08091E80083FFC3CF81E0089582E091
:1011C000089583E008958091310387FF13C08091D3
:1011D000E80082FF06C08091E8008B778093E800EA
:1011E00004C080916D038111F2CF089580916D0349
:1011F0008823D9F38091E80080FFF8CF8091E80040
:101200008E77ECCF2091E4003091E50095E6A901BE
:101210008091EC008170882331F08091E80080FF9C
:1012200006C080E008952091E80022FD1BC0809157
:101230006D03882391F0853091F08091EB0085FD5E
:1012400010C02091E4003091E5004217530701F3EC
:1012500091509111DCCF84E0089582E0089583E0FD
:10126000089581E00895E8EDF0E080818E7F80832D
:101270001092E2001092DA001092E100A0EEB0E0CD
:101280008C9181608C9380818F77808319BCA7EDCE
:10129000B0E08C918E7F8C9380818F7E80831092C2
:1012A00030030895982FE42FE2709093E90089139A
:1012B00008C0762F242F50E0E11111C091E0980F63
:1012C000F4CF7091EC002091ED005091F00021FDE1
:1012D00006C09F5F973049F78093E90008953091E9
:1012E000EB003E7F3093EB003091ED003D7F30937B
:1012F000ED003091EB0031603093EB007093EC0027
:101300002093ED005093F0002091EE0027FDE1CFF7
:101310000895A0E0B0E0EFE8F9E00C94C623C8ED32
:10132000D0E088818F7E8883E7EDF0E08081816066
:10133000808384E082BF81E08093300388818E7F48
:10134000888302EE10E0F80110821092DA0081EE3C
:10135000C82ED12CF601108288818F7788838881EE
:101360008068888388818F7D888319BC10926D0383
:1013700010922F0310926C0310922E0390EEE92E20
:10138000F12CF70180818B7F808388818160888345
:1013900042E060E080E00E945209F60180818E7F89
:1013A0008083F80180818160808380818860808370
:1013B000F70180818E7F8083888180618883CDB7AB
:1013C000DEB7E8E00C94E223E0911404909113045A
:1013D00026E0E91302C080E00895AE2FB0E02E9F12
:1013E000F0011124EB5EFB4F3181361306C03081D2
:1013F000381303C03281341304C0FD013196E77005
:10140000E8CF81E008950F931F93CF93DF93EB0113
:101410008A0190916D03943079F58093E9008FEF04
:101420009091E80095FD07C095ED9A95F1F70000C1
:1014300081508111F5CF8091E80085FF1DC00E9489
:101440000209811114C08091E80085FD06C08091D9
:10145000E8008E778093E800F2CF88818093F100D6
:10146000015011090115110511F02196ECCF809161
:10147000E8008E778093E800DF91CF911F910F9164
:101480000895CF93DF93D82FC92F809150018111F8
:1014900013C048E050E06D2F792F81E00E94030ACD
:1014A00080E2ED2FFC2FA9E3B3E001900D928A9525
:1014B000E1F7DF91CF9108958091100487FD06C078
:1014C00048E081E050E06D2F7C2FE8CF40E282E0E1
:1014D000F9CFBC0146E050E082E00E94030A089583
:1014E000BC0143E050E082E00E94030A089590911D
:1014F000110492FB222720F9281779F080FB92F93A
:1015000090931104609110047091110484E090E0B4
:101510000E94392482E00E946A040895CF9380914A
:10152000090490911204892B8093060390910A0478
:101530009923D9F0892B8093060380915001882349
:1015400009F44CC08091100487FF48C08DE190E001
:1015500028E033E0F90140812F5F3F4F41119F5F49
:101560008150C0F791110E949004C091F403C0957E
:1015700080910603C8238091F303C82BC093060310
:1015800040E250E06CE973E086E093E00E944F2473
:10159000892B11F180E2E6E0F3E0ACE9B3E00190E1
:1015A0000D928A95E1F7E0919A03F0919B033097B1
:1015B00099F080915001882349F08091100487FFB1
:1015C00005C0C093070386E0809306030280F38181
:1015D000E02D86E093E00995CF91089585E0B7CF9F
:1015E000882339F090910904892B809309040E9483
:1015F0008E0A0895882339F090911204892B8093E4
:1016000012040E948E0A0895882321F00E94880403
:101610000E948E0A0895882341F0809590911204CB
:101620008923809312040E948E0A089580910404F5
:10163000882329F082E20E940B0B10920404089583
:10164000CF93DF93EC01EA85FB85309719F06C8529
:101650007D8509959B8190958091120489238093C3
:1016600012048C810E9488040E948E0A86E0FE018A
:1016700011928A95E9F7DF91CF910895CF93DF9387
:10168000EC018D8181FD18C082608D8380911204F0
:101690009B81892B80931204809109049C81892B62
:1016A000809309040E948E0AE885F9856C857D8502
:1016B000309711F0CE0109951092010410920004A8
:1016C0008D8180FD03C0CE010E94200BDF91CF9160
:1016D0000895A1E0B0E0EFE6FBE00C94C923F82EFA
:1016E000698304E610E021E030E0AE014F5F5F4F18
:1016F000682F80E40E942A23892B71F46CE06F0D1F
:1017000021E030E0AE014F5F5F4F80E40E942A236A
:101710009C0181E0232B09F080E02196E5E00C9408
:10172000E523CF936FEF80E00E94690BC1E0982F13
:101730009C2780914B04890F80934B046FEF81E0CD
:101740000E94690B982F9C2780914B04890F8093EE
:101750004B04CF91089580914B0481110BC06FEF22
:1017600081E00E94690B91E0982780914B04890FDA
:1017700080934B0408951F921FB61F9211248F93DC
:101780009F93AF93BF9380916B03811113C080919E
:10179000870390918803A0918903B0918A034196B1
:1017A000A11DB11D8093870390938803A0938903A3
:1017B000B0938A03BF91AF919F918F911F901FBEED
:1017C0001F9018952FB7F894809187039091880304
:1017D000A0918903B0918A032FBF08950E94E20B64
:1017E0002091ED033091EE03232B222321F08093EF
:1017F0009503909396032091EF033091F003232BF0
:10180000222321F08093930390939403E0919A0311
:10181000F0919B03309749F082E08093EB030480C2
:10182000F581E02D8BEE93E009950895662309F488
:101830004BC0E3E3E80FE33150F4F0E0E25AFB4D34
:101840000C9407240E944C0781958093EE030E941C
:10185000EE0B08950E944C07F8CF0E944C0781952B
:101860008093ED03F4CF0E944C07FACF0E946C07DF
:101870008093EF03ECCF0E946C078195F9CF0E9413
:101880006C0781958093F003E2CF0E946C07FACF3A
:10189000815D990B21E030E001C0220F8A95EAF7C3
:1018A0008091EC03822B8093EC03D1CF8091EA03EB
:1018B00081608093EA03CBCF8091EA038260F9CF05
:1018C0008091EA038460F5CF4091ED038D3C59F49B
:1018D0008091EE0387FF0DC01092EE03442359F46C
:1018E0001092E90308C08E3C81F48091EE03181633
:1018F0009CF3442381F08091EF039091F003892BB6
:101900008111A5CF1092E803A2CF8F3C41F447FF8D
:10191000F0CF1092ED038091EE038823E0CF803D5D
:1019200019F41416B4F3E5CF9091EF03893D29F42F
:101930001916FCF61092EF03DCCF8A3D19F497FFDD
:10194000D8CFF8CF9091F0038B3D29F497FFD1CFFA
:101950001092F003CECF8C3D19F41916CCF3C9CFF9
:101960009FE2980F983090F4815D990B21E030E070
:10197000B90102C0660F771F8A95E2F7CB01809507
:101980009091EC0389238093EC03B3CF8D3D31F428
:101990008091EA038E7F8093EA03ABCF8E3D21F4E2
:1019A0008091EA038D7FF7CF8F3D09F0A2CF809120
:1019B000EA038B7FF0CFCF93C82F8823B1F18CEF50
:1019C0008C0F813AA0F580915001882301F180911C
:1019D000100487FF1CC0EC2FE695E695E695F0E035
:1019E000EA5FFC4F828190E04C2F477021E030E0AD
:1019F00002C0220F331F4A95E2F782239323892BDB
:101A000079F08C2F0E943D040E948E0A09C0E8E004
:101A1000F3E08191C817A9F323E0EE30F207C9F78C
:101A20008C2F0E9409040E948E0ACF91089580E2B3
:101A30008C0F883068F4C77081E090E001C0880F97
:101A4000CA95EAF7C0910904C82BC0930904EBCFEB
:101A50008BE58C0F833038F42C2F2452330BC901C3
:101A60000E94BF07E2CFE8E5EC0FEB3150F4F0E065
:101A7000EE0FFF1FE253FD4F808191810E94E50729
:101A8000D4CF83E38C0F833180F661E08C2F0E94EA
:101A9000160CCBCFCF93DF93EC01805E91090897B2
:101AA00020F06AEF7AE0209711F460EF7AE0CE013F
:101AB0000E943A038C2F0E94DB0CDF91CF91089596
:101AC000CF93DF93EC01FB018A81823039F482816C
:101AD00093810E944A0D8D8182608D83DF91CF9129
:101AE0000895FB01808191810E944A0D0895882309
:101AF00081F19CEF980F913A28F40E943D040E94D6
:101B00008E0A089590E2980F983050F4877091E013
:101B100001C0990F8A95EAF7892F0E948804EFCFB8
:101B20009BE5980F933028F480E090E00E94BF0777
:101B3000089598E5980F9B3128F480E090E00E948A
:101B4000E507089593E3980F933118F460E00E943D
:101B5000160C0895CF93DF93EC010E94770DCE0110
:101B6000805E9109089720F06BE07BE0209711F4EC
:101B700064E07BE0CE010E943A03DF91CF910895AB
:101B8000FB01DC0112968C91813029F480819181D6
:101B90000E94AA0D08958230E9F782819381F8CFDF
:101BA0001F93CF93DF93182FEB010E94DB0C20973C
:101BB00039F4812F0E94770DDF91CF911F91089505
:101BC0008FE99FE00197F1F700C000002197EFCF68
:101BD0001F93CF93DF93182FA091F603B091F703D3
:101BE000109709F44AC01092F9031092F80310926A
:101BF000F4031092F3031796CD91DC911897CE0160
:101C00009A9581159F4108F4D07ED1E0C11101C0A1
:101C1000D0E01A96ED91FC911B97309731F01C960D
:101C20006D917C9180E00995D823DD2339F08CEF0C
:101C30008C0F813A30F58C2F0E943D041123A9F0BE
:101C4000E091F603F091F703818584FD0EC0809149
:101C5000F503882351F0808191819C012150310945
:101C60002F333E4710F40E9428080E948E0A1092DB
:101C7000F7031092F6031092F503DF91CF911F91B5
:101C800008950E948E0A8C2F0E94770DD7CF109254
:101C9000090480915001E8E0F3E0882329F1809164
:101CA000100487FF21C08EE1DF011D928A95E9F7BC
:101CB00080E090E00E94BF0780E090E00E94E5078E
:101CC000109212040E948E0A86E0EBEEF3E0DF0130
:101CD0001D928A95E9F71092E9031092E803109299
:101CE000EA030E94EE0B089586E0DECF0E94470EC5
:101CF0002FEF84E39CE0215080409040E1F700C04A
:101D0000000088E19AE00FB6F894A89580936000EF
:101D10000FBE90936000FFCFAAE2B0E0E2E9FEE0E0
:101D20000C94CB2381E393E0FC0101962091F10018
:101D3000208323E089339207B9F7809132038930F9
:101D400009F456C0C8F4823009F4B2C0833009F4F3
:101D500081C0813071F18091E80083FFE6C08091FD
:101D60003103909132039A3008F0DFC0E92FF0E0A0
:101D7000EF58FB4D0C9407248A3009F488C08B304F
:101D800051F780913103813231F780913503909181
:101D90003603892B01F78091E800877F8093E80064
:101DA0000E94E30880913303809350010E94470E04
:101DB000D2CF80913103813A71F68091E800877F1C
:101DC0008093E8008091350390913603892B61F070
:101DD00060E080E090E070E00E948A088091E80076
:101DE0008B778093E800B7CF60E289E393E0F3CF8D
:101DF00080913103813209F0AECF8091350390910B
:101E00003603029708F0A7CF8091E800877F809380
:101E1000E8008091E80082FF18C09091F300809163
:101E2000F200029731F48091F100813011F0863098
:101E300021F48091F100809359038091E8008B7721
:101E40008093E8000E94E30886CF80916D038111A2
:101E5000E0CF81CF80913103813A09F07CCF80912E
:101E6000350390913603892B09F075CF8091E800F6
:101E7000877F8093E8008091E80080FFFCCF80910D
:101E800050018093F1008091E8008E77D9CF809146
:101E90003103813209F05FCF8091E800877F809322
:101EA000E8000E94E3088091340380932D0353CF10
:101EB00080913103813A09F04ECF8091E800877F0D
:101EC0008093E8008091E80080FFFCCF80912D0393
:101ED000D8CF803889F0823841F5809135038F70F2
:101EE000873018F58093E9008091EB0085FB882707
:101EF00080F91092E90006C080912E0390916C0346
:101F0000911182609091E800977F9093E800809310
:101F1000F1001092F1008091E8008E7723C08111CA
:101F200016C080913303813011F18091E80083FF66
:101F30000AC08091E800877F8093E8008091EB00E1
:101F400080628093EB00AA96E3E00C94E723823052
:101F500061F780913303882389F01092E900809122
:101F6000E800877F8093E8000E94E308DECF81E0ED
:101F7000933009F080E080936C03EFCF80913503BC
:101F80008F702FEF280F263080F68093E900209184
:101F9000EB0020FFE2CF933031F48091EB008062C0
:101FA0008093EB00DACF9091EB0090619093EB007F
:101FB00021E030E0A90102C0440F551F8A95E2F7E5
:101FC0004093EA001092EA008091EB008860E8CF2D
:101FD0008111ABCF109133031F778091E30080789C
:101FE000812B8093E3008091E800877F8093E80055
:101FF0000E94E3088091E80080FFFCCF8091E3001D
:1020000080688093E30083E0111101C082E0809337
:102010006D038BCF8058823008F087CF4091330317
:10202000509134034C3D83E0580799F583E08A834F
:102030008AE289834FB7F894DE01139620E03EE0F0
:1020400051E2E32FF0E050935700849120FF03C04A
:1020500082958F703F5F8F708A30C8F0895C90E006
:102060008D939D932F5F243161F74FBF8091E800DE
:10207000877F8093E8006AE270E0CE0101960E94BB
:102080008A088091E8008B778093E8004ECF805DCE
:10209000E6CF2091350330913603852F9927833081
:1020A000910509F160F48130910509F472C002973D
:1020B00009F03BCF8BE390E0E2EAF1E029C0813206
:1020C000910509F45AC0829709F02FCF21153105E7
:1020D00009F469C02130310509F027CF86EB90E083
:1020E000ECEAF0E015C0CA0199274130B1F1823025
:1020F000910509F43AC0892B09F017CFE7E1F2E026
:10210000E4918E2F90E0E7E1F2E0009709F40DCF23
:102110002091E800277F2093E80020913703309139
:1021200038038217930708F49C0140E0211531051C
:1021300009F03EC041113CC08091E80082FDA1CF72
:1021400080916D03882309F49CCF853009F499CFE1
:102150008091E80083FFF0CF94CFE3E0F2E0E491D8
:102160008E2F90E0E3E0F2E0D0CFEFEEF1E0E491EB
:102170008E2F90E0EFEEF1E0C8CF2115310571F020
:102180002130310509F0D1CE89E090E0EDECF1E0AD
:10219000BFCF82E190E0EDEDF1E0BACF89E090E0D1
:1021A000E4EBF1E0B5CF80E490E0E2E6F1E0B0CF1F
:1021B00080916D03882309F464CF853009F461CFE1
:1021C0008091E80083FD5DCF8091E80082FDB4CF6F
:1021D0008091E80080FFAACF9091F3008091F200F7
:1021E0002115310519F08830910550F041E008972C
:1021F00009F040E08091E8008E778093E80096CF68
:1022000044914093F1003196215031090196E8CF75
:10221000803809F08ACE8091E800877F8093E800BB
:1022200080912F038093F10076CE81117ECE1091A4
:102230003303123008F079CE8091E800877F8093D5
:10224000E80010932F030E94E308112381F084E03B
:1022500080936D0342E061EC81E00E94520942E20A
:1022600061EC82E00E94520980916D035ECE809104
:10227000E30087FDECCF81E0EBCF9C014FB7F894F2
:102280008091870390918803A0918903B0918A037C
:102290004FBF821B930B08950F931F93CF93DF9330
:1022A000C62FD42F122F8823A9F0609307040E9411
:1022B000E20B90932C0380932B03C77081E001C045
:1022C000880FCA95EAF70E94F00ADF91CF911F911B
:1022D0000F91089580910704681336C080912B03F5
:1022E00090912C030E943D11883C910568F5CD1317
:1022F0000EC060E070E0812F0E94D00DD77081E0A9
:1023000001C0880FDA95EAF70E94040BDECFC77090
:1023100001E0802F01C0880FCA95EAF70E94040BE4
:1023200080E28D0F883050F48D2F877001C0000F30
:102330008A95EAF7802F0E94F00ADBCF60E070E018
:10234000812F0E94D00DC1CFC77081E001C0880FDE
:10235000CA95EAF7D9CFA0E0B0E0E1EBF1E10C9447
:10236000BD238C01DC019C9111968C9111971396E1
:102370002D913C91232B09F4C8C089238F3F09F488
:10238000C4C061E0C8010E94EF06EC01F80182813F
:10239000882309F180910004909101040097D9F0FD
:1023A000C817D907C1F0FEE08F9FC0011124FC01BE
:1023B000E95AFE4F2081246020838E5A9E4FDC0113
:1023C000CD93DC930E943E0B1092120461E0C80191
:1023D0000E94EF06EC01F8014280C034FEE7DF07FF
:1023E00009F1C1342EE7D20709F464C0442009F48E
:1023F00091C0CE353CE7D30709F473C0CF358CE7E5
:10240000D80751F0CD359CE7D90709F083C08091FA
:102410005101882309F465C01092510180E00E94A7
:10242000E80D62C080915101442021F191E0909328
:10243000F203F090090450900A04882309F45CC266
:102440005F2850E6C52E5DE7D52ED093FF03C093DD
:10245000FE030E940B086093FA037093FB038093C2
:10246000FC039093FD031092F9031092F8034424A7
:10247000439470C01092F203882309F439C280910A
:10248000FE039091FF03C817D90709F420C1E0911A
:10249000F603F091F703309709F437C180819181F9
:1024A000C817D90709F02AC11092F50380E00E94ED
:1024B000E80D24C180915101442081F091E0909376
:1024C000F103F090090450900A04882309F414C21F
:1024D0005F2841E6C42E4DE7D42EB7CF1092F1030A
:1024E000CBCF81E08093510180910F0487708823C6
:1024F00061F0D80112968C91882339F080911104F3
:1025000082FF03C082E00E946A04CDB7DEB7E1E13A
:102510000C94D92380915101882309F4EFC06E01F6
:10252000A0EECA1AD10850900A0480910904582AD2
:10253000B8E0CB16D10408F0C1C09E012770332744
:1025400081E090E001C0880F2A95EAF7442009F461
:10255000B2C0582AF801808191810E94CC0321E009
:1025600030E0390102C0660C771C8A95E2F7809052
:10257000F6039090F703312CE32DF0E0EE0FFF1FF0
:10258000E050FF4FE080F180E114F10409F40BC149
:10259000511005C0D70112968C918111CBC0F70163
:1025A0008381948186219721892B09F4C3C0818579
:1025B000982F97709111C0C0F8E0CF16D10408F0A1
:1025C000B7C04110C1C0F701A080B180CA15DB05BA
:1025D00009F4B0C0E814F90409F4ACC0D7011E96A0
:1025E000ED91FC91309721F08081882309F4A2C0FD
:1025F000652DC7010E949107882309F49BC0CA1565
:10260000DB0511F4411005C0A114B10409F0A8C004
:10261000412C80E00E94E80DF092F703E092F6036F
:1026200081E08093F503F70186818093F4034110E4
:102630000DC0AB2859F0808191819C012450310953
:10264000213A310508F094C00E943D04F701A780AB
:10265000B084C5019A9581159F4110F420EEB222F5
:1026600088248394C50101978F339E4708F0812CFD
:10267000D7011A96ED91FC911B97309731F01C967B
:102680006D917C9181E00995882281E0482688201F
:1026900079F0F701878190850E9410038093F303FE
:1026A000C501F8E0CF16D10408F065C00E942808E3
:1026B0000E948E0A67C0809558224CCF4110C5CE2B
:1026C0008091FE039091FF03C817D90781F41092FF
:1026D000FF031092FE031092FA031092FB03109274
:1026E000FC031092FD031092F9031092F803E0919D
:1026F000F603F091F703309709F0D0CECE0197554D
:102700008F3F910509F008F467C0C337BCE7DB07CA
:1027100009F0A7C0D80112968C91882309F4E4CE61
:1027200080910404882309F4D3C00E94160BDCCEE8
:1027300041100AC0339420CF28E0C216D10458F4C7
:10274000442031F081FFF6CFD701AD90BC9042CF4D
:1027500082FFF0CF38CF442069F380FFEBCFF4CF76
:102760008091FE039091FF038A159B0519F750CFC6
:102770000E94770D6BCF0497813A910540F48A2D22
:102780000E9409044110BACF0E948E0AADCE0E9469
:102790008E0A8FE39CE90197F1F700C000008A2DB3
:1027A0000E94DB0CEFCF8114910409F4A7CF98E0CD
:1027B000C916D10408F06FC07E01A7E5FA1A652D8D
:1027C000C4010E949107882309F461C0BFEFEB1692
:1027D000F10411F008F045C06E01DD242EE0C29F27
:1027E000F0011124CF018E5A9E4F7C01D801129620
:1027F0008C91E95AFE4F908180FB90F99083882359
:1028000009F45EC00E94E20B9093030480930204DB
:10281000F70182818F5F8283809112049091090475
:10282000892B838380910A0484830680F781E02DBD
:10283000309731F0D7011C966D917C91C7010995B5
:102840008EE08C9DF0018D9DF00D1124EE5AFE4F0F
:10285000858181FD32C09C2F8D2F90930004809341
:102860000104F090090450900A048091040481113D
:1028700048C0D80112968C91FE01E851FC47E73020
:10288000F10508F07FC0E558FB4D0C94072481E06A
:102890000E94E80D9BCFF40180819181C817D90770
:1028A00039F4442009F400CE818585FD27CFFECD83
:1028B000442009F423CF8185F8CF90E080E0CDCF8C
:1028C000F701858181FFCDCFC7010E94200BC9CFC1
:1028D000109209040E9490040E94E20B88579C4EBB
:1028E000909306048093050481E080930404FCCD5A
:1028F000F090090450900A0480910404882309F49C
:1029000041C00E94E20B88579C4E9093060480932E
:102910000504F8018281882309F4ABCF8F2D852926
:102920008D79811176C0C115F0E5DF0708F04DC043
:10293000C11520E4D20708F0F7C0C63ED10509F45E
:1029400052C0CE0190528115904208F008C1D801C2
:1029500015968C91803108F45FC0CE0199271092B2
:102960001204CD3209F41AC18E32910508F0ECC080
:102970008832910508F0E4C08E31910508F4FDC05D
:102980000E948E0AF8018281811110920704D801F9
:1029900012968C91882309F4ADC0CE01905783978D
:1029A00008F0A8C084E090E00E94152490931104E0
:1029B00080931004FE01E150F047E232F10508F087
:1029C0002BC1EE57FB4D0C940724C43BB2E5DB074B
:1029D00051F0B8F4C034F2E5DF0740F4C11522E548
:1029E000D20708F4B4C0109207042AC0CE01805662
:1029F000924580349105B8F3109212040E94160B90
:102A0000C1CFCE01805C9245809708F4E8C0109257
:102A100012040E94160B2DCF9D2F8D2F8F718431A4
:102A200011F308F05CC09F70923009F05AC0109208
:102A300012040E94160BD80112968C918111A5CF19
:102A4000F8018281E080F180882309F4D5C1C701B3
:102A50000E94BB06C82F682FC7010E949603B701CA
:102A60008C2F0E9496040E94A205D82FC92FD8014E
:102A70001296FC9012971596EC90E2942FE0E222C9
:102A800080910F0487708823F1F0DF2CFF20E1F0A4
:102A9000892F807F803451F080E28D0F883098F04C
:102AA000E11004C0892F807E803269F0809111048A
:102AB00082FF09C082E00E946A0480910F0487703F
:102AC000DD24D3948111D12CEC2FE295EF70C03C22
:102AD00008F0CFC1F0E0EC55FB4D0C940724863193
:102AE000A4CF0E94160BF8018281882309F4A8CF95
:102AF00010920704F8019281C631FCE7DF0709F064
:102B000054C180910904992309F445C18A7A91E05E
:102B1000811101C090E090930804882309F439C121
:102B200085E30E94090430CED80115968C9180313E
:102B300008F42BCFCE01992710921204CD3212CF78
:102B40008A9709F41DCF5ACF8C349105FACF109291
:102B50001204CD32E2E0DE0709F412CF5ACF109210
:102B60001204CD32D105D1F0A8F4C832D10578F4E1
:102B7000CE01CE31D10508F003CF04974A9708F073
:102B800048CF82E0809312040E948E0A72CECA322D
:102B9000D105D7CFCC34D105E1F6F2CE82E08093D7
:102BA0001204EECE26E241EE61EE0E944C119CCC66
:102BB00027E245EE65EEF9CF26E241EE60EEF5CF75
:102BC00027E245EE64EEF1CF26E241EE62EEEDCF74
:102BD00027E245EE66EEE9CF28E241E0EBCF109226
:102BE0000704C1308CE7D80709F400C1C3309CE763
:102BF000D90709F4F5C0C115DC4709F021CF0E94BF
:102C0000470EFFEF24E33CE0F15020403040E1F775
:102C100000C000000E9476088091100481608093BB
:102C20001004609110047091110484E090E00E94FF
:102C300039240E94470E58CC8091110488608093FB
:102C40001104EFCF809110048260E9CF80911004CD
:102C50008460E5CF809110048860E1CF80911104F9
:102C60008160EDCF809111048260E9CF80911004E2
:102C70008061D5CF809110048062D1CF8091100403
:102C80008064CDCF0E94470E809110048068C7CF2A
:102C9000809110048C60C3CF809111048360CFCFEA
:102CA000809110048E7FBBCF80911104877FC7CFA6
:102CB000809110048D7FB3CF809110048B7FAFCFB4
:102CC00080911004877FABCF809111048E7FB7CFA6
:102CD000809111048D7FB3CF809110048F7E9FCFA0
:102CE000809110048F7D9BCF809110048F7B97CFB4
:102CF0000E94470E809110048F7791CF809110042D
:102D0000837F8DCF809111048C7F99CF80911004A7
:102D100082FB992790F921E0922790FB82F990FBA2
:102D200083F97DCF80911104982F909591708E7FBB
:102D3000892B90FB81F983CF90911004892F8F7B91
:102D400096FF80646CCF0E94470E90911004892FEB
:102D500097FB87F9805863CF61E08EE090E00E9496
:102D60001B245FCF60E0F9CF90911004892F8F7EF4
:102D700094FF806154CF90911004892F8E7F90FF33
:102D800081604DCF90911104892F877F93FF8860D8
:102D900056CF89E2C6CE80910804882321F085E3CE
:102DA0000E943D04F1CC89E2FBCF992309F448CE7F
:102DB000CA352CE7D207E1F008F413CFCB35BCE7D6
:102DC000DB07C1F0CC35DC4709F03ACE8091110425
:102DD00082FB882780F991E089270E94770A30CE0C
:102DE0006FEF7FEF80E090E00E9439240E94760E22
:102DF00081E0F3CF80E0F1CFC7010E94CC03C82F60
:102E00002ECEBC2FBF70EB2EC03118F0E29490EFA5
:102E1000E922FF20B9F0EE2069F080E28D0F8830C2
:102E200010F0D11109C0809109048E298093090402
:102E30000E948E0A8D2F68C0809112048E29809383
:102E40001204F6CF8D2F0E94770DEE2091F080E2D4
:102E50008D0F883010F0D11104C08E2D0E9488048F
:102E600006C0E094809112048E21809312040E9487
:102E70008E0ADD20B1F080910F0480FD12C0D801D0
:102E800012961C928595859585950E947403C801BC
:102E90000E94AB1180910F048595859585950E94C0
:102EA000840360E0C8010E94EF062FCBEC2FEF7087
:102EB000CE2EC07FC03219F0C29480EFC822DD232D
:102EC00099F0D13009F453C0FF2009F45DC0EE2021
:102ED00009F453C0D80115968C91159780FFAACF9D
:102EE0008F7015968C9349C02091110422FD17C054
:102EF000FF2069F0CC2039F0809109048C2980935F
:102F000009040E948E0A80E00E94DB0CB2CF80E0B0
:102F10000E94770DCC2009F4ACCF8C2D9FCFFF20E1
:102F2000A1F090910A048C2D892BE11003C00E941E
:102F3000F00A9FCFF1E0EF12FACF22FF9ACF981755
:102F400009F497CF80930A0494CFE11006C00E9441
:102F500090048C2D0E94040B8CCF21E0E21609F422
:102F600088CF8C2D0E94040B0E94900482CFFF20FA
:102F700031F035E03E1508F47CCF8C2DD8CF84E0BD
:102F80008E1508F476CFE5CFEE2019F3D93349F446
:102F9000BFEFE7EEF3E0B150E040F040E1F700C0F2
:102FA00000008D2F0E94770D64CF8C2F869586951B
:102FB0008370882369F0813009F05BCF8D2F9C2FBF
:102FC0009370F11002C080E090E00E94E50751CFBD
:102FD0008D2F9C2F9370F11002C080E090E00E9432
:102FE000BF0747CF6F2D8D2F0E94160C42CF8C2F1D
:102FF0008370811144C0F1102FC04D2F429546952A
:103000004770440F440F2D2F2F7030E0042E02C064
:10301000220F331F0A94E2F780E090E0D4FF09C04A
:103020008FE090E002C0880F991F4A95E2F78095E3
:103030009095C695C695C370C230C1F0C33099F063
:1030400040910B0450910C04C13059F0822B932B0A
:10305000842395230E9468030E94B2070E945803AC
:1030600008CF242B352B822B932BF4CF822B932B41
:1030700020910B0430910C0482279327EBCFFF2083
:1030800091F1C0FFE9CF4D2F429546954770440F0F
:10309000440F2D2F2F7030E0042E02C0220F331F5B
:1030A0000A94E2F780E090E0D4FF09C08FE090E05E
:1030B00002C0880F991F4A95E2F780959095C695B2
:1030C000C695C370C230C1F0C33099F040910D0471
:1030D00050910E04C13059F0822B932B84239523F9
:1030E0000E946D03B9CF823008F4B6CFCCCF242B29
:1030F000352B822B932BF4CF822B932B20910D0415
:1031000030910E0482279327EBCFCF70FF2039F048
:103110008C2F0E9474038D2F0E94F00A9DCF8D2F5B
:103120000E94040B8C2F0E94840396CFD23FA1F102
:1031300078F4D03FC1F0D13F09F447C0FF2009F433
:103140006BC0EE2009F465C08D2F0E94DB0C84CF8C
:10315000D33F49F1D43FA9F1F110F3CFE1106AC098
:103160008C2F8F71E0CFFF20A1F024E02E1508F402
:1031700073CFCF7181E090E0DC0102C0AA0FBB1FCA
:10318000CA95E2F780910D0490910E048A279B273F
:10319000A7CFB5E0EB16EBCF8C2F8F71F110C3CF1B
:1031A0000E94740359CF80E090E0FF2009F498CF8B
:1031B000CF7181E090E002C0880F991FCA95E2F7B5
:1031C0008FCF8091110482FD06C08C2F8F71FF205C
:1031D00009F4A9CFE5CFFF2089F0CF718C2F0E9491
:1031E00074038091110482FF07C0E8E0CE9FC00104
:1031F0001124836080930F048C2FD2CF81E00E9432
:103200006A04F1E0FE1508F027CF82E00E946A040C
:1032100023CF8C2F8F71C4CFEE2009F4A1CFD933E7
:1032200049F42FEF37EE83E0215030408040E1F742
:1032300000C000008D2F0E94770D0ECF1F93CF93FB
:10324000DF9380914A04803108F04CC0809147049C
:10325000882309F447C0809114042091130430910D
:10326000450460914604C0914804D0914904732FED
:1032700076232817B9F190E0209709F443C016E0AF
:103280007F3F09F43FC0189FF001199FF00D1124F2
:10329000DF01AB5EBB4F11964C91119746132CC0CA
:1032A0004C91431329C012964C91129741111EC0A4
:1032B00013964D915C914C1B5D0B483C5105E0F41D
:1032C00080914A048F70806180934A04E65EFB4FD0
:1032D00080818F708061808385E494E00E94AB11CF
:1032E0000E94FF03DF91CF911F910895019687708F
:1032F00099272813C8CFF6CF0196877099272813EE
:10330000BFCFF0CF01968770B4CFABE0B0E0EBE871
:10331000F9E10C94C4238C0185E0F801DE011796D5
:1033200001900D928A95E1F7F801F280C380D48074
:1033300085E4A82E84E0B82E90914504209146049F
:1033400040914804509149044115510509F4FEC0CB
:10335000892F82238F3F09F4F9C0E0904704B6011A
:10336000641B750BEE2009F4C5C080914A04683CCB
:10337000710508F0A1C0B180803108F061C02B1147
:1033800013C02081291310C0F1103EC08F708061DE
:1033900080934A0485E494E00E94AB1180914A0432
:1033A000F8018583F12C29C0AF80C114D10451F1FB
:1033B0008A2D8B218F3F31F1F11026C040E06B2D1B
:1033C0008A2D0E94E40940E06B2D8A2D0E94E409B9
:1033D000F82E8111E7CF8F8198850E940F07292F42
:1033E00022952F709034B0F49F702230E0F0992332
:1033F000F1F0F80195819031D0F48F2D2B96EAE011
:103400000C94E023FF2071F280914A048160809344
:103410004A04C8CF2A5F2F70223068F0C8010E948A
:10342000AB11FE2CEACF992311F0882331F3805E93
:10343000883018F3F3CF803F00F3815F8230F9CFFB
:103440002B1112C0208129130FC0F1100DC08583EC
:10345000C8010E94AB1186E0F801A5E4B4E0019038
:103460000D928A95E1F725C0C8010E941E078823A6
:1034700009F468C0FF2009F465C080914A048032D5
:1034800070F020914504309146043A8329831B82D1
:10349000DD82CC828E83CE0101960E94AB1186E044
:1034A000F801A5E4B4E001900D928A95E1F70E943D
:1034B0001E19FF24F394A1CF803150F485E494E0E9
:1034C0000E94AB1186E0F50111928A95E9F76ACF67
:1034D00031813213C9CF20812913C6CFF110C4CF57
:1034E0008583C8010E94AB1186E0F50111928A958F
:1034F000E9F7DFCF683C710528F7FF2019F18181DA
:10350000821316C08081891313C080914A0480FD04
:10351000A2CF803108F49FCF8583807F803F09F45C
:1035200097CF8581982F907F905F8F70892B8FCF59
:10353000C8010E941E078111B2CF80914A048160A8
:1035400080934A04C8010E94AB11B3CFFF20D1F38E
:10355000C8010E941E078823A9F386E0F801A5E4AC
:10356000B4E001900D928A95E1F780914504909125
:1035700046040E940F079BCFA7E1B0E0E2ECFAE11E
:103580000C94CB234B8B5C8B962F6D8B7E8B8F8B10
:103590006111109212041A8A85E0FE017396DE0111
:1035A0001D9601900D928A95E1F79F8786E0FE01B6
:1035B0003D96DE01179601900D928A95E1F7CE01B6
:1035C00007960E948519811131C086E0FE01379669
:1035D000DE01119601900D928A95E1F78F81988511
:1035E00020911304409114046A857B85672BF1F0C8
:1035F00089238F3FD9F030E0C90101968770992760
:1036000050E084179507E9F096E0929FD001939FD0
:10361000B00D1124AB5EBB4FFE01319601900D92AF
:103620009A95E1F7809313040E94FF0316E08091BE
:10363000140490911304891312C06796E3E00C946C
:10364000E7230E94470E109213041092140486E0A0
:10365000E5E4F4E0DF011D928A95E9F7E7CF189FD2
:10366000C00111248B5E9B4F0E948519882329F38A
:103670008091140490E00196877099278093140438
:10368000D6CFA5E0B0E0E7E4FBE10C94CA230E94AA
:10369000E20B8C0180919803909199038017910718
:1036A00091F08FEF89838A831B820E94E20B8160F5
:1036B000782F49815A816B81892F0E94BC1A1093FF
:1036C0009903009398032596E4E00C94E623ABE07D
:1036D000B0E0EDE6FBE10C94BC2380914B04882321
:1036E00071F08091290390912A030196811520E2BF
:1036F000920708F01DC190932A0380932903FFE5E8
:103700008F2EF3E09F2EEE24E394F12C312C222413
:103710002A942E0CF401A190B1904F0112921292B2
:103720006F01F4E0EF1609F41AC123E0221508F442
:103730000AC181E0281609F40CC192E0291609F4A7
:103740000BC1849A8C9880914B04882309F40DC195
:103750008FE891E00197F1F700C0000080914B04E1
:10376000612C712C811126C09FEF998304E610E033
:1037700021E030E0AE014F5F5F4F62E180E40E94E4
:1037800055239C0191E0232B09F490E080914B0498
:10379000890F80934B04898180950E944403982F60
:1037A00096959C778370892B782E7694682E6794F3
:1037B0006624679469B179B139B196B129B15CB128
:1037C00083B17695769541E0742771707A831B8278
:1037D000EA81FB8175E0EE0FFF1F7A95E1F76695B0
:1037E00066956695642761706C831D826C817D810E
:1037F000A6E0660F771FAA95E1F76E2B7F2B8295C7
:103800008F70842781708E831F82EE81FF816E2BE3
:103810007F2B32953F703427317038871986E885C1
:10382000F985B4E0EE0FFF1FBA95E1F76E2B7F2B01
:103830009295969596959370942791709A871B868A
:103840008A859B8533E0880F991F3A95E1F7862B8F
:10385000972B022E000C330B209530952227330F27
:10386000221F3327220F331F220F331F822B932B4C
:103870005295569556955370542750FB442440F862
:10388000512C9201220F331F822B932B86299729CB
:10389000F60191838083F3E02F1609F4ACC0F21592
:1038A00008F476C0241609F486C022E0221609F432
:1038B00092C084988C988C9881E0F60120813181A7
:1038C0002A153B0509F480E0382AFFEFEF1AFF0ABA
:1038D00027E0E216F10409F01ACF332009F49FC063
:1038E00081E0809328030E94E20B9093270380934A
:1038F000260380912603909127030E943D1105978E
:1039000008F491C04CE050E06FE573E08EE693E080
:103910000E944F24892B49F08CE0EFE5F3E0AEE6FE
:10392000B3E001900D928A95E1F7109228037BC0D5
:1039300010922A031092290310924B040E94AB0BA1
:103940000E94910BDCCEE4E02E120CC0219A299843
:10395000FACE859A8D98F7CE869A8E98F4CE879A6D
:103960008F98F1CE229A2A98EECE61E070E00E2C6C
:1039700001C0660F0A94EAF7609581E00E94690B26
:1039800091E0982780914B04890F80934B04E6CEF9
:1039900084E0281240C021982998299881E0F601F6
:1039A000208131812A153B0509F480E0382A86E020
:1039B000E82EF12CACCE85988D988D9881E0F6019B
:1039C000208131812A153B0509F480E0382A33E053
:1039D000E32EF12C9CCE86988E988E9881E0F6018D
:1039E000208131812A153B0509F480E0382A24E042
:1039F000E22EF12C8CCE87988F988F9881E0F6017B
:103A0000208131812A153B0509F480E0382A95E0B0
:103A1000E92EF12C7CCE22982A982A984DCF8091BD
:103A20002803811166CF8091F203882329F060E09A
:103A300070E081ED0E94D00D8091F103882329F080
:103A400060E070E082ED0E94D00D2B96E2E10C94D4
:103A5000D823CDB7DEB728970FB6F894DEBF0FBED8
:103A6000CDBF85B7806885BF85B7806885BF84B7BF
:103A7000877F84BF0FB6F894A89580916000886115
:103A800080936000109260000FBE80E890E00FB657
:103A9000F89480936100909361000FBE8AE497E0F0
:103AA00090930503809304030E9433090E948909BF
:103AB0008091E20084608093E200789480916D03AD
:103AC000882399F08091E9001091EC001795112757
:103AD00017958F70182B1092E9008091E80083FDF4
:103AE0000E948C0E1F701093E90082E084BD93E069
:103AF00095BD9AEF97BD80936E0080915E03811112
:103B00000EC00E943B222FEF43ED80E32150404046
:103B10008040E1F700C0000081E080935E032198BF
:103B2000299822982A9884988C9885988D988698B8
:103B30008E9887988F9829982A988C988D988E9827
:103B40008F980E94AB0B6E98769A52985A9A539817
:103B50005B9A54985C9A57985F9A3E98469A249834
:103B60002C9A0E94910B8CE0EFE5F3E0DF01282F07
:103B70001D922A95E9F7EEE6F3E0DF011D928A95A2
:103B8000E9F780E090E00E941524873E9E4F09F4FB
:103B90005EC067EE7EEF80E090E00E94392460E036
:103BA00082E090E00E941B2460E083E090E00E94AD
:103BB0001B2410920C0410920B0460E074E184E06A
:103BC00090E00E94392460E086E090E00E941B248F
:103BD0006FEF87E090E00E941B2440E050E0BA01C4
:103BE00088E090E00E942D2460E08DE090E00E944B
:103BF0001B2440E050E0BA0188E190E00E942D24AF
:103C000060E087E190E00E941B2440E050E0BA01B0
:103C10008CE190E00E942D2460E070E080E290E072
:103C20000E94392440E050E0BA0188E190E00E940F
:103C30002D2440E050E0BA018FE090E00E942D2456
:103C400040E050E0BA0183E190E00E942D2482E040
:103C500090E00E940D2480937A0384E090E00E941B
:103C6000152490931104809310040E94671BEFEFBA
:103C7000F6E721E0E150F0402040E1F700C000000D
:103C80000E94671B80916E0380FF08C06FEF7FEF7B
:103C900080E090E00E9439240E94760883E090E062
:103CA0000E940D2490E00E94680380910D04909181
:103CB0000E040E94E002259A2D98269A2E98239AA7
:103CC0002B980E94D1020E94D4020E94D7020E9427
:103CD000DA020E94DD024FEF80E792E0415080401F
:103CE0009040E1F700C00000259A2D9AAFEFB0E7B1
:103CF000E2E0A150B040E040E1F700C00000269AA9
:103D00002E9AFFEF20E742E0F15020404040E1F7DB
:103D100000C00000239A2B9A8FEF90E7A2E0815019
:103D20009040A040E1F700C000000E94D102BFEF28
:103D3000E0E7F2E0B150E040F040E1F700C0000001
:103D40000E94D4022FEF40E782E0215040408040A3
:103D5000E1F700C000000E94D7029FEFA0E7B2E0A9
:103D60009150A040B040E1F700C000000E94DA028C
:103D70000E94D1020E94D4020E94D7020E94DA025D
:103D800088E491E090939B0380939A0347E8442E44
:103D900043E0542ECE01019658E1652E712C8F839D
:103DA000988780916D03853059F480916D0385303B
:103DB00009F45BC00E94470E0E94B2070E9458039C
:103DC0000E94671B2BE7A22E23E0B22E3EE6832E35
:103DD00033E0932ED401F501219131918D919D9184
:103DE0004E165F0609F494C028173907A9F3312C41
:103DF000D4010D911D914D01F501C190D1905F014C
:103E0000C016D10659F1C026D126212CEE24E39408
:103E1000F12CC7018C219D21892BB1F029823A8296
:103E200021E0C70180239123892B09F420E02B8313
:103E30000E94E20B8160782F9D838C8349815A8197
:103E40006B81892F0E94BC1A2394EE0CFF1CFEE0AC
:103E50002F12DFCFF501329711830083339426E0D0
:103E60003212C6CF0E940B0859C080916D03843076
:103E700029F180E00E94580310926B03E0E40FB632
:103E8000F894A895609260000FBEE093600083B73D
:103E9000817F846083BF83B7816083BF7894889576
:103EA00083B78E7F83BF0FB6F894A895809160008A
:103EB000886180936000109260000FBE80916C0357
:103EC000882309F472CF0E94671BEEE6F3E081912C
:103ED0009191892B29F423E0EA37F207C1F765CFE6
:103EE00040E149BD82E189BD09B400FEFDCF80916A
:103EF000D8008F7D8093D8008091E000826080930D
:103F0000E0008091E00081FDFCCF0E94470E4DCF84
:103F10002817390709F06BCF0E94411B8091F803E5
:103F20009091F903892B09F43EC040918F03509181
:103F3000900360919103709192032FB7F894809150
:103F4000870390918803A0918903B0918A032FBFC2
:103F5000841B950BA60BB70B40918B0350918C03E0
:103F600060918D0370918E0384179507A607B7079C
:103F7000D0F08091F8039091F9030E944A0D1092BD
:103F8000F9031092F80310928F031092900310928D
:103F900091031092920310928B0310928C03109253
:103FA0008D0310928E0300910004109101040115FD
:103FB0001105B9F080910204909103040E943D1113
:103FC000893C910570F04EE0049FC0011124FC0172
:103FD000E95AFE4F208122FD04C08E5A9E4F0E9456
:103FE0003E0B80910404882369F00E94E20B20912B
:103FF000050430910604821B930B8F3F9F4710F4FA
:104000000E94160B86E0EBEEF3E0AF81B8850190DD
:104010000D928A95E1F71092ED031092EE03109243
:10402000EF031092F0030B811C81802F812B8823DA
:1040300079F080919503909196030E943D119C0127
:104040008091E90381114AC02B30310508F04CC042
:104050000D811E81802F812B882379F0809193031D
:10406000909194030E943D119C018091E80381117D
:1040700079C02B30310508F07BC046E050E06F81FD
:1040800078858BEE93E00E944F24892B61F4809118
:10409000ED039091EE03892B9091EF03892B909182
:1040A000F003892B81110E94EE0B86E0EF81F885E9
:1040B000ABEEB3E001900D928A95E1F70E94B20752
:1040C000182F80919703181709F46BCE109397035C
:1040D0000E940B08812F0E94580363CE25313105C1
:1040E00008F4B6CF8F3F19F08F5F8093E903002368
:1040F00059F00E944C0791E010160CF09FEF899F39
:10410000802D11248093ED03112359F00E944C0758
:1041100091E011160CF09FEF899F802D1124809360
:10412000EE033091ED03332309F492CF2091EE0397
:10413000222309F48DCF45EB3403C0011124892FCC
:10414000911101C081E08093ED0345EB24039001C0
:104150001124332319F03093EE037ACF81E080935A
:10416000EE0376CF2135310508F487CF8F3F19F064
:104170008F5F8093E803002359F00E946C0791E061
:1041800010160CF09FEF899F802D11248093EF0370
:10419000112359F00E946C0791E011160CF09FEF6B
:1041A000899F802D11248093F0033091EF033323F6
:1041B00009F463CF2091F003222309F45ECF45EB8D
:1041C0003403C0011124892F911101C081E0809333
:1041D000EF0345EB240390011124332319F03093AE
:1041E000F0034BCF81E08093F00347CF78941F9288
:1041F0001FB61F9211248F939F93AF93BF9380910B
:10420000870390918803A0918903B0918A03019656
:10421000A11DB11D8093870390938803A093890308
:10422000B0938A03BF91AF919F918F911F901FBE52
:104230001F9018951F920F920FB60F9211242F9373
:104240003F934F935F936F937F938F939F93AF931E
:10425000BF93EF93FF938091E10082FF09C08091AB
:10426000E20082FF05C08091E1008B7F8093E10036
:104270008091DA0080FF24C08091D80080FF20C0A8
:104280008091DA008E7F8093DA008091D90080FFE0
:104290009BC080E189BD82E189BD09B400FEFDCFEC
:1042A00081E080936D0380913003811109C00E94E9
:1042B00033090E9489098091E20084608093E200C2
:1042C0008091E10080FF17C08091E20080FF13C061
:1042D0008091E2008E7F8093E2008091E200806115
:1042E0008093E2008091D80080628093D80019BC4E
:1042F00085E080936D038091E10084FF29C0809167
:10430000E20084FF25C080E189BD82E189BD09B456
:1043100000FEFDCF8091D8008F7D8093D8008091E2
:10432000E1008F7E8093E1008091E2008F7E809398
:10433000E2008091E20081608093E20080912F038F
:10434000882309F447C084E080936D0380916D0356
:104350008091E10083FF27C08091E20083FF23C0AA
:104360008091E100877F8093E10082E080936D037C
:1043700010922F038091E1008E7F8093E100809165
:10438000E2008E7F8093E2008091E2008061809362
:10439000E20042E060E080E00E9452098091F0007B
:1043A00088608093F000FF91EF91BF91AF919F9152
:1043B0008F917F916F915F914F913F912F910F90CE
:1043C0000FBE0F901F90189519BC10926D0310929C
:1043D000300376CF8091E30087FF02C083E0B4CF43
:1043E00081E0B2CF1F920F920FB60F921124FF926D
:1043F0000F931F932F933F934F935F936F937F93ED
:104400008F939F93AF93BF93CF93DF93EF93FF93DC
:1044100009EE10E0F8018081C091EC00C795CC272F
:10442000C7958F70FC2EF82A1082C0EFD0E08881EB
:10443000877F888378940E948C0EF801108288818F
:1044400088608883CF2DCF70C083FF91EF91DF917B
:10445000CF91BF91AF919F918F917F916F915F911C
:104460004F913F912F911F910F91FF900F900FBE91
:104470000F901F9018951092B9008CE08093B800AF
:104480000895A0E0B0E0E7E4F2E20C94C323B82E74
:10449000EB010E94E20B6C01EE24E394F12CC43199
:1044A000D10560F025E0E22EF12CCF3FDC0731F0A2
:1044B000CE0164E170E00E94A8237B0184EAA82E6B
:1044C00094E8992E1092BC00A092BC000E94E20BCE
:1044D000182F092F8091BC0087FF0CC08091B90074
:1044E000887F8830F9F08091B900887F8031D1F0E1
:1044F0000FEF08C0812F902F0E943D11E816F9069A
:1045000048F70EEF1FEFCF3FDC07E1F2C6010E9434
:104510003D11C817D907B0F6C801CDB7DEB7EBE03B
:104520000C94DF23B092BB009092BC000E94E20B7F
:10453000182F092F8091BC0087FF0AC02091B90075
:10454000287F283111F0203499F600E010E0E4CF04
:10455000812F902F0E943D11E816F90658F7D1CF10
:104560000F931F93CF93DF93EB018093BB0084E8FD
:104570008093BC000E94E20B182F092F8091BC0091
:1045800087FF11C02091B900287F81E090E0283298
:1045900011F480E090E0919581959109DF91CF91A0
:1045A0001F910F910895CF3FDC0741F3812F902F8A
:1045B0000E943D11C817D90708F78EEF9FEFEECF85
:1045C0000F931F93CF93DF93EC0184EC8093BC0097
:1045D0000E94E20B182F092F8091BC0087FF08C0B2
:1045E0008091BB0090E0DF91CF911F910F910895D2
:1045F000CF3FDC0789F3812F902F0E943D11C81710
:10460000D90750F78EEF9FEFEECF0F931F93CF9305
:10461000DF93EC0184E88093BC000E94E20B182F2A
:10462000092F8091BC0087FF08C08091BB0090E0FB
:10463000DF91CF911F910F910895CF3FDC0789F350
:10464000812F902F0E943D11C817D90750F78EEF88
:104650009FEFEECFA0E0B0E0E0E3F3E20C94C623DE
:10466000C62F6A017901B8010E9441229C0197FD81
:104670000DC0B8018C2F0E94B0229C01E601EC0C09
:10468000FD1CCE15DF0511F037FF09C084E98093CA
:10469000BC00C901CDB7DEB7E8E00C94E223B80155
:1046A00089910E94B0229C01ECCFA0E0B0E0EBE544
:1046B000F3E20C94C223D82EC62E7A01E901B80188
:1046C0000E9441229C0197FD13C0B8018C2D0E94CD
:1046D000B0229C0197FD0CC0B8018D2D81600E9415
:1046E00041229C0121976E01209781F437FF26C05B
:1046F00084E98093BC00C9011816190614F480E0FF
:1047000090E0CDB7DEB7ECE00C94DE2397FDF0CF60
:10471000A12CB12C4601C8010E94E0229C0197FD0A
:10472000E7CFF701EA0DFB1D80838FEFA81AB80AC7
:10473000C82DD92DAC14BD0470F3D8CFC8010E9488
:1047400005239C0197FDD4CFCE0DDF1D8883D0CFEC
:10475000AA1BBB1B51E107C0AA1FBB1FA617B707A7
:1047600010F0A61BB70B881F991F5A95A9F78095C3
:104770009095BC01CD0108952F923F924F925F9288
:104780006F927F928F929F92AF92BF92CF92DF9261
:10479000EF92FF920F931F93CF93DF93CDB7DEB7C6
:1047A000CA1BDB0B0FB6F894DEBF0FBECDBF09945A
:1047B0002A88398848885F846E847D848C849B84B1
:1047C000AA84B984C884DF80EE80FD800C811B81BF
:1047D000AA81B981CE0FD11D0FB6F894DEBF0FBEEE
:1047E000CDBFED01089597FB072E16F4009407D076
:1047F00077FD09D00E94A82307FC05D03EF49095D0
:1048000081959F4F0895709561957F4F0895EE0FA4
:10481000FF1F0590F491E02D0994F999FECF92BD08
:1048200081BDF89A992780B50895A8E1B0E042E0EB
:1048300050E00C944124262FF999FECF92BD81BD02
:10484000F89A019700B4021639F01FBA20BD0FB6CE
:10485000F894FA9AF99A0FBE08950396272F0E94AA
:104860001C240E941B24252F0E941C24242F0C94FE
:104870001C240196272F0E941C240C941B24DC016D
:10488000CB01FC01F999FECF06C0F2BDE1BDF89A5B
:10489000319600B40D9241505040B8F70895FB0195
:1048A000DC0104C08D910190801921F441505040E9
:1048B000C8F7881B990B0895F894FFCF220C2A0C97
:1048C0002D0C330C480C480C480C480C480C480C78
:1048D000480C480C360C3B0C3F0C450C560C5C0C41
:1048E000600C690F8F0F950F8F0F950FE80F0A104F
:1048F000950F08111511DC15E015D215D815E41522
:10490000E815EC155016BB165816221626165C161E
:104910002A1660166C163616B4163A1670163E161F
:1049200074169C1642167816A31648167E1686161E
:104930002E166416321668164C1682169216AC168F
:10494000B2161C165416C216011701175617561721
:10495000D517F21739173917F717851896189618BB
:10496000BE02AE029E028E027E026E025E024E0207
:104970003E022E021E020E02FE01EE01DE010000CA
:10498000250243003000420030024100270240006F
:104990002E003F0024023E0026023D002F023C0074
:1049A0002F003B002E023A008708410A690A700A6C
:1049B0000101000000000000600D710DC00D4401F8
:1049C000000000000000600D710DC00D40010000EE
:1049D00000000000600D710DC00D3C0100000000E2
:1049E0000000600D710DC00D3801000000000000D6
:1049F000600D710DC00D3401000000000000600D5D
:104A0000710DC00D3001000000000000600D710D3F
:104A1000C00D2C01000000000000600D710DC00DE4
:104A20002801000000000000600D710DC00D240180
:104A3000000000000000600D710DC00D20011F027C
:104A400022FFFF00222302070000000000003100C7
:104A500022FFFF00222002070000000000003102B8
:104A600022FFFF00223500070000000000001E02A8
:104A700022FFFF0022220207000000000000095769
:104A800022FFFF0022270007000000000000085757
:104A900022FFFF0022260007000000000000075749
:104AA00022FFFF002225000700000000000006573B
:104AB00022FFFF002224000700000000000005572D
:104AC00022FFFF002223000700000000000004571F
:104AD00022FFFF0022220007000000000000035711
:104AE00022FFFF0022210007000000000000025703
:104AF00022FFFF00222000070000000000000157F5
:104B000022FFFF00221F00070000000000000057E6
:104B100022FFFF00221E000700000000000021020B
:104B200022FFFF0022350207000000000000E20023
:104B3000E900EA00B500B600B700CD008301CC0063
:104B40008A019201940121022302240225022602F5
:104B500027022A02B300B4006F0070009F01CB014E
:044B60009F02A0020E
:00000001FF
