:100000000C9408030C9425030C9425030C942503ED
:100010000C9425030C9425030C9425030C942503C0
:100020000C9425030C9425030C94751F0C944D20FF
:100030000C94A30B0C9425030C9425030C9425031A
:100040000C9425030C9425030C9425030C94250390
:100050000C9425030C94511F0C9425030C94250338
:100060000C9425030C9425030C9425030C94250370
:100070000C9425030C9425030C9425030C94250360
:100080000C9425030C9425030C9425030C94250350
:100090000C9425030C9425030C9425030C94250340
:1000A0000C9425030C9425030C94250305010902E7
:1000B000A10185020901A1000509190129081500FE
:1000C0002501950875018102050109300931158165
:1000D000257F95027508810609381581257F9501D0
:1000E00075088106050C0A38021581257F95017572
:1000F000088106C0C005010980A101850319012AF4
:10010000B700150126B700950175108100C0050CD8
:100110000901A101850419012AA002150126A002E6
:10012000950175108100C005010906A1018506052C
:100130000719E029E71500250195087501810205D9
:1001400007190029EF1500250195F07501810205B9
:10015000081901290595057501910295017503910D
:1001600001C005010906A101050719E029E71500ED
:100170002501950875018102950175088101050722
:10018000190029FF150026FF009506750881000556
:10019000081901290515002501950575019102959C
:1001A0000175039101C009023B00020100A0FA0998
:1001B0000400000103010100092111010001224492
:1001C0000007058103080001090401000103000084
:1001D0000009211101000122B60007058203200059
:1001E0000112010002000000080912282301000189
:1001F00002000112034500720067006F0064006F87
:10020000006E006500000012034B002E0054002E0B
:100210000045002E0043002E0000000403090421C5
:10022000022E022F002F0226022402460065002E15
:100230000027023002300025021E022B0033003658
:1002400000370013001C004E004B0009000A000696
:100250000015000F003800290004001200080018E3
:10026000000C000000000007000B00170011001632
:10027000002D00E100340014000D000E001B0039B9
:1002800000737C050010001A0019001D00E500E253
:10029000014A001F02E200310200000000000000DD
:1002A000003100E60049004D00E611000024524CE8
:1002B000002A002552E000E300E700E40025522C6C
:1002C0000028002452000001001E001F0020002111
:1002D0000022000100010023002400250026002741
:1002E0000001000100010001000100010001000106
:1002F00000010001000100010001000100010001F6
:1003000000010001000100010001000000000001E7
:1003100000010001000100010001000100010001D5
:1003200000010001000100010001000100010001C5
:1003300000010001000100010001000100010001B5
:1003400000000000000000000001000100010001A9
:100350000001000000010001000100010001000196
:100360000001000100010001000100010000003552
:10037000001E001F002000210022000100010023B8
:100380000024002500260027002D00010014001A7B
:1003900000080015001700010001001C0018000CE7
:1003A00000120013002F00010004001600070009CE
:1003B000000A00000000000B000D000E000F0033CB
:1003C00000340001001D001B00060019000500019B
:1003D0000001001100100036003700380001000154
:1003E0000001002E000100300000000000000000AD
:1003F00000310001000100010001000000010001C6
:1004000000010001000100010001000100010001E4
:1004100000010001000000010001000100010001D5
:100420000001000100010001005300540055005676
:100430000001000100010052000100010001000163
:1004400000010001005F0060006100570001000131
:1004500000500051004F00010001000000000001A9
:10046000005C005D005E00850001000100010001EC
:100470000001000100010001000100010059005AC3
:10048000005B0067000100010001000100010001A4
:10049000000000000000000000620001006300583E
:1004A0000001000000010001000100010001000145
:1004B0000001000100010001000100010000000135
:1004C000003A003B003C003D003E00440045003F38
:1004D0000040004100420043000100010001000112
:1004E0000001000100010001000100010001000104
:1004F0000001004F000100010000520152025203AE
:100500005201000000000001005000010001000144
:100510000001000100407E417E51005200010001B7
:1005200000010001000100010001000100010001C3
:1005300000010001000100010000000000000000B7
:1005400000010001000100010001000000010001A4
:100550000001000100010001000100010001000193
:100560000001000100000001000100010001000184
:100570000001000100010001005300540055005625
:100580000001000100010046004700480001000191
:1005900000010001005F00600061005700010001E0
:1005A00000010049004A004B00010000000000016A
:1005B000005C005D005E0085000100010001004C50
:1005C000004D004E00010001000100010059005AD9
:1005D000005B006700010001000100010001000153
:1005E00000000000000000000062000100630058ED
:1005F00000010000000100010001000100010001F4
:1006000000010001000100010001000100000000E4
:1006100011241FBECFEFDAE0DEBFCDBF13E0A0E0B4
:10062000B1E0EEE2F6E402C005900D92A430B1070D
:10063000D9F724E0A4E0B3E001C01D92A635B207CB
:10064000E1F70E94851B0C94C3220C940000259AAC
:100650002D980895269A2E980895239A2B980895F8
:10066000559A5D9A0895559A5D980895209A28980C
:100670000895CF93DF93D82FC92F292F30E048E07A
:100680002115310519F4282F392F40E0C90164E004
:10069000969587956A95E1F7009711F04C5F9C015C
:1006A000C9019695879596958795009711F04E5FAD
:1006B0009C0136952795232B39F0443081F00E9418
:1006C0003003209A289A06C04430C9F70E943003AC
:1006D0000E9436038D2F9C2FDF91CF9108950E94A9
:1006E0003303F6CF9C019A9581159F4118F5F901C6
:1006F000EE27F270832F8170B90166277470A9010B
:100700004427587034FF0CC08295807FEF2B09F08E
:100710008062672B09F08064452B69F0806808953A
:10072000EF2B09F08260672B09F08460452B19F0EC
:100730008860089580E008958295982F990F990F09
:100740009C7C869586958373982B892F880F8A7A4F
:1007500096959575892B089580FF08C02D9A81FF85
:1007600007C02E9A82FF06C02B9A08952D98F7CFC6
:100770002E98F8CF2B98089590930D0480930C0435
:1007800008950E94390390930F0480930E040895F6
:1007900021E030E002C0220F331F8A95E2F78091FA
:1007A0000E0490910F04822B932B0E94C103089595
:1007B00021E030E002C0220F331F8A95E2F7209536
:1007C000309580910E0490910F04822393230E9410
:1007D000C1030895963098F58E3088F5E82FF0E043
:1007E0008EE0989FE00DF11D11248E2F877041E05F
:1007F00001C0440F8A95EAF783E0F695E7958A955C
:10080000E1F7EE0FFF1FEE0FFF1FE454FC4F20E057
:1008100030E070E05191DF011197CB01022E02C050
:10082000969587950A94E2F78170819585278423B0
:1008300085278C932F5F3F4F2430310559F708955A
:10084000963078F58E3068F5E82FF0E08EE0989FCE
:10085000E00DF11D11249E2F977083E0F695E7952A
:100860008A95E1F7EE0FFF1FEE0FFF1FE454FC4FD8
:1008700040E050E080E0219130E0092E02C0369542
:1008800027950A94E2F721703327042E01C0220F26
:100890000A94EAF7822B4F5F5F4F4430510559F7B6
:1008A000089580E0089580911504909114049813A0
:1008B00001C008958F5F8770FACF90913C01911528
:1008C000C1F09091110497FF14C0E82FE695E695CA
:1008D000E695803FF8F4F0E0EA5FFC4F877021E096
:1008E00030E001C0220F8A95EAF78281822B828351
:1008F0000895A8E0B3E0EFEF90E02D91821751F05A
:10090000EF3F19F4211101C0E92F9F5F9630A9F73D
:10091000EF3F09F408950E2E000CFF0BEA5FFC4F29
:10092000E6CF90913C019115E1F09091110497FF71
:1009300018C0E82FE695E695E695803FF0F4F0E0E4
:10094000EA5FFC4F877021E030E0A90102C0440F4C
:10095000551F8A95E2F7CA01809592818923828387
:100960000895E8E0F3E09191891303C0DF01119746
:100970001C9253E0EE30F507B1F708959091100402
:100980008095892380931004282F277021110DC092
:10099000891759F09091120492FF07C086958695A9
:1009A00086950E94D803109210040895982F909570
:1009B0008091090489238093090408957630B8F45E
:1009C0006E30A8F48630B0F4E62FF0E09EE0799F18
:1009D000E00DF11D112494E5899FE00DF11D112416
:1009E000EE0FFF1FE15EFD4F85919491089580E029
:1009F00090E0089581E0FCCF803E9105D9F1C8F4E4
:100A00008133910509F482C048F48932910509F4D3
:100A100072C08A32910509F480C008958933910526
:100A2000E9F082389105D1F08533910509F45EC073
:100A30000895843E9105D9F148F4823E910539F13B
:100A4000833E910549F181EE90E00895863E91053F
:100A5000C9F1873E910509F43EC008952091110423
:100A60002370211164C02091120423FF14C089E275
:100A700090E008952091110420FD45C030911204AA
:100A800030FF09C024FD24C083EE90E0089520913A
:100A9000110422FDF7CF08952091110422FD44C0D6
:100AA0003091120430FD43C024FFF5CF11C02091D6
:100AB000120421FFF0CF8091110484FD09C087EE5C
:100AC00090E008952091110423FFE5CF24FFF7CF94
:100AD00080E090E008952091110423FD2BC0309117
:100AE000120431FFE1CF84EE90E0089520911104CB
:100AF00025FFD1CFBCCF2091110425FD1EC0209130
:100B0000120423FFC8CF89E390E0089520911104D7
:100B100026FFC1CF8AE290E008952091110426FFBC
:100B2000BACF81E390E0089582EE90E0089580EEE0
:100B300090E0089586EE90E0089585E390E00895B2
:100B40009091110492FF10C041E0282F24712430AD
:100B500009F040E031E0282F2871283009F030E01A
:100B6000431711F02CE0822793FF10C041E0282F9B
:100B70002471243109F040E031E0282F2871283118
:100B800009F030E0431711F02CE082273091120475
:100B900030FF10C051E0282F2171213009F050E0C2
:100BA00041E0282F2871283009F040E0541711F057
:100BB00029E0822731FF10C041E0282F2171213127
:100BC00009F040E031E0282F2871283109F030E0A9
:100BD000431711F029E0822794FD877E08951F9323
:100BE000CF93DF930E94FC04EC01811522E592076C
:100BF00008F05DC0811540E5940708F0DBC0803E39
:100C0000910528F58D3C910508F0ACC0883A910516
:100C100078F4853A910508F0A2C08130910509F475
:100C200041C00497813A9105E8F1C0E0D0E03AC0B4
:100C3000885A91094B97C8F7C85AD0E0CC0FDD1FEE
:100C4000C253DD4F0990D881C02DD4642BC08115CB
:100C500050E49507F8F4C11580E2D80708F0C3C046
:100C6000C83ED105F8F0CE019A9581159F41E8F66E
:100C70008D2F0E94A005182FCE0199270E94FC04F9
:100C8000212F30E0322F2227E901CC27DF71C82B3A
:100C9000D92B08C099270E94FC04CC27DF70C82BF1
:100CA000D92BD06ACE01DF91CF911F910895803862
:100CB00042E59407C8F5803652E5950708F05BC019
:100CC000C03482E5D807D0F4C03292E5D90708F0E5
:100CD0004BC08C2F8695869520E2829FC0011124FF
:100CE000C37021E030E0A90102C0440F551FCA952E
:100CF000E2F7EA01C82BD92BDD68D4CF8C2F86957B
:100D00008695877050E2859FC0011124C37021E051
:100D100030E0A90102C0440F551FCA95E2F7EA016D
:100D2000C82BD92BDC68BECF803C52E5950758F420
:100D30008F71C03AD245A0F590E0982F8827EC013A
:100D4000C46FD06AAFCF805C9245809708F06DCFBA
:100D5000DC2FCC27CC27DF71C06FD06AA3CFA4973C
:100D6000D064A0CFD0659ECFCF71D0E0DC2FCC2750
:100D7000C16FD06A97CF86958695877020E2829F53
:100D8000C0011124C37021E030E0A90102C0440F6A
:100D9000551FCA95E2F7EA01C82BD92BDA6882CF32
:100DA0000E94A005C82FD0E0DC2FCC27CC27DF7114
:100DB000D06278CF8F710E94A00565E0D695C79567
:100DC0006A95E1F7CF70D0E0DC2FCC27282F30E0F8
:100DD00084FF05C054E0220F331F5A95E1F7C22B60
:100DE000D32BD0695FCF8D2F8F710E94A005182F54
:100DF000CE0199270E94FC04212F30E0322F2227B8
:100E000022273F71282B392BE901D2CFA0E0B0E097
:100E1000ECE0F7E00C941C228C01E0900E04F090C2
:100E20000F0480910C0490910D04E82AF92ACFE078
:100E3000D0E0CC24C394D12CC6010C2E02C0880F64
:100E4000991F0A94E2F78E219F21892B49F421975B
:100E500098F7B12C8B2DCDB7DEB7E9E00C94382292
:100E6000BC2EB8018C2F0E94DE040E94EF05019772
:100E700071F3F0CF0F931F93CF93FC018581008115
:100E80001181811591F0611581F0C8010E9406075A
:100E9000C82F682FC8010E94EA03B8018C2F0E9456
:100EA000DE04CF911F910F910895C8010E94200484
:100EB000C82FF3CFCF93DF93D82FC92F0E940607F7
:100EC0006D2F7C2F0E94DE040E94EF05DF91CF91F1
:100ED0000895FC0184818115A1F0808191810E9497
:100EE0005A07282F92959F70963099F060F4925F80
:100EF0009F70923030F4203F89F038F481E0283E32
:100F000038F080E008959A5FF3CF81E0243FC9F77D
:100F1000089581E0283E20F0213FF9CF81E0089537
:100F2000089580E00895282F35EB2303C001112494
:100F300097FF04C080589109892F089580589F4FCA
:100F4000FBCF8091EA0380FD14C081FD14C082FDB7
:100F500016C08091E903811581F08E3180F420E57F
:100F6000829FC00111246EE170E00E944A22862F08
:100F7000089584E1089588E2089588E0089580E561
:100F800008958091EA0380FD17C081FD17C082FD9E
:100F900019C08091E803811599F0883298F428E00F
:100FA000829FC001112468E270E00E944A2261150C
:100FB000710551F0862F089562E0FCCF64E0FACF0E
:100FC00061E0F8CF68E0F6CF81E00895FC0185810B
:100FD000862381110AC082818115B9F06823918529
:100FE00093FF05C081E061110FC080E00895282FB4
:100FF00022952F708F70282B962F92959F706F706F
:10100000962B81E02913F1CF089581E00895E091B6
:101010009A03F0919B03309729F00190F081E02D25
:101020000995089580E00895A3E0B0E0EAE1F8E0D2
:101030000C9423229C0180915C0390915D038217A4
:101040009307A1F030935D0320935C03E0919A0332
:10105000F0919B03309751F083E089833B832A838F
:101060000680F781E02DCE01019609952396E2E0F6
:101070000C943F22A3E0B0E0E0E4F8E00C942322DB
:101080009C0180915A0390915B0382179307A1F012
:1010900030935B0320935A03E0919A03F0919B03F2
:1010A000309751F084E089833B832A830680F7815F
:1010B000E02DCE01019609952396E2E00C943F22A3
:1010C0002FB7F8946091870370918803809189030A
:1010D00090918A032FBF08950F931F93CF93DF93AF
:1010E000D82FC92F4091010450910204609103044C
:1010F000709104042FB7F89480918703909188032E
:10110000A0918903B0918A032FBF841B950BA60B76
:10111000B70B843F9140A105B10528F5609101040A
:1011200070910204809103049091040404EF11E093
:1011300020E030E060938F037093900380939103DD
:101140009093920300938B0310938C0320938D0351
:1011500030938E03D093FF03C0930004DF91CF91AF
:101160001F910F9108950E94600802E310E020E0B3
:1011700030E0E0CF87E797E790930108809300087D
:1011800088E19AE00FB6F894A895809360000FBEAE
:1011900090936000FFCF809159030895FC019B015B
:1011A00080913703909138038617970740F0672B9B
:1011B00029F48091E8008E778093E800C90140E02F
:1011C000009741F4411106C08091E80082FF2FC0D2
:1011D00080E0089520916D032115A9F12530A9F132
:1011E0002091E80023FD2DC02091E80022FDECCFE6
:1011F0002091E80020FFE4CF3091F3002091F2002D
:10120000009719F02830310558F041E028303105B9
:1012100009F040E02091E8002E772093E800D0CF3D
:1012200041914093F10001972F5F3F4FE9CF8091AB
:101230006D03811541F0853041F08091E80083FF16
:10124000C3CF81E0089582E0089583E008958091FE
:10125000310387FF13C08091E80082FF06C08091B0
:10126000E8008B778093E800089580916D038111E9
:10127000F2CF089580916D038115D9F38091E80034
:1012800080FFF8CF8091E8008E77ECCF2091E400CA
:101290003091E50095E6A9018091EC0081708115FF
:1012A00031F08091E80080FF06C080E00895209131
:1012B000E80022FD1AC080916D03811589F0853008
:1012C00089F08091EB0085FD0FC02091E400309102
:1012D000E5004217530701F39A95E9F684E0089573
:1012E00082E0089583E0089581E00895E8EDF0E05C
:1012F00080818E7F80831092E2001092DA0010923B
:10130000E100A0EEB0E08C9181608C9380818F77BA
:10131000808319BCA7EDB0E08C918E7F8C93808187
:101320008F7E8083109230030895982F9093E90068
:10133000242F762F50E0981731F07091EC00209117
:10134000ED005091F00021FD06C09F5F973071F7CE
:101350008093E90008953091EB003E7F3093EB00DD
:101360003091ED003D7F3093ED003091EB00316026
:101370003093EB007093EC002093ED005093F0005D
:101380002091EE0027FDE1CF0895A0E0B0E0EBEC66
:10139000F9E00C941D22C8EDD0E088818F7E88830F
:1013A000E7EDF0E080818160808384E082BF81E0AE
:1013B0008093300388818E7F888302EE10E0F801ED
:1013C00010821092DA0081EEC82ED12CF601108224
:1013D00088818F77888388818068888388818F7DE2
:1013E000888319BC10926D0310922F0310926C0326
:1013F00010922E0390EEE92EF12CF70180818B7F65
:10140000808388818160888342E060E080E00E9480
:101410009509F60180818E7F8083F801808181604B
:101420008083808188608083F70180818E7F8083C4
:10143000888180618883CDB7DEB7E8E00C943922DB
:10144000E09115049091140427E0E91302C080E0B4
:101450000895AE2FB0E02E9FF0011124EA5EFB4FFD
:101460003181361306C03081381303C035813413FF
:1014700004C0FD013196E770E8CF81E008950F9335
:101480001F93CF93DF938B01EA0190916D0394300A
:1014900059F58093E9008FEF9091E80095FD06C023
:1014A00095ED9A95F1F700008A95B1F78091E800E3
:1014B00085FF1AC00E944609811111C08091E80081
:1014C00085FD06C08091E8008E778093E800F2CF1A
:1014D000F80181918F018093F100219779F7809134
:1014E000E8008E778093E800DF91CF911F910F91F4
:1014F0000895CF93DF93D82FC92F80913C0181119C
:1015000013C048E050E06D2F792F81E00E943F0A20
:1015100080E2ED2FFC2FA9E3B3E001900D928A95B4
:10152000E1F7DF91CF9108958091110487FD06C006
:1015300048E081E050E06D2F7C2FE8CF40E282E070
:10154000F9CFBC0146E050E082E00E943F0A0895D6
:10155000BC0143E050E082E00E943F0A0895909170
:10156000120492FB222720F9281779F080FB92F9C8
:1015700090931204609111047091120484E090E041
:101580000E94A02282E00E94BE040895CF93809121
:10159000090490911304892B8093060390910A0407
:1015A0009115D9F0892B8093060380913C01811518
:1015B00021F08091110487FD49C086E0815090E0C0
:1015C00028E033E0F90140812F5F3F4F41119F5FD9
:1015D0008150C0F7911110920A04C091FB03C0958D
:1015E00080910603C8238091FA03C82BC093060399
:1015F00040E250E06CE973E086E093E00E94B6229E
:10160000892B11F180E2E6E0F3E0ACE9B3E0019070
:101610000D928A95E1F7E0919A03F0919B03309740
:1016200099F080913C01811549F08091110487FF68
:1016300005C0C093070386E0809306030280F38110
:10164000E02D86E093E00995CF9108958EE1B6CF25
:10165000811539F090910904892B809309040E9427
:10166000C60A0895811521F00E94D6040E94C60A78
:101670000895811539F090911304892B80931304F8
:101680000E94C60A08958091F703811549F0809160
:1016900013048D7D809313040E94C60A1092F703F1
:1016A0000895A1E0B0E0E7E5FBE00C942022F82EDD
:1016B000698304E610E021E030E0AE014F5F5F4F48
:1016C000682F80E40E948521892B71F46CE06F0DF6
:1016D00021E030E0AE014F5F5F4F80E40E94852142
:1016E0009C0181E0232B09F080E02196E5E00C9439
:1016F0003C22CF936FEF80E00E94510BC1E0982F06
:101700009C2780915504890F809355046FEF81E0E9
:101710000E94510B982F9C2780915504890F80932C
:101720005504CF9108958091550481110BC06FEF3E
:1017300081E00E94510B91E0982780915504890F18
:101740008093550408951F921FB61F9211248F9302
:101750009F93AF93BF9380916B03811113C08091CE
:10176000870390918803A0918903B0918A034196E1
:10177000A11DB11D8093870390938803A0938903D3
:10178000B0938A03BF91AF919F918F911F901FBE1D
:101790001F9018952FB7F894809187039091880334
:1017A000A0918903B0918A032FBF08950E94CA0BAC
:1017B0002091ED033091EE03232B211521F080932E
:1017C0009503909396032091EF033091F003232B20
:1017D000211521F08093930390939403E0919A0351
:1017E000F0919B03309749F082E08093EB030480F3
:1017F000F581E02D8BEE93E009950895611509F4CC
:101800004BC0E3E3E80FE33150F4F0E0EB53FD4D60
:101810000C945E220E94A10781958093EE030E94A2
:10182000D60B08950E94A107F8CF0E94A1078195C9
:101830008093ED03F4CF0E94A107FACF0E94C10765
:101840008093EF03ECCF0E94C1078195F9CF0E94EE
:10185000C10781958093F003E2CF0E94C107FACFC0
:10186000815D990B21E030E001C0220F8A95EAF7F3
:101870008091EC03822B8093EC03D1CF8091EA031B
:1018800081608093EA03CBCF8091EA038260F9CF35
:101890008091EA038460F5CF4091ED038D3C59F4CB
:1018A0008091EE0387FF0DC01092EE03411559F4AD
:1018B0001092E90308C08E3C81F48091EE03181663
:1018C0009CF3411581F08091EF039091F003892BF7
:1018D0008111A5CF1092E803A2CF8F3C41F447FFBE
:1018E000F0CF1092ED038091EE038115E0CF803DA3
:1018F00019F41416B4F3E5CF9091EF03893D29F460
:101900001916FCF61092EF03DCCF8A3D19F497FF0D
:10191000D8CFF8CF9091F0038B3D29F497FFD1CF2A
:101920001092F003CECF8C3D19F41916CCF3C9CF29
:101930009FE2980F983090F4815D990B21E030E0A0
:10194000B90102C0660F771F8A95E2F7CB01809537
:101950009091EC0389238093EC03B3CF8D3D31F458
:101960008091EA038E7F8093EA03ABCF8E3D21F412
:101970008091EA038D7FF7CF8F3D09F0A2CF809150
:10198000EA038B7FF0CFCF93C82F8115B9F18CEF8D
:101990008C0F813AA8F580913C01811501F180916D
:1019A000110487FF1CC0EC2FE695E695E695F0E064
:1019B000EA5FFC4F828190E04C2F477021E030E0DD
:1019C00002C0220F331F4A95E2F782239323892B0B
:1019D00081F08C2F0E9491040E94C60A0AC0E8E0A0
:1019E000F3E08EE093E02191C21799F38E179F07E1
:1019F000D1F78C2F0E945D040E94C60ACF910895F2
:101A000080E28C0F883068F4C77081E090E001C0FC
:101A1000880FCA95EAF7C0910904C82BC09309043E
:101A2000EBCF8BE58C0F833038F42C2F2452330B03
:101A3000C9010E941408E2CFE8E5EC0FEB3150F445
:101A4000F0E0EE0FFF1FE253FD4F808191810E9475
:101A50003A08D4CF83E38C0F833180F661E08C2F7A
:101A60000E94FE0BCBCF811581F19CEF980F913A2C
:101A700028F40E9491040E94C60A089590E2980FEB
:101A8000983050F4877091E001C0990F8A95EAF779
:101A9000892F0E94D604EFCF9BE5980F933028F44E
:101AA00080E090E00E941408089598E5980F9B311B
:101AB00028F480E090E00E943A08089593E3980F9C
:101AC000933118F460E00E94FE0B08951F93CF93AA
:101AD000DF93182FEB010E94C30C209739F4812F5C
:101AE0000E94330DDF91CF911F9108958FE99FE000
:101AF0000197F1F700C000002197EFCF1F93CF931C
:101B0000DF93182FA091FD03B091FE03109709F405
:101B10004AC0109200041092FF031092FB0310922F
:101B2000FA031796CD91DC911897CE019A958115FD
:101B30009F4108F4D07ED1E0C11101C0D0E01A96D7
:101B4000ED91FC911B97309731F01C966D917C9133
:101B500080E00995D823D11539F08CEF8C0F813AAC
:101B600030F58C2F0E9491041115A9F0E091FD032E
:101B7000F091FE03818584FD0EC08091FC038115E8
:101B800051F0808191819C01215031092F333E47D2
:101B900010F40E946C080E94C60A1092FE03109274
:101BA000FD031092FC03DF91CF911F9108950E94D5
:101BB000C60A8C2F0E94330DD7CF10920904809152
:101BC0003C01E8E0F3E0811529F18091110487FFE1
:101BD00021C08EE1DF011D928A95E9F780E090E057
:101BE0000E94140880E090E00E943A0810921304CA
:101BF0000E94C60A86E0EBEEF3E0DF011D928A95B3
:101C0000E9F71092E9031092E8031092EA030E94A8
:101C1000D60B089586E0DECF0E94DD0D2FEF84E322
:101C20009CE0215080409040E1F700C0000088E136
:101C30009AE00FB6F894A895809360000FBE909339
:101C40006000FFCFAAE2B0E0E8E2FEE00C942222BE
:101C500081E393E0FC0101962091F100208323E0D1
:101C600089339207B9F780913203893009F456C05D
:101C7000C8F4823009F4B2C0833009F481C08130E5
:101C800071F18091E80083FFE7C08091310390916A
:101C900032039A3008F0E0C0E92FF0E0E852FD4D41
:101CA0000C945E228A3009F488C08B3051F7809101
:101CB0003103813231F78091350390913603892BBE
:101CC00001F78091E800877F8093E8000E94270950
:101CD0008091330380933C010E94DD0DD2CF80912F
:101CE0003103813A71F68091E800877F8093E800A4
:101CF0008091350390913603892B61F060E080E09C
:101D000090E070E00E94CE088091E8008B7780938D
:101D1000E800B7CF60E289E393E0F3CF809131032D
:101D2000813209F0AECF809135039091360302974E
:101D300008F0A7CF8091E800877F8093E80080912A
:101D4000E80082FF18C09091F3008091F2000297A2
:101D500031F48091F100813011F0863021F48091CE
:101D6000F100809359038091E8008B778093E8001D
:101D70000E94270986CF80916D038111E0CF81CF2A
:101D800080913103813A09F07CCF809135039091A5
:101D90003603892B09F075CF8091E800877F809307
:101DA000E8008091E80080FFFCCF80913C018093A7
:101DB000F1008091E8008E77D9CF80913103813294
:101DC00009F05FCF8091E800877F8093E8000E9450
:101DD00027098091340380932D0353CF80913103E1
:101DE000813A09F04ECF8091E800877F8093E80028
:101DF0008091E80080FFFCCF80912D03D8CF803800
:101E000089F0823849F5809135038F70873020F54D
:101E10008093E9008091EB0085FB882780F9109280
:101E2000E90007C090916C039195927080912E0308
:101E3000892B9091E800977F9093E8008093F100C0
:101E40001092F1008091E8008E7723C0811116C0B6
:101E500080913303813011F18091E80083FF0AC043
:101E60008091E800877F8093E8008091EB0080629A
:101E70008093EB00AA96E3E00C943E22823061F757
:101E800080913303811589F01092E9008091E80078
:101E9000877F8093E8000E942709DECF81E093309E
:101EA00009F080E080936C03EFCF809135038F7051
:101EB0002FEF280F263080F68093E9002091EB0069
:101EC00020FFE2CF933031F48091EB008062809369
:101ED000EB00DACF9091EB0090619093EB0021E062
:101EE00030E0A90102C0440F551F8A95E2F74093E4
:101EF000EA001092EA008091EB008860E8CF81113F
:101F0000ABCF109133031F778091E3008078812B52
:101F10008093E3008091E800877F8093E8000E942F
:101F200027098091E80080FFFCCF8091E300806862
:101F30008093E30083E0111101C082E080936D0380
:101F40008BCF8058823008F087CF40913303509177
:101F500034034C3D83E0580799F583E08A838AE295
:101F600089834FB7F894DE01139620E03EE051E2FA
:101F7000E32FF0E050935700849120FF03C0829537
:101F80008F703F5F8F708A30C8F0895C90E08D93CE
:101F90009D932F5F243161F74FBF8091E800877FC9
:101FA0008093E8006AE270E0CE0101960E94CE08BC
:101FB0008091E8008B778093E8004ECF805DE6CF7C
:101FC0002091350330913603852F99278330910571
:101FD00009F160F48130910509F472C0029709F0AB
:101FE0003BCF8BE390E0E6EAF1E029C08132910536
:101FF00009F45AC0829709F02FCF2115310509F451
:1020000069C02130310509F027CF86EB90E0ECEA7A
:10201000F0E015C0CA0199274130B1F18230910535
:1020200009F43AC0892B09F017CFEBE1F2E0E49113
:102030008E2F90E0EBE1F2E0009709F40DCF2091B4
:10204000E800277F2093E800209137033091380380
:102050008217930708F49C0140E02115310509F02F
:102060003EC041113CC08091E80082FDA1CF80912B
:102070006D03811509F49CCF853009F499CF8091C7
:10208000E80083FFF0CF94CFE7E0F2E0E4918E2FF9
:1020900090E0E7E0F2E0D0CFE3EFF1E0E4918E2FC3
:1020A00090E0E3EFF1E0C8CF2115310571F0213068
:1020B000310509F0D1CE89E090E0E1EDF1E0BFCF4C
:1020C00082E190E0E1EEF1E0BACF89E090E0E8EB68
:1020D000F1E0B5CF84E490E0E2E6F1E0B0CF8091AA
:1020E0006D03811509F464CF853009F461CF8091C7
:1020F000E80083FD5DCF8091E80082FDB4CF809140
:10210000E80080FFAACF9091F3008091F2002115A2
:10211000310519F08830910550F041E0089709F039
:1021200040E08091E8008E778093E80096CF44915C
:102130004093F1003196215031090196E8CF803863
:1021400009F08ACE8091E800877F8093E800809133
:102150002F038093F10076CE81117ECE1091330350
:10216000123008F079CE8091E800877F8093E800F4
:1021700010932F030E942709111581F084E08093AA
:102180006D0342E061EC81E00E94950942E261EC5E
:1021900082E00E94950980916D035ECE8091E300FC
:1021A00087FDECCF81E0EBCF9C014FB7F894809195
:1021B000870390918803A0918903B0918A034FBF50
:1021C000821B930B0895FF920F931F93CF93DF937E
:1021D000C62FD42F122F8115A9F0609307040E94F7
:1021E000CA0B90932C0380932B03C77081E001C02E
:1021F000880FCA95EAF70E94280BCDB7DEB7E5E055
:102200000C943C2280910704681332C080912B0308
:1022100090912C030E94D410883C910548F500E26F
:102220000D0FCD17A9F0C770FF24F3948F2D01C0B7
:10223000880FCA95EAF70E94320B083048F48D2FB8
:10224000877001C0FF0C8A95EAF78F2D0E94280B3A
:1022500060E070E0812F0E94660D083070F6D77044
:1022600081E001C0880FDA95EAF70E94320BC5CFF2
:10227000C77081E001C0880FCA95EAF7F6CFA0E0E9
:10228000B0E0E5E4F1E10C9413228C01DC0114963A
:102290008C91811571F161E0C8010E943A07EC014F
:1022A0008034BEE79B0751F18134EEE79E0709F4C5
:1022B00070C083379C4769F5D80115968C918115BC
:1022C00039F08091F703811509F46EC00E94430B29
:1022D000809110048770811561F0D80115968C915A
:1022E000811539F08091120482FF03C082E00E94C0
:1022F000BE04CDB7DEB7E2E10C942F22D8011596CB
:102300008C918093F6030E94CA0B9093F5038093FF
:10231000F403E0900904F0900A048091F70381151A
:1023200009F47DC00E94CA0B88579C4E9093F90314
:102330008093F803F8018581811509F470C08F2D11
:102340008E298D798111A0C0C115F0E5DF0708F055
:102350003EC0C11520E4D20708F09BC0C63ED1059F
:1023600009F45DC0CE0190528115904208F098C0EA
:10237000D80116968C91803108F47BC0CE01992744
:10238000109213048D32910599F582E08093130425
:102390008BC0F80185818093F3030E94CA0B909350
:1023A000F2038093F103B5CF1092090480910A04DF
:1023B000811110920A040E94CA0B88579C4E909378
:1023C000F9038093F80381E08093F70381CFC43B46
:1023D000B2E5DB0721F108F03FC0C034F2E5DF07CA
:1023E000C0F4C11522E5D207D0F410921304CE0137
:1023F0008E32910508F05BC08832910508F052C01A
:102400008E31910508F050C004974A9708F4BDCF6B
:102410003BC0CE01805692458034910530F7F801DB
:102420004580411409F44DC0CE35FCE7DF0709F4BF
:1024300044C0CF352CE7D20749F0CD353CE7D30770
:1024400009F03FC080913D018115B9F110923D0125
:1024500080E00E947E0D3CCFC03E32E5D30720F4E1
:10246000C03C82E5D807C0CFCE0187579C47029772
:10247000D5CF8D2F8F71843191F248F48D2F8F70CD
:10248000823011F4109213040E94430BC8CF86319E
:10249000F8CFD80116968C91803108F06FCFBFCF5E
:1024A000CE016ECF8A9781F70E94C60AB8CF8C34CE
:1024B0009105D1F38D329240F6CF81E080933D01BA
:1024C00007CF80913D0181110EC0D80115968C91E6
:1024D000FE01E851FC47E730F10508F094C0EE51E9
:1024E000FD4D0C945E224E01B0EE8B1A9108509077
:1024F0000B0480910904582A80910A04582AE8E0C4
:102500008E16910408F052C09E012770332781E097
:1025100090E001C0880F2A95EAF7411409F443C0FE
:10252000582AD8018D919C910E94200421E030E02E
:10253000390102C0660C771C8A95E2F7A090FD0372
:10254000B090FE03312CE32DF0E0EE0FFF1FE050C2
:10255000FF4FE080F180E114F10409F440C0511014
:1025600004C0F701828181111CC0D70113968D919F
:102570009C91149786219721892B99F019968C911B
:10258000982F9770911101C087E0B8E08B169104E5
:1025900008F06FC0411409F468C0869581708111FC
:1025A0006DC03394D0CF80955822BBCF41104AC024
:1025B0008091050490910604C817D90781F4109200
:1025C0000604109205041092010410920204109265
:1025D000030410920404109200041092FF038091EF
:1025E000FD039091FE03009709F46FCFA8E08A16CF
:1025F000910408F0DEC0652D0E94E607811103C03A
:1026000081E00E947E0DF8018581811509F4C1C128
:1026100010920704CE019057839708F076C484E0A7
:1026200090E00E946C229093120480931104FE01AA
:10263000E150F047E232F10508F0EFC0E751FD4DFF
:102640000C945E22D0930604C09305040E94600897
:102650006093010470930204809303049093040434
:10266000109200041092FF035CCF82FB882780F950
:1026700096CF411409F495CF80FF93CFF701C08026
:10268000D180CC15DD0519F4411409F48ACFEA1480
:10269000FB0409F486CFD7011E96ED91FC9130978B
:1026A00021F08081811509F47CCF652DC7010E943E
:1026B000E607811509F475CF212CCC15DD0509F449
:1026C000242CC114D10451F0211008C080910504BC
:1026D00090910604C816D90609F063CF80E00E94E5
:1026E0007E0DF092FE03E092FD0381E08093FC03F7
:1026F000F70186818093FB0321100CC0CD2851F097
:10270000808191819C0124503109213A3105A8F53D
:102710000E949104D7011796CD90DC90C6019A953E
:1027200081159F4110F4E0EEDE22BB24B394C60174
:1027300001978F339E4708F0B12CD7011A96ED917F
:10274000FC911B97309731F01C966D917C9181E044
:102750000995B822B11471F0F701878190850E9424
:1027600072038093FA03C601F8E08F16910440F4D7
:102770000E946C080E94C60A0AC00E94330DCACF8C
:102780000497813A910548F48C2D0E945D04211430
:1027900009F49BCE0E94C60A9BCD0E94C60A8FE315
:1027A0009CE90197F1F700C000008C2D0E94C30C3A
:1027B000EECFFC0120813181C217D30741F44110D3
:1027C00009C01092FC0380E00E947E0D7ECE411471
:1027D00009F47BCEDC0119968C9185FD76CEF3CF82
:1027E00026E241EE61EE0E94E31072CD27E245EE53
:1027F00065EEF9CF26E241EE60EEF5CF27E245EE39
:1028000064EEF1CF26E241EE62EEEDCF27E245EE37
:1028100066EEE9CF28E241E0EBCF809111048160C0
:1028200080931104609111047091120484E090E08F
:102830000E94A0220E94DD0D4BCD80911204886081
:1028400080931204EFCF809111048260E9CF8091D0
:1028500011048460E5CF809111048860E1CF8091FC
:1028600012048160EDCF809112048260E9CF8091E3
:1028700011048061D5CF809111048062D1CF809105
:1028800011048064CDCF0E94DD0D80911104806819
:10289000C7CF809111048C60C3CF809112048360F4
:1028A000CFCF809111048E7FBBCF80911204877FA0
:1028B000C7CF809111048D7FB3CF809111048B7F9E
:1028C000AFCF80911104877FABCF809112048E7FB0
:1028D000B7CF809112048D7FB3CF809111048F7E8A
:1028E0009FCF809111048F7D9BCF809111048F7BAE
:1028F00097CF0E94DD0D809111048F7791CF809149
:102900001104837F8DCF809112048C7F99CF8091A9
:10291000110482FB992790F921E0922790FB82F91C
:1029200090FB83F97DCF80911204982F909590FBB6
:1029300080F990FB81F984CF90911104892F8F7BCE
:1029400096FF80646DCF0E94DD0D90911104892F58
:1029500097FB87F9805864CF61E08EE090E00E9499
:10296000822260CF60E0F9CF90911104892F8F7E91
:1029700094FF806155CF90911104892F8E7F90FF35
:1029800081604ECF90911204892F877F93FF8860DA
:1029900057CFC631DC4719F580910804811108C072
:1029A00089E20E949104F6CE85E30E945D04F2CE96
:1029B00085E3F7CFCA352CE7D20709F486C008F0C3
:1029C0005DC0C1308CE7D80709F47DC0C3309CE7F7
:1029D000D90709F472C0C115DC4709F461C0F801D8
:1029E0008581E080F180811509F473C0C7010E94E0
:1029F0000607C82F682FC7010E94EA03B7018C2F72
:102A00000E94DE040E94EF05D82FC92FD801159629
:102A1000DC9015971696CC90C2942FE0C22280913C
:102A2000100487708115F1F0ED2CD114E1F0892F9D
:102A3000807F803451F080E28D0F883098F0C11093
:102A400004C0892F807E803269F08091120482FF59
:102A500009C082E00E94BE04809110048770EE24B9
:102A6000E3948111E12CEC2FE295EF70C03C08F06B
:102A70009BC0F0E0E55FFC4D0C945E22CB35BCE7DB
:102A8000DB0729F1CC35DC4709F0A9CF809112048E
:102A900082FB882780F991E089270E94AF0A9FCFA7
:102AA0000E94DD0DFFEF24E33CE0F1502040304078
:102AB000E1F700C000000E94BA086FEF7FEF80E0EE
:102AC00090E00E94A0220E940C0E81E0E6CF80E000
:102AD000E4CFC7010E942004C82F90CFBC2FBF7045
:102AE000FB2EC03118F0F29490EFF922D114B9F016
:102AF000F11469F080E28D0F883010F0D11109C017
:102B0000809109048F29809309040E94C60A8D2FA1
:102B100043C0809113048F2980931304F6CF8D2F27
:102B20000E94330DF11409F43FC080E28D0F88300C
:102B300010F0D11104C08F2D0E94D60406C0F0946D
:102B4000809113048F21809313040E94C60A2CC025
:102B5000EC2FEF70FE2EC07FC03219F0F29480EFA0
:102B6000F822D11549F0D13009F46CC0D11409F420
:102B700078C0C114D1F1CBCF8091120482FD31C055
:102B8000D11469F0F11439F0809109048F298093F0
:102B900009040E94C60A80E00E94C30C05C080E0C0
:102BA0000E94330DF110C7CFE114B1F080911004F1
:102BB00080FD12C0D80115961C9286958695869543
:102BC0000E94C803C8010E943F118091100486959D
:102BD000869586950E94D80360E0C8010E943A0756
:102BE00088CBD11499F0C11004C08F2D0E94280BFE
:102BF000DBCFF1E0CF12D8CF80910A049F2D98232C
:102C0000F91691F28F2980930A04CECFC110CCCF50
:102C10008F2D0E94320B90910A048F2D89238115EC
:102C200029F08F2D8095892380930A0480910B04CD
:102C30009F2D9823911509F4B7CFF094F822F092C4
:102C40000B04B2CFD11429F026E0C21608F0ACCFA5
:102C5000CCCF35E0C31608F0A7CF8F2D0E94320BE2
:102C6000A3CFC114D1F3D93349F48FEF97EEA3E08A
:102C700081509040A040E1F700C000008D2F0E94DD
:102C8000330D92CF8C2F869586958370811569F0D0
:102C9000813009F089CF8D2F9C2F9370D11002C005
:102CA00080E090E00E943A087FCF8D2F9C2F937098
:102CB000D11002C080E090E00E94140875CF6D2D05
:102CC0008D2F0E94FE0B70CF8C2F8370811144C01A
:102CD000D1102FC04D2F429546954770440F440F99
:102CE0002D2F2F7030E0042E02C0220F331F0A94C4
:102CF000E2F780E090E0D4FF09C08FE090E002C0EE
:102D0000880F991F4A95E2F780959095C695C695CC
:102D1000C370C230C1F0C33099F040910C0450919F
:102D20000D04C13059F0822B932B842395230E94EC
:102D3000BC030E9407080E94AC0336CF242B352B1E
:102D4000822B932BF4CF822B932B20910C04309168
:102D50000D0482279327EBCFD11491F1C0FFE9CF67
:102D60004D2F429546954770440F440F2D2F2F70DD
:102D700030E0042E02C0220F331F0A94E2F780E0F5
:102D800090E0D4FF09C08FE090E002C0880F991F47
:102D90004A95E2F780959095C695C695C370C23066
:102DA000C1F0C33099F040910E0450910F04C1302E
:102DB00059F0822B932B842395230E94C103B9CF12
:102DC000823008F4B6CFCCCF242B352B822B932B1B
:102DD000F4CF822B932B20910E0430910F04822785
:102DE0009327EBCFCF70D11439F08C2F0E94C803FA
:102DF0008D2F0E94280B9DCF8D2F0E94320B8C2F80
:102E00000E94D80396CFD23FB1F170F4D03FC9F001
:102E1000D13F91F0D11409F464C0C11409F45EC02B
:102E20008D2F0E94C30C85CFD33F61F1D43F91F722
:102E30008091120482FD34C08C2F8F71D11401F364
:102E40001EC0D114A9F0B5E0CB1608F072CFCF7137
:102E500081E090E0FC0102C0EE0FFF1FCA95E2F78F
:102E6000EF0180910E0490910F048E279D27A5CF2E
:102E7000F6E0CF16EACF8C2F8F71D110C1CF0E9410
:102E8000C80357CF80E090E0D11409F496CFCF71FA
:102E900081E090E002C0880F991FCA95E2F78DCFBC
:102EA000D11489F0CF718C2F0E94C8038091120435
:102EB00082FF07C08C2F880F880F880F8360809354
:102EC00010048C2FDCCF81E00E94BE0422E0C216E9
:102ED00008F42FCF82E00E94BE042BCF8C2F8F717D
:102EE000CECFC11479F0D93349F43FEF87EE93E0A8
:102EF000315080409040E1F700C000008D2F0E94CB
:102F0000330D17CF8C2F8F717BCFC631BCE7DB071A
:102F100009F050CD809109048A7A91E0811101C0B5
:102F200090E09093080481113FCD89E23ECD8091DD
:102F30005404803178F480915304811559F0E09164
:102F400015042091140430914F0440914E0457E031
:102F50002E1301C008956E2F70E05E9FF0011124C2
:102F6000DF01AA5EBB4F14968C911497811561F115
:102F700011968C911197831327C08C91841324C0D0
:102F800015968C91159781111FC012968D919C9169
:102F9000A0915004B09151048A1B9B0B883C910571
:102FA00098F4809154048F70806180935404E45E9F
:102FB000FB4F80818F70806180838EE494E00E945B
:102FC0003F110E9453040895FB013196E770C0CF72
:102FD000ADE0B0E0EEEEF7E10C9418228C0186E053
:102FE000F801DE01189601900D928A95E1F7F8013B
:102FF000E080F580A280B380C4808EE4882E84E0D7
:10300000982E70905204711020C0C114D9F0F114A0
:1030100009F419C1C8010E946907811509F413C197
:1030200087E0F801D40101900D928A95E1F7F1E073
:10303000CF1206C080914E0490914F040E945A070F
:103040000E949717FF24F39451C0D09053048091AD
:103050005004909151049501281B390BD11409F4A7
:10306000BAC0283C310508F090C0C11459F39091C2
:103070004F04C18080915404803108F058C0C912B7
:1030800014C090914E049E1110C0F1104AC08F7070
:103090008061809354048EE494E00E943F118091FB
:1030A0005404F8018683F12C21C0F1103AC040E0AD
:1030B0006C2D8E2D0E94200A40E06C2D8E2D0E94DA
:1030C000200AF82E8111EFCF888599850E945A0732
:1030D000292F22952F70903470F49F702230A0F029
:1030E0009115B1F0F8019681903190F48F2D2D96C5
:1030F000EDE00C9434222A5F2F70223068F0C80172
:103100000E943F11FD2CF2CF911511F0811571F342
:10311000805E883058F3F3CF803F40F3815F833087
:10312000F9CF80915404816080935404BCCFC912BC
:1031300007C090914E049E1103C0F11409F46CC0B5
:10314000C8010E946907811509F47DC0F11409F4D2
:103150007AC080915404803278F020914E043091EE
:103160004F043A832983BC82AB827D821E828F8387
:10317000CE0101960E943F1187E0F801AEE4B4E071
:1031800001900D928A95E1F75BCF809154048031D4
:1031900050F48EE494E00E943F1187E0F401119214
:1031A0008A95E9F780CFC11409F44CCF20914F04E0
:1031B00091812913C5CF90914E049E11C1CFF1107A
:1031C000BFCF8683C8010E943F1187E0F4011192AE
:1031D0008A95E9F737CF283C3105F8F6C11409F490
:1031E00031CFF11481F190914F048181981321C066
:1031F00080914E048E111DC08091540480FD10C03A
:10320000803170F08683807F803F39F08681982FEF
:10321000907F905F8F70892B8683C8010E943F1139
:1032200087E0F801AEE4B4E001900D928A95E1F7F1
:1032300009CFC8010E94690781119ECF8091540473
:10324000816080935404C8010E943F11FBCEABE122
:10325000B0E0EDE2F9E10C9422224E8B5F8B688F97
:10326000798F8A8F9B8F9111109213041D8A86E0AB
:10327000FE017696DE011F9601900D928A95E1F788
:103280008B89811529F061E0CE010F960E943A07E3
:1032900087E0FE013F96DE01189601900D928A9517
:1032A000E1F7CE0108960E94E81781112AC087E055
:1032B000FE013896DE01119601900D928A95E1F794
:1032C00020911404409115048C858115D1F030E0D3
:1032D000C90101968770992748171906E9F097E008
:1032E000929FD001939FB00D1124AA5EBB4FFE01A7
:1032F000319601900D929A95E1F7809314040E9403
:10330000530417E08091150490911404891312C09E
:103310006B96E3E00C943E220E94DD0D10921404A3
:103320001092150487E0EEE4F4E0DF011D928A9527
:10333000E9F7E7CF189FC00111248A5E9B4F0E94D6
:10334000E817811529F38091150490E001968770A4
:10335000992780931504D6CFA6E0B0E0E2EBF9E11F
:103360000C9421220E94CA0B8C01809198039091A9
:1033700099038017910779F019821A820E94CA0B6B
:10338000BC0149815A8180E090E00E942719109386
:103390009903009398032696E4E00C943D22ACE058
:1033A000B0E0E5EDF9E10C9413228091550481150C
:1033B00071F08091290390912A030196811520E2F2
:1033C000920708F01DC190932A0380932903FFE51B
:1033D0008F2EF3E09F2ECC24C394D12C412C512C62
:1033E000F401619071904F01129212927F01F3E00B
:1033F0005F1609F41EC124E0521608F00EC181E0E8
:10340000581609F410C192E0591609F40FC1849AB4
:103410008C98F1E0F50DFA8380915504811509F43B
:103420000EC18FE891E00197F1F700C00000809194
:103430005504A12CB12C811126C09FEF998304E67D
:1034400010E021E030E0AE014F5F5F4F62E180E4C9
:103450000E94B0219C0191E0232B09F490E080911F
:103460005504890F80935504898180950E949C039F
:10347000982F96959C778370892BB82EB694A82E9A
:10348000A794AA24A79479B169B139B196B129B1A9
:103490005CB183B176957695769541E0742770FBA3
:1034A000222420F8312CF10176E0EE0FFF1F7A95EF
:1034B000E1F766956695642761706B831C826B816A
:1034C0007C81A5E0660F771FAA95E1F76E2B7F2B15
:1034D00082958F70842781708D831E82ED81FE819D
:1034E0006E2B7F2B32953F70342731703F831886C7
:1034F000EF81F885B4E0EE0FFF1FBA95E1F76E2B70
:103500007F2B9295969596959370942791709987B5
:103510001A8689859A8533E0880F991F3A95E1F7D5
:10352000862B972B022E000C330B209530952227EB
:10353000330F221F3327220F331F220F331F822BFB
:10354000932B5295569556955370542751705B871F
:103550001C862B853C85220F331F822B932B8A29B7
:103560009B29F70191838083F3E05F1609F489C0FA
:1035700024E0521608F076C0541609F47AC082E0AE
:10358000581609F47AC084988C988C9881E0F701D9
:10359000208131812615370509F480E0482AFFEFA4
:1035A000CF1ADF0A2A812630B1F5411409F471C01F
:1035B00081E0809328030E94CA0B90932703809395
:1035C000260380912603909127030E94D41005972B
:1035D00008F463C04CE050E06FE573E08EE693E0E2
:1035E0000E94B622892B49F08CE0EFE5F3E0AEE6CD
:1035F000B3E001900D928A95E1F7109228034DC037
:1036000010922A0310922903109255040E94930BE2
:103610000E94790BDCCE5A80E3CEE4E05E120CC04F
:10362000219A2998F6CE859A8D98F3CE869A8E980F
:10363000F0CE879A8F98EDCE229A2A98EACE61E052
:1036400070E00C2C01C0660F0A94EAF7609581E0E7
:103650000E94510B91E0982780915504890F809327
:103660005504E5CE94E0591210C021982998299864
:103670008DCF85988D988D9889CF86988E988E98C5
:1036800085CF87988F988F9881CF22982A982A98EB
:103690007DCF80912803811194CF8091F60381150D
:1036A000B1F08091F4039091F5030E94D4104F97EC
:1036B00070F060E070E081ED0E94660D8091F4038F
:1036C0009091F5034E969093F5038093F4038091C7
:1036D000F3038115B1F08091F1039091F2030E9400
:1036E000D4104F9770F060E070E082ED0E94660D9C
:1036F0008091F1039091F2034E969093F2038093A0
:10370000F1032C96E2E10C942F22CDB7DEB72A9775
:103710000FB6F894DEBF0FBECDBF85B7806885BFFA
:1037200085B7806885BF84B7877F84BF0FB6F8945C
:10373000A89580916000886180936000109260007D
:103740000FBE80E890E00FB6F894809361009093EC
:1037500061000FBE81E997E0909305038093040315
:103760000E9476090E94C5098091E20084608093DE
:10377000E200789480916D03811599F08091E900C1
:103780001091EC001795112717958F70182B109238
:10379000E9008091E80083FD0E94220E1F701093C3
:1037A000E90082E084BD93E095BD9AEF97BD8093D8
:1037B0006E0080915E0381110EC00E9496202FEF53
:1037C00043ED80E3215040408040E1F700C000001D
:1037D00081E080935E032198299822982A98849802
:1037E0008C9885988D9886988E9887988F98299828
:1037F0002A988C988D988E988F980E94930B6E982B
:10380000769A52985A9A53985B9A54985C9A579819
:103810005F9A3E98469A24982C9A0E94790B8CE0E5
:10382000EFE5F3E0DF01282F1D922A95E9F7EEE698
:10383000F3E0DF011D928A95E9F780E090E00E94B5
:103840006C22863E9E4F09F464C066EE7EEF80E0F7
:1038500090E00E94A02260E082E090E00E9482223C
:1038600060E083E090E00E94822210920D041092AA
:103870000C0460E074E184E090E00E94A02260E02B
:1038800086E090E00E9482226FEF87E090E00E9445
:10389000822240E050E0BA0188E090E00E94942249
:1038A00060E084E290E00E94822260E087E190E0A4
:1038B0000E94822260E08CE090E00E94822260E020
:1038C0008DE090E00E94822219821A821B821C8263
:1038D0001D821E821F82188648E050E068E170E079
:1038E000CE0101960E94722240E050E0BA0180E2CF
:1038F00090E00E94942240E050E0BA018FE090E016
:103900000E94942240E050E0BA0183E190E00E94DE
:10391000942282E090E00E94642280937A0384E003
:1039200090E00E946C2290931204809311040E94F4
:10393000CF19EFEFF6E721E0E150F0402040E1F74A
:1039400000C000000E94CF1980916E0380FF08C064
:103950006FEF7FEF80E090E00E94A0220E94BA0803
:1039600083E090E00E94642290E00E94BC0380917A
:103970000E0490910F040E943903259A2D98269ADF
:103980002E98239A2B980E9427030E942A030E94B4
:103990002D030E9430030E9433034FEF80E792E033
:1039A000415080409040E1F700C00000259A2D9AD8
:1039B000AFEFB0E7E2E0A150B040E040E1F700C077
:1039C0000000269A2E9AFFEF20E742E0F1502040B7
:1039D0004040E1F700C00000239A2B9A8FEF90E758
:1039E000A2E081509040A040E1F700C000000E949A
:1039F0002703BFEFE0E7F2E0B150E040F040E1F72D
:103A000000C000000E942A032FEF40E782E021500F
:103A100040408040E1F700C000000E942D039FEF6E
:103A2000A0E7B2E09150A040B040E1F700C0000034
:103A30000E9430030E9427030E942A030E942D0344
:103A40000E94300384E391E090939B0380939A0358
:103A5000CE01019648E1642E712C33243394222444
:103A6000239489879A8780916D03853059F48091DA
:103A70006D03853009F45CC00E94DD0D0E940708CB
:103A80000E94AC030E94CF192BE7A22E23E0B22E96
:103A90003EE6832E33E0932ED401F501219131913E
:103AA0008D919D9143E0E738F40709F494C02817FD
:103AB0003907A1F3512CD4010D911D914D01F50150
:103AC000C190D1905F01C016D10659F1C026D12610
:103AD000412CEE24E394F12CC6018E219F21892BE9
:103AE000B1F049825A820E94CA0B9C838B832D823B
:103AF00091E0970120233123232B09F490E09E834A
:103B000049815A816B817C818D810E942719439460
:103B1000EE0CFF1CFEE04F12DFCFF5013297118350
:103B20000083539426E05212C6CF0E94600859C009
:103B300080916D03843029F180E00E94AC031092E3
:103B40006B03E0E40FB6F894A895609260000FBE96
:103B5000E093600083B7817F846083BF83B7816017
:103B600083BF7894889583B78E7F83BF0FB6F89410
:103B7000A895809160008861809360001092600039
:103B80000FBE80916C03811509F471CF0E94CF198B
:103B9000EEE6F3E081919191892B29F423E0EA3755
:103BA000F207C1F764CF80E189BD82E189BD09B424
:103BB00000FEFDCF8091D8008F7D8093D80080914A
:103BC000E00082608093E0008091E00081FDFCCF06
:103BD0000E94DD0D4CCF2817390709F06BCF0E94EA
:103BE000AC198091FF0390910004892B09F44EC019
:103BF00040918F03509190036091910370919203D3
:103C00002FB7F8948091870390918803A09189033E
:103C1000B0918A032FBF841B950BA60BB70B409165
:103C20008B0350918C0360918D0370918E038417E8
:103C30009507A607B70750F10091FF031091000404
:103C4000C8010E9472039801205E310928303105B5
:103C500020F00115110509F011C10E94280B802FD9
:103C60000E94C30C109200041092FF0310928F0365
:103C700010929003109291031092920310928B0372
:103C800010928C0310928D0310928E038091F70393
:103C9000811569F00E94CA0B2091F8033091F90355
:103CA000821B930B8F3F9F4710F40E94430B86E0CB
:103CB000EBEEF3E0A985BA8501900D928A95E1F7C4
:103CC000E090EC031091ED03F090EE03D090EF0341
:103CD0000091F0031092ED031092EE031092EF03A7
:103CE0001092F003812F8F29811509F445C080912E
:103CF0009503909196030E94D4109C018091E90352
:103D0000811509F4C9C025313105B0F18F3F19F093
:103D10008F5F8093E903111559F00E94A10791E08C
:103D200011160CF09FEF899F802D11248093ED03D5
:103D3000F11459F00E94A10791E01F140CF09FEFBD
:103D4000899F802D11248093EE038091ED038115CE
:103D500099F0C090EE03C11479F00E94930781118D
:103D600001C081E08093ED038C2D0E9493078115A3
:103D700009F487C08093EE03802F8D29811509F403
:103D800045C080919303909194030E94D4109C01AC
:103D90008091E803811509F47AC021353105B0F12D
:103DA0008F3F19F08F5F8093E803D11459F00E9480
:103DB000C10791E01D140CF09FEF899F802D112405
:103DC0008093EF03011559F00E94C10791E010168E
:103DD0000CF09FEF899F802D11248093F003809138
:103DE000EF03811599F0D090F003D11479F00E947F
:103DF0009307811101C081E08093EF038D2D0E9414
:103E00009307811509F440C08093F0038091EC037F
:103E10008E1119C08091ED03811511F0181313C094
:103E20002091EE03211511F02F110DC09091F00398
:103E3000911511F0091307C03091EF03311103C040
:103E4000822B892B81110E94D60B86E0E985FA85A9
:103E5000ABEEB3E001900D928A95E1F70E9407085E
:103E6000182F80919703181709F4FDCD109397032D
:103E70000E946008812F0E94AC03F5CD0E94390B8F
:103E8000EECE3092EE0378CF3092F003BFCF2B30DE
:103E9000310508F087CFBACF2B30310508F038CF85
:103EA0006BCF78941F921FB61F9211248F939F930C
:103EB000AF93BF938091870390918803A09189036A
:103EC000B0918A030196A11DB11D80938703909341
:103ED0008803A0938903B0938A03BF91AF919F9108
:103EE0008F911F901FBE1F9018951F920F920FB6B3
:103EF0000F9211242F933F934F935F936F937F9370
:103F00008F939F93AF93BF93EF93FF938091E100C3
:103F100082FF09C08091E20082FF05C08091E1002C
:103F20008B7F8093E1008091DA0080FF24C0809134
:103F3000D80080FF20C08091DA008E7F8093DA0065
:103F40008091D90080FF9BC080E189BD82E189BD5D
:103F500009B400FEFDCF81E080936D0380913003B2
:103F6000811109C00E9476090E94C5098091E20072
:103F700084608093E2008091E10080FF17C080910F
:103F8000E20080FF13C08091E2008E7F8093E20008
:103F90008091E20080618093E2008091D80080628D
:103FA0008093D80019BC85E080936D038091E10077
:103FB00084FF29C08091E20084FF25C080E189BD93
:103FC00082E189BD09B400FEFDCF8091D8008F7DCC
:103FD0008093D8008091E1008F7E8093E1008091F2
:103FE000E2008F7E8093E2008091E2008160809306
:103FF000E20080912F03811509F447C084E080938B
:104000006D0380916D038091E10083FF27C0809153
:10401000E20083FF23C08091E100877F8093E1006D
:1040200082E080936D0310922F038091E1008E7FD8
:104030008093E1008091E2008E7F8093E200809186
:10404000E20080618093E20042E060E080E00E9454
:1040500095098091F00088608093F000FF91EF91C6
:10406000BF91AF919F918F917F916F915F914F9190
:104070003F912F910F900FBE0F901F90189519BC74
:1040800010926D031092300376CF8091E30087FF8A
:1040900002C083E0B4CF81E0B2CF1F920F920FB67F
:1040A0000F921124FF920F931F932F933F934F93DF
:1040B0005F936F937F938F939F93AF93BF93CF93B0
:1040C000DF93EF93FF9309EE10E0F8018081C09138
:1040D000EC00C795CC27C7958F70FC2EF82A10826C
:1040E000C0EFD0E08881877F888378940E94220E79
:1040F000F8011082888188608883CF2DCF70C083BB
:10410000FF91EF91DF91CF91BF91AF919F918F91EF
:104110007F916F915F914F913F912F911F910F91DF
:10412000FF900F900FBE0F901F9018951092B9003E
:104130008CE08093B8000895A0E0B0E0E2EAF0E2FD
:104140000C941A22B82EEB010E94CA0B6C01EE24CB
:10415000E394F12CC431D10560F025E0E22EF12C7E
:10416000CF3FDC0731F0CE0164E170E00E94FF2117
:104170007B0184EAA82E94E8992E1092BC00A092AC
:10418000BC000E94CA0B182F092F8091BC0087FF2A
:104190000CC08091B900887F8830F9F08091B90017
:1041A000887F8031D1F00FEF08C0812F902F0E94BF
:1041B000D410E816F90648F70EEF1FEFCF3FDC07E3
:1041C000E1F2C6010E94D410C817D907B0F6C801A1
:1041D000CDB7DEB7EBE00C943622B092BB009092E4
:1041E000BC000E94CA0B182F092F8091BC0087FFCA
:1041F0000AC02091B900287F283111F0203499F6A7
:1042000000E010E0E4CF812F902F0E94D410E81638
:10421000F90658F7D1CF0F931F93CF93DF93EB019C
:104220008093BB0084E88093BC000E94CA0B182FC7
:10423000092F8091BC0087FF11C02091B900287F11
:1042400081E090E0283211F480E090E09195819532
:104250009109DF91CF911F910F910895CF3FDC0716
:1042600041F3812F902F0E94D410C817D90708F767
:104270008EEF9FEFEECF0F931F93CF93DF93EC0161
:1042800084EC8093BC000E94CA0B182F092F8091E8
:10429000BC0087FF08C08091BB0090E0DF91CF9108
:1042A0001F910F910895CF3FDC0789F3812F902F45
:1042B0000E94D410C817D90750F78EEF9FEFEECFAA
:1042C0000F931F93CF93DF93EC0184E88093BC009E
:1042D0000E94CA0B182F092F8091BC0087FF08C0CD
:1042E0008091BB0090E0DF91CF911F910F910895D5
:1042F000CF3FDC0789F3812F902F0E94D410C8177D
:10430000D90750F78EEF9FEFEECFA0E0B0E0EBE8DB
:10431000F1E20C941D22C62F6A017901B8010E94B6
:104320009C209C0197FD0DC0B8018C2F0E940B2191
:104330009C01E601EC0CFD1CCE15DF0511F037FFEA
:1043400009C084E98093BC00C901CDB7DEB7E8E0BD
:104350000C943922B80189910E940B219C01ECCF69
:10436000A0E0B0E0E6EBF1E20C941D22D82EC62EC0
:10437000EA017901B8010E949C209C0197FD17C0B9
:10438000B8018C2D0E940B219C0197FD10C0B80133
:104390008D2D81600E949C209C01C12CD12C81E03C
:1043A000E81AF108CE14DF0480F037FF1EC084E95C
:1043B0008093BC00C9011216130614F480E090E04B
:1043C000CDB7DEB7E8E00C94392237FDF0CFC80155
:1043D0000E943B219C0197FD04C0FE01EC0DFD1DD8
:1043E00080838FEFC81AD80ADDCFC8010E946021F0
:1043F0009C0197FDDCCFCE0DDF1D8883D8CFAA1B93
:10440000BB1B51E107C0AA1FBB1FA617B70710F0BF
:10441000A61BB70B881F991F5A95A9F780959095F1
:10442000BC01CD0108952F923F924F925F926F92FF
:104430007F928F929F92AF92BF92CF92DF92EF9234
:10444000FF920F931F93CF93DF93CDB7DEB7CA1BB5
:10445000DB0B0FB6F894DEBF0FBECDBF09942A88E0
:10446000398848885F846E847D848C849B84AA8488
:10447000B984C884DF80EE80FD800C811B81AA8115
:10448000B981CE0FD11D0FB6F894DEBF0FBECDBFE0
:10449000ED01089597FB072E16F4009407D077FDE1
:1044A00009D00E94FF2107FC05D03EF4909581952C
:1044B0009F4F0895709561957F4F0895EE0FFF1FF0
:1044C0000590F491E02D0994F999FECF92BD81BD3C
:1044D000F89A992780B50895A8E1B0E042E050E04D
:1044E0000C94A822DC01A40FB51F4150504048F0A5
:1044F000CB01840F951F2E910E9483224150504082
:10450000D0F70895262FF999FECF92BD81BDF89A74
:10451000019700B4021639F01FBA20BD0FB6F89407
:10452000FA9AF99A0FBE08950396272F0E948322C4
:104530000E948222252F0E948322242F0C94832202
:104540000196272F0E9483220C948222DC01CB014A
:10455000FC01F999FECF06C0F2BDE1BDF89A319693
:1045600000B40D9241505040B8F70895FB01DC01B2
:1045700004C08D910190801921F441505040C8F73A
:10458000881B990B0895F894FFCF0A0C120C150C98
:104590001B0C300C300C300C300C300C300C300C50
:1045A000300C1E0C230C270C2D0C3E0C440C480C1C
:1045B000FF0E260F2C0F260F2C0F7F0FA10F2C0F95
:1045C0009F10AC10FA13FE13F013F6130214061426
:1045D0000A145114BB145914231427145D142B14FA
:1045E00061146D143714B4143B1471143F14751412
:1045F0009C1443147914A31449147F1487142F14A2
:104600006514331469144D1483149314AC14B21448
:104610001D145514C2146E156E15A815A815421652
:0E4620005F16D415D4156416F216031703178F
:10462E00BE02AE029E028E027E026E025E024E023C
:10463E003E022E021E020E02FE01EE01DE01CE0130
:10464E00BE01AE019E018E017E016E015E014E0124
:10465E003E010000CB08790AA10AA80A0101270031
:10466E0022020000222502070000000000002600A2
:10467E00220200002230000700000000000025008A
:10468E002202000022300207000000000000240079
:10469E002202000022270207000000000000230073
:1046AE0022020000222E000700000000000022005F
:1046BE002202000022240207000000000000210058
:1046CE002202000022260207000000000000200047
:1046DE0022020000222F02070000000000001F002F
:1046EE0022020000222F00070000000000001E0022
:1046FE0022020000222E02070000000000001F020E
:10470E0022FFFF00222302070000000000003100FC
:10471E0022FFFF00222002070000000000003102ED
:10472E0022FFFF00223500070000000000001E02DD
:10473E0022FFFF00222202070000000000002502D7
:10474E0022010000222700070000000000003000B8
:10475E0022010000222600070000000000003002A7
:10476E0022010000222500070000000000002702A1
:10477E0022010000222400070000000000002E008D
:10478E002201000022230007000000000000240286
:10479E002201000022220007000000000000260275
:1047AE0022010000222100070000000000002F025D
:1047BE0022010000222000070000000000002F0050
:1047CE0022010000221F00070000000000002E0240
:1047DE0022010000221E000700000000000021023E
:1047EE0022FFFF0022350207000000000000E20059
:1047FE00E900EA00B500B600B700CD008301CC0099
:10480E008A0192019401210223022402250226022A
:10481E0027022A02B300B4006F0070009F01CB0183
:04482E009F02A00243
:00000001FF
